:020000040000fa
:080000000402040000000000ee
:020000040000fa
:080400000040da000000fe00dc
:020000040000fa
:1000080000020000000200000002000000020000e0
:1000180000020000000200000002000000020000d0
:1000280000020000000200000002000000020000c0
:1000380000020000000200000002000000020000b0
:10004800000200000002000000020000c0100000d2
:10005800021200000002000000020000000200007e
:100068000002000000020000000200000002000080
:10007800b0100000000200000002000000020000b2
:100088000002000000020000000200000002000060
:10009800000200000002000060110000321200009f
:1000a8000002000000020000000200000002000040
:1000b8000002000000020000000200000002000030
:1000c8000002000000020000000200000002000020
:1000d8000002000000020000000200000002000010
:1000e8000002000000020000000200000002000000
:1000f80000020000000200000002000000020000f0
:1001080000020000000200000002000000020000df
:1001180000020000000200000002000000020000cf
:1001280000020000000200000002000000020000bf
:1001380000020000000200000002000000020000af
:10014800000200000002000000020000000200009f
:10015800000200000002000000020000000200008f
:10016800000200000002000000020000000200007f
:10017800000200000002000000020000000200006f
:10018800000200000002000000020000000200005f
:10019800000200000002000000020000000200004f
:1001a800000200000002000000020000000200003f
:1001b800000200000002000000020000000200002f
:1001c800000200000002000000020000000200001f
:1001d800000200000002000000020000000200000f
:1001e80000020000000200000002000000020000ff
:1001f80000020000000200000002000000020000ef
:1002080000020000000200000002000000020000de
:1002180000020000000200000002000000020000ce
:1002280000020000000200000002000000020000be
:1002380000020000000200000002000000020000ae
:10024800000200000002000000020000000200009e
:10025800000200000002000000020000000200008e
:10026800000200000002000000020000000200007e
:0c02780000020000000200000002000074
:020000040000fa
:1004080020020400000000000000eb000007780054
:100418000c000900002f78000007eb000000060020
:10042800010821008018eb00804321000008e1004a
:10043800fcff3a00000006000fe02100e0ef210079
:1004480000018800080202000000000014020200f7
:1004580000000000be09020000000000813e2000ec
:10046800803e2000a4120200000000008100e90084
:10047800fbff3a00f404020000000000080202003a
:1004880000000000be090200000000008a0302000c
:1004980000000000bc09020000000000780802000b
:1004a800000000007c09020000000000007122002a
:1004b800761202000000000072080200000000002e
:1004c800000902000000000040062000801202001f
:1004d800000000002a050400000000000060fe0083
:1004e80001e022002000200080187800b00a2000d7
:1004f8009802020000000000d00c200098020200c0
:100508000000000001e0220060040200000000007a
:10051800400620008012020000000000efff3700b4
:1005280080187800000006000100a70004003700ca
:10053800f00fb200800878008100e8000000060093
:100548000100a100f00fb2000080fd0091087000ca
:100558008180e800000006000008200001202a0031
:1005680002e02200a61302000000000000000000c4
:10057800000000000000000001202a00c61302004d
:100588000000000000000000000000000000000063
:100598000008200001202a0002e02200a613020021
:1005a8000000000000000000000000000000000043
:1005b800070020000608200001e0220087187800c4
:1005c8008703e8000603e900fcff3a00000000008a
:1005d800000000000000000000202a00708588004c
:1005e8000008200080858800061402000000000032
:1005f80000000000000000000000000000082000cb
:1006080001202a0002e02200a613020000000000d8
:1006180000000000000000000000000000000600cc
:10062800540eaa00540eaa00540eaa00540eaa0092
:10063800540eaa00540eaa00540eaa00540eaa0082
:100648000060fe00f6ff3700604020000048880088
:10065800d0002000104888008038210030488800e9
:100668000071220070088800a0002000801202009b
:1006780000000000fcff37000060fe000701ae002c
:10068800540ea9000701af00540ea800faff370066
:100698002004200020118800a00020008012020001
:1006a80000000000faff370015cea800b00a2000ad
:1006b800a0118800a00020008012020000000000a5
:1006c800f9ff370000b02a00208888003012200087
:1006d800d09a880070562400e09a8800b09a2800c2
:1006e800f09a8800f0de2c00009b880080462200eb
:1006f800109b8800c60e020000000000a000200029
:100708008012020000000000eeff37000e0ea80065
:100718000e2ea8000000200000198800000020000c
:1007280010198800f000200020198800000020001f
:1007380090198800f000200040198800000020006f
:10074800301988000000200070198800000020007f
:100758008019880021e3a8000000060015ceae002d
:1007680000000600d0f1ae00000006003302ae0023
:1007780000000600d0f1a90015cea900000006006f
:100788000060fe00d031af00fdff3700000006001a
:10079800310078000000e00001003a000000060087
:1007a800020820000200e1000100360000000600f7
:1007b800b0a1880081017800d032ef00a0002000ad
:1007c8006096880083007800809680008100400051
:1007d8000100a10011007800d012af000080fd00d8
:1007e800f00fb2000001780000f02700020170004d
:1007f8000201d20001a02200809680008100400002
:100808008100400082087800d032ec003634ed00d8
:10081800eaff3a00ce32ef00ca32ef00cd71a800ed
:1008280000000600310078000000e00001003a00f6
:1008380000000600020820000200e1000100360066
:1008480000000600b0a1880081017800f032ef00b6
:10085800a0002000609788008300780080978000bf
:10086800810040000100a10011007800f012af00e3
:100878000080fd00f00fb2000001780000f02700b2
:10088800020170000201d20001b0220080978000ae
:10089800810040008100400082087800f032ec00be
:1008a8003634ed00eaff3a00ee32ef00ea32ef00ac
:1008b800cd91a80000000600310078000000e0009b
:1008c80001003a0000000600020820000200e100d2
:1008d8000100360000000600b0a188008101780000
:1008e8001033ef00a0002000609888008300780093
:1008f80080988000810040000100a100110078006c
:100908001013af000080fd00f00fb2000001780066
:1009180000f02700020170000201d20001c022008d
:1009280080988000810040008100400082087800a3
:100938001033ec003634ed00eaff3a000e33ef00d6
:100948000a33ef00cd31a80000000600310078001e
:100958000000e00001003a00000006000208200044
:100968000200e1000100360000000600b0a1880086
:10097800810178003033ef00a000200060998800e2
:100988008300780080998000810040000100a10068
:10099800110078003013af000080fd00f00fb200a6
:1009a8000001780000f02700020170000201d20067
:1009b80001d0220080998000810040008100400021
:1009c800820878003033ec003634ed00eaff3a0054
:1009d8002e33ef002a33ef00ce71a8000000060086
:1009e800f6b0ef008001eb000000eb00128eaf00c4
:1009f8000000a000030eaf000010a00043eeaf00ff
:100a08000020a00043ceaf000030a00043aeaf00ee
:100a18000040a000f610e30003003200b087880011
:100a28008001eb00f0ff3700803e2000a412020096
:100a3800000000008301e800401f20000018e100ca
:100a480001003100e8ff370000000600d191a8003e
:100a5800d1b1a800d2080200000000000060fe002a
:100a6800f0060200000000004e0502000000000031
:100a7800b2030200000000004a0602000000000065
:100a8800420a0200000000009e0b02000000000065
:100a9800f2ff3700a131ae0000000600ae31ec00d5
:100aa80080002000ae11e30001003900ae31ef00f4
:100ab800708d80000006010007003700090037002c
:100ac8000900370011003700170037001f003700f2
:100ad8001f003700250037002a130200000000001d
:100ae8000000060000000600b431ec0040002000c1
:100af800b411e3000100310000000600b431ef003a
:100b08001a0602000000000000000600b631ec00e2
:100b180020002000b611e3000100310000000600ab
:100b2800b631ef0000000600b831ec00800020006c
:100b3800b811e3000100310000000600b831ef00f1
:100b4800c0050200000000000000060000000600ca
:100b5800bc31ec0020002000bc11e3000100310092
:100b680000000600bc31ef0000000600160d020070
:100b78000000000000000600aa31ec008000200000
:100b8800aa11e30001003900152ea900ac31ec00d0
:100b980080002000ac11e30001003900250ea900f7
:100ba800000006000000060000000600f00fb2007a
:100bb8000300a70003003700800978008301e800dc
:100bc800000006000300a1000080fd0093097000ea
:100bd8008381e80000000600801f7800da05020023
:100be800000000004f0078000080fd00da050200d8
:100bf80000000000000006000001eb001100ba0030
:100c08000100a7000080fd00f00fb20005003200cf
:100c1800da050200000000008100e8000201e80097
:100c2800f6ff3700020078000000060010002000e0
:100c3800c08c880000b02a002088880000002100ad
:100c4800d09a880000002000d0908800308880006a
:100c58000080fd00f610b700e09a8800d08c800074
:100c6800f09a88009a31ef006033ef009c11f80089
:100c78006213f90000082000909b8800831021006f
:100c8800940d02000000000000000600f810e200c9
:100c980001003a0000000600b08780000000e8006c
:100ca800fc10bc0010888000020140003008800061
:100cb8000200500000f0a70000000600c087800076
:100cc800f830ef000000e9006100e10001003900a0
:100cd8000000060000060100000037002000200088
:100ce800c08c880010b02a0020888800fa10f8000c
:100cf8005a13f900100020000080fd008811b70089
:100d0800e09a880080878000f09a88008c11f800ab
:100d18006013f9008e11f8006213f900a60e0200a4
:100d280000000000000006000000000000000000b5
:100d3800000000000000000000000600000006009f
:100d4800c08e8800da31ef00dc31ef0000000600c9
:100d580000000600000006003222af003222a9007f
:100d68002222af002222a9000000060002718000a2
:100d7800f0ff2f0000417800027188000000060093
:100d88000271800000002000004178000271880094
:100d98000000060000000000000000000000000045
:100da800000000000000000000000000000000003b
:100db800000000000000000000000000000000002b
:100dc800000000000000000000000000000000001b
:100dd8000000000000000600a431ef00a031ef0081
:100de800300880009e91b6004220af000000060047
:100df800008d8800a231b7009eb1b6000060fe00e9
:100e0800a1f1af00a831ec00a111ae00000006006e
:100e1800a631ec0000012000a611e3000100390012
:100e2800a631ef00308d8000701002000000000035
:100e3800208d880000000600a111ae000000060009
:100e480000000600dc11e20002003200dc31ed0097
:100e580000000600803e2000e08e8800d08e8000d2
:100e680000060100020037000a00370012003700b0
:100e7800413f21000018220080087800200020004f
:100e8800b0a188001604020000000000da31ec006e
:100e980000000600413f2100001823008008780068
:100ea80020002000b0a18800160402000000000005
:100eb800da31ec0000000600413f21000008210063
:100ec8008008780020002000b0a1880016040200e5
:100ed80000000000d831ef00da31ef000000060012
:100ee8000100a7000400370011007800f00fb200dd
:100ef8008100e800000006000100a1001100780050
:100f08000080fd00f00fb2008180e80000000600bc
:100f18007407020000000000801f780074070200b8
:100f2800000000000080fd004f0178000200700002
:100f380000000600200a8000200a8000200a8000a5
:100f4800200a80000028a90020402000000a88000c
:100f580040c8a80040a8a9004088a8002028a800e8
:100f680000000600600a8000600a8000600a8000b5
:100f7800600a800000a8a90020402000400a8800dc
:100f880040c8a80040a8a9004088a80020a8a80038
:100f980000000600a00a8000a00a8000a00a8000c5
:100fa800a00a800004a8a90020402000800a880028
:100fb80052c8a80052a8a9005288a80024a8a800ce
:100fc80000000600e00a8000e00a8000e00a8000d5
:100fd800e00a800004c8a90020402000c00a880058
:100fe8005348a8005328a9005308a90024c8a800fa
:100ff800000006000010a700030037000000a7004b
:10100800040037000600370000002a00d20b200039
:101018000000060000002a00a217200000000600b9
:1010280000002a00128e2000000006000021ef00b8
:10103800fe0702000000000020088800120888004f
:1010480041c8a80041a8a9004188a9000068a900d2
:101058002068a800000006000a21ef00fe07020031
:101068000000000090088800720888004448a80022
:101078004428a9004408a9000108a9002108a800db
:10108800000006001821ef00fe0702000000000023
:1010980000098800e20888004e48a8004e28a900e8
:1010a8004e08a9000388a9002388a80000000600ac
:1010b8001421ef00fe07020000000000f00888007d
:1010c800d20888004dc8a8004da8a9004d88a900dd
:1010d8000368a9002368a8000000060000032a008e
:1010e80080088800000006002174200062042000a7
:1010f80073052000824878008348780042c7a90019
:1011080000f02f00c426b60070072000c426b700e0
:1011180000f02f009226b600100020009226b7009b
:1011280000f02f00c626b600f0022000c626b70041
:10113800f00f20009026b600003020009026b7005f
:10114800f00f2000a026b600a00320000080fd00bc
:10115800a026b700f00f20008c26b6000000210062
:101168008c26b7002174200062042000730520003b
:10117800824878008348780042c7a800000006002b
:10118800c228a8004a48a8004a28a9004a08a90075
:101198000288a9002288a80000000600b0062000e6
:1011a800e008200040118800800028000011880015
:1011b80000402000101188004648a9004628a800d1
:1011c8004608a8000188a9002188a80030118000dd
:1011d8003011800030118000301180000168a900b2
:1011e80045c8a90045a8a8004588a8000168a90025
:1011f8002168a80000000600b0062000e0082000d2
:1012080030022000c011880080002800801188006a
:1012180000402000901188004fc8a9004fa8a900dd
:101228004f88a80003e8a90023e8a800b0118000af
:10123800b0118000b0118000b011800003c8a9006f
:101248004f48a9004f28a9004f08a80003c8a900c3
:1012580023c8a80000000600b0118000b01180006b
:10126800b0118000b011800003c8a90023c8a900ec
:1012780000000600b0118000b0118000b01180009d
:10128800b011800003c8a90023c8a8000000060008
:101298001000200004003700700020000200370012
:1012a8007000200000003700317420008207200001
:1012b800a30920000300fc008248780083487800d6
:1012c80043e7b70021742000620420007305200062
:1012d8000300fc0082487800834878004207a80091
:1012e8000060fe004207af00fdff37000000060067
:1012f8004427ef000003200050042000303a880003
:10130800000020004427b700000020004427b70051
:10131800000020004427b700000000000000000083
:101328000000000000712200761202000000000098
:101338000000000000000000000000001000200075
:10134800580902000000000000002000403a880010
:10135800000006000060fe00b00a2000201188008e
:10136800007122007612020000000000f9ff370029
:101378000000060015cea90011cea90011eea800a4
:1013880064cea90060cea90060eea800650ea80092
:10139800610ea900000ea800002ea800240ea900c6
:1013a800200ea900242ea900202ea900244ea90051
:1013b800204ea90041aea80041cea80041eea800e9
:1013c800010ea800108ea800246ea900206ea900a6
:1013d800248ea900208ea90024aea90020aea90061
:1013e80025eea80021eea900350ea800310ea900af
:1013f80014aea80010aea90014cea80010cea90003
:10140800254ea800214ea90014eea80010eea90050
:1014180025aea80021aea900150ea800110ea9003e
:10142800152ea900112ea90024cea90020cea900ae
:1014380024eea90020eea900250ea900210ea9007e
:10144800540ea900500ea900542ea900502ea90030
:10145800154ea900114ea900156ea900116ea9001c
:1014680011aea8000000000000000000000000000d
:10147800000006000000060000000600d111af00c1
:1014880003003700d151af00060037000000060006
:10149800d111a900d0948000f094880001002200a6
:1014a80005003700d151a900e0948000f09488002d
:1014b8000128220000003700419a88003100780096
:1014c800023022000200e100070032003240220010
:1014d8000200e10004003200f2ff2f000200e100e8
:1014e8000100320000000600509a880031007800a0
:1014f800020020000200e10004003200f2ff2f0089
:101508000200e1000100320000000600310078000e
:10151800609a880031007800709a8800310078005d
:10152800809a880031007800909a8800310078000d
:10153800a09a880031007800b09a880031007800bd
:10154800c09a8800809a80000080fd00f00fb200e9
:101558006000e10002003a001c0b040000000000db
:101568007000e10002003a00be0a0400000000001a
:1015780000000600809a8000f00fb2006100e100d0
:1015880001003900000006000006010000003700d5
:10159800909a8000f000b200408c8800a09a8000e9
:1015a800508c8800b09a8000608c8800c09a8000b7
:1015b800708c8800419a80002101b00031007800c9
:1015c800a085880031007800b0858800c031ef0020
:1015d800ca11a8009031ef009231ef000002eb0031
:1015e8004200a90092b1d60090b1d6004200a900ed
:1015f80092b1d60090b1d600a58580000420a7003e
:10160800b5858000040078004200dd000228de0075
:10161800f000b2006200e100010039009211a80058
:101628000402e8006820e100edff39000000060030
:10163800809a8000f000b200000601001100370017
:101648001100370011003700110037001100370072
:101658001100370011003700080037000700370075
:101668000600370005003700040037000300370084
:101678000e003700020037000000370000000600a7
:10168800000006000000060000000600000006003a
:101698000000060000000600000006001000200000
:1016a800dc31ef00c08e8800000006004e33ed00ec
:1016b8004e33ed008001eb003102780003006a0030
:1016c800f00fb2000c003a008301e8000480fd002e
:1016d80003006a00f00fb20007003a008301e80037
:1016e800709a80000018e100f3ff3900640d0200d1
:1016f80000000000000006008e0d0200000000003f
:10170800000006004e33ed004e33ed00419a88008c
:10171800000025005013e30001003200000006001d
:1017280040002000309a8800d80502000000000020
:1017380000000600d131af0003003700d171af00bf
:101748000600370000000600d131a900809580000e
:10175800a09588000150220005003700d171a9002a
:1017680090958000a0958800016022000000370055
:10177800419a880031007800b090880031007800e4
:10178800c0908800009028001612e3000100320083
:1017980000000600f0ff2f001812e30002003a00d4
:1017a800b0878000c0908800b08780001812e300de
:1017b800010032000000060031007800609a8800bd
:1017c8000080fd00f00fb200eb02e10001003200e2
:1017d8000000060031007800709a88003100780017
:1017e800809a880031007800209b880031007800ba
:1017f800309b880031007800409b880031007800d9
:10180800509b8800809a80000080fd00f00fb20095
:101818007000e10002003a00180c0400000000000b
:101828000000060000000600809a8000f00fb20059
:101838006100e10001003900000006000006010017
:101848000100370017003700580c020000000000a4
:1018580083102100419a80002101b0000204200079
:1018680031007800801978000201e900fcff3a0095
:10187800ca71ae00f60c020000000000ca71a80090
:1018880010002000c08788005013f800fa10f900f3
:101898006413f800fc10f900c231ef00ca31a80047
:1018a80000000600000006006613e20001003a008e
:1018b80000000600309b80000080fd00f00fb200a1
:1018c8007000e1000f0032007100e1001d003200dd
:1018d8007200e100240032007300e10011003200c0
:1018e80000000600309b8000f00fb200ff03e1000b
:1018f8002d003200b28780000200e1002a00320089
:1019080000000600309b8000f00fb200ff03e100ea
:1019180028003200b28780000200e1002500320072
:1019280000000600309b8000f00fb200ff03e100ca
:1019380023003200b28780000200e100200032005c
:101948000000060021003700309b8000f00fb20035
:10195800ff03e1001d003200b28780000200e100b1
:101968001a00320000000600309b8000f00fb20021
:10197800ff03e10024003200b28780000200e1008a
:101988002100320000000600309b8000f00fb200fa
:10199800ff03e10010003200b28780000200e1007e
:1019a8000d0032000000060010b02a00d08c88001c
:1019b8000000060000b02a00d08c88000000060055
:1019c800152ea800aa31ef0000000600250ea80079
:1019d800ac31ef0000000600ca51a900f230ef0058
:1019e80000000600ca51a800f230ef00f430ef0002
:1019f80000000600ca51a8008025200090878800b2
:101a0800f430ef00000006003e0a0200000000006b
:101a1800ca51a8008007200090878800f430ef00a2
:101a280000000600f210e20015003a00ca51af00ab
:101a3800030037003e0a0200000000000000060014
:101a4800400a020000000000f430ec0001003a00f7
:101a5800f430ed000651ae000000060040062000fc
:101a6800f410e30001003a00152ea80060092000d8
:101a7800f410e30001003a00152ea900000006004a
:101a8800f230ed000000060000000600000006002d
:101a98000000060000000600000006000000060026
:101aa800809a800051f3a800d09a88005c33ef0038
:101ab8005e33ef006033ef006233ef00b1003700b0
:101ac80000002000d09a8800ae00370010002000e7
:101ad800d09a8800ab00370020002000d09a8800f8
:101ae800a800370030002000d09a8800a5003700f1
:101af80040002000d09a8800a20037005000200043
:101b0800d09a88009f00370060002000d09a880093
:101b18009c00370070002000d09a88009900370098
:101b2800660f020000000000080e0200000000001e
:101b3800d0908000920e02000000000007003700dd
:101b4800660f020000000000080e020000000000fe
:101b5800f0ff2f00920e0200000000002088800095
:101b6800920e020000000000909b8000a000b000d0
:101b7800920e020000000000d09a8000920e02002f
:101b880000000000e09a8000920e020000000000b1
:101b9800f09a8000920e020000000000009b800076
:101ba800920e020000000000109b8000920e0200be
:101bb80000000000f00d020000000000a60f020067
:101bc800000000007233ed00faff3a00b00f020087
:101bd80000000000000006000300a7000400370012
:101be80013007800f00fb2008301e800000006003f
:101bf8000300a100130078000080fd00f00fb20080
:101c08008381e800000006009811af000b00370040
:101c18009831af00110037009851af001700370016
:101c28009871af001d0037009891af00230037006e
:101c380098b1af00290037000000060030402200ac
:101c4800a60f020000000000304022000080fd00c6
:101c5800a60f0200000000000000060020902800e7
:101c6800a60f020000000000209028000080fd0060
:101c7800a60f02000000000000000600709421007a
:101c8800a60f020000000000709421000080fd00f3
:101c9800a60f020000000000000006006090280067
:101ca800a60f020000000000609028000080fd00e0
:101cb800a60f02000000000000000600709421003a
:101cc800a60f020000000000709421000080fd00b3
:101cd800a60f020000000000000006004090280047
:101ce800a60f020000000000409028000080fd00c0
:101cf800a60f020000000000000006000090280067
:101d0800a60f020000000000009028000080fd00df
:101d1800a60f02000000000000000600801f7800e7
:101d2800f00fb200a60f0200000000004f0078007c
:101d38000080fd00f00fb200a60f020000000000b6
:101d480000000600660f020000000000820e02007c
:101d580000000000b0878000920e02000000000022
:101d680017003700660f020000000000080e02008e
:101d780000000000d0908000920e020000000000d9
:101d88000f003700660f020000000000080e020076
:101d980000000000f0ff2f00920e0200000000007b
:101da80007003700660f020000000000080e02005e
:101db80000000000d0908000920e02000000000099
:101dc80020888000920e020000000000a000200081
:101dd800920e020000000000d09a8000920e0200cd
:101de80000000000e09a8000920e0200000000004f
:101df800f09a8000920e020000000000009b800014
:101e0800920e020000000000109b8000920e02005b
:101e180000000000b00f02000000000000000600f3
:101e2800660f020000000000080e0200000000001b
:101e3800d0908000920e02000000000020888000f0
:101e4800920e020000000000008580002000b00013
:101e5800920e020000000000d09a8000920e02004c
:101e68000000000003f02100a010e2001200320080
:101e78000300a7000700370013007800f00fb20036
:101e8800a60f020000000000a030ed008301e8006a
:101e9800f5ff37000300a100130078000080fd0063
:101ea800f00fb200a60f020000000000a030ed0005
:101eb8008381e800ecff3700b00f0200000000004b
:101ec800000006009811af00d011a9009831af00aa
:101ed800d031a9009851af00ceb1a9009871af00d8
:101ee800cdf1a9009891af00cd31a90098b1af000c
:101ef800ce71a9007033ef00b00a2000609b880003
:101f08006e33ef009811af00017022009831af00d6
:101f1800018022009851af0021e022009871af00a3
:101f280021e022009891af0021e0220098b1af0093
:101f380021e02200a00e20002a100200000000006c
:101f4800000006006cb3b6006e33b4004010020007
:101f58000000000000000600609b800040100200a6
:101f680000000000709b800040100200000000008c
:101f7800b00e20002a100200000000009811af00e7
:101f88000b0037009831af000f0037009851af00b1
:101f9800160037009871af001a0037009891af000b
:101fa8001e00370098b1af0022003700000006007d
:101fb8007013f800a212f900a032ef00d011a800a7
:101fc8000188a80000000600d1b1a90015cea8001c
:101fd800d0f1a9007013f800b812f900b632ef007a
:101fe800d031a80003e8a8000000060001e02200a4
:101ff800809b800080087800cc030200000000006d
:102008000000060001e02200809b80008008780024
:1020180016040200000000000000060001e0220093
:10202800809b8000800878006004020000000000a7
:102038000000060001e02200809b800080087800f4
:10204800aa0402000000000000000600f00fb20021
:102058007013af0003003700800878007033ec007d
:10206800000006000080fd00910840008180e80023
:102078007033ec0000000600821f7800f00fb200f9
:10208800a20e20000200e10008003200b20e20007b
:102098000200e10005003200c20e20000200e1004b
:1020a800020032004f017800e8ff3700801f7800f7
:1020b800c00e20002a10020000000000b20a200012
:1020c8004f007800000069002a100200000000009c
:1020d8004f017800000006000030a7000a00370012
:1020e8007000b20000060100100005002000050085
:1020f8004000050080000500000105000002050001
:10210800000405000008050074100200000000002b
:102118000080fd00000006000030a700faff37002d
:102128007000b20000060100000805000004050068
:1021380000020500000105008000050040000500c0
:1021480020000500100005009410020000000000a7
:102158000080fd00000006004200f800801f7800a3
:102168000288a9004f0078004200f90000400600ec
:102178000288a900004006004200f800801f78008d
:10218800811f78000168a90031118000f10fb200a9
:10219800d191ae0044003700a00e20000100e100fc
:1021a80022003200b00e20000100e10025003200bc
:1021b800c00e20000100e10038003200b00a200003
:1021c800d091af0081006800d091a90000282000bc
:1021d8009812e3003300310000002200d051af0014
:1021e800002822009812b4000000a1009812af0045
:1021f8000200370001087800030037000180fd0065
:10220800108840000180fd004095800050958800ae
:10221800010078004095880001007800a632b400db
:10222800a4b2b6009832ec001f003700d091a90084
:102238009832ef00a632ef00a432ef00cbb1a8002d
:1022480019003700d091a900b00a2000a492b60066
:10225800a892b60014003a0040958000a812b40075
:10226800aa12b400a692b600f00fb2000e003a000f
:10227800c0948000d051ae00d0948800d051af00f7
:10228800e0948800d051ae00d111a800d051af0021
:10229800d151a800d051aa0003003700d091a8005e
:1022a8000100370000000000cf0078004f007800e0
:1022b8004200f900004006004200f800801f780044
:1022c800811f780003c8a900b1118000f10fb20086
:1022d800d1b1ae0045003700a00e20000100e1009a
:1022e80022003200b00e20000100e100250032007b
:1022f800c00e20000100e1003a003200b00a2000c0
:10230800d0b1af0081006800d0b1a9000010200052
:10231800ae12e3003500310000502200d071af004a
:1023280000602200ae12b4000000a100ae12af009f
:102338000200370001087800030037000180fd0023
:10234800108840000180fd00f0958000009688000c
:1023580001007800f095880001007800bc32b400d4
:10236800bab2b600ae32ec0020003700d0b1a900f6
:10237800ae32ef00bc32ef00ba32ef00cbd1a8008a
:102388001a003700d0b1a900b00a2000ba92b600ee
:10239800be92b60015003a00f0958000be12b40057
:1023a800c012b400bc92b600f00fb2000f003a00a1
:1023b80070958000d071ae0080958800d071af0014
:1023c80090958800d071ae00d131a800d071af00cf
:1023d800d171a800d071aa00300880001088880048
:1023e80002003700d0b1a80000003700cf00780005
:1023f8004f0078004200f900004006004200f80053
:10240800801f7800811f78000188a900d011ae00d4
:102418000e00370001702200009580008100400006
:102428000100a10011007800a012af000080fd009b
:10243800f00fb20020118800a032ec001095800047
:10244800a012e30001003900d011a900cf007800e4
:102458004f0078004200f900004006004200f800f2
:10246800801f7800811f780003e8a900d031ae00f2
:1024780011003700c432ef0001802200b0958000bf
:10248800810040000100a10011007800b612af00e1
:102498000080fd00f00fb200a0118800b632ec00f9
:1024a800c0958000b612e30003003900d031a900be
:1024b800d0f1a800d1b1a800cf0078004f00780073
:1024c8004200f90000400600823e20000060fe0045
:1024d8000201e900fdff3a000000e900faff3a00b6
:1024e800000006000060fe000000e900fdff3a0061
:1024f80000000600100020008010f8008210f8008c
:10250800108488003008800000848800300c200087
:10251800101020008030b4000060fe0000848000ad
:102528000601b50000f0a700fbff37008230ed0080
:10253800f4ff3a008210f9008010f900000006004c
:102548000e000900000000000000e900fcff3a004e
:10255800000006001000b20000060100000005009f
:1025680010000500008480008210e300040036009b
:10257800008480008290b60080b0b60082b0b600b9
:10258800108480008410e30004003600108480006a
:102598008490b60082b0b60084b0b6002084800073
:1025a8008610e30004003600208480008690b60080
:1025b80084b0b60086b0b600108480008410e300b2
:1025c80004003600108480008490b60082b0b60003
:1025d80084b0b600008480008210e3000400360056
:1025e800008480008290b60080b0b60082b0b60049
:1025f800208480008210b4004100de000000060044
:10260800caf1a900401988002023a8004001200031
:1026180022130200000000002023a900ee30ef0082
:10262800ee30ec00ef10af00000006002003ae0013
:10263800fbff3700caf1a8000000060000000000f8
:102648000000e900fdff3a0000000600e09080006d
:102658004200de00ae120200000000000413020077
:1026680000000000caf1ae0000000600a10c210025
:10267800e090800081004000810040000018800048
:10268800800878001c32ec00800020001c12e30057
:1026980001003100000006001c32ef00ca10f800eb
:1026a8008010f900cc10f8008210f900ce10f80064
:1026b8008410f900d010f8008610f900b612020054
:1026c8000000000050878800d210f8008010f90040
:1026d800d410f8008210f900d610f8008410f90020
:1026e800d810f8008610f900b612020000000000a9
:1026f8006087880010022000ea10bc004a10de0043
:102708000290a7000000e80080878800000006000b
:102718000060fe0029e7af00fdff3700000006005b
:10272800a00f2000a002880001002000b208bb0012
:10273800b298bb00b208bb00b298bb005420ef00af
:10274800000006005420ef00800178003100ba0034
:10275800001978008301e900fcff3a000000060038
:102768005420ef00800178003100ba003200680080
:1027780001003200000006008301e900faff3a0078
:1027880000000600811f7800c3e8a90000002000af
:1027980058090200000000008c130200000000002d
:1027a80000002000603988004f0078005039880008
:1027b80030002400403988000a00fc005005200041
:1027c80070398800a00a20007039880029e7a8001d
:1027d80000000000000000000000000000000000f1
:1027e800000000008c130200000000000000200020
:1027f800403988007c09020000000000c3e8a800f6
:1028080000000600c3e8a9000000200058090200e3
:10281800000000008c130200000000008001eb00a3
:1028280000002000603988007085800003004000a7
:1028380003004000030040000300400050398800b6
:1028480002e0220002814100028141000281410030
:1028580002814100a00f2000a00288000100200092
:10286800b208bb008398bb00b208bb008398bb00ca
:102878005420ef0010002400403988000a00fc00b2
:102888005005200070398800a00a2000703988009f
:1028980029e7a80000000000000000000000000078
:1028a80000000000000000008c130200000000007f
:1028b8008301e800808580000000e8004180de0098
:1028c8000018e100d6ff39000000200040398800d8
:1028d8007c09020000000000c3e8a8000000060010
:1028e8000200e00001003a00000006000201e900d1
:1028f8008214020000000000f9ff37000100a70061
:1029080003003700110078008100e8000300370059
:102918000100a100310078000080fd00f00fb20036
:102928000300a70003003700800978008301e8004e
:10293800000006000300a1000080fd00930970005c
:102948008381e8000000060000060100000405007d
:1029580010040500200405003004050040040500ab
:10296800500405006004050070040500800405009b
:1029780090040500a0040500b0040500c00405008b
:10298800d0040500e0040500f0040500000505007a
:102998001005050020050500300505004005050067
:1029a8005005050060050500700505008005050057
:1029b80090050500a0050500b0050500000005000c
:1029c8004000050080000500c0000500000105006a
:1029d80040010500c0010500b00105000002050026
:1029e8004002050080020500c00205000003050042
:1029f8004003050080030500c00305001000050022
:102a08005000050090000500d000050010010500e9
:102a18005001050080010500f001050010020500c5
:102a28005002050090020500d002050010030500c1
:102a38005003050090030500d003050020000500a1
:102a480060000500a0000500e00005002001050069
:102a58006001050090010500d00105002002050075
:102a680060020500a0020500e00205002003050041
:102a780060030500a0030500e00305003000050021
:102a880070000500b0000500f000050030010500e9
:102a980070010500a0010500e001050030020500f5
:102aa80070020500b0020500f002050030030500c1
:102ab80070030500b0030500f003050000000000e6
:102ac80000000000000000000000000000000000fe
:102ad80000000000000000000000000000000000ee
:102ae80000000000000000000000000000000000de
:102af80000000000000000000000000000000000ce
:020000040001f9
:103ff80000000000000000003412000078560000a5
:10400800000000000000000009000000010000009e
:104018000000000000000000000000000000000098
:104028000000000000000000000000000000000088
:104038000000000000000000000000000000000078
:10404800000000000000000009000000010000005e
:104058000000000000000000000000000000000058
:104068000000000000000000000000000000000048
:104078000000000000000000000000000000000038
:10408800000000000000000009000000010000001e
:104098000000000000000000000000000000000018
:1040a8000000000000000000000000000000000008
:1040b80000000000000000000000000000000000f8
:1040c80000000000000000000900000001000000de
:1040d80000000000000000000000000000000000d8
:1040e80000000000000000000000000000000000c8
:1040f80000000000000000000000000000000000b8
:1041080000000000000000000000000000000000a7
:104118000000000000000000000000000000000097
:104128000000000000000000000000000000000087
:104138000000000000000000000000000000000077
:104148000000000000000000000000000000000067
:104158000000000000000000000000000000000057
:104168000000000000000000000000000000000047
:104178000000000000000000000000000000000037
:104188000000000000000000000000000000000027
:104198000000000000000000000000000000000017
:1041a8000000000000000000000000000000000007
:1041b80000000000000000000000000000000000f7
:1041c80000000000000000000000000000000000e7
:1041d80000000000000000000000000000000000d7
:1041e80000000000000000000000000000000000c7
:1041f80000000000000000000000000001010000b5
:104208000202000003030000041000000511000072
:1042180006120000071c0000081d0000091e00000f
:104228000a1f00000b2c00000c2d00000d2e0000b2
:104238000e2f00000f3c0000103d0000113e000052
:10424800123d0000134c0000144d0000154e0000f4
:10425800164f000017ff000018ff000019ff0000ac
:104268001aff00001bff00001cff00001dff0000dc
:104278001eff00001fff00002004000021050000b1
:104288002206000023070000241300002514000064
:104298002615000027200000282100002922000000
:1042a8002a2300002b3000002c3100002d320000a2
:1042b8002e3300002f400000304100003142000042
:1042c80032430000335000003451000035520000e2
:1042d8003653000037ff000038ff000039ff0000a8
:1042e8003aff00003bff00003cff00003dff0000dc
:1042f8003eff00003fff00004008000041090000a9
:10430800420a0000430b0000441600004517000055
:1043180046180000472400004825000049260000f0
:104328004a2700004b3400004c3500004d36000091
:104338004e3700004f440000504500005146000031
:1043480052470000535400005455000055560000d1
:104358005657000057ff000058ff000059ff0000a3
:104368005aff00005bff00005cff00005dff0000db
:104378005eff00005fff0000600c0000610d0000a0
:10438800620e0000630f000064190000651a000047
:10439800661b00006728000068290000692a0000e1
:1043a8006a2b00006b3800006c3900006d3a000081
:1043b8006e3b00006f48000070490000714a000021
:1043c800724b00007358000074590000755a0000c1
:1043d800765b000077ff000078ff000079ff00009f
:1043e8007aff00007bff00007cff00007dff0000db
:0843f8007eff00007fff0000c2
:020000040000fa
:020000040001f9
:10440000001000003a0400008000000000000000de
:00000001FF
