:020000040000fa
:080000000402040000000000ee
:020000040000fa
:080400000040da000000fe00dc
:020000040000fa
:1000080000020000000200000002000000020000e0
:1000180000020000000200000002000000020000d0
:10002800000200000002000000020000660f00004d
:1000380000020000000200000002000000020000b0
:10004800000200000002000000020000d20a0000c6
:10005800da0b0000000200000002000000020000ad
:100068000002000000020000000200000002000080
:100078000002000000020000000200000002000070
:10008800000200000002000000020000560f0000fd
:1000980000020000000200003c0b00000c0c0000f5
:1000a8000002000000020000000200000002000040
:1000b8000002000000020000000200000002000030
:1000c8000002000000020000000200000002000020
:1000d8000002000000020000000200000002000010
:1000e8000002000000020000000200000002000000
:1000f80000020000000200000002000000020000f0
:1001080000020000000200000002000000020000df
:1001180000020000000200000002000000020000cf
:1001280000020000000200000002000000020000bf
:1001380000020000000200000002000000020000af
:10014800000200000002000000020000000200009f
:10015800000200000002000000020000000200008f
:10016800000200000002000000020000000200007f
:10017800000200000002000000020000000200006f
:10018800000200000002000000020000000200005f
:10019800000200000002000000020000000200004f
:1001a800000200000002000000020000000200003f
:1001b800000200000002000000020000000200002f
:1001c800000200000002000000020000000200001f
:1001d800000200000002000000020000000200000f
:1001e80000020000000200000002000000020000ff
:1001f80000020000000200000002000000020000ef
:1002080000020000000200000002000000020000de
:1002180000020000000200000002000000020000ce
:1002280000020000000200000002000000020000be
:1002380000020000000200000002000000020000ae
:10024800000200000002000000020000000200009e
:10025800000200000002000000020000000200008e
:10026800000200000002000000020000000200007e
:0c02780000020000000200000002000074
:020000040000fa
:1004080020020400000000000000eb000007780054
:100418000c000900002f78000007eb000000060020
:10042800010821008018eb00403821000008e10095
:10043800fcff3a00000006000ff02100e0ff210059
:1004480000018800080202000000000014020200f7
:10045800000000000c06020000000000400620001a
:100468003e0c0200000000004e31ef000e2eef009f
:100478001e2eef000e0602000000000041012000c1
:10048800401f20003e0c0200000000008100e9002f
:10049800fbff3a0008020200000000000e060200fe
:1004a8000000000008030200000000001805020018
:1004b80000000000cc0502000000000000712200ce
:1004c8003e0c020000000000820202000000000052
:1004d80000000000000000000000000012050200fb
:1004e800000000000c050200000000006e0502007c
:1004f80000000000be030400000000004e31ef00c1
:10050800024eaf004e11a800026eaf004e31a80097
:100518000000060014eea80010eea800158ea80032
:10052800118ea800007122003e0c0200000000009d
:1005380014eea90010eea900158ea900118ea900cd
:10054800007122003e0c020000000000f1ff37009d
:1005580015eeaa0015eeaa0015eeaa0015eeaa00df
:1005680015eeaa0015eeaa0015eeaa0015eeaa00cf
:1005780015eeaa000060fe00e6ff37000060fe00ee
:100588000701ae0015eea9000701af0015eea8009f
:10059800faff37000188a9002188a9000168a9008d
:1005a8002168a900b00a2000a0118800a00020003e
:1005b800480c020000000000f6ff370000000600ab
:1005c8000060fe0000003700f0ff2f003e0c020024
:1005d8000000000030122000009488004022200013
:1005e8001094880050322000209488006042200037
:1005f80030948800705220004094880066090200f8
:1006080000000000eeff37000e2eef001e2eef0058
:100618000e0ea8000e2ea8001e0ea8001e2ea80062
:100628001e4ea8001e6ea8004000200000002000fa
:10063800001988000030200010198800f0002800f8
:100648002019880000002000901988000000200070
:1006580070198800000020008019880021e3a80094
:1006680000000600c350ae000000060008b1ae004e
:100678000d0037000991af000400370008b1a90048
:10068800a00f200010888800070037000851a80034
:100698000011e20002003a000871a80000000600fc
:1006a8000031ed00000006000871a9000211e20007
:1006b80002003a000851a900000006000231ed00ce
:1006c800000006000851ae00030037000851a900d9
:1006d8000871a900000006000851a8000871a800c8
:1006e80000000600fc30a900130eaf00030037001d
:1006f80013aeaf000100370008003700c831ec0026
:1007080040062000c811e300010031000000060087
:10071800c831ed00fc30a80000000600c831ef0029
:1007280000000600c3f0ae00000006000871aa0031
:100738000851aa0000000600c3d0ae000000060061
:100748009830ec000991ae00050037009830ae00f3
:1007580015eea8009830af0015eea90000000600bd
:100768009870ae0015eea8009870af0015eea900bd
:10077800000006000f91a8000fb1a8000060fe005d
:10078800a003020000000000360302000000000081
:10079800fc10a8007603020000000000fc50a9002d
:1007a8000851af00fc50a800fc70a9000871af0008
:1007b800fc70a800fc90a90008b1af00fc90a8004c
:1007c8000851af0014eea8000851ae0014eea900bd
:1007d8000871af00158ea8000871ae00158ea9002b
:1007e8003e0e020000000000340402000000000079
:1007f80048040200000000003e0e02000000000055
:100808005c040200000000003e0e02000000000030
:10081800f2060200000000003e0e02000000000088
:100828002a0a0200000000003e0e0200000000003c
:100838007c070200000000003e0e020000000000dd
:10084800ceff370000000600000006003222af008d
:100858003222a9002222af002222a90000000600ad
:10086800c230ef0030088000c090b6004220af00d0
:100878000000060010868800c430b700c0b0b6007b
:100888000060fe0000000600c830ef00500880003d
:10089800c690b6004220af000000060040868800df
:1008a800ca30b700c6b0b6000060fe0000000600ff
:1008b800c350ae00000006009630ec00a00f2000e8
:1008c8009610e300010039000991a9000832ec00f4
:1008d800800020000812e300010039000832ef0010
:1008e8004090800000060100070037003300370001
:1008f8003800370038003700380037003800370034
:1009080038003700380037000632ec00300020008d
:100918000612e30001003100000006000632ef0075
:100928000811a9009632ef0001402200a00a200019
:100938003c0a020000000000500520003c0a0200aa
:1009480000000000100020003c0a02000000000027
:10095800300020003c0a02000000000020092000ae
:100968003c0a020000000000200020003c0a0200af
:1009780000000000500220003c0a020000000000b5
:10098800300020003c0a0200000000001000200097
:100998003c0a020000000000500520003c0a02004a
:1009a80000000000a00a20003c0a0200000000002d
:1009b800080a02000000000000000600c631ec0032
:1009c800c0032000c611e300010039001a11a90074
:1009d80000000600000006000000060000000600f7
:1009e80000000600000006000000060000000600e7
:1009f8000021ef0000032a0020088800400620009c
:100a0800100888000068a9002068a80000000600f7
:100a180000032a00900888000000060000032a004e
:100a2800800888000000060021742000620420006d
:100a380073052000824878008348780042c7a900df
:100a480000f02f00c626b600a0022000c626b70078
:100a5800f00f20008826b600003020008826b70056
:100a68002174200062042000730520008248780069
:100a78008348780042c7a80000000600d06a20001a
:100a880040118800a00028000011880000402000c4
:100a9800101188004648a9004628a8004608a80062
:100aa8000188a9002188a800301180003011800039
:100ab80030118000301180000168a90045c8a900e4
:100ac80045a8a8004588a8000168a9002168a800d1
:100ad8000000060030022000c011880080002800b5
:100ae8008011880000402000901188001acea800cc
:100af8004fc8a9004fa8a8004f88a80003e8a9007c
:100b080023e8a800b0118000b0118000b011800067
:100b1800b011800003c8a9004f48a9004f28a800b9
:100b28004f08a80003c8a90023c8a80000000600b1
:100b38001000200004003700700020000200370079
:100b48007000200000003700317420008207200068
:100b5800a30920000300fc0082487800834878003d
:100b680043e7b700217420006204200073052000c9
:100b78000300fc0082487800834878004207a800f8
:100b88000060fe004207af00fdff370000000600ce
:100b98004427ef000003200050042000303a88006a
:100ba800000020004427b700000020004427b700b9
:100bb800000020004427b7000000000000000000eb
:100bc80000000000007122003e0c0200000000003e
:100bd80000000000000000000000000010002000dd
:100be800a80502000000000000002000403a88002c
:100bf800000006000060fe00b00a200020118800f6
:100c0800007122003e0c020000000000f9ff3700ce
:100c180000000600100ea800102ea800002ea80044
:100c2800106ea800004ea800006ea80014eea900df
:100c380010eea900110ea800152ea900112ea9006a
:100c4800114ea800156ea800116ea900158ea900f6
:100c5800118ea90011aea80015eea90011eea90089
:100c6800000ea800104ea8000a4ea8000a6ea800a0
:100c78001d0ea8001daea800000006000f11af0051
:100c8800030037000f51af000600370000000600d0
:100c98000f11a90060928000809288000100220054
:100ca800050037000f51a9007092800080928800db
:100cb8000110220000003700c1938800310078003d
:100cc800e084880031007800f084880031007800e2
:100cd8000085880031007800108588003100780090
:100ce800208588003100780030858800e084800005
:100cf800f00fb2006100e1000100320000000600c0
:100d0800f08480000080fd00f00fb2006200e10076
:100d18000100320000000600008580000080fd0010
:100d2800f00fb2006300e10001003200000006008d
:100d3800e08480000080fd00f00fb200008488008d
:100d4800001020008010bc00b2888800f084800069
:100d580000c0fd00f000b2000084880000012000ff
:100d68008010bc00020078001631b400f0848000c6
:100d7800f000b2001631b4000085800000c0fd000c
:100d8800f000b20000848800000120008010bc0040
:100d9800c288880000858000f000b2001831b400d5
:100da8001a71a900a210af001a71a8001a91a9001f
:100db800a230af001a91a8001ab1a900a250af0042
:100dc8001ab1a8001ad1a900a270af001ad1a800c0
:100dd8001a11a800c631ef00000006000f31af005d
:100de800030037000f71af0006003700000006004f
:100df8000f31a90010938000309388000120220051
:100e0800050037000f71a9002093800030938800f7
:100e18000130220000003700c193880031007800bb
:100e2800d0868800725322000200e10004003200dc
:100e3800f2ff2f000200e10001003200000006006e
:100e480031007800e0868800728a80000220a000c5
:100e58000200e10004003200f2ff2f000200e1006e
:100e6800010032000000060031007800f08688009a
:100e780000b02a00de10e300010032000000060086
:100e880031007800e093880031007800f093880002
:100e98003100780050948800310078006094880010
:100ea80031007800709488003100780080948800c0
:100eb800f09380000080fd00f00fb2006000e100b8
:100ec80002003a008e080400000000007000e100f3
:100ed80002003a00f407040000000000e000e1000e
:100ee80002003a001208040000000000000006009a
:100ef80030088000d210b50000f0a60000000600ff
:100f080070868000ce30ef003000b200000601008d
:100f180002003700020037003000370000000600ea
:100f280070532200a0868800708a80000020a000ec
:100f3800b086880000c02a00c08688000000210012
:100f48000094880000002000109488000000200011
:100f5800209488000000200030948800a000200021
:100f680040948800a3292100e08780008019780038
:100f7800a087800080197800808780008019780019
:100f88009087800080197800d087800080197800c9
:100f9800c087800080197800b087800080197800a9
:100fa800d088800080197800b08880008019780087
:100fb800c088800080197800a02921000080510095
:100fc8004100de00c09488000811a800a329210070
:100fd800660902000000000000000600000006008c
:100fe800f0938000f00fb2006100e10001003900c9
:100ff8000000060000060100000037009630ef00f0
:101008000991a800a00020000601b400908688007d
:10101800100020007086880000000600f093800011
:10102800f00fb2006800e10001003900000006007e
:101038000006010007003700110037001b003700c9
:10104800230037002b0037002b0037002b00370018
:101058002f00370012002000708a80000010dd0089
:101068008a32b60001003a000000060008b1a80064
:10107800900120009012bc00028888000000060041
:1010880012002000708a80000010dd008a32b6004d
:1010980001003a000000060008b1a90090012000f4
:1010a8009012bc0012888800000006001200200080
:1010b800708a80000010dd008a32b60001003a0014
:1010c8000000060008d1a8001a31a8000000060098
:1010d80012002000708a80000010dd008a32b600fd
:1010e80001003a000000060008d1a9001a31a90041
:1010f80000000600000006000000060008d1a90054
:101108001a31a90008b1a900fc90a9000000060046
:1011180000000600f0938000f000b2000006010015
:101128001100370011003700110037001100370097
:101138001100370011003700110037000800370090
:1011480007003700060037000500370004003700a5
:10115800030037000b00370002003700000037009b
:10116800000006000000060000000600000006005f
:10117800000006000000060000000600000006004f
:10118800000006007c32ed007c32ed008001eb00af
:101198003102780003006a00f00fb2000c003a0038
:1011a8008301e8000480fd0003006a00f00fb2002c
:1011b80007003a008301e800e09380000018e1008e
:1011c800f3ff3900360902000000000000000600a5
:1011d8006009020000000000000006000100a700ee
:1011e8000400370011007800f00fb2008100e80019
:1011f800000006000100a100110078000080fd0039
:10120800f00fb2008180e80000000600821f78001d
:10121800f20802000000000000017800f208020055
:10122800000000000080fd00020070004f017800ff
:1012380000000600b093800000f0a0000094880031
:1012480020003700f09380007ff2a8000094880007
:101258008232ef008432ef008632ef008832ef00ee
:10126800180037000000200000948800150037009f
:101278001000200000948800120037002000200091
:10128800009488000f003700300020000094880088
:101298000c00370040002000009488000900370047
:1012a80050002000009488000600370060002000ed
:1012b8000094880003003700700020000094880024
:1012c80000003700b809020000000000a086800076
:1012d800e209020000000000b0868000e209020076
:1012e80000000000c0868000e20902000000000043
:1012f800a00020009812b4009812b400e20902007d
:101308000000000000948000e209020000000000d4
:1013180010948000e2090200000000002094800080
:10132800e20902000000000030948000e209020097
:101338000000000040948000e20902000000000064
:101348009812e2000500320033007800e20902003a
:10135800000000009832ed00f9ff3700f2090200a2
:1013680000000000000006000811ae000e11a900e0
:101378000811af000e31a9009632ef00b00a200024
:10138800909488009432ef000811ae0001402200ca
:101398000811af0001502200a00e20003c0a0200f4
:1013a800000000000000060092b2b6009432b400bb
:1013b800520a02000000000000000600801f7800aa
:1013c800d8090200000000004f0078000080fd00ee
:1013d800d809020000000000000006009094800078
:1013e800520a020000000000a0948000520a020085
:1013f80000000000b00e20003c0a020000000000bf
:101408000811af00070037009612f8005412f900cf
:101418005232ef000e11a8000ed1a9000188a800d1
:10142800000006009612f8006a12f9006832ef0010
:101438000e31a8000fb1a9000ef1a900152ea800c1
:101448000891a80003e8a800000006000ef1ae000d
:10145800000006003302ae00000006000ef1a900ed
:10146800152ea9000891a9000fb1a80000000600d8
:10147800f00fb2009612af00030037008008780022
:101488009632ec00000006000080fd009108400044
:101498008180e8009632ec0000000600821f780088
:1014a800f00fb200a20e20000200e1000800320096
:1014b800b20e20000200e10005003200c20e20003a
:1014c8000200e100020032004f017800e8ff370017
:1014d800801f7800c00e20003c0a020000000000b7
:1014e800b20a20004f007800000069003c0a0200a0
:1014f800000000004f017800000006000030a7003f
:101508000a0037007000b200000601001000050054
:1015180020000500400005008000050000010500ce
:10152800000205000004050000080500860a020004
:10153800000000000080fd00000006000030a70049
:10154800faff37007000b20000060100000805002d
:1015580000040500000205000001050080000500e8
:10156800400005002000050010000500a60a020042
:10157800000000000080fd00000006004200f800a6
:10158800801f78000288a9004f0078004200f90007
:10159800004006000288a900004006004200f8004a
:1015a800801f7800811f78000168a9003111800030
:1015b800f10fb200d0848000f00fb2000080fd006f
:1015c80001007000d084880050a52a009a10e3001a
:1015d80003003a000831a8004a32ef002000370023
:1015e8000831ae001e003700000022000e51af0087
:1015f800001022004a12b4000000a1004a12af00f5
:101608000200370001087800030037000180fd0060
:10161800108840000180fd004a32ec009000200054
:101628004a12e3000e0039000831a900a05a25002b
:101638009a10e3000a003a00509280000e51ae0062
:10164800609288000e51af00709288000e51ae0073
:101658000f11a8000e51af000f51a8000e51aa009b
:10166800cf0078004f0078004200f90000400600e3
:101678004200f800801f7800811f780003c8a90085
:10168800b1118000f10fb2000fb1ae004300370076
:10169800a00e20000100e10022003200b00e200060
:1016a8000100e10024003200c00e20000100e1002a
:1016b80037003200b00a20000eb1af008100680088
:1016c8000eb1a900001020006012e30032003100c2
:1016d800002022000e71af00003022006012b4001a
:1016e8000000a1006012af00020037000108780076
:1016f800030037000180fd00108840000180fd00d4
:10170800809380009093880001007800809388007f
:10171800010078006e32b4006cb2b6006032ec00a2
:101728001e0037000eb1a9006032ef006e32ef00e4
:101738006c32ef00190037000eb1a900b00a200082
:101748006c92b6007092b60014003a008093800044
:101758007012b4007212b4006e92b600f00fb200ac
:101768000e003a00009380000e71ae0010938800be
:101778000e71af00209388000e71ae000f31a800e3
:101788000e71af000f71a8000e71aa000300370098
:101798000eb1a8000100370000000000cf0078005b
:1017a8004f0078004200f900004006004200f800af
:1017b800801f7800811f78000188a9000e11ae00f3
:1017c8000f00370001402200909280008100400005
:1017d8000100a100110078005212af000080fd0046
:1017e800f00fb200201188005232ec00a092800065
:1017f8005212e300020039000e11a9000ed1a80010
:10180800cf0078004f0078004200f9000040060041
:101818004200f800801f7800811f780003e8a900c3
:101828000e31ae000f0037000150220040938000b7
:10183800810040000100a100110078006812af008b
:101848000080fd00f00fb200a01188006832ec00a3
:10185800509380006812e300020039000e31a9009d
:101868000ef1a800cf0078004f0078004200f90080
:10187800004006000060fe000000e900fdff3a009d
:1018880000000600100020008010f8008210f80008
:10189800108488003008800000848800300c200004
:1018a800101020008030b4000060fe00008480002a
:1018b8000601b50000f0a700fbff37008230ed00fd
:1018c800f4ff3a008210f9008010f90000000600c9
:1018d8000e000900000000000000e900fcff3a00cb
:1018e80000000600808b800000060100020037001f
:1018f800060037000e0037002023a90030088000ba
:10190800e08888007031ec0000000600e088800064
:101918000601b50000848800900120008010e300d3
:1019280001003100000006007031ec0000000600e4
:1019380001a8ae000000060001a8a9007031ef0060
:10194800fa32ec0040002000fa12e30001003900ee
:10195800fa32ef00a12d2100d09780004300dd006e
:10196800810040000018800080187800301880003e
:1019780080187800201880008018780010188000df
:1019880080187800a12d21001100780000848800bb
:101998008100b00011007800108488008100b00038
:1019a80011007800208488008100b00011007800c0
:1019b80030848800420d020000000000e097880093
:1019c800c12d210011007800008488008100b0003a
:1019d80011007800108488008100b00011007800a0
:1019e800208488008100b0001100780030848800cd
:1019f800420d020000000000f0978800e12d210050
:101a080011007800008488008100b000110078007f
:101a1800108488008100b0001100780020848800bc
:101a28008100b0001100780030848800420d020067
:101a38000000000000988800012e210011007800a5
:101a4800008488008100b0001100780010848800ac
:101a58008100b00011007800208488008100b00067
:101a68001100780030848800420d02000000000058
:101a78001098880003f3a800000006000084800086
:101a88008210e30004003600008480008290b600d3
:101a980080b0b60082b0b600108480008410e300e5
:101aa80004003600108480008490b60082b0b6002e
:101ab80084b0b600208480008610e300040036005d
:101ac800208480008690b60084b0b60086b0b60048
:101ad800108480008410e300040036001084800025
:101ae8008490b60082b0b60084b0b600008480004e
:101af8008210e30004003600008480008290b60063
:101b080080b0b60082b0b600208480008210b40095
:101b18004100de00000006000971a9004019880094
:101b28002023a800400120002a0e02000000000027
:101b38002023a900be30ef00be30ec00bf10af007c
:101b4800000006002003ae00fbff37000971a80063
:101b58000000060040002000900d02000000000078
:101b68000971ae00080037000018800060878800ff
:101b78001018800070878800fa0d0200000000002d
:101b8800ca0d02000000000000000600c0878000a7
:101b9800ec10e30003003900ec10f800f810f9002d
:101ba8000000060060878000f810b50042012000a0
:101bb8000200e10005003100f810e20001003200e7
:101bc800f830ed000431ef00000006000431ec00ad
:101bd800400620000411e300010031000000060067
:101be800ec10f800f810f90000000600808780006b
:101bf800ee10e30003003900ee10f800f010f900d1
:101c08000000060070878000f010b5004201200037
:101c18000200e10005003100f010e200010032008e
:101c2800f030ed000631ef00000006000631ec0050
:101c3800400620000611e300010031000000060004
:101c4800ee10f800f010f900000006000000000097
:101c58000000e900fdff3a00000006003000b20075
:101c680000060100200005003000050040000500c6
:101c780050000500808b80004200de00320e02001a
:101c880000000000900d0200000000000115210076
:101c9800808b800081004000810040000018800097
:101ca800800878001018800070878800201880004d
:101cb80060878800000000000000000000000000ad
:101cc8000000000000000000fa0d02000000000003
:101cd800ca0d0200000000007031ec000001200075
:101ce8007011e30001003100000006007031ef00c0
:101cf8005011f8008010f9005211f8008210f90014
:101d08005411f8008410f9005611f8008610f900f3
:101d1800420d020000000000a08788005811f8005a
:101d28008010f9005a11f8008210f9005c11f800cf
:101d38008410f9005e11f8008610f900420d0200c7
:101d480000000000b08788006011f8008010f900da
:101d58006211f8008210f9006411f8008410f9008b
:101d68006611f8008610f900420d0200000000001c
:101d7800908788006811f8008010f9006a11f8004f
:101d88008210f9006c11f8008410f9006e11f80047
:101d98008610f900420d020000000000d08788007c
:101da800000006003000b200000601000400370001
:101db8000c0037000e0037007031ef0000000600fd
:101dc800bc30ef0000878000401988002023a8005d
:101dd800a00020006c0c0200000000007031ec0034
:101de800000006002023a9007031ec000000060066
:101df8002003af0008003700bc30ec00007122005f
:101e0800bc10e300010031000000060000000000e3
:101e18007031ef00000006007031ef00410e210024
:101e2800108780004100dd0081004000001880001c
:101e380080087800e230ec0040002000e210e30067
:101e48000100310000000600e230ef00e410f80065
:101e58008010f900e610f8008210f900e810f80088
:101e68008410f900ea10f8008610f900420d02000b
:101e780000000000010f210002878000810041005e
:101e88008100410080087800e030ec00600020000c
:101e9800e010e3000100310000000600e030ef0030
:101ea800000006004200f800801f7800811f7800bb
:101eb8000368a900cf0078004f0078004200f900bd
:101ec8000040060000a0fe000068a9000080fe0097
:101ed80000400600a00f2000a0028800010020009a
:101ee800b208bb00b298bb00b208bb00b298bb00f6
:101ef8005420ef0000000600518488008830ef006d
:101f08005420ef00810b2100408480004300dd0055
:101f1800810040003100ba00008488003100ba0016
:101f2800108488003100ba00208488003100ba008b
:101f3800308488008010e20001003a0000000600aa
:101f4800008480008a10e300020032008830ec0030
:101f5800ebff370001c02200408480008100400070
:101f680081004000528480001200780080087800c8
:101f780000000600811f7800dc0f0200000000004e
:101f8800cf007800800f020000000000ee0f020072
:101f98000000000001003a000000060004100200e2
:101fa800000000004a1002000000000000000600c7
:101fb80002c022005420ef0001002a004300200044
:101fc8003100ba00001978008301e900fcff3a00eb
:101fd800000006005420ef0001002a004300200002
:101fe80002c022003100ba0032006800010032004d
:101ff800000006008301e900faff3a00000006002d
:10200800c3e8a90000002000a805020000000000a5
:102018004210020000000000000020006039880023
:1020280000002a0050398800300024004039880018
:102038000a00fc005005200070398800a00a200022
:102048007039880029e7a80000000000000000009f
:102058000000000000000000000000004210020024
:10206800000000000000200040398800cc05020074
:1020780000000000c3e8a800000006000060fe00a1
:1020880029e7af00fdff370000000600c3e8a900fc
:1020980000002000a8050200000000004210020015
:1020a800000000008001eb0000002000603988007b
:1020b80000002a0003004000030040000300400025
:1020c800030040005039880002c02200028141000c
:1020d800028141000281410002814100a00f2000dd
:1020e800a002880001002000b208bb008398bb0052
:1020f800b208bb008398bb005420ef0010002400f6
:10210800403988000a00fc0050052000703988001a
:10211800a00a20007039880029e7a8000000000004
:1021280000000000000000000000000000000000a7
:1021380042100200000000008301e8004000200077
:102148000000e8004180de000018e100d6ff3900f9
:102158000000200040398800cc0502000000000083
:10216800c3e8a800000006000413000000000000f7
:10217800000000000000000006130000010000003d
:10218800000000000000000008130000020000002a
:1021980000000000000000000a1300000300000017
:1021a8000000000000000000000000000000000027
:1021b8000000000000000000000000000000000017
:1021c8000000000000000000000000000000000007
:1021d80000000000000000000000000000000000f7
:020000040001f9
:103ff80000000000000000003412000078560000a5
:10400800bc9a0000f0de000009000000010000007a
:104018000000000000000000000000000000000098
:104028000000000000000000000000000000000088
:104038000000000000000000000000000000000078
:10404800000000000000000009000000010000005e
:104058000000000000000000000000000000000058
:104068000000000000000000000000000000000048
:104078000000000000000000000000000000000038
:10408800000000000000000009000000010000001e
:104098000000000000000000000000000000000018
:1040a8000000000000000000000000000000000008
:1040b80000000000000000000000000000000000f8
:1040c80000000000000000000900000001000000de
:1040d80000000000000000000000000000000000d8
:1040e80000000000000000000000000000000000c8
:1040f8000000000000000000cdab00000000000040
:10410800000000000000000009000000010000009d
:104118000000000000000000000000000000000097
:104128000000000000000000000000000000000087
:104138000000000000000000000000000000000077
:104148000000000000000000000000000000000067
:020000040000fa
:020000040001f9
:105000000010000086030000800000000000000087
:00000001FF
