:020000040000fa
:080000000402040000000000ee
:020000040000fa
:080400000040da000000fe00dc
:020000040000fa
:1000080000020000000200000002000000020000e0
:1000180000020000000200000002000000020000d0
:10002800000200008419000000020000b41600005d
:1000380000020000a81900000002000000020000f1
:10004800a417000000020000000200007e14000057
:10005800c0150000000200000002000000020000bd
:100068000002000000020000000200000002000080
:100078006e140000000200000002000000020000f0
:1000880000020000000200000002000092180000b8
:1000980000020000000200001e150000f01500001c
:1000a8000002000000020000000200000002000040
:1000b80000020000cc190000f01900000002000046
:1000c8000002000000020000000200000002000020
:1000d8000002000000020000000200000002000010
:1000e8000002000000020000000200000002000000
:1000f80000020000000200000002000000020000f0
:1001080000020000000200000002000000020000df
:1001180000020000000200000002000000020000cf
:1001280000020000000200000002000000020000bf
:1001380000020000000200000002000000020000af
:10014800000200000002000000020000000200009f
:10015800000200000002000000020000000200008f
:10016800000200000002000000020000000200007f
:10017800000200000002000000020000000200006f
:10018800000200000002000000020000000200005f
:10019800000200000002000000020000000200004f
:1001a800000200000002000000020000000200003f
:1001b800000200000002000000020000000200002f
:1001c800000200000002000000020000000200001f
:1001d800000200000002000000020000000200000f
:1001e80000020000000200000002000000020000ff
:1001f80000020000000200000002000000020000ef
:1002080000020000000200000002000000020000de
:1002180000020000000200000002000000020000ce
:1002280000020000000200000002000000020000be
:1002380000020000000200000002000000020000ae
:10024800000200000002000000020000000200009e
:10025800000200000002000000020000000200008e
:10026800000200000002000000020000000200007e
:0c02780000020000000200000002000074
:020000040000fa
:1004080020020400000000000000eb000007780054
:100418000c000900002f78000007eb000000060020
:10042800010821008018eb00004121000008e100cc
:10043800fcff3a00000006000fe02100e0ef210079
:1004480000018800080202000000000014020200f7
:10045800000000006c0d020000000000813e20003a
:10046800803e200062160200000000008100e900c2
:10047800fbff3a002005020000000000080202000d
:10048800000000006c0d0200000000008e03020056
:10049800000000006a0d02000000000002050200d2
:1004a800000000001c0c0200000000002a0d0200e1
:1004b8000000000000712200341602000000000055
:1004c800160c020000000000ae0c02000000000044
:1004d800400620003e1602000000000052050400fd
:1004e800000000000060fe0001e022002000200063
:1004f80080187800b00a20009c020200000000006a
:10050800d00c20009c0202000000000001e0220044
:100518006e04020000000000400620003e160200a3
:1005280000000000efff3700801878000000060088
:100538000100a70004003700f00fb200800878001f
:100548008100e800000006000100a100f00fb200e1
:100558000080fd00910870008180e800000006001e
:100568000008200001202a0002e022002e1a0200c2
:100578000000000000000000000000000000000073
:1005880001202a004e1a02000000000000000000ae
:1005980000000000000000000008200001202a00e0
:1005a80002e022002e1a02000000000000000000f5
:1005b80000000000000000000700200006082000de
:1005c80001e02200871878008703e8000603e900a5
:1005d800fcff3a00000000000000000000000000de
:1005e80000202a0070858800000820008085880087
:1005f8008e1a020000000000000000000000000049
:10060800000000000008200001202a0002e022006b
:100618002e1a020000000000000000000000000088
:100628000000000000000600256eaa00256eaa0042
:10063800256eaa00256eaa00256eaa00256eaa00be
:10064800256eaa00256eaa000060fe00f6ff37009e
:100658006040200000488800d00020001048880032
:100668008038210030488800007122007008880016
:10067800a00020003e16020000000000fcff37002a
:100688000060fe000701ae00256ea9000701af005b
:10069800256ea800faff37002004200020118800ea
:1006a800a00020003e16020000000000faff3700fc
:1006b80015cea800b00a2000a0118800a0002000d4
:1006c8003e16020000000000f9ff370000b02a00c3
:1006d800e086880030122000909988007056240027
:1006e800a0998800b09a2800b0998800f0de2c0004
:1006f800c099880080462200d099880084120200a0
:1007080000000000a00020003e16020000000000cb
:10071800eeff37000e2eef001e2eef002e2eef00fc
:100728004e2eef00000006004fcea800400020002b
:10073800000020000019880000002000101988001f
:10074800f00020002019880000002000901988007f
:10075800f0002000401988000000200030198800af
:10076800000020007019880000002000801988000f
:1007780021e3a8000000060015ceae000000060028
:10078800a8f1ae00000006003302ae00000006002b
:10079800a8f1a90015cea900000006000060fe001f
:1007a800a831af00fdff37000000060031007800d7
:1007b8000000e00001003a000000060002082000e6
:1007c8000200e100010036000000060070a0880069
:1007d80081017800a832ef00a00020002095880051
:1007e8008300780040958000810040000100a1004e
:1007f80011007800a812af000080fd00f00fb200d1
:100808000001780000f02700020170000201d20008
:1008180001a0220040958000810040008100400036
:1008280082087800a832ec000e34ed00eaff3a00a6
:10083800a632ef00a232ef00a571a8000000060062
:10084800310078000000e00001003a0000000600d6
:10085800020820000200e100010036000000060046
:1008680070a0880081017800c832ef00a000200045
:100878002096880083007800409680008100400020
:100888000100a10011007800c812af000080fd002f
:10089800f00fb2000001780000f02700020170009c
:1008a8000201d20001b02200409680008100400081
:1008b8008100400082087800c832ec000e34ed0058
:1008c800eaff3a00c632ef00c232ef00a591a80055
:1008d80000000600310078000000e00001003a0046
:1008e80000000600020820000200e10001003600b6
:1008f8000000060070a0880081017800e832ef004f
:10090800a00020002097880083007800409780008e
:10091800810040000100a10011007800e812af003a
:100928000080fd00f00fb2000001780000f0270001
:10093800020170000201d20001c02200409780002d
:10094800810040008100400082087800e832ec0015
:100958000e34ed00eaff3a00e632ef00e232ef0033
:10096800a531a80000000600310078000000e00072
:1009780001003a0000000600020820000200e10021
:10098800010036000000060070a088008101780090
:100998000833ef00a000200020988800830078002a
:1009a80040988000810040000100a10011007800fb
:1009b8000813af000080fd00f00fb20000017800be
:1009c80000f02700020170000201d20001d02200cd
:1009d8004098800081004000810040008208780033
:1009e8000833ec000e34ed00eaff3a000633ef005e
:1009f8000233ef00a671a80000000600f00f2000e7
:100a0800202eb7002000200062160200000000001f
:100a1800142ea90020002000621602000000000029
:100a280010718000f00fb200f086880000f02f00ef
:100a3800202eb60000000600ceb0ef008001eb00cb
:100a48000000eb0013aeaf000000a000034eaf00a3
:100a58000010a00002eeaf000020a000632eaf003f
:100a68000030a000ce10e30003003200708688003a
:100a78008001eb00f2ff3700803e20006216020082
:100a8800000000008301e800401f20000018e1007a
:100a980001003100eaff370000000600a991a80014
:100aa800a9b1a80010002000f094880010002000d0
:100ab800f095880010002000f0968800800c020055
:100ac8000000000020002000d40b020000000000fd
:100ad8005a0b02000000000000002000000c020079
:100ae800000000008a0b0200000000000060fe0009
:100af800940a020000000000b40602000000000092
:100b0800c003020000000000ee090200000000001f
:100b1800ec0d020000000000600f02000000000061
:100b2800e805020000000000f0ff3700a451ae0005
:100b380000000600a451a90001a822003101780094
:100b480031027800310378003084880070942100e5
:100b58000200e100010032000000060000b02a0097
:100b68000600e100010032000000060031017800b3
:100b780031017800000021000200e100010032008c
:100b880000000600000020008206020000000000ad
:100b980010fa2b00de10af0040fa2b000400e10031
:100ba80001003a00000006009c11e200010032003a
:100bb80000000600401f2000e08c88006808020042
:100bc8000000000000000600a471ae00000006004e
:100bd800a471a90001b8220031017800310278001f
:100be8003103780030848800709421000200e1000d
:100bf800010032000000060000b02a000600e100f3
:100c0800010032000000060031017800310178004f
:100c1800000021000200e10001003200000006008f
:100c280010002000820602000000000020fa2b00bd
:100c3800de10af0050fa2b000400e10001003a007a
:100c4800000006009c11e2000100320000000600ce
:100c5800401f2000e08c8800b0080200000000005f
:100c680000000600a511ae000000060001c8220021
:100c7800310178003102780031037800308488002f
:100c8800709421000200e10001003200000006001b
:100c980000b02a000600e100010032000000060052
:100ca8003101780031017800000021000200e100e4
:100cb8000100320000000600200020008206020029
:100cc8000000000030fa2b00de10af0060fa2b00a5
:100cd8000400e10001003a00000006009c11e20057
:100ce8000100320000000600401f2000e08c880050
:100cf800f80802000000000000000600de10af0047
:100d08003000b000801f7800120020000010dd00c5
:100d1800ec31b7004f0078004300dd00c31b210011
:100d2800830140008019eb00841978008100b0002d
:100d3800310078008019780031007800f00fb20097
:100d48008009780031007800310078000080fd00cb
:100d5800f00fb2000080fd0093097000000006004b
:100d68007931ae00000006008631ec0080002000da
:100d78008611e300010039008631ef00308c8000d5
:100d88000006010007003700090037000b00370094
:100d9800130037001b0037002300370025003700f9
:100da800320037006c160200000000000000060048
:100db8000205020000000000000006008c31ec0073
:100dc800400020008c11e300010031000000060003
:100dd8008c31ef00be090200000000000000060090
:100de8008e31ec00200020008e11e300010031005c
:100df800000006008e31ef00ce0702000000000060
:100e0800000006009031ec00800020009011e30003
:100e180001003100000006009031ef00ca0702000f
:100e280000000000000006007c070200000000002f
:100e3800000006009431ec00200020009411e3002b
:100e480001003100000006009431ef008009020023
:100e580000000000ba31ec0040002000ba11e300a5
:100e680001003900ba31ef0000000600d41002007a
:100e780000000000000006006831ef006a31ef0052
:100e8800c11b21000001eb009108e8001100780067
:100e9800e401e10004003900100020000200dd0038
:100ea8000080ea00ec31b6008100b0000201e800e1
:100eb800600020000010e100f3ff3900ec11af00e2
:100ec8006bd1a800ec31af006b91a800ec51af00da
:100ed8006b51a800ec71af006b11a800ec91af004a
:100ee8006ad1a800ecb1af006a91a8000000060022
:100ef8009a31ec00400620009a11e3000100390005
:100f0800a231a9009831ec00400620009811e300b6
:100f180008003900a211a90010002000008b8800e9
:100f28006231ef006431ef006631ef006831ef00a5
:100f38006a31ef000000eb00a231af000000a00012
:100f4800a211af000010a000000601000300370046
:100f58000500370007003700090037006c31ef0043
:100f68006c51a800000006006c31ef006c31a8003d
:100f7800000006006c31ef006c71a800000006004c
:100f88006c31ef006c11a80000000600000006009c
:100f98000000060000022000808b880000b02a00b4
:100fa800e0868800f231ef00000021009099880067
:100fb8006811f8003413f9006a11f8003613f900c3
:100fc8006c11f8003813f9006e11f8003a13f900a3
:100fd80094120200000000000000060031390000f1
:100fe800322e000031360000382e00003139000062
:100ff800312e000031360000310000003139000088
:10100800322e000031360000382e00003139000041
:10101800312e000031360000320000003139000066
:10102800322e000031360000382e00003139000021
:10103800312e000031360000330000003139000045
:10104800322e000031360000382e00003139000001
:10105800312e000031360000340000003139000024
:10106800322e000031360000382e000031390000e1
:10107800312e000031360000350000003139000003
:10108800322e000031360000382e000031390000c1
:10109800312e00003136000036000000028d80003d
:1010a800400020000200dd00808b8800f231ef0054
:1010b8000000210090998800a030ef00d2120200b1
:1010c800000000000000060040002000808b88001f
:1010d80000b02a00e0868800f231ef00000021000d
:1010e8009099880003f02100300120004009020097
:1010f800000000005000200040090200000000002d
:10110800000020004009020000000000000c200040
:101118004009020000000000800a20004009020087
:1011280000000000908580004009020000000000d7
:10113800100a2000de10af00400a2000400902001b
:10114800000000007000200000858800d212020014
:10115800000000000000060080002000808b88004e
:1011680000b02a00e0868800f231ef00000021007c
:101178009099880003f02100300120004009020006
:10118800000000005000200040090200000000009c
:101198000000200040090200000000009085800047
:1011a8004009020000000000800a200040090200f7
:1011b80000000000f00b20004009020000000000c1
:1011c800200a2000de10af00500a2000400902006b
:1011d800000000007000200000858800d212020084
:1011e800000000000000060000012000808b88003d
:1011f80000b02a00e0868800f231ef0000002100ec
:101208009099880003f02100300120004009020075
:10121800000000005000200040090200000000000b
:10122800000020004009020000000000000c20001f
:101238004009020000000000800a20004009020066
:1012480000000000908580004009020000000000b6
:10125800300a2000de10af00600a200040090200ba
:10126800000000007000200000858800d2120200f3
:101278000000000000000600f00fb2000300a70005
:1012880003003700800978008301e80000000600a9
:101298000300a1000080fd00930970008381e8002d
:1012a80000000600801f78004009020000000000ce
:1012b8004f0078000080fd00400902000000000097
:1012c800000006000001eb001100ba000100a700b1
:1012d8000080fd00f00fb200050032004009020056
:1012e800000000008100e8000201e800f6ff370076
:1012f800020078000000060080002000808b880033
:1013080000b02a00e0868800ba11f800f211f9004e
:10131800000021009099880003f02100a08580003a
:101328005609020000000000b0858000560902003e
:1013380000000000b00a2000400902000000000080
:10134800c08580004009020000000000c2858000be
:10135800a10b2100fc1a02000000000000f021008f
:101368000080510000858800d212020000000000b1
:101378000000060010002000808b880000b02a00c2
:10138800e086880000002100909988000000200075
:10139800908f8800f08680000080fd00ce10b70096
:1013a800a0998800908b8000b09988007231ef0076
:1013b8003833ef007411f8003a13f90000082000e0
:1013c800509a8800030e210052110200000000000c
:1013d80000000600d010e20001003a0000000600fc
:1013e800708680000000e800d410bc00d086800021
:1013f80002014000300880000200500000f0a70001
:101408000000060080868000d030ef000000e90070
:101418006100e1000100390000000600000601003b
:101428000000370020002000808b880010b02a00c0
:10143800e0868800d210f8003213f900f0868000a8
:101448000080fd006011b700a0998800108b800013
:10145800b09988006411f8003813f9006611f80093
:101468003a13f900641202000000000000000600b0
:101478000000000000000000000000000000000064
:101488000000060000000600808d8800b231ef00e1
:10149800b431ef000000060000000600000006005e
:1014a8003222af003222a9002222af002222a90054
:1014b8000000060002718000f0ff2f000041780054
:1014c8000271880000000600027180000000200000
:1014d800004178000271880000000600000000004a
:1014e80000000000000000000000000000000000f4
:1014f80000000000000000000000000000000000e4
:1015080000000000000000000000000000000000d3
:1015180000000000000000000000000000000600bd
:101528007c31ef007831ef00300880007691b6000a
:101538004220af0000000600c08b88007a31b70057
:1015480076b1b6000060fe0079f1af008031ec00a2
:101558007911ae00000006007e31ec000001200089
:101568007e11e300010039007e31ef00f08b80002e
:101578002e14020000000000e08b88000000060026
:101588007911ae000000060000000600b411e20068
:1015980002003200b431ed0000000600803e200059
:1015a800a08d8800908d80000006010002003700a1
:1015b8000a00370012003700c13c21000018220041
:1015c800800878002000200070a088002404020011
:1015d80000000000b231ec0000000600c13c210010
:1015e80000182300800878002000200070a08800e0
:1015f8002404020000000000b231ec0000000600e4
:10160800c13c21000008210080087800200020004b
:1016180070a088002404020000000000b031ef0030
:10162800b231ef00000006000100a70004003700f7
:1016380011007800f00fb2008100e80000000600f9
:101648000100a100110078000080fd00f00fb20039
:101658008180e80000000600180b0200000000006e
:10166800801f7800180b0200000000000080fd00b9
:101678004f0178000200700000000600200a800078
:10168800200a8000200a8000200a80000028a90083
:1016980020402000000a880040c8a80040a8a900ef
:1016a8004088a9002028a80000000600600a8000e1
:1016b800600a8000600a8000600a800000a8a90013
:1016c80020402000400a880040c8a80040a8a9007f
:1016d8004088a90020a8a80000000600a00a8000f1
:1016e800a00a8000a00a8000a00a800004a8a9001f
:1016f80020402000800a880052c8a80052a8a900eb
:101708005288a90024a8a80000000600e00a80006a
:10171800e00a8000e00a8000e00a800004c8a9000e
:1017280020402000c00a88005348a8005328a90078
:101738005308a90024c8a800000006000010a7004c
:10174800030037000000a700040037000600370038
:1017580000002a00d20b20000000060000002a002a
:10176800a21720000000060000002a00128e2000a8
:10177800000006000021ef00a20b0200000000009c
:10178800200888001208880041c8a80041a8a900bc
:101798004188a8000068a9002068a8000000060089
:1017a8000a21ef00a20b0200000000009008880048
:1017b800720888004448a8004428a9004408a800e2
:1017c8000108a9002108a800000006001821ef0060
:1017d800a20b02000000000000098800e20888004f
:1017e8004e48a8004e28a9004e08a8000388a90062
:1017f8002388a800000006001421ef00a20b0200b5
:1018080000000000f0088800d20888004dc8a80031
:101818004da8a9004d88a9000368a9002368a8005d
:101828000000060000032a00800888000000060067
:10183800217420006204200073052000824878008b
:101848008348780042c7a90000f02f00c426b600dc
:1018580070072000c426b70000f02f009226b600bb
:10186800100020009226b70000f02f00c626b60010
:10187800f0022000c626b700f00f20009026b60020
:10188800003020009026b700f00f2000a026b600f8
:10189800a00320000080fd00a026b700f00f200064
:1018a8008c26b600000021008c26b700f00f20001f
:1018b800ae26b600400120000080fd00ae26b7002d
:1018c80021742000620420007305200082487800fb
:1018d8008348780042c7a80000000600c228a80074
:1018e8004a48a8004a28a9004a08a9000288a9006d
:1018f8002288a80000000600b0062000e0082000aa
:101908004011880080002800001188000040200055
:10191800101188004648a9004628a8004608a800d3
:101928000188a9002188a8003011800030118000aa
:1019380030118000301180000168a90045c8a90055
:1019480045a8a8004588a8000168a9002168a80042
:1019580000000600b0062000e00820003002200049
:10196800c0118800800028008011880000402000f5
:10197800901188004fc8a9004fa8a9004f88a80057
:1019880003e8a90023e8a800b0118000b011800086
:10199800b0118000b011800003c8a9004f48a90009
:1019a8004f28a9004f08a80003c8a90023c8a80009
:1019b80000000600b0118000b0118000b011800056
:1019c800b011800003c8a90023c8a90000000600c0
:1019d800b0118000b0118000b0118000b0118000fb
:1019e80003c8a90023c8a8000000060010002000b2
:1019f800040037007000200002003700700020004b
:101a0800000037003174200082072000a30920005d
:101a18000300fc00824878008348780043e7b70059
:101a28002174200062042000730520000300fc00dc
:101a380082487800834878004207a8000060fe00ca
:101a48004207af00fdff3700000006004427ef0003
:101a58000003200050042000303a880000002000d5
:101a68004427b700000020004427b70000002000ea
:101a78004427b7000000000000000000000000003c
:101a8800007122003416020000000000000000006f
:101a9800000000000000000010002000060d0200f9
:101aa8000000000000002000403a88000000060006
:101ab8000060fe00b00a200020118800007122009a
:101ac8003416020000000000f9ff3700000006008d
:101ad80000eea80015cea90011cea90011eea800ad
:101ae80064cea90060cea90060eea800650ea8002b
:101af800610ea900612ea800002ea800100ea800f3
:101b0800142ea900102ea900240ea900200ea90049
:101b1800242ea900202ea900244ea900204ea90099
:101b2800418ea80041aea80041cea80041eea80011
:101b3800010ea800108ea800148ea800108ea9000f
:101b4800008ea800012ea800246ea900206ea9000e
:101b5800248ea900208ea90024aea90020aea900d9
:101b6800e40d020000000000310ea90014cea90007
:101b780010cea90014eea90010eea90025aea80009
:101b880021aea900150ea800110ea900152ea90056
:101b9800112ea90024cea90020cea90024eea90068
:101ba80020eea900250ea900210ea90000000000c2
:101bb8000000000000000000000006000000060011
:101bc800350ea90000000600350ea800000006002a
:101bd800a911af0003003700a951af000600370074
:101be80000000600a911a90090938000b093880016
:101bf8000100220005003700a951a900a093800028
:101c0800b09388000128220000003700019988005d
:101c180031007800023022000200e10007003200a3
:101c2800324022000200e10004003200f2ff2f00df
:101c38000200e1000100320000000600109988004f
:101c480031007800020020000200e10004003200a8
:101c5800f2ff2f000200e100010032000000060040
:101c68003100780020998800310078003099880088
:101c78003100780040998800310078005099880038
:101c880031007800609988003100780070998800e8
:101c98003100780080998800409980000080fd001c
:101ca800f00fb2006000e10002003a00de0e04000e
:101cb800000000007000e10002003a00680e040015
:101cc800000000000000060040998000f00fb200fc
:101cd8006100e10001003900000006000006010073
:101ce8000000370050998000f000b200008b880097
:101cf80060998000108b880070998000208b880084
:101d080080998000308b8800019980002101b00003
:101d180031007800a085880031007800b0858800ff
:101d28009831ef00a211a8006831ef006a31ef0086
:101d38000002eb004200a9006ab1d60068b1d600e3
:101d48004200a9006ab1d60068b1d600a585800016
:101d58000420a700b5858000040078004200dd005b
:101d68000228de00f000b2006200e1000100390044
:101d78006a11a8000402e8006820e100edff3900bc
:101d88003100780000017800f00fb200eb02e100aa
:101d980001003200000006000280fd00f20fb200d0
:101da800c2858800a30b2100fc1a02000000000075
:101db8000000060040998000f000b2000006010013
:101dc80011003700110037001100370011003700eb
:101dd80011003700110037001100370008003700e4
:101de80007003700060037000500370004003700f9
:101df800030037000e0037000200370000003700ec
:101e080000000600000006000000060000000600b2
:101e180000000600000006000000060000000600a2
:101e280010002000b431ef00808d8800000006000b
:101e38002633ed002633ed008001eb0031027800f7
:101e480003006a00f00fb2000c003a008301e800ba
:101e58000480fd0003006a00f00fb20007003a009a
:101e68008301e800309980000018e100f3ff390091
:101e78002211020000000000000006004c110200c0
:101e880000000000000006002633ed002633ed00b8
:101e980001998800000025002813e30001003200a2
:101ea8000000060040002000f0988800cc070200df
:101eb8000000000000000600a931af000300370051
:101ec800a971af000600370000000600a931a9007b
:101ed800409480006094880001502200050037007b
:101ee800a971a900509480006094880001602200c4
:101ef800000037000199880031007800708f880051
:101f080031007800808f880000902800ee11e300ef
:101f18000100320000000600f0ff2f00f011e3007e
:101f280002003a0070868000808f880070868000ea
:101f3800f011e300010032000000060031007800d3
:101f4800209988000080fd00f00fb200eb02e1004c
:101f58000100320000000600310078003099880046
:101f6800310078004099880031007800e0998800b5
:101f780031007800f099880031007800009a8800d4
:101f880031007800109a8800409980000080fd0098
:101f9800f00fb2007000e10002003a00da0f04000e
:101fa80000000000000006000000060040998000c4
:101fb800f00fb2006100e1000100390000000600e6
:101fc80000060100010037001b003700109a80004e
:101fd800a08b8800f00fb2009085880022100200c4
:101fe80000000000030e2100019980002101b000cb
:101ff8000204200031007800801978000201e9000d
:10200800fcff3a00a271ae00be1002000000000002
:10201800a271a80010002000808688002813f8000c
:10202800d210f9003c13f800d410f9009a31ef00ef
:10203800a231a80000000600000006003e13e200de
:1020480001003a0000000600f09980000080fd00c1
:10205800f00fb2007000e1000f0032007100e100e3
:102068001d0032007200e100230032007300e1001d
:102078001100320000000600f0998000f00fb20055
:10208800ff03e1002c003200728680000200e100ac
:102098002900320000000600f0998000f00fb2001d
:1020a800ff03e10027003200728680000200e10091
:1020b8002400320000000600f0998000f00fb20002
:1020c800ff03e10022003200728680000200e10076
:1020d8001f00320000000600f0998000f00fb200e7
:1020e800ff03e1001d003200728680000200e1005b
:1020f8001a00320000000600f0998000f00fb200cc
:10210800ff03e1001f003200728680000200e10038
:102118001c00320000000600f0998000f00fb200a9
:10212800ff03e10010003200728680000200e10027
:102138000d0032000000060010b02a00908b8800c5
:102148000000060000b02a00908b880000000600fe
:10215800152ea8008231ef0000000600250ea80009
:102168008431ef0000000600a251a900ca30ef0038
:1021780000000600a251a800ca30ef00cc30ef00e2
:1021880000000600e40d020000000000a251a800b3
:102198008007200050868800cc30ef000000060041
:1021a800ca10e20015003a00a251af000300370040
:1021b800e40d02000000000000000600e80d020027
:1021c80000000000cc30ec0001003a00cc30ed00fb
:1021d800de50ae000000060040062000cc10e300f0
:1021e80001003a00152ea80060092000cc10e30079
:1021f80001003a00152ea90000000600ca30ed00c3
:1022080000000600000006000000060000000600ae
:10221800000006000000060000000600409980004b
:1022280029f3a800909988003433ef003633ef0083
:102238003833ef003a33ef00b100370000002000d8
:1022480090998800ae00370010002000909988000f
:10225800ab0037002000200090998800a8003700c4
:102268003000200090998800a50037004000200029
:1022780090998800a20037005000200090998800ab
:102288009f00370060002000909988009c0037006c
:1022980070002000909988009900370024130200ec
:1022a80000000000c611020000000000908f8000ae
:1022b800501202000000000007003700241302003b
:1022c80000000000c611020000000000f0ff2f000f
:1022d8005012020000000000e08680005012020048
:1022e80000000000509a8000a000b00050120200c8
:1022f80000000000909980005012020000000000c9
:10230800a09980005012020000000000b0998000df
:102318005012020000000000c09980005012020014
:1023280000000000d0998000501202000000000058
:10233800ae1102000000000064130200000000005b
:102348004a33ed00faff3a006e1302000000000065
:10235800000006000300a7000400370013007800ff
:10236800f00fb2008301e800000006000300a1009e
:10237800130078000080fd00f00fb2008381e800b0
:10238800000006007011af000b0037007031af007d
:10239800110037007051af00170037007071af009f
:1023a8001d0037007091af002300370070b1af00f7
:1023b80029003700000006003040220064130200a4
:1023c80000000000304022000080fd00641302007d
:1023d800000000000000060020902800641302009e
:1023e80000000000209028000080fd006413020017
:1023f8000000000000000600709421006413020031
:1024080000000000709421000080fd0064130200a9
:10241800000000000000060060902800641302001d
:1024280000000000609028000080fd006413020096
:1024380000000000000006007094210064130200f0
:1024480000000000709421000080fd006413020069
:1024580000000000000006004090280064130200fd
:1024680000000000409028000080fd006413020076
:10247800000000000000060000902800641302001d
:1024880000000000009028000080fd006413020096
:102498000000000000000600801f7800f00fb20066
:1024a80064130200000000004f0078000080fd0067
:1024b800f00fb200641302000000000000000600e4
:1024c8002413020000000000401202000000000077
:1024d80070868000501202000000000017003700cc
:1024e8002413020000000000c611020000000000d2
:1024f800908f800050120200000000000f0037008b
:102508002413020000000000c611020000000000b1
:10251800f0ff2f00501202000000000007003700f3
:102528002413020000000000c61102000000000091
:10253800908f80005012020000000000e0868000aa
:102548005012020000000000a000200050120200fb
:102558000000000090998000501202000000000066
:10256800a09980005012020000000000b09980007d
:102578005012020000000000c099800050120200b2
:1025880000000000d09980005012020000000000f6
:102598006e13020000000000000006002413020071
:1025a80000000000c611020000000000908f8000ab
:1025b8005012020000000000e08680005012020065
:1025c80000000000008580002000b00050120200ca
:1025d80000000000909980005012020000000000e6
:1025e80003f02100a010e200120032000300a7004f
:1025f8000700370013007800f00fb20064130200e0
:1026080000000000a030ed008301e800f5ff37006e
:102618000300a100130078000080fd00f00fb20055
:102628006413020000000000a030ed008381e80080
:10263800ecff37006e1302000000000000000600e7
:102648007011af00a811a9007031af00a831a9001e
:102658007051af00a6b1a9007071af00a5f1a90033
:102668007091af00a531a90070b1af00a671a900a3
:102678004833ef00b00a2000209a88004633ef0064
:102688007011af00017022007031af00018022008c
:102698007051af0021e022007071af0021e02200ec
:1026a8007091af0021e0220070b1af0021e022005c
:1026b800a00e2000e8130200000000000000060041
:1026c80044b3b6004633b400fe1302000000000015
:1026d80000000600209a8000fe130200000000009f
:1026e800309a8000fe13020000000000b00e2000a7
:1026f800e8130200000000007011af000b00370063
:102708007031af000f0037007051af00160037006e
:102718007071af001a0037007091af001e003700cb
:1027280070b1af0022003700000006004813f8001f
:102738007a12f9007832ef00a811a8000188a800e1
:1027480000000600a9b1a90015cea800a8f1a900ab
:102758004813f8009012f9008e32ef00a831a80053
:1027680003e8a8000000060001e02200409a80006b
:1027780080087800da03020000000000000006006c
:1027880001e02200409a80008008780024040200ba
:10279800000000000000060001e02200409a8000ce
:1027a800800878006e0402000000000000000600a7
:1027b80001e02200409a800080087800b8040200f6
:1027c8000000000000000600f00fb2004813af0040
:1027d80003003700800878004833ec00000006004a
:1027e8000080fd00910840008180e8004833ec003b
:1027f80000000600821f7800f00fb200a20e200031
:102808000200e10008003200b20e20000200e100e0
:1028180005003200c20e20000200e1000200320072
:102828004f017800e8ff3700801f7800c00e2000b5
:10283800e813020000000000b20a20004f007800f0
:1028480000006900e8130200000000004f01780052
:10285800000006000030a7000a0037007000b20030
:1028680000060100100005002000050040000500da
:1028780080000500000105000002050000040500b5
:102888000008050032140200000000000080fd006e
:10289800000006000030a700faff37007000b20001
:1028a80000060100000805000004050000020500fc
:1028b800000105008000050040000500200005001b
:1028c8001000050052140200000000000080fd0006
:1028d800000006004200f800801f78000288a90066
:1028e8004f0078004200f900004006000288a90065
:1028f800004006004200f800801f7800811f780021
:102908000168a90031118000f10fb200a991ae0051
:1029180044003700a00e20000100e1002200320030
:10292800b00e20000100e10025003200c00e20009a
:102938000100e10038003200b00a2000a891af0081
:1029480081006800a891a900002820007012e30007
:102958003300310000002200a851af0000282200f7
:102968007012b4000000a1007012af00020037001e
:1029780001087800030037000180fd00108840003e
:102988000180fd0000948000109488000100780008
:1029980000948800010078007e32b4007cb2b60052
:1029a8007032ec001f003700a891a9007032ef00c8
:1029b8007e32ef007c32ef00a3b1a8001900370087
:1029c800a891a900b00a20007c92b6008092b600b7
:1029d80014003a00009480008012b4008212b400ff
:1029e8007e92b600f00fb2000e003a00809380008d
:1029f800a851ae0090938800a851af00a09388001a
:102a0800a851ae00a911a800a851af00a951a8006b
:102a1800a851aa0003003700a891a80001003700b8
:102a280000000000cf0078004f0078004200f90055
:102a3800004006004200f800801f7800811f7800df
:102a480003c8a900b1118000f10fb200a9b1ae000e
:102a580045003700a00e20000100e10022003200ee
:102a6800b00e20000100e10025003200c00e200059
:102a78000100e1003a003200b00a2000a8b1af001e
:102a880081006800a8b1a900001020008612e300a8
:102a98003500310000502200a871af00006022000c
:102aa8008612b4000000a1008612af0002003700b1
:102ab80001087800030037000180fd0010884000fd
:102ac8000180fd00b0948000c09488000100780067
:102ad800b0948800010078009432b40092b2b60035
:102ae8008632ec0020003700a8b1a9008632ef003a
:102af8009432ef009232ef00a3d1a8001a003700f9
:102b0800a8b1a900b00a20009292b6009692b60029
:102b180015003a00b09480009612b4009812b400e0
:102b28009492b600f00fb2000f003a003094800083
:102b3800a871ae0040948800a871af005094880036
:102b4800a871ae00a931a800a871af00a971a800aa
:102b5800a871aa0030088000d086880002003700db
:102b6800a8b1a80000003700cf0078004f00780017
:102b78004200f900004006004200f800801f78007b
:102b8800811f78000188a900a811ae000e00370047
:102b980001702200c0938000810040000100a10064
:102ba800110078007812af000080fd00f00fb2002d
:102bb800201188007832ec00d09380007812e3006e
:102bc80001003900a811a900cf0078004f00780053
:102bd8004200f900004006004200f800801f78001b
:102be800811f780003e8a900a831ae001100370062
:102bf8009c32ef0001802200709480008100400028
:102c08000100a100110078008e12af000080fd00c5
:102c1800f00fb200a01188008e32ec008094800082
:102c28008e12e30003003900a831a900a8f1a8001a
:102c3800a9b1a800cf0078004f0078004200f90041
:102c480000400600823e20000060fe000201e9000c
:102c5800fdff3a000000e900faff3a000000060014
:102c68000060fe000000e900fdff3a0000000600d9
:102c7800100020008010f8008210f80010848800ee
:102c88003008800000848800300c200010102000dc
:102c98008030b4000060fe00008480000601b500aa
:102ca80000f0a700fbff37008230ed00f4ff3a0088
:102cb8008210f9008010f900000006000e000900db
:102cc800000000000000e900fcff3a0000000600d8
:102cd800f431ec0030002000f411e3000100390069
:102ce800f431ef00a08f80000006010002003700d9
:102cf8000500370006003700f00020004019880062
:102d08002023a800000006002023a90000000600d8
:102d18002003ae000000060000188000b08f880075
:102d28002003a900f6b1d700f6b1d700b08f800014
:102d3800f00fb2000080fd00420d200011000900d4
:102d48000280d800c08f88000080fd00f00fb2001c
:102d580002003200f00f2000c08f8800000006003b
:102d68004200f800801f7800811f7800821f7800d9
:102d78000068a900a032ec0030002000a012e30097
:102d880014003900a032ef00a571ae001100370021
:102d980001a02200309580008100400081004000a1
:102da80011007800129580000200de00a232ec00cb
:102db80020958000a212e30006003900a232ef003d
:102dc800a632ec0040958000a612e300010039000d
:102dd800a571a900a5b1ae00540037000095800088
:102de800aa12e30051003a00ac32d700adf2a800b5
:102df800de10af0003003700032eae00adf2a900cd
:102e080002003700030eae00adf2a900ae32ec00ae
:102e1800a0002000ae12e30044003900a5b1a900cb
:102e2800acd2af0041003700adf2ae003f00370032
:102e3800609580004700de00f00fb20060958800c2
:102e480080007800a00e20000100e100210032007f
:102e5800b00e20000100e10023003200c00e200067
:102e68000100e1002f003200b00a2000a411af00d9
:102e780081006800a411a90000082000b412e30032
:102e88002a003100f0072000b432b60000a8220062
:102e9800b412b4000000a100b412af000200370061
:102ea80001087800030037000180fd001088400009
:102eb8000180fd00d0958000e09588000100780031
:102ec800d0958800b832b400b6b2b600b432ec007f
:102ed80016003700a411a900b432ef00b832ef0091
:102ee800b632ef0011003700a411a900b00a200083
:102ef800b692b600ba92b6000c003a00d09580009f
:102f0800ba12b400bc12b400b892b600f00fb20006
:102f180006003a00a095800090958800a451a8006a
:102f280002003700a411a800000037004f01780004
:102f3800cf0078004f0078004200f90000400600fa
:102f48004200f800801f7800811f7800821f7800f7
:102f58000108a900c032ec0030002000c012e300d4
:102f680018003900c032ef00a591ae0015003700f7
:102f780001b02200309680008100400081004000ae
:102f880011007800129680000200de000000a70001
:102f9800148ea8000000a600148ea900c232ec000e
:102fa80020968000c212e30006003900c232ef000a
:102fb800c632ec0040968000c612e30001003900da
:102fc800a591a900a4b1ae004f003700009680007b
:102fd800ca12e3004c003a00cc32d700cdf2a80068
:102fe800028eae00cdf2a900ce32ec00a000200087
:102ff800ce12e30044003900a4b1a900ccd2af003e
:1030080041003700cdf2ae003f00370060968000e7
:103018004700de00f00fb20060968800800078005c
:10302800a00e20000100e10021003200b00e2000b7
:103038000100e10023003200c00e20000100e10081
:103048002f003200b00a2000a431af0081006800d0
:10305800a431a90000082000d412e3002a0031009e
:10306800f0072000d432b60000b82200d412b40011
:103078000000a100d412af00020037000108780058
:10308800030037000180fd00108840000180fd002a
:10309800d0968000e096880001007800d0968800dd
:1030a800d832b400d6b2b600d432ec0016003700dd
:1030b800a431a900d432ef00d832ef00d632ef00a5
:1030c80011003700a431a900b00a2000d692b6003a
:1030d800da92b6000c003a00d0968000da12b400fa
:1030e800dc12b400d892b600f00fb20006003a0025
:1030f800a096800090968800a471a800020037006e
:10310800a431a800000037004f017800cf007800f4
:103118004f0078004200f900004006004200f80025
:10312800801f7800811f7800821f78000368a9003b
:103138000033ec00300020000013e30018003900d1
:103148000033ef00a671ae001500370001d0220051
:103158003098800081004000810040001100780014
:10316800129880000200de000000a70014cea8001c
:103178000000a60014cea9000233ec0020988000bd
:103188000213e300060039000233ef000633ec00b7
:10319800409880000613e30001003900a671a900d9
:1031a800a611ae0051003700009880000a13e30012
:1031b8004e003a000c33d7000df3a80012aeae0053
:1031c8000df3a9000e33ec00a00020000e13e3005d
:1031d80046003900a611a9000cd3af004300370000
:1031e8000df3ae0041003700a631ae003f003700b6
:1031f800609880004700de00f00fb20060988800f9
:1032080080007800a00e20000100e10021003200bb
:10321800b00e20000100e10023003200c00e2000a3
:103228000100e1002f003200b00a2000a651af00d3
:1032380081006800a651a900000820001413e300cb
:103248002a003100f00720001433b60000d822000d
:103258001413b4000000a1001413af0002003700db
:1032680001087800030037000180fd001088400045
:103278000180fd00d0988000e09888000100780067
:10328800d09888001833b40016b3b6001433ec0095
:1032980016003700a651a9001433ef001833ef00c9
:1032a8001633ef0011003700a651a900b00a20001c
:1032b8001693b6001a93b6000c003a00d098800016
:1032c8001a13b4001c13b4001893b600f00fb20020
:1032d80006003a00a098800090988800a691a8005f
:1032e80002003700a651a800000037004f017800ff
:1032f800cf0078004f0078004200f9000040060037
:103308004200f800801f78000028a900200a8000e9
:103318004061af00fdff3700a5b1ae00ae32ef004f
:10332800009580000000e90000f0a70020002000c0
:1033380050958800a5b1a8004001aa004f00780068
:103348004200f900004006004200f800801f7800a3
:1033580000a8a900600a80004861af00fdff37009f
:10336800a4b1ae00ce32ef00009680000000e90064
:1033780000f0a7002000200050968800a4b1a80003
:103388004801aa004f0078004200f90000400600fa
:103398004200f800801f780004a8a900a00a800055
:1033a8005061af00fdff3700a4d1ae00ee32ef0050
:1033b800009780000000e90000f0a700200020002e
:1033c80050978800a4d1a8005001aa004f007800a7
:1033d8004200f900004006004200f800801f780013
:1033e80004c8a900e00a80005861af00fdff37005b
:1033f800a611ae000e33ef00009880000000e9002f
:1034080000f0a7002000200050988800a611a8000e
:103418005801aa004f0078004200f9000040060059
:103428000060fe0029e7af00fdff3700000006003e
:10343800a00f2000a002880001002000b208bb00f5
:10344800b298bb00b208bb00b298bb005420ef0092
:10345800000006005420ef00800178003100ba0017
:10346800001978008301e900fcff3a00000006001b
:103478005420ef00800178003100ba003200680063
:1034880001003200000006008301e900faff3a005b
:1034980000000600811f7800c3e8a9000000200092
:1034a800060d020000000000141a020000000000cf
:1034b80000002000603988004f00780050398800eb
:1034c80030002400403988000a00fc005005200024
:1034d80070398800a00a20007039880029e7a80000
:1034e80000000000000000000000000000000000d4
:1034f80000000000141a0200000000000000200074
:10350800403988002a0d020000000000c3e8a80026
:1035180000000600c3e8a90000002000060d020014
:1035280000000000141a0200000000008001eb00f7
:10353800000020006039880070858000030040008a
:103548000300400003004000030040005039880099
:1035580002e0220002814100028141000281410013
:1035680002814100a00f2000a00288000100200075
:10357800b208bb008398bb00b208bb008398bb00ad
:103588005420ef0010002400403988000a00fc0095
:103598005005200070398800a00a20007039880082
:1035a80029e7a8000000000000000000000000005b
:1035b8000000000000000000141a020000000000d3
:1035c8008301e800808580000000e8004180de007b
:1035d8000018e100d6ff39000000200040398800bb
:1035e8002a0d020000000000c3e8a8000000060041
:1035f8000200e00001003a00000006000201e900b4
:103608000a1b020000000000f9ff37000100a700b4
:1036180003003700110078008100e800030037003c
:103628000100a100310078000080fd00f00fb20019
:103638000300a70003003700800978008301e80031
:10364800000006000300a1000080fd00930970003f
:103658008381e80000000600000601000004050060
:10366800100405002004050030040500400405008e
:10367800500405006004050070040500800405007e
:1036880090040500a0040500b0040500c00405006e
:10369800d0040500e0040500f0040500000505005d
:1036a800100505002005050030050500400505004a
:1036b800500505006005050070050500800505003a
:1036c80090050500a0050500b005050000000500ef
:1036d8004000050080000500c0000500000105004d
:1036e80040010500c0010500b00105000002050009
:1036f8004002050080020500c00205000003050025
:103708004003050080030500c00305001000050004
:103718005000050090000500d000050010010500cc
:103728005001050080010500f001050010020500a8
:103738005002050090020500d002050010030500a4
:103748005003050090030500d00305002000050084
:1037580060000500a0000500e0000500200105004c
:103768006001050090010500d00105002002050058
:1037780060020500a0020500e00205002003050024
:1037880060030500a0030500e00305003000050004
:1037980070000500b0000500f000050030010500cc
:1037a80070010500a0010500e001050030020500d8
:1037b80070020500b0020500f002050030030500a4
:1037c80070030500b0030500f003050000000000c9
:1037d80000000000000000000000000000000000e1
:1037e80000000000000000000000000000000000d1
:1037f80000000000000000000000000000000000c1
:1038080000000000000000000000000000000000b0
:020000040001f9
:103ff80000000000000000003412000078560000a5
:10400800000000000000000009000000010000009e
:104018000000000000000000000000000000000098
:104028000000000000000000000000000000000088
:104038000000000000000000000000000000000078
:10404800000000000000000009000000010000005e
:104058000000000000000000000000000000000058
:104068000000000000000000000000000000000048
:104078000000000000000000000000000000000038
:10408800000000000000000009000000010000001e
:104098000000000000000000000000000000000018
:1040a8000000000000000000000000000000000008
:1040b80000000000000000000000000000000000f8
:1040c80000000000000000000900000001000000de
:1040d80000000000000000000000000000000000d8
:1040e80000000000000000000000000000000000c8
:1040f80000000000000000000000000000000000b8
:1041080000000000000000000000000000000000a7
:104118000000000000000000000000000000000097
:104128000000000000000000000000000000000087
:104138000000000000000000000000000000000077
:104148000000000000000000000000000000000067
:104158000000000000000000000000000000000057
:104168000000000000000000000000000000000047
:104178000000000000000000000000000000000037
:104188000000000000000000000000000000000027
:104198000000000000000000000000000000000017
:1041a8000000000000000000000000000000000007
:1041b80000000000000000000000000000000000f7
:1041c80000000000000000000000000000000000e7
:1041d80000000000000000000000000000000000d7
:1041e80000000000000000000000000000000000c7
:1041f80000000000000000000000000001010000b5
:104208000202000003030000041000000511000072
:1042180006120000071c0000081d0000091e00000f
:104228000a1f00000b2c00000c2d00000d2e0000b2
:104238000e2f00000f3c0000103d0000113e000052
:10424800123d0000134c0000144d0000154e0000f4
:10425800164f000017ff000018ff000019ff0000ac
:104268001aff00001bff00001cff00001dff0000dc
:104278001eff00001fff00002004000021050000b1
:104288002206000023070000241300002514000064
:104298002615000027200000282100002922000000
:1042a8002a2300002b3000002c3100002d320000a2
:1042b8002e3300002f400000304100003142000042
:1042c80032430000335000003451000035520000e2
:1042d8003653000037ff000038ff000039ff0000a8
:1042e8003aff00003bff00003cff00003dff0000dc
:1042f8003eff00003fff00004008000041090000a9
:10430800420a0000430b0000441600004517000055
:1043180046180000472400004825000049260000f0
:104328004a2700004b3400004c3500004d36000091
:104338004e3700004f440000504500005146000031
:1043480052470000535400005455000055560000d1
:104358005657000057ff000058ff000059ff0000a3
:104368005aff00005bff00005cff00005dff0000db
:104378005eff00005fff0000600c0000610d0000a0
:10438800620e0000630f000064190000651a000047
:10439800661b00006728000068290000692a0000e1
:1043a8006a2b00006b3800006c3900006d3a000081
:1043b8006e3b00006f48000070490000714a000021
:1043c800724b00007358000074590000755a0000c1
:1043d800765b000077ff000078ff000079ff00009f
:1043e8007aff00007bff00007cff00007dff0000db
:0843f8007eff00007fff0000c2
:020000040000fa
:020000040001f9
:104400000010000012040000800000000000000006
:00000001FF
