:020000040000fa
:080000000402040000000000ee
:020000040000fa
:080400000040da000000fe00dc
:020000040000fa
:1000080000020000000200000002000000020000e0
:1000180000020000000200000002000000020000d0
:1000280000020000b41a000000020000b016000030
:1000380000020000d81a00000002000000020000c0
:10004800b617000000020000000200007a14000049
:10005800bc150000000200000002000000020000c1
:100068000002000000020000000200000002000080
:100078006a140000000200000002000000020000f4
:10008800000200000002000000020000c219000087
:10009800bc180000000200001a150000ec15000052
:1000a8000002000000020000000200000002000040
:1000b80000020000fc1a0000201b000000020000e3
:1000c8000002000000020000000200000002000020
:1000d8000002000000020000000200000002000010
:1000e8000002000000020000000200000002000000
:1000f80000020000000200000002000000020000f0
:1001080000020000000200000002000000020000df
:1001180000020000000200000002000000020000cf
:1001280000020000000200000002000000020000bf
:1001380000020000000200000002000000020000af
:10014800000200000002000000020000000200009f
:10015800000200000002000000020000000200008f
:10016800000200000002000000020000000200007f
:10017800000200000002000000020000000200006f
:10018800000200000002000000020000000200005f
:10019800000200000002000000020000000200004f
:1001a800000200000002000000020000000200003f
:1001b800000200000002000000020000000200002f
:1001c800000200000002000000020000000200001f
:1001d800000200000002000000020000000200000f
:1001e80000020000000200000002000000020000ff
:1001f80000020000000200000002000000020000ef
:1002080000020000000200000002000000020000de
:1002180000020000000200000002000000020000ce
:1002280000020000000200000002000000020000be
:1002380000020000000200000002000000020000ae
:10024800000200000002000000020000000200009e
:10025800000200000002000000020000000200008e
:10026800000200000002000000020000000200007e
:0c02780000020000000200000002000074
:020000040000fa
:1004080020020400000000000000eb000007780054
:100418000c000900002f78000007eb000000060020
:10042800010d21008018eb00604421000008e10064
:10043800fcff3a00000006000fe02100e0ef210079
:1004480000018800080202000000000014020200f7
:10045800000000009e0d020000000000813e200008
:10046800803e20005e160200000000008100e900c6
:10047800fbff3a002005020000000000080202000d
:10048800000000009e0d0200000000008e03020024
:10049800000000009c0d02000000000002050200a0
:1004a80000000000140c0200000000005c0d0200b7
:1004b8000000000000712200301602000000000059
:1004c8000e0c020000000000e00c0200000000001a
:1004d800400620003a160200000000005205040001
:1004e800000000000060fe0001e022002000200063
:1004f80080187800b00a20009c020200000000006a
:10050800d00c20009c0202000000000001e0220044
:100518006e04020000000000400620003a160200a7
:1005280000000000efff3700801878000000060088
:100538000100a70004003700f00fb200800878001f
:100548008100e800000006000100a100f00fb200e1
:100558000080fd00910870008180e800000006001e
:100568000008200001202a0002e022005e1b020091
:100578000000000000000000000000000000000073
:1005880001202a007e1b020000000000000000007d
:1005980000000000000000000008200001202a00e0
:1005a80002e022005e1b02000000000000000000c4
:1005b80000000000000000000700200006082000de
:1005c80001e02200871878008703e8000603e900a5
:1005d800fcff3a00000000000000000000000000de
:1005e80000202a00f0878800000820000088880082
:1005f800be1b020000000000000000000000000018
:10060800000000000008200001202a0002e022006b
:100618005e1b020000000000000000000000000057
:100628000000000000000600256eaa00256eaa0042
:10063800256eaa00256eaa00256eaa00256eaa00be
:10064800256eaa00256eaa000060fe00f6ff37009e
:100658006040200000488800d00020001048880032
:100668008038210030488800007122007008880016
:10067800a00020003a16020000000000fcff37002e
:100688000060fe000701ae00256ea9000701af005b
:10069800256ea800faff37002004200020118800ea
:1006a800a00020003a16020000000000faff370000
:1006b80015cea800b00a2000a0118800a0002000d4
:1006c8003a16020000000000f9ff370000b02a00c7
:1006d800a088880030122000409b880070562400b3
:1006e800509b8800b09a2800609b8800f0de2c00a0
:1006f800709b880080462200809b88008012020040
:1007080000000000a00020003a16020000000000cf
:10071800eeff37000e2eef001e2eef002e2eef00fc
:100728004e2eef00000006004fcea800400020002b
:10073800000020000019880000002000101988001f
:10074800f00020002019880000002000901988007f
:10075800f0002000401988000000200030198800af
:10076800000020007019880000002000801988000f
:1007780021e3a8000000060015ceae000000060028
:10078800def1ae00000006003302ae0000000600f5
:10079800def1a90015cea900000006000060fe00e9
:1007a800de31af00fdff37000000060031007800a1
:1007b8000000e00001003a000000060002082000e6
:1007c8000200e100010036000000060020a28800b7
:1007d80081017800de32ef00a0002000d09688006a
:1007e80083007800f0968000810040000100a1009d
:1007f80011007800de12af000080fd00f00fb2009b
:100808000001780000f02700020170000201d20008
:1008180001a02200f0968000810040008100400085
:1008280082087800de32ec004434ed00eaff3a003a
:10083800dc32ef00d832ef00db71a80000000600c0
:10084800310078000000e00001003a0000000600d6
:10085800020820000200e100010036000000060046
:1008680020a2880081017800fe32ef00a00020005d
:10087800d097880083007800f097800081004000be
:100888000100a10011007800fe12af000080fd00f9
:10089800f00fb2000001780000f02700020170009c
:1008a8000201d20001b02200f097800081004000d0
:1008b8008100400082087800fe32ec004434ed00ec
:1008c800eaff3a00fc32ef00f832ef00db91a800b3
:1008d80000000600310078000000e00001003a0046
:1008e80000000600020820000200e10001003600b6
:1008f8000000060020a28800810178001e33ef0066
:10090800a0002000d098880083007800f09880002c
:10091800810040000100a100110078001e13af0003
:100928000080fd00f00fb2000001780000f0270001
:10093800020170000201d20001c02200f09880007c
:100948008100400081004000820878001e33ec00de
:100958004434ed00eaff3a001c33ef001833ef008f
:10096800db31a80000000600310078000000e0003c
:1009780001003a0000000600020820000200e10021
:10098800010036000000060020a2880081017800de
:100998003e33ef00a0002000d09988008300780043
:1009a800f0998000810040000100a100110078004a
:1009b8003e13af000080fd00f00fb2000001780088
:1009c80000f02700020170000201d20001d02200cd
:1009d800f099800081004000810040008208780082
:1009e8003e33ec004434ed00eaff3a003c33ef00bc
:1009f8003833ef00dc71a80000000600f00f20007b
:100a0800202eb700200020005e1602000000000023
:100a1800142ea900200020005e160200000000002d
:100a280010718000f00fb200b088880000f02f002d
:100a3800202eb6000000060006b1ef008001eb0092
:100a48000000eb0013aeaf000000a000034eaf00a3
:100a58000010a00002eeaf000020a000632eaf003f
:100a68000030a0000611e30003003200308888003f
:100a78008001eb00f2ff3700803e20005e16020086
:100a8800000000008301e800401f20000018e1007a
:100a980001003100eaff370000000600df91a800de
:100aa800dfb1a80010002000a096880010002000e8
:100ab800a097880010002000a0988800200020003f
:100ac800b60b0200000000003a0b02000000000014
:100ad80020002000cc0b020000000000520b020096
:100ae8000000000020002000e20b020000000000cf
:100af8006a0b02000000000000002000f80b020052
:100b080000000000820b0200000000000060fe00f0
:100b18008c0a020000000000cc0602000000000061
:100b2800c003020000000000e60902000000000007
:100b3800340e020000000000640f020000000000f4
:100b4800b2050200000000000006020000000000dc
:100b58004e06020000000000ecff3700da51ae003c
:100b680000000600da51a90001a82200310178002e
:100b78003102780031037800b08688007094210033
:100b88000200e100010032000000060000b02a0067
:100b98000600e10001003200000006003101780083
:100ba80031017800000021000200e100010032005c
:100bb80000000600000020009a0602000000000065
:100bc80010fa2b001611af0040fa2b000400e100c8
:100bd80001003a0000000600d211e20001003200d4
:100be80000000600401f2000908e88008a0802003e
:100bf8000000000000000600da71ae0000000600e8
:100c0800da71a90001b822003101780031027800b8
:100c180031037800b0868800709421000200e1005a
:100c2800010032000000060000b02a000600e100c2
:100c3800010032000000060031017800310178001f
:100c4800000021000200e10001003200000006005f
:100c5800100020009a0602000000000020fa2b0075
:100c68001611af0050fa2b000400e10001003a0011
:100c780000000600d211e200010032000000060068
:100c8800401f2000908e8800d2080200000000005b
:100c980000000600db11ae000000060001c82200bb
:100ca800310178003102780031037800b08688007d
:100cb800709421000200e1000100320000000600eb
:100cc80000b02a000600e100010032000000060022
:100cd8003101780031017800000021000200e100b4
:100ce8000100320000000600200020009a060200e1
:100cf8000000000030fa2b001611af0060fa2b003c
:100d08000400e10001003a0000000600d211e200f0
:100d18000100320000000600401f2000908e88006d
:100d28001a09020000000000000006001611af00ba
:100d38003000b000801f7800120020000010dd0095
:100d48002232b7004f0078004300dd00231f210046
:100d5800830140008019eb00841978008100b000fd
:100d6800310078008019780031007800f00fb20067
:100d78008009780031007800310078000080fd009b
:100d8800f00fb2000080fd0093097000000006001b
:100d9800af31ae0000000600bc31ec00800020003e
:100da800bc11e30001003900bc31ef00e08d800088
:100db8000006010007003700090037000b00370064
:100dc8000b003700130037001b0037002e003700d8
:100dd800340037006816020000000000000006001a
:100de80002050200000000000000060000000600e6
:100df800c431ec0020002000c411e30001003100e0
:100e080000000600c431ef00f007020000000000f7
:100e180000000600c631ec0080002000c611e30087
:100e28000100310000000600c631ef00ec070200a7
:100e38000000000000000600980702000000000003
:100e4800d211e20002003200d231ed0000000600ab
:100e5800d431ec00a0002000d411e30001003100df
:100e680000000600d431ef00d631ec00300020003d
:100e7800d611e30001003900d631ef0074080200f2
:100e88000000000000000600ca31ec00200020002d
:100e9800ca11e3000100310000000600ca31ef006a
:100ea80000000600d010020000000000000006004c
:100eb800a031ef00a231ef00211f21000001eb005b
:100ec8009108e80011007800e401e100040039000d
:100ed800100020000200dd000080ea002232b60087
:100ee8008100b0000201e800600020000010e1006d
:100ef800f3ff39002212af00a3d1a8002232af00bd
:100f0800a391a8002252af00a351a8002272af00fb
:100f1800a311a8002292af00a2d1a80022b2af006c
:100f2800a291a80000000600d031ec004006200085
:100f3800d011e30001003900d831a900ce31ec000e
:100f480040062000ce11e30001003900d811a900a5
:100f580010002000c08c880040002000c08c880051
:100f6800d811a8005c070200000000009a31ef00c9
:100f78009c31ef009e31ef000000eb00d831af004c
:100f88000000a000d811af000010a000000601006a
:100f98000300370005003700070037000900370055
:100fa800a431ef00a451a80000000600a431ef000e
:100fb800a431a80000000600a431ef00a471a80025
:100fc80000000600a431ef00a411a80000000600ec
:100fd800000006000000060000022000408d880086
:100fe80000b02a00a08888002832ef000000210005
:100ff800409b8800a011f8006a13f900a211f800bc
:101008006c13f900a411f8006e13f900a611f8008a
:101018007013f900901202000000000000000600a2
:1010280031390000322e000031360000382e000021
:1010380031390000312e0000313600003100000047
:1010480031390000322e000031360000382e000001
:1010580031390000312e0000313600003200000026
:1010680031390000322e000031360000382e0000e1
:1010780031390000312e0000313600003300000005
:1010880031390000322e000031360000382e0000c1
:1010980031390000312e00003136000034000000e4
:1010a80031390000322e000031360000382e0000a1
:1010b80031390000312e00003136000035000000c3
:1010c80031390000322e000031360000382e000081
:1010d80031390000312e00003136000036000000a2
:1010e800b28e8000400020000200dd00408d8800a4
:1010f8002832ef0000002100409b8800f030ef000c
:10110800ce1202000000000000000600400020008f
:10111800408d880000b02a00a08888002832ef009f
:1011280000002100409b880003f0210030012000ce
:10113800620902000000000050002000620902005d
:10114800000000000000200062090200000000000a
:10115800000c20006209020000000000800a200044
:101168006209020000000000f00b20006209020082
:1011780000000000100a20001611af00400a2000ed
:1011880062090200000000007000200080878800cb
:10119800ce120200000000000000060080002000bf
:1011a800408d880000b02a00a08888002832ef000f
:1011b80000002100409b880003f02100300120003e
:1011c80062090200000000005000200062090200cd
:1011d800000000000000200062090200000000007a
:1011e800000c20006209020000000000800a2000b4
:1011f8006209020000000000f00b200062090200f2
:1012080000000000200a20001611af00500a20003c
:10121800620902000000000070002000808788003a
:10122800ce120200000000000000060000012000ad
:10123800408d880000b02a00a08888002832ef007e
:1012480000002100409b880003f0210030012000ad
:10125800620902000000000050002000620902003c
:1012680000000000000020006209020000000000e9
:10127800000c20006209020000000000800a200023
:101288006209020000000000f00b20006209020061
:1012980000000000300a20001611af00600a20008c
:1012a80062090200000000007000200080878800aa
:1012b800ce1202000000000000000600f00fb2008d
:1012c8000300a70003003700800978008301e800c5
:1012d800000006000300a1000080fd0093097000d3
:1012e8008381e800000006000001eb001100ba004d
:1012f8000100a7000080fd00f00fb20005003200d9
:1013080062090200000000008100e8000201e80014
:10131800f6ff370002007800000006008000200079
:10132800408d880000b02a00a088880000002100b5
:10133800409b8800f011f8002812f9008000200076
:10134800509b880090292200609b8800009026000e
:10135800709b880000002000809b8800901202008b
:10136800000000000000060010002000408d8800ea
:1013780000b02a00a088880000002100409b880057
:101388000000200040918800b08880000080fd00a7
:101398000611b700509b8800508d8000609b880024
:1013a800aa31ef006e33ef007033ef000008200021
:1013b800009c8800831121004e11020000000000eb
:1013c800000006000811e20001003a0000000600d3
:1013d800308880000000e8000c11bc009088800074
:1013e80002014000300880000200500000f0a70011
:1013f80000000600408880000831ef000000e90086
:101408006100e1000100390000000600000601004b
:101418000000370020002000408d880010b02a000e
:10142800a08888000a11f8006813f900b0888000c5
:101438000080fd009811b700509b8800d08c800078
:10144800609b88009c11f8006e13f9009e11f8004b
:101458007013f9006012020000000000000006008e
:101468000000000000000000000000000000000074
:101478000000060000000600308f8800e831ef0009
:10148800ea31ef0000000600000006000000060038
:101498003222af003222a9002222af002222a90064
:1014a8000000060002718000f0ff2f000041780064
:1014b8000271880000000600027180000000200010
:1014c800004178000271880000000600000000005a
:1014d8000000000000000000000000000000000004
:1014e80000000000000000000000000000000000f4
:1014f80000000000000000000000000000000000e4
:1015080000000000000000000000000000000600cd
:10151800b231ef00ae31ef0030088000ac91b60078
:101528004220af0000000600708d8800b031b7007f
:10153800acb1b6000060fe00aff1af00b631ec0010
:10154800af11ae0000000600b431ec00000120002d
:10155800b411e30001003900b431ef00a08d800020
:101568002a14020000000000908d88000000060088
:10157800af11ae000000060000000600ea11e2000c
:1015880002003200ea31ed0000000600803e200033
:10159800508f8800408f800000060100020037004d
:1015a8000a003700120037002140210000182200ed
:1015b800800878002000200020a28800240402006f
:1015c80000000000e831ec00000006002140210086
:1015d80000182300800878002000200020a288003e
:1015e8002404020000000000e831ec0000000600be
:1015f80021402100000821008008780020002000f8
:1016080020a288002404020000000000e631ef0058
:10161800e831ef00000006000100a70004003700d1
:1016280011007800f00fb2008100e8000000060009
:101638000100a100110078000080fd00f00fb20049
:101648008180e80000000600100b02000000000086
:10165800801f7800100b0200000000000080fd00d1
:101668004f0178000200700000000600200a800088
:10167800200a8000200a8000200a80000028a90093
:1016880020402000000a880040c8a80040a8a900ff
:101698004088a9002028a80000000600600a8000f1
:1016a800600a8000600a8000600a800000a8a90023
:1016b80020402000400a880040c8a80040a8a9008f
:1016c8004088a90020a8a80000000600a00a800001
:1016d800a00a8000a00a8000a00a800004a8a9002f
:1016e80020402000800a880052c8a80052a8a900fb
:1016f8005288a90024a8a80000000600e00a80007b
:10170800e00a8000e00a8000e00a800004c8a9001e
:1017180020402000c00a88005348a8005328a90088
:101728005308a90024c8a800000006000010a7005c
:10173800030037000000a700040037000600370048
:1017480000002a00d20b20000000060000002a003a
:10175800a21720000000060000002a00128e2000b8
:10176800000006000021ef009a0b020000000000b4
:10177800200888001208880041c8a80041a8a900cc
:101788004188a8000068a9002068a8000000060099
:101798000a21ef009a0b0200000000009008880060
:1017a800720888004448a8004428a9004408a800f2
:1017b8000108a9002108a800000006001821ef0070
:1017c8009a0b02000000000000098800e208880067
:1017d8004e48a8004e28a9004e08a8000388a90072
:1017e8002388a800000006001421ef009a0b0200cd
:1017f80000000000f0088800d20888004dc8a80042
:101808004da8a9004d88a9000368a9002368a8006d
:101818000000060000032a00800888000000060077
:10182800217420006204200073052000824878009b
:101838008348780042c7a90000f02f00c426b600ec
:1018480070072000c426b70000f02f009226b600cb
:10185800100020009226b70000f02f00c626b60020
:10186800f0022000c626b700f00f20009026b60030
:10187800003020009026b700f00f2000a026b60008
:10188800a00320000080fd00a026b700f00f200074
:101898008c26b600000021008c26b7001611af0078
:1018a8000e00370000f02f00ae26b6009001200091
:1018b800ae26b700f00f2000ae26b600f0052000d7
:1018c8000080fd00ae26b70000f02f00b026b6005d
:1018d800c0022000b026b7000d00370000f02f002e
:1018e800ae26b60080012000ae26b700f00f20001b
:1018f800ae26b600700720000080fd00ae26b700b7
:1019080000f02f00b026b60000062000b026b70071
:10191800f00f2000b026b600500220000080fd0025
:10192800b026b7002174200062042000730520004f
:10193800824878008348780042c7a8000000060063
:10194800c228a8004a48a8004a28a9004a08a900ad
:101958000288a9002288a80000000600b00620001e
:10196800e00820004011880080002800001188004d
:1019780000402000101188004648a9004628a80009
:101988004608a8000188a9002188a8003011800015
:101998003011800030118000301180000168a900ea
:1019a80045c8a90045a8a8004588a8000168a9005d
:1019b8002168a80000000600b0062000e00820000a
:1019c80030022000c01188008000280080118800a3
:1019d80000402000901188004fc8a9004fa8a90016
:1019e8004f88a80003e8a90023e8a800b0118000e8
:1019f800b0118000b0118000b011800003c8a900a8
:101a08004f48a9004f28a9004f08a80003c8a900fb
:101a180023c8a80000000600b0118000b0118000a3
:101a2800b0118000b011800003c8a90023c8a90024
:101a380000000600b0118000b0118000b0118000d5
:101a4800b011800003c8a90023c8a8000000060040
:101a5800100020000400370070002000020037004a
:101a68007000200000003700317420008207200039
:101a7800a30920000300fc0082487800834878000e
:101a880043e7b7002174200062042000730520009a
:101a98000300fc0082487800834878004207a800c9
:101aa8000060fe004207af00fdff3700000006009f
:101ab8004427ef000003200050042000303a88003b
:101ac800000020004427b700000020004427b7008a
:101ad800000020004427b7000000000000000000bc
:101ae8000000000000712200301602000000000013
:101af80000000000000000000000000010002000ae
:101b0800380d02000000000000002000403a880064
:101b1800000006000060fe00b00a200020118800c6
:101b2800007122003016020000000000f9ff3700a3
:101b38000000060000eea80015cea90011cea900ed
:101b480011eea80064cea90060cea90060eea8003e
:101b5800650ea800610ea900612ea800156ea900e7
:101b6800116ea900002ea800100ea800142ea900be
:101b7800102ea900240ea900200ea900242ea900c9
:101b8800202ea900244ea900204ea900256ea900e8
:101b9800216ea900542ea900502ea900154ea900a7
:101ba800114ea90043eea800030ea800148ea80049
:101bb800108ea900048ea800008ea900032ea8008c
:101bc800246ea900206ea900248ea900208ea900e9
:101bd80024aea90020aea90010aea80014cea9001a
:101be80010cea90025aea80021aea900152ea80088
:101bf800112ea90024cea90020cea90024eea90008
:101c080020eea900520ea800542ea800502ea900bc
:101c1800156ea800116ea900500ea80011aea800fc
:101c2800014ea8006aeea8004beea8000b0ea80013
:101c38000b2ea8005a0ea8001b8ea800000000005a
:101c48000000000000000000000006000000060080
:101c5800350ea90000000600350ea8000000060099
:101c6800df11af0003003700df51af000600370077
:101c780000000600df11a9004095800060958800eb
:101c88000100220005003700df51a90050958000af
:101c9800609588000128220000003700b19a88006a
:101ca80031007800023022000200e1000700320013
:101cb800324022000200e10004003200f2ff2f004f
:101cc8000200e1000100320000000600c09a88000e
:101cd80031007800020020000200e1000400320018
:101ce800f2ff2f000200e1000100320000000600b0
:101cf80031007800d09a880031007800e09a880096
:101d080031007800f09a880031007800009b880044
:101d180031007800109b880031007800209b8800f3
:101d280031007800309b8800f09a80000080fd0028
:101d3800f00fb2006000e10002003a00e20e040079
:101d4800000000007000e10002003a00b00e04003c
:101d58000000000000000600f09a8000f00fb200ba
:101d68006100e100010039000000060000060100e2
:101d780000003700009b8000f000b200c08c880093
:101d8800109b8000d08c8800209b8000e08c88000d
:101d9800309b8000f08c8800b19a80002101b0004f
:101da80031007800008d880031007800108d88009f
:101db800ce31ef00d811a80000000600f09a80008c
:101dc800f000b200000601001100370011003700d2
:101dd80011003700110037001100370011003700db
:101de80011003700080037000700370006003700e9
:101df8000500370004003700030037000e003700e5
:101e0800020037000000370000000600000006004e
:101e180000000600000006000000060000000600a2
:101e2800000006000000060010002000ea31ef0064
:101e3800308f8800000006005c33ed005c33ed0055
:101e48008001eb003102780003006a00f00fb20055
:101e58000c003a008301e8000480fd0003006a00da
:101e6800f00fb20007003a008301e800e09a800012
:101e78000018e100f3ff39001e1102000000000005
:101e880000000600481102000000000000000600e3
:101e98005c33ed005c33ed00b19a8800000025004a
:101ea8005e13e3000100320000000600400020003d
:101eb800a09a8800ee07020000000000000006005b
:101ec800df31af0003003700df71af0006003700d5
:101ed80000000600df31a900f09580001096880008
:101ee8000150220005003700df71a900009680002c
:101ef800109688000160220000003700b19a88001f
:101f080031007800209188003100780030918800f5
:101f1800009028002412e3000100320000000600af
:101f2800f0ff2f002612e30002003a0030888000fc
:101f380030918800308880002612e30001003200ca
:101f48000000060031007800d09a88000080fd006b
:101f5800f00fb200eb02e1000100320000000600c1
:101f680031007800e09a880031007800f09a880003
:101f780031007800909b880031007800a09b880091
:101f880031007800b09b880031007800c09b880041
:101f9800f09a80000080fd00f00fb2007000e100b0
:101fa80002003a00de0f04000000000000000600f6
:101fb80000000600f09a8000f00fb2006100e10016
:101fc800010039000000060000060100010037008a
:101fd800170037001e1002000000000083112100c6
:101fe800b19a80002101b00002042000310078007d
:101ff800801978000201e900fcff3a00d871ae00b0
:10200800ba10020000000000d871a80010002000db
:10201800408888005e13f8000a11f9007213f8006e
:102028000c11f900d031ef00d831a80000000600eb
:10203800000006007413e20001003a0000000600e8
:10204800a09b80000080fd00f00fb2007000e1004e
:102058000f0032007100e1001d0032007200e10043
:10206800230032007300e100110032000000060076
:10207800a09b8000f00fb200ff03e1002c003200ab
:10208800328880000200e1002900320000000600ca
:10209800a09b8000f00fb200ff03e1002700320090
:1020a800328880000200e1002400320000000600af
:1020b800a09b8000f00fb200ff03e1002200320075
:1020c800328880000200e1001f0032000000060094
:1020d800a09b8000f00fb200ff03e1001d0032005a
:1020e800328880000200e1001a0032000000060079
:1020f800a09b8000f00fb200ff03e1001f00320038
:10210800328880000200e1001c0032000000060056
:10211800a09b8000f00fb200ff03e1001000320026
:10212800328880000200e1000d0032000000060045
:1021380010b02a00508d88000000060000b02a0068
:10214800508d880000000600152ea800b831ef0059
:1021580000000600250ea800ba31ef0000000600b6
:10216800d851a9000231ef0000000600d851a8009c
:102178000231ef000431ef00000006002c0e0200cf
:1021880000000000d851a8008007200010888800af
:102198000431ef00000006000211e20015003a00c9
:1021a800d851af00030037002c0e020000000000d9
:1021b80000000600300e0200000000000431ec00b0
:1021c80001003a000431ed001651ae00000006008f
:1021d800400620000411e30001003a00152ea80073
:1021e800600920000411e30001003a00152ea9003f
:1021f800000006000231ed000000060000000600a5
:1022080000000600000006000000060000000600ae
:1022180000000600f09a80005ff3a800409b880049
:102228006a33ef006c33ef006e33ef007033ef006a
:10223800b100370000002000409b8800ae00370046
:1022480010002000409b8800ab00370020002000d1
:10225800409b8800a800370030002000409b880081
:10226800a500370040002000409b8800a2003700ee
:1022780050002000409b88009f003700600020002d
:10228800409b88009c00370070002000409b88001d
:10229800990037002013020000000000c21102005c
:1022a80000000000409180004c1202000000000075
:1022b800070037002013020000000000c2110200ce
:1022c80000000000f0ff2f004c1202000000000088
:1022d800a08880004c12020000000000009c8000d2
:1022e800a000b0004c12020000000000409b8000db
:1022f8004c12020000000000509b80004c120200ab
:1023080000000000609b80004c12020000000000ea
:10231800709b80004c12020000000000809b80002f
:102328004c12020000000000aa1102000000000088
:1023380060130200000000008033ed00faff3a004d
:102348006a13020000000000000006000300a70056
:102358000400370013007800f00fb2008301e80092
:10236800000006000300a100130078000080fd00b3
:10237800f00fb2008381e80000000600a811af004a
:102388000b003700a831af0011003700a851af008b
:1023980017003700a871af001d003700a891af00e3
:1023a80023003700a8b1af0029003700000006005d
:1023b800304022006013020000000000304022007c
:1023c8000080fd006013020000000000000006000d
:1023d80020902800601302000000000020902800d0
:1023e8000080fd00601302000000000000000600ed
:1023f8007094210060130200000000007094210016
:102408000080fd00601302000000000000000600cc
:1024180070942100601302000000000070942100f5
:102428000080fd00601302000000000000000600ac
:1024380070942100601302000000000070942100d5
:102448000080fd006013020000000000000006008c
:10245800409028006013020000000000409028000f
:102468000080fd006013020000000000000006006c
:10247800009028006013020000000000009028006f
:102488000080fd006013020000000000000006004c
:10249800801f7800f00fb2006013020000000000f7
:1024a8004f0078000080fd00f00fb20060130200ba
:1024b80000000000000006002013020000000000d9
:1024c8003c12020000000000308880004c1202001c
:1024d8000000000017003700201302000000000071
:1024e800c211020000000000409180004c1202005e
:1024f800000000000f003700201302000000000059
:10250800c211020000000000f0ff2f004c12020070
:102518000000000007003700201302000000000040
:10252800c211020000000000409180004c1202001d
:1025380000000000a08880004c120200000000008b
:10254800a00020004c12020000000000409b800008
:102558004c12020000000000509b80004c12020048
:1025680000000000609b80004c1202000000000088
:10257800709b80004c12020000000000809b8000cd
:102588004c120200000000006a1302000000000064
:10259800000006002013020000000000c211020023
:1025a80000000000409180004c1202000000000072
:1025b800a08880004c120200000000008087800084
:1025c8002000b0004c12020000000000409b800078
:1025d8004c1202000000000003f02100f010e2009d
:1025e800120032000300a70007003700130078002c
:1025f800f00fb2006013020000000000f030ed00a0
:102608008301e800f5ff37000300a10013007800fc
:102618000080fd00f00fb20060130200000000000f
:10262800f030ed008381e800ecff37006a13020008
:102638000000000000000600a811af00de11a9008c
:10264800a831af00de31a900a851af00dcb1a90064
:10265800a871af00dbf1a900a891af00db31a90098
:10266800a8b1af00dc71a9007e33ef00b00a2000ea
:10267800d09b88007c33ef00a811af0001702200c6
:10268800a831af0001802200a851af0021e022004c
:10269800a871af0021e02200a891af0021e022003c
:1026a800a8b1af0021e02200a00e2000e413020030
:1026b80000000000000006007ab3b6007c33b400c6
:1026c800fa1302000000000000000600d09b800002
:1026d800fa13020000000000e09b8000fa130200d9
:1026e80000000000b00e2000e4130200000000000b
:1026f800a811af000b003700a831af000f0037005a
:10270800a851af0016003700a871af001a003700b3
:10271800a891af001e003700a8b1af002200370013
:10272800000006007e13f800b012f900ae32ef0088
:10273800de11a8000188a80000000600dfb1a9008a
:1027480015cea800def1a9007e13f800c612f90024
:10275800c432ef00de31a80003e8a800000006003c
:1027680001e02200f09b800080087800da03020074
:10277800000000000000060001e02200f09b80003d
:102788008008780024040200000000000000060011
:1027980001e02200f09b8000800878006e040200af
:1027a800000000000000060001e02200f09b80000d
:1027b80080087800b804020000000000000006004d
:1027c800f00fb2007e13af000300370080087800d6
:1027d8007e33ec00000006000080fd0091084000f8
:1027e8008180e8007e33ec0000000600821f78003c
:1027f800f00fb200a20e20000200e1000800320033
:10280800b20e20000200e10005003200c20e2000d6
:102818000200e100020032004f017800e8ff3700b3
:10282800801f7800c00e2000e413020000000000a2
:10283800b20a20004f00780000006900e41302008b
:10284800000000004f017800000006000030a700db
:102858000a0037007000b2000006010010000500f1
:10286800200005004000050080000500000105006b
:102878000002050000040500000805002e140200ef
:10288800000000000080fd00000006000030a700e6
:10289800faff37007000b2000006010000080500ca
:1028a8000004050000020500000105008000050085
:1028b8004000050020000500100005004e1402002d
:1028c800000000000080fd00000006004200f80043
:1028d800801f78000288a9004f0078004200f900a4
:1028e800004006000288a900004006004200f800e7
:1028f800801f7800811f78000168a90031118000cd
:10290800f10fb200df91ae0044003700a00e2000a6
:102918000100e10022003200b00e20000100e100b9
:1029280025003200c00e20000100e100380032000e
:10293800b00a2000de91af0081006800de91a90096
:1029480000282000a612e300330031000000220016
:10295800de51af0000282200a612b4000000a1003a
:10296800a612af0002003700010878000300370004
:102978000180fd00108840000180fd00b0958000b6
:10298800c095880001007800b095880001007800a3
:10299800b432b400b2b2b600a632ec001f00370061
:1029a800de91a900a632ef00b432ef00b232ef0098
:1029b800d9b1a80019003700de91a900b00a20009b
:1029c800b292b600b692b60014003a00b0958000f4
:1029d800b612b400b812b400b492b600f00fb20048
:1029e8000e003a0030958000de51ae004095880018
:1029f800de51af0050958800de51ae00df11a8000f
:102a0800de51af00df51a800de51aa0003003700f5
:102a1800de91a8000100370000000000cf00780018
:102a28004f0078004200f900004006004200f8001c
:102a3800801f7800811f780003c8a900b1118000a9
:102a4800f10fb200dfb1ae0045003700a00e200044
:102a58000100e10022003200b00e20000100e10078
:102a680025003200c00e20000100e1003a003200cb
:102a7800b00a2000deb1af0081006800deb1a90015
:102a880000102000bc12e300350031000050220085
:102a9800de71af0000602200bc12b4000000a1008b
:102aa800bc12af00020037000108780003003700ad
:102ab8000180fd00108840000180fd0060968000c4
:102ac8007096880001007800609688000100780000
:102ad800ca32b400c8b2b600bc32ec0020003700dd
:102ae800deb1a900bc32ef00ca32ef00c832ef00f5
:102af800d9d1a8001a003700deb1a900b00a200019
:102b0800c892b600cc92b60015003a0060968000d4
:102b1800cc12b400ce12b400ca92b600f00fb200c4
:102b28000f003a00e0958000de71ae00f095880055
:102b3800de71af0000968800de71ae00df31a800bc
:102b4800de71af00df71a800de71aa0030088000d6
:102b58009088880002003700deb1a8000000370026
:102b6800cf0078004f0078004200f90000400600ce
:102b78004200f800801f7800811f78000188a900b2
:102b8800de11ae000e003700017022007095800043
:102b9800810040000100a10011007800ae12af00d2
:102ba8000080fd00f00fb20020118800ae32ec006a
:102bb80080958000ae12e30001003900de11a90003
:102bc800cf0078004f0078004200f900004006006e
:102bd8004200f800801f7800811f780003e8a900f0
:102be800de31ae0011003700d232ef000180220042
:102bf80020968000810040000100a10011007800ab
:102c0800c412af000080fd00f00fb200a0118800d0
:102c1800c432ec0030968000c412e300030039008f
:102c2800de31a900def1a800dfb1a800cf007800ee
:102c38004f0078004200f90000400600823e200064
:102c48000060fe000201e900fdff3a000000e90013
:102c5800faff3a00000006000060fe000000e900ec
:102c6800fdff3a000000060010002000d010f80018
:102c7800d210f8009086880030088000808688008e
:102c8800300c200010102000d030b4000060fe008e
:102c9800808680000601b50000f0a700fbff370022
:102ca800d230ed00f4ff3a00d210f900d010f9004c
:102cb800000006000e000900000000000000e90006
:102cc800fcff3a00000006002a32ec003000200029
:102cd8002a12e300010039002a32ef0050918000e7
:102ce8000006010002003700050037000600370023
:102cf800f0002000401988002023a80000000600ea
:102d08002023a900000006002003ae0000000600f2
:102d180000188000609188002003a9002cb2d70019
:102d28002cb2d70060918000f00fb2000080fd0047
:102d3800420d2000110009000280d800709188001f
:102d48000080fd00f00fb20002003200f00f2000fa
:102d580070918800000006004200f800801f78008b
:102d6800811f7800821f78000068a900d632ec0025
:102d780030002000d612e3001f003900d632ef00e1
:102d8800db71ae001c00370001a02200e096800035
:102d9800810040008100400011007800c296800048
:102da8000200de001611af00050037000000a70082
:102db800048ea8000000a600048ea90004003700b5
:102dc8000000a700148ea8000000a600148ea90019
:102dd800d832ec00d0968000d812e3000600390003
:102de800d832ef00dc32ec00f0968000dc12e30011
:102df80001003900db71a900dbb1ae0054003700d7
:102e0800b0968000e012e30051003a00e232d700a9
:102e1800e3f2a8001611af0003003700032eae003e
:102e2800e3f2a90002003700030eae00e3f2a900a6
:102e3800e432ec00a0002000e412e3004400390072
:102e4800dbb1a900e2d2af0041003700e3f2ae00e7
:102e58003f003700109780004700de00f00fb200f7
:102e68001097880080007800a00e20000100e10083
:102e780021003200b00e20000100e10023003200e2
:102e8800c00e20000100e1002f003200b00a20002f
:102e9800da11af0081006800da11a90000082000eb
:102ea800ea12e3002a003100f0072000ea32b600f7
:102eb80000a82200ea12b4000000a100ea12af0044
:102ec8000200370001087800030037000180fd0088
:102ed800108840000180fd0080978000909788004e
:102ee8000100780080978800ee32b400ecb2b6009a
:102ef800ea32ec0016003700da11a900ea32ef00d6
:102f0800ee32ef00ec32ef0011003700da11a900c1
:102f1800b00a2000ec92b600f092b6000c003a001d
:102f280080978000f012b400f212b400ee92b6005e
:102f3800f00fb20006003a005097800040978800d2
:102f4800da51a80002003700da11a80000003700a3
:102f58004f017800cf0078004f0078004200f90058
:102f6800004006004200f800801f7800811f7800aa
:102f7800821f78000108a900f632ec00300020001a
:102f8800f612e3001f003900f632ef00db91ae00c5
:102f98001c00370001b02200e0978000810040004b
:102fa8008100400011007800c29780000200de0016
:102fb8001611af00050037000000a700152ea80065
:102fc8000000a600152ea900040037000000a70085
:102fd800650ea8000000a600650ea900f832ec00f6
:102fe800d0978000f812e30006003900f832ef00ad
:102ff800fc32ec00f0978000fc12e300010039007d
:10300800db91a900dab1ae0054003700b097800018
:103018000013e30051003a000233d70003f3a8007d
:103028001611af000300370043eeae0003f3a9000a
:103038000200370062eeae0003f3a9000433ec008f
:10304800a00020000413e30044003900dab1a9000d
:1030580002d3af004100370003f3ae003f00370052
:10306800109880004700de00f00fb200109888002a
:1030780080007800a00e20000100e100210032004d
:10308800b00e20000100e10023003200c00e200035
:103098000100e1002f003200b00a2000da31af0051
:1030a80081006800da31a900000820000a13e30053
:1030b8002a003100f00720000a33b60000b82200c9
:1030c8000a13b4000000a1000a13af000200370081
:1030d80001087800030037000180fd0010884000d7
:1030e8000180fd0080988000909888000100780099
:1030f800809888000e33b4000cb3b6000a33ec0095
:1031080016003700da31a9000a33ef000e33ef005a
:103118000c33ef0011003700da31a900b00a2000a3
:103128000c93b6001093b6000c003a00809880000b
:103138001013b4001213b4000e93b600f00fb200cf
:1031480006003a005098800040988800da71a8007c
:1031580002003700da31a800000037004f0178007c
:10316800cf0078004f0078004200f90000400600c8
:103178004200f800801f7800811f7800821f7800c5
:103188000388a9001633ec00300020001613e30072
:103198001f0039001633ef00db31ae001c0037008a
:1031a80001c02200e09880008100400081004000ba
:1031b80011007800c29880000200de001611af00ee
:1031c800050037000000a700156ea8000000a60043
:1031d800156ea900040037000000a700542ea800af
:1031e8000000a600542ea9001833ec00d0988000e7
:1031f8001813e300060039001833ef001c33ec0005
:10320800f09880001c13e30001003900db31a900ad
:10321800dad1ae0054003700b09880002013e300e4
:1032280051003a002233d70023f3a8001611af004b
:1032380003003700138eae0023f3a9000200370005
:10324800520eae0023f3a9002433ec00a0002000a6
:103258002413e30044003900dad1a90022d3af00d7
:103268004100370023f3ae003f003700109980007b
:103278004700de00f00fb200109988008000780047
:10328800a00e20000100e10021003200b00e200055
:103298000100e10023003200c00e20000100e1001f
:1032a8002f003200b00a2000daf1af008100680078
:1032b800daf1a900000820002a13e3002a003100ef
:1032c800f00720002a33b60000c822002a13b400f1
:1032d8000000a1002a13af0002003700010878009f
:1032e800030037000180fd00108840000180fd00c8
:1032f8008099800090998800010078008099880062
:103308002e33b4002cb3b6002a33ec001600370075
:10331800daf1a9002a33ef002e33ef002c33ef0047
:1033280011003700daf1a900b00a20002c93b6008a
:103338003093b6000c003a00809980003013b40036
:103348003213b4002e93b600f00fb20006003a0014
:103358005099800040998800db11a80002003700ce
:10336800daf1a800000037004f017800cf0078009c
:103378004f0078004200f900004006004200f800c3
:10338800801f7800811f7800821f78000368a900d9
:103398003633ec00300020003613e3001800390003
:1033a8003633ef00dc71ae001500370001d0220083
:1033b800e099800081004000810040001100780001
:1033c800c29980000200de000000a70014cea80009
:1033d8000000a60014cea9003833ec00d099800074
:1033e8003813e300060039003833ef003c33ec00b3
:1033f800f09980003c13e30001003900dc71a9005a
:10340800dc11ae0051003700b09980004013e30092
:103418004e003a004233d70043f3a80012aeae0084
:1034280043f3a9004433ec00a00020004413e30058
:1034380046003900dc11a90042d3af004300370031
:1034480043f3ae0041003700dc31ae003f003700e7
:10345800109a80004700de00f00fb200109a880032
:1034680080007800a00e20000100e1002100320059
:10347800b00e20000100e10023003200c00e200041
:103488000100e1002f003200b00a2000dc51af003b
:1034980081006800dc51a900000820004a13e300fd
:1034a8002a003100f00720004a33b60000d8220075
:1034b8004a13b4000000a1004a13af00020037000d
:1034c80001087800030037000180fd0010884000e3
:1034d8000180fd00809a8000909a880001007800a1
:1034e800809a88004e33b4004cb3b6004a33ec00df
:1034f80016003700dc51a9004a33ef004e33ef00c5
:103508004c33ef0011003700dc51a900b00a20004d
:103518004c93b6005093b6000c003a00809a800095
:103528005013b4005213b4004e93b600f00fb2001b
:1035380006003a00509a8000409a8800dc91a80062
:1035480002003700dc51a800000037004f01780066
:10355800cf0078004f0078004200f90000400600d4
:103568004200f800801f78000028a900200a800087
:103578004061af00fdff3700dbb1ae00e432ef0081
:10358800b09680000000e90000f0a70020002000ad
:1035980000978800dbb1a8004001aa004f0078001e
:1035a8004200f900004006004200f800801f780041
:1035b80000a8a900600a80004861af00fdff37003d
:1035c800dab1ae000433ef00b09780000000e900e4
:1035d80000f0a7002000200000988800dab1a800b9
:1035e8004801aa004f0078004200f9000040060098
:1035f8004200f800801f780004a8a900a00a8000f3
:103608005061af00fdff3700dad1ae002433ef0080
:10361800b09880000000e90000f0a700200020001a
:1036280000998800dad1a8005001aa004f0078005c
:103638004200f900004006004200f800801f7800b0
:1036480004c8a900e00a80005861af00fdff3700f8
:10365800dc11ae004433ef00b09980000000e900af
:1036680000f0a70020002000009a8800dc11a800c4
:103678005801aa004f0078004200f90000400600f7
:103688000060fe0029e7af00fdff370000000600dc
:10369800a00f2000a002880001002000b208bb0093
:1036a800b298bb00b208bb00b298bb005420ef0030
:1036b800000006005420ef00800178003100ba00b5
:1036c800001978008301e900fcff3a0000000600b9
:1036d8005420ef00800178003100ba003200680001
:1036e80001003200000006008301e900faff3a00f9
:1036f80000000600811f7800c3e8a9000000200030
:10370800380d020000000000441b02000000000009
:1037180000002000603988004f0078005039880088
:1037280030002400403988000a00fc0050052000c1
:1037380070398800a00a20007039880029e7a8009d
:103748000000000000000000000000000000000071
:1037580000000000441b02000000000000002000e0
:10376800403988005c0d020000000000c3e8a80092
:1037780000000600c3e8a90000002000380d020080
:1037880000000000441b0200000000008001eb0064
:103798000000200060398800f087800003004000a6
:1037a8000300400003004000030040005039880037
:1037b80002e02200028141000281410002814100b1
:1037c80002814100a00f2000a00288000100200013
:1037d800b208bb008398bb00b208bb008398bb004b
:1037e8005420ef0010002400403988000a00fc0033
:1037f8005005200070398800a00a20007039880020
:1038080029e7a800000000000000000000000000f8
:103818000000000000000000441b0200000000003f
:103828008301e800008880000000e8004180de0095
:103838000018e100d6ff3900000020004039880058
:103848005c0d020000000000c3e8a80000000600ac
:10385800000601000004050010040500200405000e
:10386800300405004004050050040500600405000c
:10387800700405008004050090040500a0040500fc
:10388800b0040500c0040500d0040500e0040500ec
:10389800f0040500000505001005050020050500d9
:1038a80030050500400505005005050060050500c8
:1038b800700505008005050090050500a0050500b8
:1038c800b005050000000500400005008000050067
:1038d800c00005000001050040010500c001050009
:1038e800b001050000020500400205008002050045
:1038f800c002050000030500400305008003050021
:10390800c0030500100005005000050090000500e8
:10391800d0000500100105005001050080010500d8
:10392800f001050010020500500205009002050094
:10393800d0020500100305005003050090030500a0
:10394800d00305002000050060000500a000050068
:10395800e000050020010500600105009001050058
:10396800d00105002002050060020500a002050044
:10397800e00205002003050060030500a003050020
:10398800e00305003000050070000500b0000500e8
:10399800f00005003001050070010500a0010500d8
:1039a800e00105003002050070020500b0020500c4
:1039b800f00205003003050070030500b0030500a0
:1039c800f0030500000000000000000000000000f7
:1039d80000000000000000000000000000000000df
:1039e80000000000000000000000000000000000cf
:1039f80000000000000000000000000000000000bf
:103a080000000000000000000000000000000000ae
:020000040001f9
:103ff80000000000000000003412000078560000a5
:10400800000000000000000009000000010000009e
:104018000000000000000000000000000000000098
:104028000000000000000000000000000000000088
:104038000000000000000000000000000000000078
:10404800000000000000000009000000010000005e
:104058000000000000000000000000000000000058
:104068000000000000000000000000000000000048
:104078000000000000000000000000000000000038
:10408800000000000000000009000000010000001e
:104098000000000000000000000000000000000018
:1040a8000000000000000000000000000000000008
:1040b80000000000000000000000000000000000f8
:1040c80000000000000000000900000001000000de
:1040d80000000000000000000000000000000000d8
:1040e80000000000000000000000000000000000c8
:1040f80000000000000000000000000000000000b8
:1041080000000000000000000000000000000000a7
:104118000000000000000000000000000000000097
:104128000000000000000000000000000000000087
:104138000000000000000000000000000000000077
:104148000000000000000000000000000000000067
:104158000000000000000000000000000000000057
:104168000000000000000000000000000000000047
:104178000000000000000000000000000000000037
:104188000000000000000000000000000000000027
:104198000000000000000000000000000000000017
:1041a8000000000000000000000000000000000007
:1041b80000000000000000000000000000000000f7
:1041c80000000000000000000000000000000000e7
:1041d80000000000000000000000000000000000d7
:1041e80000000000000000000000000000000000c7
:1041f80000000000000000000000000001010000b5
:104208000202000003030000041000000511000072
:1042180006120000071c0000081d0000091e00000f
:104228000a1f00000b2c00000c2d00000d2e0000b2
:104238000e2f00000f3c0000103d0000113e000052
:10424800123d0000134c0000144d0000154e0000f4
:10425800164f000017ff000018ff000019ff0000ac
:104268001aff00001bff00001cff00001dff0000dc
:104278001eff00001fff00002004000021050000b1
:104288002206000023070000241300002514000064
:104298002615000027200000282100002922000000
:1042a8002a2300002b3000002c3100002d320000a2
:1042b8002e3300002f400000304100003142000042
:1042c80032430000335000003451000035520000e2
:1042d8003653000037ff000038ff000039ff0000a8
:1042e8003aff00003bff00003cff00003dff0000dc
:1042f8003eff00003fff00004008000041090000a9
:10430800420a0000430b0000441600004517000055
:1043180046180000472400004825000049260000f0
:104328004a2700004b3400004c3500004d36000091
:104338004e3700004f440000504500005146000031
:1043480052470000535400005455000055560000d1
:104358005657000057ff000058ff000059ff0000a3
:104368005aff00005bff00005cff00005dff0000db
:104378005eff00005fff0000600c0000610d0000a0
:10438800620e0000630f000064190000651a000047
:10439800661b00006728000068290000692a0000e1
:1043a8006a2b00006b3800006c3900006d3a000081
:1043b8006e3b00006f48000070490000714a000021
:1043c800724b00007358000074590000755a0000c1
:1043d800765b000077ff000078ff000079ff00009f
:1043e8007aff00007bff00007cff00007dff0000db
:0843f8007eff00007fff0000c2
:020000040000fa
:020000040001f9
:1044000050100000f80300008000000000000000d1
:00000001FF
