:020000040000fa
:080000000402040000000000ee
:020000040000fa
:080400000040da000000fe00dc
:020000040000fa
:1000080000020000000200000002000000020000e0
:1000180000020000000200000002000000020000d0
:100028000002000000020000000200006418000046
:1000380000020000000200000002000000020000b0
:100048000002000000020000000200002816000064
:100058008e170000000200000002000000020000ed
:100068000002000000020000000200000002000080
:100078000002000000020000000200000002000070
:1000880000020000000200000002000054180000f6
:100098000002000000020000ec160000c217000079
:1000a8000002000000020000000200000002000040
:1000b8000002000000020000000200000002000030
:1000c8000002000000020000000200000002000020
:1000d8000002000000020000000200000002000010
:1000e8000002000000020000000200000002000000
:1000f80000020000000200000002000000020000f0
:1001080000020000000200000002000000020000df
:1001180000020000000200000002000000020000cf
:1001280000020000000200000002000000020000bf
:1001380000020000000200000002000000020000af
:10014800000200000002000000020000000200009f
:10015800000200000002000000020000000200008f
:10016800000200000002000000020000000200007f
:10017800000200000002000000020000000200006f
:10018800000200000002000000020000000200005f
:10019800000200000002000000020000000200004f
:1001a800000200000002000000020000000200003f
:1001b800000200000002000000020000000200002f
:1001c800000200000002000000020000000200001f
:1001d800000200000002000000020000000200000f
:1001e80000020000000200000002000000020000ff
:1001f80000020000000200000002000000020000ef
:1002080000020000000200000002000000020000de
:1002180000020000000200000002000000020000ce
:1002280000020000000200000002000000020000be
:1002380000020000000200000002000000020000ae
:10024800000200000002000000020000000200009e
:10025800000200000002000000020000000200008e
:10026800000200000002000000020000000200007e
:0c02780000020000000200000002000074
:020000040000fa
:1004080020020400000000000000eb000007780054
:100418000c000900002f78000007eb000000060020
:10042800010821008018eb00203a21000008e100b3
:10043800fcff3a00000006000ff02100e0ff210059
:1004480000018800080202000000000014020200f7
:1004580000000000e8110200000000002100200058
:10046800401f2000f0170200000000008100e90092
:10047800fbff3a000802020000000000e811020039
:10048800000000000003020000000000e611020066
:1004980000000000ee10020000000000b21102008f
:1004a8000000000000712200f017020000000000a8
:1004b8000008200001002a00223221007a1a0200d6
:1004c80000000000e810020000000000e210020036
:1004d800000000002011020000000000aa02020033
:1004e80000000000ca0304000000000060002000b3
:1004f8000029b7000000060000ff2f000029b60001
:10050800148ea90000000600cc10e20003003a0097
:10051800800202000000000000000600cc30ed0060
:100528000000060080002000608688007a02020031
:1005380000000000000006004001200060868800de
:100548007a020200000000000000060000402000bf
:1005580000488800d000200010488800007d200056
:1005680030488800803222007008880000000600a9
:100578006040200000488800d00020001048880013
:10058800007d2000304888008032220070088800f2
:10059800a0002000fa17020000000000fcff37004e
:1005a80062eeaa0062eeaa0062eeaa0062eeaa005b
:1005b80062eeaa0062eeaa0062eeaa0062eeaa004b
:1005c8000060fe00f6ff37000060fe000701ae0085
:1005d80062eea9000701af0062eea800faff37003b
:1005e800b00a200020118800a0002000fa1702009d
:1005f80000000000faff37000e2eef001e2eef005d
:100608002e2eef004e2eef000000060040002000c6
:100618000000200000198800000020001019880040
:10062800f0002000201988000000200090198800a0
:10063800f0002000401988000000200030198800d0
:100648000000200070198800000020008019880030
:1006580021e3a80000000600aa10a900301220001b
:10066800308e880070562400408e8800b09a28008a
:10067800508e8800f0de2c00608e880080462200b4
:10068800708e8800f41402000000000000000600cc
:10069800d230ec0080002000d210e30001003100cd
:1006a80000000600d230ef00aa10a90000002100c7
:1006b800308e880000102000408e8800a0858000c1
:1006c800508e8800b430ef00c0848000608e8800af
:1006d80010998000708e8800b0868000f00fb200fc
:1006e8000080fd00ce31b70000082000b08e8800e1
:1006f800831d210058140200000000008803020036
:1007080000000000000006008030ef000084800038
:100718009a030200000000008030ec000001200075
:100728008010e300f9ff390000000600000178009e
:10073800812521004100dd00810040009108e8008a
:10074800110078006400e10001003100000006009b
:100758008008eb00811d2100020078004300dd00c5
:10076800810040008018eb008018eb008018eb0037
:100778008018eb0000000600812521004100dd0003
:10078800810040008008eb0000000600b190a8003e
:10079800d40f020000000000400e0200000000001c
:1007a80000002000c093880000002000d09388003b
:1007b8000c0d020000000000a1cf2000480d02002f
:1007c80000000000d40f020000000000000020001c
:1007d800408688003a05020000000000aa50a900df
:1007e800aa90a900aa70a900aa100200000000009f
:1007f8000060fe00a5f0af0015aeaa00d010af0053
:100808002818020000000000d030af0034060200b3
:1008180000000000d050af00880202000000000075
:10082800d070ae00040037002a100200000000005b
:10083800be09020000000000d090af004c03020087
:1008480000000000d0b0af00f80402000000000073
:10085800d0d0af004404020000000000300f0200b6
:1008680000000000e80c020000000000b0120200c6
:1008780000000000aa50af00d6ff3700daff3700ab
:100888000001eb008030ef00811d2100020078009c
:100898004300dd0081004000110078000080fd0069
:1008a80000c0fd00f000b2006100e10003003a0062
:1008b800100020000200dd008030b7000201e800cf
:1008c8006e10e100f0ff390000848000d810e300ca
:1008d800030032008010f800d810f900da30ef0079
:1008e800da30ec0001003a00da30ed004006200072
:1008f800da10e30001003200000006008030ef004b
:100908008230ef000001eb00c08680000200de00ac
:100918001000b2000d003200811d21000200780095
:100928004300dd0081004000110078000080fd00d8
:100938001000b20001082100810040008100400041
:10094800020078000070a000800878000201e8002a
:100958006e10e100ecff3900d610e2000b003a00ff
:100968008010e2000300320000848000b086880016
:10097800000006008210e20001003a0000000600b4
:1009880010848000b086880000000600b0868000d1
:100998008010e30001003a00000006008210e30026
:1009a80001003a00000006008010e2000300320057
:1009b8008010f800d610f900000006008210e2004e
:1009c800030032008210f800d610f900000006007b
:1009d800d630ef000000000000000000000000001a
:1009e80000000000000006008030ef00811d21009b
:1009f800008480004300dd00810040001100780081
:100a08000010a7000000a000108488000080fd00ee
:100a180000c0fd00f000b2006100e10002003a00f1
:100a28008230af00060037008030ec00e000200084
:100a38008010e300edff39009830ef000000060059
:100a48009810e20005003a000084800000c0fd0014
:100a58008210b700c084880000000600c0848000af
:100a68008290b600f0ff3a00000006004086800041
:100a78007100e100010039000000060000060100d5
:100a8800620037000f0037000e0037000d003700f6
:100a98000c0037000b0037000a0037000900370048
:100aa8000800370007003700060037000500370048
:100ab8000400370003003700020037000100370048
:100ac80000003700d40f02000000000000002000e2
:100ad800c093880000002000d09388000c0d02000d
:100ae8000000000040868000580802000000000056
:100af800e0022000420d020000000000e159200041
:100b0800480d020000000000d807020000000000a5
:100b1800408680005808020000000000d807020044
:100b280000000000415a2000480d020000000000ab
:100b380000000600534c00004f5400000000000065
:100b48005354000041540000555300003e0000007b
:100b58005354000041540000555300003a0000006f
:100b6800495000003a000000545900005045000068
:100b78003a000000534c00004f540000205300007e
:100b88005441000054550000533e0000000000008e
:100b980000000600302e0000534c00004f540000a7
:100ba80053200000494e0000464f00003e20000040
:100bb800204e00004f200000203a000020310000a5
:100bc8003233000034350000363700003839000071
:100bd8004142000043440000454600004700000031
:100be80049430000533a0000202000002020000064
:100bf80020200000202000002020000020540000b9
:100c080059500000453a000020000000d40f0200af
:100c18000000000000002000c093880000002000b1
:100c2800d09388000c0d020000000000e15c200059
:100c3800480d02000000000000002000c09388005a
:100c480010002000d09388000c0d02000000000066
:100c5800415f2000480d020000000000000006006f
:100c6800ca10e20006003200ca30ed00ca10e200e5
:100c780002003a00aa50a800aa90a90000000600a5
:100c8800408680007100e100010039000000060084
:100c980000060100100037006900370068003700bf
:100ca80067003700660037006500370064003700ca
:100cb80063003700620037006100370060003700ca
:100cc8005f0037005e0037005d0037005c003700ca
:100cd8005b0037005a00370040002000c0938800ae
:100ce80010002000d09388000c0d020000000000c6
:100cf800aa70af000d00370010998000c40d0200e3
:100d080000000000208480003c0d0200000000006c
:100d1800108480003c0d0200000000000084800068
:100d28003c0d02000000000028003700e08480002d
:100d3800c40d020000000000208480003c0d020069
:100d480000000000108480003c0d0200000000003c
:100d5800008480003c0d020000000000000020001c
:100d6800c093880010002000d09388000c0d02006a
:100d780000000000ab30ae000a003700000220007f
:100d8800420d02000000000000022000420d020097
:100d98000000000000022000420d020000000000d8
:100da8000a00370090042000420d020000000000f5
:100db80030042000420d0200000000003005200031
:100dc800420d020000000000000037008030ef00f4
:100dd80050012000c093880010002000d0938800a4
:100de8000c0d020000000000811d2100008480001d
:100df8004300dd008100400011007800b0848800c5
:100e08000080fd00f00fb2004400de000000e000aa
:100e180004003a0080072000420d02000000000094
:100e2800020037003c0d0200000000008030ec009a
:100e3800000120008010e300ebff390000000600ed
:100e4800811d2100408680000000e9004300dd008c
:100e5800810040003100780000848800310078006b
:100e680010848800310078002084880031007800e0
:100e78003084880060012000c093880000002000b2
:100e8800d09388000c0d020000000000815b200058
:100e9800480d020000000000008480000080fd0072
:100ea800f00fb2004400de00408488003c0d0200d0
:100eb80000000000408480001409020000000000c7
:100ec8008810e20003003a00f20702000000000068
:100ed8000d003700d807020000000000018e200036
:100ee800480d020000000000008480000080fd0022
:100ef8003000b2000000e8003c0d020000000000d5
:100f0800f2070200000000008810e2001c00320016
:100f1800900020008810e300190031002000200014
:100f2800c093880010002000d09388000c0d0200a8
:100f380000000000a0002000c810e30001003900f4
:100f48007832ec0000848000f000b2008c080200c7
:100f580000000000600120000208020000000000fc
:100f6800415b2000480d0200000000001808020044
:100f780000000000f2070200000000000000060068
:100f880000002000c093880010002000d093880043
:100f98000c0d02000000000080022000e0070200a3
:100fa800000000000000060000018000420d020061
:100fb80000000000000006008010f800008488008f
:100fc80000018000420d0200000000008030ed00aa
:100fd800fbff3a008010f9000000060080022000a4
:100fe8007812e3000100390000000600000220002a
:100ff800420d020000000000f8ff37008010f800e2
:1010080000848800008480007812e3000400310026
:1010180000022000420d020000000000f9ff370026
:101028008010f900000006008410f8008c10f90008
:101038008610f8008e10f90060848000f00fb2006e
:101048005e08020000000000e0022000420d0200dd
:1010580000000000608480000080fd00f00fb200f6
:101068005e08020000000000e0022000420d0200bd
:101078000000000070848000f00fb2005e080200db
:1010880000000000e0022000420d02000000000005
:10109800708480000080fd00f00fb2005e0802003e
:1010a8000000000000000600ce0d02000000000055
:1010b8000e003700c40d0200000000008410e2009a
:1010c8000a003200208480003c0d0200000000006d
:1010d800108480003c0d02000000000000848000a5
:1010e8003c0d020000000000000006008210e20033
:1010f80003003200108480003c0d02000000000054
:10110800008480003c0d0200000000000000060082
:101118006900e10001003900000006000006010036
:10112800270037002a0037002d003700300037002d
:1011380033003700360037004e4f00004e450000a0
:10114800000000004f530000204c00004f410000f9
:10115800444900004e4700000000000041500000d4
:10116800502000004c4f000041440000494e000050
:10117800470000004441000054410000204c00009a
:101188004f410000444900004e47000000000000a5
:10119800535900005320000052450000414400000c
:1011a8005900000053590000532000004552000028
:1011b800524f0000520000004e4f00003a0000005d
:1011c800018a2000480d020000000000000006000f
:1011d800618a2000480d020000000000000006009f
:1011e800218b2000480d02000000000000000600ce
:1011f800e18b2000480d02000000000000000600fe
:10120800c18c2000480d020000000000000006000c
:10121800618d2000480d020000000000000006005b
:101228006900e100010039002a00370000060100ca
:101238002c0037002f003700320037003500370008
:10124800380037003b0037003e00370041003700c8
:1012580044003700284e00004f4e0000452900008a
:10126800000000002843000054520000290000003c
:1012780028530000495000002900000028460000bb
:10128800584f00002900000028460000585300006d
:101298002900000028540000312900000000000047
:1012a800284d000041470000290000002852000096
:1012b8004f4900005029000000000000285200009b
:1012c8004543000029000000285800005858000035
:1012d8002900000081962000480d0200000000004f
:1012e80000000600e1922000480d02000000000006
:1012f8000000060061932000480d02000000000075
:1013080000000600c1932000480d02000000000004
:101318000000060021942000480d02000000000093
:101328000000060081942000480d02000000000023
:1013380000000600e1942000480d020000000000b3
:101348000000060041952000480d02000000000042
:1013580000000600a1952000480d020000000000d2
:101368000000060021962000480d02000000000041
:10137800000006008010e20002003200ec090200c2
:10138800000000008210e20002003200e0090200c2
:10139800000000008410e200020032000c0c020081
:1013a800000000008610e20002003200160c020065
:1013b80000000000000006008210af003100370076
:1013c800000006009602020000000000000006006f
:1013d8008010af00fbff37008030af0005003700fa
:1013e8008050af00b50037008070af000f003700a5
:1013f80000000600aa70af001a003700aa90af00dc
:1014080000000600c830ec0010012000c810e300fe
:1014180001003900c830ef00aa50a800ca30ef0018
:10142800960202000000000000000600aa70af004b
:1014380010003700aa90af0000000600c830ed0089
:1014480000012000c810e300010036004086880033
:10145800aa50a800ca30ef0096020200000000005f
:10146800000006009c30ec00f00f20009c30b60015
:10147800000006009c30ed00f00f20009c30b60004
:1014880000000600aa70af0000000600aa90ae0097
:10149800d4b0ef00aa90a80000003700d430ec00c8
:1014a80040002000d410e30001003900d430ef00e0
:1014b800c0122000240c020000000000a08680005a
:1014c80000060100030037000e003700190037003e
:1014d80024003700d40f02000000000000002000a4
:1014e800c093880000002000d09388000c0d0200f3
:1014f8000000000001b02000480d020000000000bc
:1015080024003700d40f0200000000000000200073
:10151800c093880000002000d09388000c0d0200c2
:101528000000000041b12000480d0200000000004a
:1015380018003700d40f020000000000000020004f
:10154800c093880000002000d09388000c0d020092
:1015580000000000c1b22000480d02000000000099
:101568000c003700d40f020000000000000020002b
:10157800c093880000002000d09388000c0d020062
:101588000000000061b42000480d020000000000c7
:1015980000003700c810e20004003a0001af200044
:1015a800480d02000000000000000600a1af200066
:1015b800480d02000000000000022000420d020059
:1015c80000000000408680000000e9003c0d020099
:1015d8000000000000000600414c00004c20000004
:1015e800534c00004f54000000000000534c000012
:1015f8004f54000000000000414300005420000048
:10160800313a0000205300004f46000054200000eb
:10161800524500005345000054200000000000001f
:101628004143000054200000333a000020480000e5
:10163800415200004457000041520000452000007c
:1016480052450000534500005420000000000000ef
:101658004143000054200000343a000020480000b4
:10166800415200004457000041520000452000004c
:10167800504f000057450000522000004f4e000018
:10168800200000004143000054200000343a0000cc
:101698002048000041520000445700004152000019
:1016a80045200000504f0000574500005220000020
:1016b8004f4600004620000000000000960202008d
:1016c80000000000aa90a9000000200040868800c1
:1016d8003a05020000000000aa50a800aa70a9005c
:1016e800ca30ef000000060000000600aa90ae0015
:1016f8001d003700a08680006400e1000100390069
:10170800000006000006010003003700070037004c
:101718000b0037000f00370000002100a08588006b
:10172800da0b020000000000000006000010210093
:10173800a0858800da0b0200000000000000060007
:1017480000202100a0858800da0b020000000000bc
:101758000000060000302100a0858800da0b020096
:101768000000000000000600aa70af000600370065
:10177800aa70a8002213f8009c10f9009a30ef0014
:10178800ac50a80000000600aa70a9009c10f80040
:101798002213f900361b020000000000aa50a8001e
:1017a800a00202000000000000000600f00f200068
:1017b800c810e20002003200408680000000e90004
:1017c800b430b70040062000240c020000000000de
:1017d800a00202000000000000002000c093880062
:1017e80010002000d09388000c0d020000000000bb
:1017f80041c02000480d0200000000000000060063
:1018080041430000544900004f4e00000000000012
:101818008410af00b5ff37008450af00b2ff370027
:10182800000006008610af00030037008650af00a6
:101838000200370000000600000006000000060055
:10184800508688000000060041430000544900000b
:101858004f4e00003a200000504f0000574500004e
:10186800522000004f46000046200000414c000076
:101878004c00000041430000544900004f4e000056
:101888003a200000504f0000574500005220000049
:101898004f46000046200000534c00004f54000003
:1018a80020000000d40f020000000000000020000b
:1018b800c093880000002000d09388000c0d02001f
:1018c8000000000081c22000480d02000000000056
:1018d80000000600d40f02000000000000002000f5
:1018e800c093880000002000d09388000c0d0200ef
:1018f80000000000e1c32000480d020000000000c5
:10190800408680003c0d0200000000000000060038
:1019180041430000544900004f4e00003a200000a7
:10192800524500005345000054200000414c00007f
:101938004c00000041430000544900004f4e000095
:101948003a20000052450000534500005420000092
:10195800534c00004f54000020000000d40f020038
:101968000000000000002000c09388000000200054
:10197800d09388000c0d020000000000c1c82000b0
:10198800480d02000000000000000600d40f02000d
:101998000000000000002000c09388000000200024
:1019a800d09388000c0d020000000000e1c920005f
:1019b800480d020000000000408680003c0d020037
:1019c800000000000000060015ceae000000060072
:1019d800b0d0ae00000006002302ae0000000600f2
:1019e800b0d0a90015cea900000006005379000068
:1019f80073740000656d0000204900006e690000e6
:101a0800742000002e2e00002e2e00002e00000054
:101a180028282100c09380007a12af008002b0000d
:101a28000804400008044000000006007000e100bf
:101a380002003a0000022000000006007100e100e8
:101a480002003a0010032000000006007200e100c6
:101a580002003a000000200000000600604fb000bd
:101a68004200af007040b000a043b0000000060084
:101a7800f001b2001a0d020000000000001c7800fe
:101a88007832ec0000000600800220007812e300a3
:101a9800090031001100ba000100a7000080fd0014
:101aa800f00fb20004003200001c78008100e8004a
:101ab8007832ec00f4ff37000000060080022000b6
:101ac8007812e3000600310031007800f00fb20010
:101ad800f9ff3200001c78007832ec00f7ff37007d
:101ae800000006001100ba000100a7000080fd00f8
:101af800f00fb20003003200001978008100e800fe
:101b0800f8ff370000197800000006008030ef0069
:101b180002025000838258000400390085007800d2
:101b2800040078008030ec00f9ff37000000060060
:101b38008830ef00027122000202500002002000eb
:101b48008282580009003900850078000400780076
:101b58008830ec00f7ff37000271220011000900fd
:101b68000280d8004084880001007800823e20006e
:101b7800110009000280d800308488000100780034
:101b880042062000110009000280d8002084880045
:101b980001007800a2002000110009000280d8008e
:101ba800108488000184880000000600400e0200ae
:101bb8000000000000002000a00e0200000000004d
:101bc80010042000b60e020000000000e00f020022
:101bd8000000000020042000b60e020000000000f3
:101be800e00f02000000000030042000b60e0200e2
:101bf80000000000e00f0200000000004004200088
:101c0800b60e020000000000803e2000fa17020015
:101c18000000000000002000a00e020000000000ec
:101c280010032000b60e020000000000e00f0200c2
:101c38000000000020032000b60e02000000000093
:101c4800e00f02000000000030032000b60e020082
:101c580000000000e00f0200000000004003200028
:101c6800b60e020000000000803e2000fa170200b5
:101c780000000000cfff3700050ea800250ea900c0
:101c880000032000b00e0200000000002000200029
:101c9800fa1702000000000000032000b00e020046
:101ca8000000000020002000fa17020000000000d9
:101cb80000032000b00e02000000000020002000f9
:101cc800fa1702000000000080032000b00e020096
:101cd8000000000020002000fa17020000000000a9
:101ce80010002000b00e02000000000020002000bc
:101cf800fa17020000000000c0002000b00e020029
:101d08000000000020002000fa1702000000000078
:101d180060002000b00e020000000000200020003b
:101d2800fa17020000000000000006000070a10081
:101d38000060a000080037000070a000060037000f
:101d4800e000200004003700c00020000200370037
:101d58008000200000003700252ea900152ea900bc
:101d680002003700252ea900152ea800248eb600e3
:101d7800f00fb20024aeb600e00f02000000000031
:101d8800252ea800e00f020000000000252ea90063
:101d9800ec0f02000000000000000600250ea9005c
:101da800252ea900152ea800248eb600f00fb2002b
:101db80024aeb600e00f020000000000252ea800a7
:101dc800e00f020000000000252ea9000000060018
:101dd800250ea900252ea900152ea900248eb600cf
:101de800f00fb20024aeb600e00f020000000000c1
:101df800252ea800e00f020000000000252ea900f3
:101e080000000600811f7800f00f2000202eb70088
:101e1800250ea800252ea900152ea900e00f020006
:101e280000000000252ea800e00f020000000000be
:101e380011718000252ea900e00f020000000000ab
:101e4800f00f20000080fd00202eb6000100780071
:101e5800cf00780000000600060f02000000000016
:101e68000070a700000006007e12e20005003a009c
:101e780000082000ec0e0200000000007e32ec009a
:101e88000000060021282100a830af000500370017
:101e9800f09380008012e30002003a000000200066
:101ea80005003700f09380000000e9008100400041
:101eb8008100400011007800d20e020000000000ee
:101ec8007e32ec00100520007e12e3000100310094
:101ed800000006007e32ef000000060021282100e5
:101ee8000001eb0000022000801878000201e800e1
:101ef800000520000010e100faff39007e32ef00f3
:101f0800aa30a900000020009a0e0200000000007c
:101f18008030ef00f00f2000b60e02000000000035
:101f28008030ec00800020008010e300f9ff3900c9
:101f3800c0012000b60e0200000000004001200091
:101f4800b60e020000000000c0012000b60e02001c
:101f58000000000000002000b60e02000000000093
:101f680000002000b60e0200000000000000200063
:101f7800b60e02000000000000002000b60e0200ad
:101f88000000000000002000b60e02000000000063
:101f980000002000a00e0200000000000000060063
:101fa8002128210000022000f204200002800900fc
:101fb8008018780000000600801f7800300020009c
:101fc8000000e900feff3a004f007800000006001c
:101fd800801f7800c02b20000000e900feff3a00b7
:101fe8004f007800000006003222af003222a9001c
:101ff8002222af002222a900000006000271800000
:10200800f0ff2f00004178000271880000000600f0
:1020180002718000000020000041780002718800f1
:1020280000000600bc30ef00520eae00bc70a800e5
:10203800522eae00bc50a800134eae00bc30a80013
:10204800136eae00bc10a800000006008030ef0040
:102058008230ef008430ef008630ef001610020067
:1020680000000000bc10e20011003a00c430ec008f
:1020780040002000c410e3004200ae00000006004b
:10208800ac30a800f0858000ac50ae001084880009
:10209800ac50a900ac10a900ac70a900be30ef008c
:1020a800c030ef00c230ef00c630ef00000006007d
:1020b800c430ef0000868000bc10e3000500320049
:1020c800c230ef00c630ef00e0858000008688004f
:1020d80000000600c230ec0020002000c210e3001f
:1020e8004200ae0000000600ac70af0007003700e9
:1020f800e0858000f085880000848800ac70a80026
:10210800ac30a900c230ed0000000600c630ec007b
:1021180040062000c610e3004220ae00040037004d
:10212800e085800020848800ac50a80000000600ec
:1021380060092000c610e3004220ae00000006003f
:10214800e08580003084880000000600d030ef0071
:10215800a430ef0030088000a290b6004220af0003
:102168000000060020858800a630b700a2b0b6009f
:102178000060fe00a5f0af00a830ec00a830af006a
:10218800ab30a800a830ae00ab30a900a510ae0057
:1021980000000600ce30ec0000012000ce10e30065
:1021a80001003900ce30ef0070868000d81502009b
:1021b80000000000808688000000060000012a0058
:1021c800900888000000060000032a0080088800a4
:1021d800000006002174200062042000730520001e
:1021e800824878008348780042c7a90000f02f0091
:1021f800c426b600f0022000c426b700f00f200065
:102208009026b600001020009026b70000f02f009e
:102218008226b600000120008226b7002174200023
:102228006204200073052000824878008348780003
:1022380042c7a80000000600b0062000e008200001
:10224800300220004011880080002800001188001a
:1022580000402000101188004648a9004628a80020
:102268004608a8000188a9002188a800301180002c
:102278003011800030118000301180000168a90001
:1022880045c8a90045a8a8004588a8000168a90074
:102298002168a80000000600b0062000e008200021
:1022a80010042000f0022000c0118800e00028007f
:1022b8008011880000402000901188004fc8a900b4
:1022c8004fa8a8004f88a80003e8a90023e8a800a1
:1022d800b0118000b0118000b0118000b0118000f2
:1022e80003c8a9004f48a9004f28a8004f08a80014
:1022f80003c8a90023c8a800000006001000200099
:102308000400370070002000020037007000200031
:10231800000037003174200082072000a309200044
:102328000300fc00824878008348780043e7b70040
:102338002174200062042000730520000300fc00c3
:1023480082487800834878004207a8000060fe00b1
:102358004207af00fdff3700000006004427ef00ea
:102368000003200050042000303a880000002000bc
:102378004427b700000020004427b70000002000d1
:102388004427b70000712200f01702000000000087
:10239800100020008e110200000000000000200044
:1023a800403a8800000006000060fe00b00a2000e5
:1023b8002011880000712200f017020000000000c0
:1023c800f9ff37000000060004eea90000eea9009e
:1023d80015cea90011cea90011eea80064cea9005f
:1023e80060cea90062eea90060eea900650ea90002
:1023f800610ea900652ea900612ea900058ea9000d
:10240800018ea900056ea900016ea900040ea9009d
:10241800000ea900042ea900002ea900140ea90080
:10242800100ea900142ea900102ea900240ea90030
:10243800200ea900242ea900202ea900244ea900b0
:10244800204ea900256ea900216ea900458ea9007d
:10245800418ea90045aea90041aea90045cea9000c
:1024680041cea90045eea90041eea900050ea9003c
:10247800010ea900148ea900108ea900048ea900cf
:10248800008ea900052ea800012ea900246ea9001f
:10249800206ea900248ea900208ea90024aea900d0
:1024a80020aea900350ea900310ea90014aea9006e
:1024b80010aea90014cea90010cea900254ea9007f
:1024c800214ea90014eea90010eea90025aea9001e
:1024d80021aea900150ea900110ea900152ea900fc
:1024e800112ea90024cea90020cea90024eea9000f
:1024f80020eea900250ea900210ea90034aea900de
:1025080030aea90034cea90030cea900252ea900ee
:10251800212ea900500ea800502ea800114ea80088
:10252800116ea800158ea900118ea90015aea8007d
:1025380011aea90015aea80011aea9000000060052
:10254800002022000008e1000100390001002200fb
:102558003100780000000600d08a80004200dd00cb
:10256800c11521008100400011007800d08d88003d
:10257800ba11e20001003a00000006008018eb00e2
:1025880031007800c08d88005a31ec00000120002d
:102598005a11e300010039005a31ef00010022000e
:1025a800c08d800081004000a412020000000000dd
:1025b800029028000200e10004003200f2ff2f0020
:1025c8000200e1000100320000000600a41202002f
:1025d80000000000a08d8800a41202000000000086
:1025e800c08d88000080fd00f00fb200eb02e10012
:1025f8000100320000000600a0848000f000b20054
:1026080003c022008301400083014000a08d8000a8
:10261800800978009430ec00a41202000000000049
:10262800d08d8800a412020000000000e08d880010
:10263800a412020000000000f08d8800a41202001d
:1026480000000000008e8800a412020000000000b4
:10265800108e8800a412020000000000208e88005e
:10266800e08d80000080fd00f00fb2006000e10006
:1026780002003a004c130400000000007000e10062
:1026880002003a0084130400000000000000060065
:10269800e08d8000f000b200000601001100370054
:1026a8001100370011003700110037001100370002
:1026b8001100370011003700080037000700370005
:1026c8000600370005003700040037000300370014
:1026d8002400370002003700000037000000060021
:1026e80000000600000006000000060000000600ca
:1026f80000000600000006000000060000000600ba
:10270800e08d8000f00fb2006100e10001003900a7
:10271800000006000006010000003700811d2100ae
:10272800a08d8000f000b2004300dd008100400071
:10273800f08d800080187800008e80008018780066
:10274800108e800080187800208e80008018780015
:10275800a08d8000f000b200c0030200000000005d
:1027680000000600ba31ed00ba31ed008001eb003f
:102778003102780003006a00f00fb2000c003a0042
:102788008301e8000480fd0003006a00f00fb20036
:1027980007003a008301e800d08d80000018e100ae
:1027a800f3ff3900181402000000000000000600c2
:1027b800421402000000000000000600b130af0023
:1027c80003003700b170af000600370000000600b4
:1027d800b130a900008d8000208d880001502200b2
:1027e80005003700b170a900108d8000208d880089
:1027f80001782200000037000000060000002000d9
:102808008008780000000600e08d8000bdf1a80077
:10281800308e8800c831ef00ca31ef00cc31ef00ac
:10282800ce31ef006600370000002000308e8800af
:102838006300370010002000308e880060003700e9
:1028480020002000308e88005d0037003000200016
:10285800308e88005a00370040002000308e8800f3
:102868005700370050002000308e88005400370091
:1028780060002000308e8800510037007000200072
:10288800308e88004e00370034150200000000002a
:10289800bc14020000000000c0858000d0140200b3
:1028a8000000000007003700341502000000000097
:1028b800bc14020000000000f0ff2f00d01402003a
:1028c8000000000000b02a00d01402000000000040
:1028d800b08e8000a000b000d014020000000000fc
:1028e800308e8000d014020000000000408e80006e
:1028f800d014020000000000508e8000d0140200a6
:1029080000000000608e8000d0140200000000006b
:10291800708e8000d014020000000000a414020091
:10292800000000005215020000000000d631ed0042
:10293800faff3a005c1502000000000000000600e3
:102948000300a7000400370013007800f00fb2005e
:102958008301e800000006000300a10013007800ce
:102968000080fd00f00fb2008381e800000006003f
:10297800aa10af000400370000902800d01402000d
:10298800000000000000060000902800d01402009b
:102998000000000000000600801f7800f00fb20061
:1029a80052150200000000004f0078000080fd0072
:1029b800f00fb200521502000000000000000600ef
:1029c8003415020000000000bc14020000000000e2
:1029d800c0858000d0140200000000000800370005
:1029e8003415020000000000bc14020000000000c2
:1029f800f0ff2f00d0140200000000000000370094
:102a080000b02a00d014020000000000a00020003e
:102a1800d014020000000000308e8000d0140200a4
:102a280000000000408e8000d0140200000000006a
:102a3800508e8000d014020000000000608e8000dc
:102a4800d014020000000000708e8000d014020034
:102a5800000000005c1502000000000000000600f5
:102a6800aa10ae00b010a900aa10af00b030a9009b
:102a7800d431ef00b00a2000808e8800d231ef00f8
:102a880001a02200aa10af0001b02200a00e200071
:102a9800921502000000000000000600d0b1b60048
:102aa800d231b400a81502000000000000000600a2
:102ab800808e8000a815020000000000908e800023
:102ac800a815020000000000b00e200092150200b8
:102ad80000000000aa10af0009003700b190a9005b
:102ae80015cea800b0d0a900d411f8004811f900fb
:102af8004631ef00b010a8000188a80000000600c9
:102b0800b0f0a900d411f800a811f900a631ef001f
:102b1800b030a80003e8a80000000600f00fb200db
:102b2800d411af000300370080087800d431ec00de
:102b3800000006000080fd00910840008180e80048
:102b4800d431ec0000000600821f7800f00fb200bc
:102b5800a20e20000200e10008003200b20e2000a0
:102b68000200e10005003200c20e20000200e10070
:102b7800020032004f017800e8ff3700801f78001c
:102b8800c00e20009215020000000000b20a2000ca
:102b98004f00780000006900921502000000000054
:102ba8004f017800000006000030a7000a00370037
:102bb8007000b200000601001000050020000500aa
:102bc8004000050080000500000105000002050026
:102bd8000004050000080500dc15020000000000e4
:102be8000080fd00000006000030a700faff370053
:102bf8007000b2000006010000080500000405008e
:102c080000020500000105008000050040000500e5
:102c18002000050010000500fc150200000000005f
:102c28000080fd00000006004200f800801f7800c8
:102c38000288a9004f0078004200f9000040060011
:102c48000288a900004006004200f800801f7800b2
:102c5800811f78000168a90031118000f10fb200ce
:102c6800b190ae0056003700a00e20000100e10030
:102c78000a003200abb0ae0051003700b00e2000a1
:102c88000100e10031003200c00e20000100e10027
:102c98000d003a00b090a80049003700abb0a8007a
:102ca800b090a9003e11af003e31ec00f0898000e1
:102cb800b08a8800908a88005431ef004c31ef00c8
:102cc8004a31ef003e003700800220005411e30033
:102cd80002003900abb0a90039003700b00a200063
:102ce800b090af0081006800b090a90000202000db
:102cf8005211e300010039005231ef0000002200b8
:102d08005211b4000000a1005211af0002003700b8
:102d180001087800030037000180fd00108840009a
:102d28000180fd00708a8000808a88000100780098
:102d3800708a8800010078004c31b4004ab1b600ae
:102d48005231ec005431ec001d003700abb0a90043
:102d5800b00a20004a91b6004e91b60018003a0019
:102d6800708a80004e11b4005011b4004c91b60026
:102d7800f00fb20012003a00a08a8000c1152100ad
:102d8800c08a80004200dd0081004000a08a8000e7
:102d980080187800b08a8000801878005831ec00dc
:102da800000120005811e300010039005831ef00fc
:102db800908a8000f0898800010037000000000038
:102dc800cf0078004f0078004200f900004006006c
:102dd8004200f800801f7800811f780003c8a9000e
:102de800b1118000f10fb200b1b0ae00450037005c
:102df800a00e20000100e10025003200b00e2000e6
:102e08000100e10027003200c00e20000100e100af
:102e18003a003200b00a2000b0b0af00810068006c
:102e2800b0b0a900002820009e11e3003500310051
:102e380000502200b070af00007822009e11b4004c
:102e48000000a1009e11af000200370001087800c1
:102e5800030037000180fd00108840000180fd005c
:102e6800708d8000808d880001007800708d88004a
:102e7800200020009e11e3000300390001007800c3
:102e8800ac31b400aab1b6009e31ec001d00370089
:102e9800b0b0a9009e31ef00ac31ef00aa31ef00cd
:102ea80018003700b0b0a900b00a2000aa91b600f7
:102eb800ae91b60013003a00708d8000ae11b400d8
:102ec800b011b400ac91b600f00fb2000d003a009a
:102ed800f08c8000b070ae00008d8800b070af003c
:102ee800108d8800b070ae00b130a800b070af008f
:102ef800b170a800b070aa0002003700b0b0a800f6
:102f080000003700cf0078004f0078004200f90039
:102f1800004006004200f800801f7800811f7800fa
:102f28000188a900b010ae001000370001a02200ef
:102f3800308a8000810040000100a1001100780063
:102f48004611af000080fd00f00fb200201188008c
:102f58004631ec00408a80004611e3000300390046
:102f6800b010a900b0d0a800b190a800cf00780098
:102f78004f0078004200f900004006004200f800c7
:102f8800801f7800811f780003e8a900b030ae00e8
:102f98000d00370001b02200308d80008100400014
:102fa8000100a10011007800a0118800a631ec00f2
:102fb800408d8000a611e30003003900b030a9005d
:102fc800b0f0a800b1b0a800cf0078004f0078009a
:102fd8004200f900004006000060fe000000e90021
:102fe800fdff3a0000000600100020008010f800e5
:102ff8008210f8001084880030088000008488005f
:10300800300c2000101020008030b4000060fe005a
:10301800008480000601b50000f0a700fbff370020
:103028008230ed00f4ff3a008210f9008010f900b8
:10303800000006000e000900000000000000e90082
:10304800fcff3a0000000600ba30ec003000200017
:10305800ba10e30001003900ba30ef00d0858000d3
:10306800000601000200370005003700060037009f
:10307800f0002000401988002023a8000000060066
:103088002023a900000006002003ae00000006006f
:1030980000188000908588002003a9000000060021
:1030a8004200f800801f7800811f78000368a9009b
:1030b800cf0078004f0078004200f9000040060079
:1030c80000a0fe000068a9000080fe000040060085
:1030d8000060fe0029e7af00fdff37000000060092
:1030e800a00f2000a002880001002000b208bb0049
:1030f800b298bb00b208bb00b298bb005420ef00e6
:1031080000000600518488008830ef005420ef004a
:10311800c1bb2100408480004300dd0081004000e5
:103128003100ba00008488003100ba001084880099
:103138003100ba00208488003100ba003084880049
:103148008010e20001003a000000060000848000c0
:103158008a10e300020032008830ec00ebff3700f1
:1031680001c02200408480008100400081004000ae
:103178005284800012007800800878000000060061
:10318800811f7800ec18020000000000cf007800d2
:103198008618020000000000fe180200000000006f
:1031a80001003a00000006001419020000000000a7
:1031b800521902000000000000c4290000000000ad
:1031c800000000000000e900fcff3a0000000600d3
:1031d8005420ef0001002a000300200002c0220052
:1031e8003100ba00001978008301e900fcff3a00b9
:1031f800000006005420ef0001002a000300200010
:1032080002c022003100ba0032006800010032001a
:10321800000006008301e900faff3a0000000600fa
:10322800c3e8a900000020008e1102000000000081
:103238006c180200000000000000200060398800bf
:1032480000002a00503988003000240040398800e6
:103258000a00fc005005200070398800a00a2000f0
:103268007039880029e7a80000000000000000006d
:103278000000000000000000000000006c180200c0
:10328800000000000000200040398800b211020050
:1032980000000000c3e8a80000000600c3e8a90079
:1032a800000020008e110200000000006c180200cf
:1032b800000000008001eb00000020006039880059
:1032c80000002a0003004000030040000300400003
:1032d800030040005039880002c0220002814100ea
:1032e800028141000281410002814100a00f2000bb
:1032f800a002880001002000b208bb008398bb0030
:10330800b208bb008398bb005420ef0010002400d3
:10331800403988000a00fc005005200070398800f8
:10332800a00a20007039880029e7a80000000000e2
:103338000000000000000000000000000000000085
:103348006c180200000000008301e8000000200063
:103358000000e8004180de000018e100d6ff3900d7
:103368000000200040398800b2110200000000006f
:10337800c3e8a800000006000006010000040500dc
:103388001004050020040500300405004004050071
:103398005004050060040500700405008004050061
:1033a80090040500a0040500b0040500c004050051
:1033b800d0040500e0040500f00405000005050040
:1033c800100505002005050030050500400505002d
:1033d800500505006005050070050500800505001d
:1033e80090050500a0050500b005050000000500d2
:1033f8004000050080000500c00005000001050030
:1034080040010500c0010500b001050000020500eb
:103418004002050080020500c00205000003050007
:103428004003050080030500c003050010000500e7
:103438005000050090000500d000050010010500af
:103448005001050080010500f0010500100205008b
:103458005002050090020500d00205001003050087
:103468005003050090030500d00305002000050067
:1034780060000500a0000500e0000500200105002f
:103488006001050090010500d0010500200205003b
:1034980060020500a0020500e00205002003050007
:1034a80060030500a0030500e003050030000500e7
:1034b80070000500b0000500f000050030010500af
:1034c80070010500a0010500e001050030020500bb
:1034d80070020500b0020500f00205003003050087
:1034e80070030500b0030500f00305005420ef0049
:1034f800800178003100ba00001978008301e900e2
:10350800fcff3a0000000600c3e8a9000000200004
:103518008e110200000000006c180200000000007c
:103528008001eb000000200060398800f0848000f2
:103538000300400003004000030040000300400077
:103548005039880002c022000281410002814100f6
:103558000281410002814100a00f2000a0028800e2
:1035680001002000b208bb008398bb00b208bb0072
:103578008398bb005420ef001000240040398800d5
:103588000a00fc005005200070398800a00a2000bd
:103598007039880029e7a80000000000000000003a
:1035a8000000000000000000000000006c1802008d
:1035b800000000008301e800008580000000e800aa
:1035c8004180de000018e100d6ff3900000020002d
:1035d80040398800b211020000000000c3e8a800ca
:1035e80000000600811f7800c3e8a9000000200041
:1035f8008e110200000000006c180200000000009c
:1036080000002000603988004f0078005039880099
:1036180030002400403988000a00fc0050052000d2
:1036280070398800a00a20007039880029e7a800ae
:103638000000000000000000000000000000000082
:10364800000000006c1802000000000000002000cc
:1036580040398800b211020000000000c3e8a80049
:103668000000060001c02200109980008008780040
:1036780014190200000000005219020000000000a6
:103688000000060000002a00f084880000082000de
:103698000085880014190200000000005219020079
:1036a80000000000000006000008200001002a00b9
:1036b80002c022007a1a0200000000000000000088
:1036c800000000000000000001002a00f61a0200b5
:1036d80000000000000000000000000000000000e2
:1036e8000008200001002a0002c022007a1a020005
:1036f80000000000000000000000000000000000c2
:10370800070020000608200001c022008718780062
:103718008703e8000603e900fcff3a000000000008
:10372800000000000000000000002a00f08488006b
:103738000008200000858800881a020000000000a8
:103748000000000000000000000000000008200049
:1037580001002a0002c022007a1a020000000000bc
:10376800000000000000000000000000000006004b
:103778000000000000000000000000000000000041
:103788000000000000000000000000000000000031
:103798000000000000000000000000000000000021
:1037a8000000000000000000000000000000000011
:020000040001f9
:103ff8000000000000000000bf000000785600002c
:10400800000000000000000009000000010000009e
:104018000000000000000000000000000000000098
:104028000000000000000000000000000000000088
:104038000000000000000000000000000000000078
:10404800000000000000000009000000010000005e
:104058000000000000000000000000000000000058
:104068000000000000000000000000000000000048
:104078000000000000000000000000000000000038
:10408800000000000000000009000000010000001e
:104098000000000000000000000000000000000018
:1040a8000000000000000000000000000000000008
:1040b80000000000000000000000000000000000f8
:1040c80000000000000000000900000001000000de
:1040d80000000000000000000000000000000000d8
:1040e80000000000000000000000000000000000c8
:1040f8000000000000000000cdab00000000000040
:10410800000000000000000009000000010000009d
:104118000000000000000000000000000000000097
:104128000000000000000000000000000000000087
:104138000000000000000000000000000000000077
:104148000000000000000000000000000000000067
:020000040000fa
:020000040001f9
:1050000000100000a4030000800000000000000069
:00000001FF
