:020000040000fa
:080000000402040000000000ee
:020000040000fa
:080400000040da000000fe00dc
:020000040000fa
:1000080000020000000200000002000000020000e0
:1000180000020000000200000002000000020000d0
:10002800000200000002000000020000200b000097
:1000380000020000000200000002000000020000b0
:100048000002000000020000000200007e0800001c
:100058001c0900000002000000020000000200006d
:100068000002000000020000000200000002000080
:100078000002000000020000000200000002000070
:10008800000200000002000000020000100b000047
:100098000002000000020000000200000002000050
:1000a8000002000000020000000200000002000040
:1000b8000002000000020000000200000002000030
:1000c8000002000000020000000200000002000020
:1000d8000002000000020000000200000002000010
:1000e8000002000000020000000200000002000000
:1000f80000020000000200000002000000020000f0
:1001080000020000000200000002000000020000df
:1001180000020000000200000002000000020000cf
:1001280000020000000200000002000000020000bf
:1001380000020000000200000002000000020000af
:10014800000200000002000000020000000200009f
:10015800000200000002000000020000000200008f
:10016800000200000002000000020000000200007f
:10017800000200000002000000020000000200006f
:10018800000200000002000000020000000200005f
:10019800000200000002000000020000000200004f
:1001a800000200000002000000020000000200003f
:1001b800000200000002000000020000000200002f
:1001c800000200000002000000020000000200001f
:1001d800000200000002000000020000000200000f
:1001e80000020000000200000002000000020000ff
:1001f80000020000000200000002000000020000ef
:1002080000020000000200000002000000020000de
:1002180000020000000200000002000000020000ce
:1002280000020000000200000002000000020000be
:1002380000020000000200000002000000020000ae
:10024800000200000002000000020000000200009e
:10025800000200000002000000020000000200008e
:10026800000200000002000000020000000200007e
:0c02780000020000000200000002000074
:020000040000fa
:1004080020020400000000000000eb000007780054
:100418000c000900002f78000007eb000000060020
:10042800010821008018eb00a03721000008e10036
:10043800fcff3a00000006000ff02100e0ff210059
:1004480000018800080202000000000014020200f7
:10045800000000002e0502000000000040062000f9
:100468004e090200000000004431ef000e2eef009c
:100478001e2eef00300502000000000041012000a0
:10048800401f20004e090200000000008100e90022
:10049800fbff3a00080202000000000030050200dd
:1004a80000000000d4020200000000003a0402002c
:1004b80000000000ee0402000000000000712200ad
:1004c8004e090200000000000000000000000000cb
:1004d8000000000034040200000000002e040200a6
:1004e800000000006404020000000000080304008b
:1004f80000000000022ea800007122004e09020030
:1005080000000000022ea900007122004e0902001e
:1005180000000000f7ff37000060fe000701ae0092
:10052800022ea9000701af00022ea800faff37002b
:100538000188a9002188a9000168a9002168a900eb
:10054800b00a2000a0118800a0002000580902006d
:1005580000000000f6ff37000060fe0000003700d2
:10056800f0ff2f004e0902000000000030122000aa
:10057800b093880040222000c093880050322000a9
:10058800d093880060422000e093880070522000d9
:10059800f09388003c07020000000000eeff3700df
:1005a8000e2eef001e2eef000e2ea8004000200099
:1005b80000002000001988000000200010198800a1
:1005c800f0002800201988000000200090198800f9
:1005d80000002000701988000000200080198800a1
:1005e80021e3a80000000600fe50ae00030037001b
:1005f800fe50a900fe70a90000000600fe50a800e9
:10060800fe70a800000006000591a80005b1a8002a
:100618004403020000000000720302000000000012
:100628000060fe00be03020000000000d2030200ca
:1006380000000000e6030200000000005c05020064
:1006480000000000f2ff37000000eb0012ceaf0000
:100658000000a000122eaf000010a00012aeaf00e4
:100668000020a000120eaf000030a000132eaf0033
:100678000040a000134eaf000050a000000006008c
:100688008030ef002803020000000000ba10e300e9
:1006980005003200801f7800ba90b60000848800f8
:1006a8004f007800d08588008010af00be30ef0082
:1006b8008030af00c030ef008050af00c230ef0094
:1006c8008070af00c430ef008090af00c630ef00fc
:1006d80080b0af00c830ef0000000600d150ae0077
:1006e80000000600be30ec00c030ec00c230ec0068
:1006f800c430ec00c630ec00c830ec00bc30ef0071
:100708008030ef008430ef00e10b2100008480008e
:1007180081004000810040009108e80001003a0093
:100728009108e90040062000110178000010e1005e
:100738000400310010002000028480000200dd0067
:10074800bc30b7008030ec00600020008010e3006f
:10075800edff39000000060000000600000006005a
:100768003222af003222a9002222af002222a900a1
:1007780000000600d030ef0030088000ce90b600b0
:100788004220af000000060080868800d230b70003
:10079800ceb0b6000060fe0000000600d630ef00c4
:1007a80050088000d490b6004220af000000060038
:1007b800b0868800d830b700d4b0b6000060fe001c
:1007c80000000600d130ae0000000600fe31ec004b
:1007d80080002000fe11e30001003900fe31ef0027
:1007e800f08f80000006010007003700090037007d
:1007f80009003700090037000900370009003700f1
:100808000900370009003700e60502000000000073
:1008180000000600000006000000060000000600b8
:1008280000000600000006000000060000000600a8
:10083800000006000021ef0000032a0020088800bd
:1008480040062000100888000068a9002068a80059
:100858000000060000032a00900888000000060037
:1008680000032a0080088800000006002174200088
:1008780062042000730520008248780083487800cd
:1008880042c7a90000f02f00c426b600400220008d
:10089800c426b70000f02f008026b6001000200004
:1008a8008026b70021742000620420007305200010
:1008b800824878008348780042c7a80000000600f4
:1008c800e0082000401188008000280000118800fe
:1008d80000402000101188004648a9004628a800ba
:1008e8004608a8000188a9002188a80030118000c6
:1008f8003011800030118000301180000168a9009b
:1009080045c8a90045a8a8004588a8000168a9000d
:100918002168a8000000060030022000c0118800ed
:100928008000280080118800004020009011880075
:100938001acea8004fc8a9004fa8a8004f88a80041
:1009480003e8a90023e8a800b0118000b0118000d6
:10095800b0118000b011800003c8a9004f48a90059
:100968004f28a8004f08a80003c8a90023c8a8005a
:10097800000006001000200004003700700020006e
:10098800020037007000200000003700317420009a
:1009980082072000a30920000300fc008248780099
:1009a8008348780043e7b7002174200062042000e0
:1009b800730520000300fc00824878008348780013
:1009c8004207a8000060fe004207af00fdff3700a5
:1009d800000006004427ef00000320005004200018
:1009e800303a8800000020004427b70000002000ab
:1009f8004427b700000020004427b700000000008b
:100a08000000000000000000007122004e090200f2
:100a180000000000000000000000000000000000ce
:100a280010002000ca04020000000000000020009e
:100a3800403a8800000006000060fe00b00a20006e
:100a480020118800007122004e09020000000000f9
:100a5800f9ff370000000600100ea800102ea800ad
:100a6800004ea800006ea800108ea800048ea800f2
:100a7800008ea90010aea80010cea80010eea800a5
:100a8800110ea800112ea800114ea800116ea80082
:100a9800118ea80011aea80011cea80011eea80072
:100aa800000ea800002ea800002ea90000000600d5
:100ab8000511af00030037000551af0006003700ed
:100ac800000006000511a9001092800030928800ed
:100ad80001002200050037000551a900209280007e
:100ae80030928800011022000000370071938800be
:100af8003100780040878800429421000200e1001c
:100b080004003200f2ff2f000200e1000100320071
:100b1800000006003100780050878800228a800093
:100b28000200e10004003200f2ff2f000200e100a1
:100b3800010032000000060031007800608788005c
:100b480000b02a00ec10e3000100320000000600ab
:100b5800310078009093880031007800a0938800d5
:100b680031007800009488003100780010948800e3
:100b78003100780020948800310078003094880093
:100b880000000600a09380000080fd00f00fb20076
:100b98006000e10002003a00640604000000000062
:100ba8007000e10002003a00120604000000000094
:100bb800e000e10002003a003806040000000000ee
:100bc800000006004094210010878800208a8000d9
:100bd8002087880000b02a003087880000002100a4
:100be800b0938800d0858000c0938800e08580009d
:100bf800d093880000002000e093880000002000c7
:100c0800f09388008e32ef00fe10a900032921001e
:100c18003c0702000000000000000600a0938000ce
:100c2800f00fb2006100e100010039000000060089
:100c3800000601000000370000948000f00fb200a9
:100c4800c0858800ff90a9008112af00ff90a8001e
:100c5800ffb0a9008132af00ffb0a800e60502008e
:100c68000000000000000600a0938000f00fb20012
:100c78006800e100010039000000060000060100dc
:100c88000700370007003700070037000700370064
:100c98000700370007003700070037000700370054
:100ca8000000060000000600000006000000060024
:100cb8000000060000000600000006000000060014
:100cc800a0938000f000b200000601001100370078
:100cd80011003700110037001100370011003700ec
:100ce80011003700110037000800370007003700ef
:100cf80006003700050037000400370003003700fe
:100d08000b00370002003700000037000000060023
:100d180000000600000006000000060000000600b3
:100d280000000600000006000000060000000600a3
:100d38007232ed007232ed008001eb003102780072
:100d480003006a00f00fb2000c003a008301e800cb
:100d58000480fd0003006a00f00fb20007003a00ab
:100d68008301e800909380000018e100f3ff390048
:100d78000c07020000000000000006003607020011
:100d880000000000000006000100a7000400370072
:100d980011007800f00fb2008100e80000000600a2
:100da8000100a100110078000080fd00f00fb200e2
:100db8008180e80000000600821f7800c806020053
:100dc8000000000000017800c806020000000000d2
:100dd8000080fd00020070004f017800000006004e
:100de8006093800000f0a000b093880020003700d6
:100df800a093800075f2a800b09388007832ef00c5
:100e08007a32ef007c32ef007e32ef0018003700b4
:100e180000002000b0938800150037001000200063
:100e2800b09388001200370020002000b09388009b
:100e38000f00370030002000b09388000c00370006
:100e480040002000b09388000900370050002000bf
:100e5800b09388000600370060002000b093880037
:100e68000300370070002000b093880000003700ae
:100e78008e0702000000000010878000b8070200fb
:100e88000000000020878000b80702000000000072
:100e980030878000b807020000000000a000200092
:100ea8008e12b4008e12b400b807020000000000d1
:100eb800b0938000b807020000000000c0938000d3
:100ec800b807020000000000d0938000b8070200b5
:100ed80000000000e0938000b80702000000000056
:100ee800f0938000b8070200000000008e12e200b4
:100ef8000500320033007800b80702000000000047
:100f08008e32ed00f9ff3700c8070200000000002c
:100f180000000600fe10ae000411a900fe10af008c
:100f28000431a9008c32ef00b00a200040948800f8
:100f38008a32ef00fe10ae0001402200fe10af0022
:100f480001502200a00e2000e80702000000000067
:100f58000000060088b2b6008a32b400fe0702001c
:100f68000000000000000600801f7800ae070200a5
:100f7800000000004f0078000080fd00ae0702006e
:100f8800000000000000060040948000fe070200f8
:100f98000000000050948000fe07020000000000de
:100fa800b00e2000e8070200000000008c12f800d4
:100fb8004a12f9004832ef000411a80004d1a90030
:100fc8000188a80000000600f00fb2008c12af00e4
:100fd80003003700800878008c32ec00000006001f
:100fe8000080fd00910840008180e8008c32ec0010
:100ff80000000600821f7800f00fb200a20e200049
:101008000200e10008003200b20e20000200e100f8
:1010180005003200c20e20000200e100020032008a
:101028004f017800e8ff3700801f7800c00e2000cd
:10103800e807020000000000b20a20004f00780014
:1010480000006900e8070200000000004f01780076
:10105800000006000030a7000a0037007000b20048
:1010680000060100100005002000050040000500f2
:1010780080000500000105000002050000040500cd
:101088000008050032080200000000000080fd0092
:10109800000006000030a700faff37007000b20019
:1010a8000006010000080500000405000002050014
:1010b8000001050080000500400005002000050033
:1010c8001000050052080200000000000080fd002a
:1010d800000006004200f800801f78000288a9007e
:1010e8004f0078004200f900004006000288a9007d
:1010f800004006004200f800801f7800811f780039
:101108000168a90031118000f10fb2000591ae000d
:1011180043003700a00e20000100e1002200320049
:10112800b00e20000100e10024003200c00e2000b3
:101138000100e10037003200b00a20000491af003e
:10114800810068000491a900001020004012e3000b
:1011580032003100000022000451af0000102200cc
:101168004012b4000000a1004012af000200370096
:1011780001087800030037000180fd001088400056
:101188000180fd0080928000909288000100780024
:1011980080928800010078004e32b4004cb2b6004c
:1011a8004032ec001e0037000491a9004032ef00e5
:1011b8004e32ef004c32ef00190037000491a900bd
:1011c800b00a20004c92b6005092b60014003a00c3
:1011d800809280005012b4005212b4004e92b600b1
:1011e800f00fb2000e003a00009280000451ae00e9
:1011f800109288000451af00209288000451ae007c
:101208000511a8000451af000551a8000451aa0017
:10121800030037000491a800010037000000000017
:10122800cf0078004f0078004200f9000040060027
:101238004200f800801f7800811f78000188a9000b
:101248000411ae000f0037000140220040928000d8
:10125800810040000100a100110078004812af0091
:101268000080fd00f00fb200201188004832ec0029
:10127800509280004812e300020039000411a900ce
:1012880004d1a800cf0078004f0078004200f90090
:10129800004006000060fe000000e900fdff3a0083
:1012a80000000600100020008010f8008210f800ee
:1012b800108488003008800000848800300c2000ea
:1012c800101020008030b4000060fe000084800010
:1012d8000601b50000f0a700fbff37008230ed00e3
:1012e800f4ff3a008210f9008010f90000000600af
:1012f8000e000900000000000000e900fcff3a00b1
:1013080000000600308b8000000601000200370054
:10131800060037000e0037002023a900300880009f
:10132800908888006631ec000000060090888000f4
:101338000601b50000848800900120008010e300b9
:1013480001003100000006006631ec0000000600d4
:1013580001a8ae000000060001a8a9006631ef0050
:10136800f032ec0040002000f012e30001003900e8
:10137800f032ef00012d2100809780004300dd004e
:101388008100400000188000801878003018800024
:1013980080187800201880008018780010188000c5
:1013a80080187800012d2100110078000084880041
:1013b8008100b00011007800108488008100b0001e
:1013c80011007800208488008100b00011007800a6
:1013d80030848800520a02000000000090978800bc
:1013e800212d210011007800008488008100b000c0
:1013f80011007800108488008100b0001100780086
:10140800208488008100b0001100780030848800b2
:10141800520a020000000000a0978800412d210018
:1014280011007800008488008100b0001100780065
:10143800108488008100b0001100780020848800a2
:101448008100b0001100780030848800520a020040
:1014580000000000b0978800612d2100110078007d
:10146800008488008100b000110078001084880092
:101478008100b00011007800208488008100b0004d
:101488001100780030848800520a02000000000031
:10149800c0978800f9f2a8000000060000848000c8
:1014a8008210e30004003600008480008290b600b9
:1014b80080b0b60082b0b600108480008410e300cb
:1014c80004003600108480008490b60082b0b60014
:1014d80084b0b600208480008610e3000400360043
:1014e800208480008690b60084b0b60086b0b6002e
:1014f800108480008410e30004003600108480000b
:101508008490b60082b0b60084b0b6000084800033
:101518008210e30004003600008480008290b60048
:1015280080b0b60082b0b600208480008210b4007b
:101538004100de0000000600ff70a9004019880085
:101548002023a80040012000be0a0200000000007d
:101558002023a900cc30ef00cc30ec00cd30af0018
:10156800000006002003ae00fbff3700ff70a80054
:1015780000000600000000000000e900fdff3a003e
:10158800000006003000b20000060100100005004f
:101598002000050030000500500005001000200064
:1015a800a00a020000000000ff70ae000000060064
:1015b80061142100308b80008100400081004000d0
:1015c80000188000800878006631ec004000200098
:1015d8006611e30001003100000006006631ef00eb
:1015e8004611f8008010f9004811f8008210f9003f
:1015f8004a11f8008410f9004c11f8008610f9001f
:10160800520a020000000000d08788000000000095
:1016180000000000000006004200f800801f78006b
:10162800811f78000368a900cf0078004f00780078
:101638004200f9000040060000a0fe000068a90072
:101648000080fe0000400600a00f2000a0028800d5
:1016580001002000b208bb00b298bb00b208bb0072
:10166800b298bb005420ef000000060051848800a7
:101678008830ef005420ef0021c72000408480000c
:101688004300dd00810040003100ba00008488007a
:101698003100ba00108488003100ba002084880024
:1016a8003100ba00308488008010e20001003a005e
:1016b80000000600008480008a10e3000200320067
:1016c8008830ec00ebff370001c022004084800026
:1016d80081004000810040005284800012007800a0
:1016e8008008780000000600811f7800960b020031
:1016f80000000000cf0078003a0b02000000000054
:10170800a80b02000000000001003a0000000600db
:10171800be0b020000000000040c020000000000e4
:101728000000060002c022005420ef0001002a0039
:10173800430020003100ba00001978008301e90055
:10174800fcff3a00000006005420ef0001002a00c8
:101758004300200002c022003100ba0032006800b5
:1017680001003200000006008301e900faff3a0098
:1017780000000600c3e8a90000002000ca04020017
:1017880000000000fc0b0200000000000000200028
:101798006039880000002a00503988003000240091
:1017a800403988000a00fc00500520007039880084
:1017b800a00a20007039880029e7a800000000006e
:1017c8000000000000000000000000000000000011
:1017d800fc0b0200000000000000200040398800d7
:1017e800ee04020000000000c3e8a80000000600a4
:1017f8000060fe0029e7af00fdff3700000006008b
:10180800c3e8a90000002000ca040200000000008c
:10181800fc0b0200000000008001eb00000020002b
:101828006039880000002a000300400003004000df
:1018380003004000030040005039880002c0220025
:101848000281410002814100028141000281410080
:10185800a00f2000a002880001002000b208bb00f1
:101868008398bb00b208bb008398bb005420ef00ec
:1018780010002400403988000a00fc0050052000b0
:1018880070398800a00a20007039880029e7a8006c
:101898000000000000000000000000000000000040
:1018a80000000000fc0b0200000000008301e800bb
:1018b800400020000000e8004180de000018e10040
:1018c800d6ff39000000200040398800ee040200ed
:1018d80000000000c3e8a80000000600fa1200009b
:1018e800000000000000000000000000fc120000e2
:1018f800010000000000000000000000fe120000cf
:1019080002000000000000000000000000130000ba
:1019180003000000000000000000000000000000bc
:1019280000000000000000000000000000000000af
:10193800000000000000000000000000000000009f
:10194800000000000000000000000000000000008f
:10195800000000000000000000000000000000007f
:020000040001f9
:103ff80000000000000000003412000078560000a5
:10400800bc9a0000f0de000009000000010000007a
:104018000000000000000000000000000000000098
:104028000000000000000000000000000000000088
:104038000000000000000000000000000000000078
:10404800000000000000000009000000010000005e
:104058000000000000000000000000000000000058
:104068000000000000000000000000000000000048
:104078000000000000000000000000000000000038
:10408800000000000000000009000000010000001e
:104098000000000000000000000000000000000018
:1040a8000000000000000000000000000000000008
:1040b80000000000000000000000000000000000f8
:1040c80000000000000000000900000001000000de
:1040d80000000000000000000000000000000000d8
:1040e80000000000000000000000000000000000c8
:1040f8000000000000000000cdab00000000000040
:10410800000000000000000009000000010000009d
:104118000000000000000000000000000000000097
:104128000000000000000000000000000000000087
:104138000000000000000000000000000000000077
:104148000000000000000000000000000000000067
:020000040000fa
:020000040001f9
:10500000001000007c030000800000000000000091
:00000001FF
