:020000040000fa
:080000000402040000000000ee
:020000040000fa
:080400000040da000000fe00dc
:020000040000fa
:1000080000020000000200000002000000020000e0
:1000180000020000000200000002000000020000d0
:10002800000200000002000000020000cc160000e0
:1000380000020000000200000002000000020000b0
:1000480000020000000200000002000090140000fe
:10005800f615000000020000000200000002000087
:100068000002000000020000000200000002000080
:100078000002000000020000000200000002000070
:10008800000200000002000000020000bc16000090
:100098000002000000020000541500002a160000ab
:1000a8000002000000020000000200000002000040
:1000b8000002000000020000000200000002000030
:1000c8000002000000020000000200000002000020
:1000d8000002000000020000000200000002000010
:1000e8000002000000020000000200000002000000
:1000f80000020000000200000002000000020000f0
:1001080000020000000200000002000000020000df
:1001180000020000000200000002000000020000cf
:1001280000020000000200000002000000020000bf
:1001380000020000000200000002000000020000af
:10014800000200000002000000020000000200009f
:10015800000200000002000000020000000200008f
:10016800000200000002000000020000000200007f
:10017800000200000002000000020000000200006f
:10018800000200000002000000020000000200005f
:10019800000200000002000000020000000200004f
:1001a800000200000002000000020000000200003f
:1001b800000200000002000000020000000200002f
:1001c800000200000002000000020000000200001f
:1001d800000200000002000000020000000200000f
:1001e80000020000000200000002000000020000ff
:1001f80000020000000200000002000000020000ef
:1002080000020000000200000002000000020000de
:1002180000020000000200000002000000020000ce
:1002280000020000000200000002000000020000be
:1002380000020000000200000002000000020000ae
:10024800000200000002000000020000000200009e
:10025800000200000002000000020000000200008e
:10026800000200000002000000020000000200007e
:0c02780000020000000200000002000074
:020000040000fa
:1004080020020400000000000000eb000007780054
:100418000c000900002f78000007eb000000060020
:10042800010821008018eb00603d21000008e10070
:10043800fcff3a00000006000ff02100e0ff210059
:1004480000018800080202000000000014020200f7
:1004580000000000501002000000000021002000f1
:10046800401f200058160200000000008100e9002b
:10047800fbff3a00080202000000000050100200d2
:1004880000000000f6020200000000004e1002000a
:1004980000000000560f0200000000001a100200c1
:1004a8000000000000712200581602000000000041
:1004b800500f0200000000004a0f02000000000078
:1004c800880f020000000000a002020000000000e7
:1004d800b803040000000000600020000029b700f5
:1004e8000000060000ff2f000029b600148ea900a6
:1004f80000000600c410e20003003a007602020081
:100508000000000000000600c430ed0000000600f6
:100518008000200020868800700202000000000091
:1005280000000600400120002086880070020200ba
:10053800000000000000060000402000004888007d
:10054800d000200010488800007d20003048880036
:1005580080322200700888000000060060402000f9
:1005680000488800d000200010488800007d200046
:10057800304888008032220070088800a0002000df
:100588006216020000000000fcff370062eeaa00bd
:1005980062eeaa0062eeaa0062eeaa0062eeaa006b
:1005a80062eeaa0062eeaa0062eeaa000060fe00f7
:1005b800f6ff37000060fe000701ae0062eea900fa
:1005c8000701af0062eea800faff3700b00a20006a
:1005d80020118800a0002000621602000000000020
:1005e800faff37000e2eef001e2eef002e2eef0022
:1005f8004e2eef0000000600400020000000200002
:10060800001988000000200010198800f000200060
:10061800201988000000200090198800f0002000b0
:1006280040198800000020003019880000002000d0
:1006380070198800000020008019880021e3a800b4
:1006480000000600a210a90030122000d08f8800f8
:1006580070562400e08f8800b09a2800f08f880038
:10066800f0de2c0000908800804622001090880060
:100678005c1302000000000000000600ca30ec0015
:1006880080002000ca10e3000100310000000600cd
:10069800ca30ef00a210a90000002100d08f880006
:1006a80000102000e08f880060858000f08f8800af
:1006b800ac30ef00c084800000908800000020006b
:1006c800109088000008200050908800c320210066
:1006d800c0120200000000007603020000000000c3
:1006e800000006008030ef000084800088030200cc
:1006f800000000008030ec00000120008010e300c2
:10070800f9ff39000000060000017800c128210027
:100718004100dd00810040009108e80011007800e8
:100728006400e10001003100000006008008eb00d1
:10073800c1202100020078004300dd008100400054
:100748008018eb008018eb008018eb008018eb0095
:1007580000000600c12821004100dd0081004000a2
:100768008008eb0000000600a990a800440e0200d3
:1007780000000000b00c0200000000000000200093
:100788006095880000002000709588007c0b0200ae
:1007980000000000a1b62000b80b02000000000015
:1007a800440e0200000000000000200000868800bf
:1007b8006c04020000000000a250a900cc30ef0039
:1007c8001a0f0200000000000060fe009df0af005c
:1007d80015aeaa00c810af00901602000000000075
:1007e800c830af006605020000000000c850af0026
:1007f8007e02020000000000c870ae00040037004e
:100808009a0e0200000000007608020000000000b6
:10081800c890af004203020000000000c8b0af005b
:100828002a04020000000000a00d020000000000e1
:10083800580b020000000000181102000000000020
:10084800a250af00daff3700ddff37008030ef003d
:10085800c1202100008480004300dd0081004000a9
:10086800110078000010a7000000a0001084880084
:100878000080fd0000c0fd00f000b2006100e10052
:1008880002003a008230af00060037008030ec00ea
:10089800e00020008010e300edff39009830ef0001
:1008a800000006009810e20005003a00008480006d
:1008b80000c0fd008210b700c08488000000060058
:1008c800c08480008290b600f0ff3a000000060065
:1008d800008680007100e100010039000000060078
:1008e80000060100620037000f0037000e003700d5
:1008f8000d0037000c0037000b0037000a003700e6
:1009080009003700080037000700370006003700e5
:1009180005003700040037000300370002003700e5
:100928000100370000003700440e020000000000fc
:100938000000200060958800000020007095880065
:100948007c0b0200000000000086800010070200f7
:1009580000000000e0022000b20b020000000000ce
:10096800014d2000b80b02000000000090060200b4
:100978000000000000868000100702000000000050
:100988009006020000000000614d2000b80b020034
:100998000000000000000600534c00004f54000007
:1009a800000000005354000041540000555300005b
:1009b8003e0000005354000041540000555300000d
:1009c8003a000000495000003a0000005459000065
:1009d800504500003a000000534c00004f540000fe
:1009e800205300005441000054550000533e0000bd
:1009f8000000000000000600302e0000534c0000ec
:100a08004f54000053200000494e0000464f00009c
:100a18003e200000204e00004f200000203a000039
:100a28002031000032330000343500003637000032
:100a380038390000414200004344000045460000a8
:100a48004700000020200000202000002020000097
:100a5800202000002020000020200000202000008e
:100a68002054000059500000453a000020000000c2
:100a7800440e02000000000000002000609588007d
:100a880000002000709588007c0b02000000000028
:100a980001502000b80b02000000000000002000f8
:100aa8006095880010002000709588007c0b02007b
:100ab8000000000061522000b80b02000000000096
:100ac80000000600c210e20006003200c230ed004d
:100ad800c210e20002003a00a250a800cc30ef0099
:100ae80000000600008680007100e1000100390066
:100af8000000060000060100100037002c00370037
:100b08002b0037002a00370029003700280037005b
:100b1800270037002600370025003700240037005b
:100b2800230037002200370021003700200037005b
:100b38001f0037001e0037001d0037008030ef000f
:100b480050012000609588001000200070958800f2
:100b58007c0b020000000000c120210000848000fe
:100b68004300dd008100400011007800b084880057
:100b78000080fd00f00fb2004400de000000e0003d
:100b880004003a0080072000b20b020000000000b9
:100b980002003700ac0b0200000000008030ec00bf
:100ba800000120008010e300ebff39000000060080
:100bb800c1202100008680000000e9004300dd001c
:100bc80081004000310078000084880031007800fe
:100bd8001084880031007800208488003100780073
:100be80030848800600120006095880000002000a3
:100bf800709588007c0b020000000000a14e2000c8
:100c0800b80b020000000000008480000080fd0096
:100c1800f00fb2004400de0040848800ac0b0200f4
:100c28000000000040848000cc07020000000000a3
:100c38008810e20003003a00aa0602000000000043
:100c48000d003700900602000000000081792000a6
:100c5800b80b020000000000008480000080fd0046
:100c68003000b2000000e800ac0b020000000000f9
:100c7800aa060200000000008810e2001c003200f2
:100c8800900020008810e3001900310020002000a7
:100c98006095880010002000709588007c0b020089
:100ca80000000000a0002000c010e300010039008f
:100cb800ac32ec0000848000f000b200440702006f
:100cc8000000000060012000ba06020000000000d9
:100cd800614e2000b80b020000000000d0060200a0
:100ce80000000000aa060200000000000000060044
:100cf8000000200060958800100020007095880092
:100d08007c0b020000000000800220009806020010
:100d1800000000000000060000018000b20b020085
:100d280000000000000006008010f8000084880021
:100d380000018000b20b0200000000008030ed00ce
:100d4800fbff3a008010f900000006008002200036
:100d5800ac12e30001003900000006000002200088
:100d6800b20b020000000000f8ff37008010f80006
:100d78000084880000848000ac12e3000400310085
:100d880000022000b20b020000000000f9ff37004b
:100d98008010f900000006008410f8008c10f9009b
:100da8008610f8008e10f90060848000f00fb20001
:100db8001607020000000000e0022000b20b02004b
:100dc80000000000608480000080fd00f00fb20089
:100dd8001607020000000000e0022000b20b02002b
:100de8000000000070848000f00fb20016070200b7
:100df80000000000e0022000b20b0200000000002a
:100e0800708480000080fd00f00fb2001607020019
:100e180000000000000006003e0c02000000000078
:100e28000e003700340c0200000000008410e200bd
:100e38000a00320020848000ac0b02000000000091
:100e480010848000ac0b02000000000000848000c9
:100e5800ac0b020000000000000006008210e20057
:100e68000300320010848000ac0b02000000000078
:100e780000848000ac0b02000000000000000600a7
:100e88006900e100010039000000060000060100c9
:100e9800270037002a0037002d00370030003700c0
:100ea80033003700360037004e4f00004e45000033
:100eb800000000004f530000204c00004f4100008c
:100ec800444900004e470000000000004150000067
:100ed800502000004c4f000041440000494e0000e3
:100ee800470000004441000054410000204c00002d
:100ef8004f410000444900004e4700000000000038
:100f0800535900005320000052450000414400009e
:100f180059000000535900005320000045520000ba
:100f2800524f0000520000004e4f00003a000000ef
:100f380081752000b80b02000000000000000600c8
:100f4800e1752000b80b0200000000000000060058
:100f5800a1762000b80b0200000000000000060087
:100f680061772000b80b02000000000000000600b6
:100f780041782000b80b02000000000000000600c5
:100f8800e1782000b80b0200000000000000060015
:100f98006900e100010039002a003700000601005d
:100fa8002c0037002f00370032003700350037009b
:100fb800380037003b0037003e003700410037005b
:100fc80044003700284e00004f4e0000452900001d
:100fd80000000000284300005452000029000000cf
:100fe800285300004950000029000000284600004e
:100ff800584f000029000000284600005853000000
:1010080029000000285400003129000000000000d9
:10101800284d000041470000290000002852000028
:101028004f4900005029000000000000285200002d
:1010380045430000290000002858000058580000c7
:101048002900000001822000b80b02000000000007
:1010580000000600617e2000b80b020000000000be
:1010680000000600e17e2000b80b0200000000002e
:1010780000000600417f2000b80b020000000000bd
:1010880000000600a17f2000b80b0200000000004d
:101098000000060001802000b80b020000000000dc
:1010a8000000060061802000b80b0200000000006c
:1010b80000000600c1802000b80b020000000000fc
:1010c8000000060021812000b80b0200000000008b
:1010d80000000600a1812000b80b020000000000fb
:1010e800000006008010e2000200320098080200aa
:1010f800000000008210e200020032007a0a0200ba
:10110800000000008410e200020032007c0a0200a5
:10111800000000008610e20002003200860a020089
:1011280000000000000006008010af001f0037001c
:101138008030af00050037008050af00af003700a7
:101148008070af000d00370000000600cc10e200f0
:1011580001003a00c030ec0010012000c010e3008c
:1011680001003900c030ef00a250a800c230ef00e3
:101178008c0202000000000000000600cc10e20013
:1011880001003a00c030ed0000012000c010e3006b
:101198000100360000868800a250a800c230ef0087
:1011a8008c02020000000000000006001000200071
:1011b800cc10e30007003200cc10e200010032003e
:1011c800000006001000200060868800ceb0ef0006
:1011d800000037008c02020000000000ce30ec0056
:1011e80040002000ce10e30001003900ce30ef00af
:1011f800c0122000940a02000000000070868000df
:1012080000060100030037000e0037001900370000
:1012180024003700440e02000000000000002000f7
:101228006095880000002000709588007c0b020003
:1012380000000000019a2000b80b02000000000026
:1012480024003700440e02000000000000002000c7
:101258006095880000002000709588007c0b0200d3
:1012680000000000419b2000b80b020000000000b5
:1012780018003700440e02000000000000002000a3
:101288006095880000002000709588007c0b0200a3
:1012980000000000c19c2000b80b02000000000004
:1012a8000c003700440e020000000000000020007f
:1012b8006095880000002000709588007c0b020073
:1012c80000000000619e2000b80b02000000000032
:1012d80000003700c010e20004003a000199200025
:1012e800b80b02000000000000000600a1992000d1
:1012f800b80b02000000000000022000b20b020040
:1013080000000000008680000000e900ac0b02002d
:101318000000000000000600414c00004c200000c6
:10132800534c00004f54000000000000534c0000d4
:101338004f5400000000000041430000542000000a
:10134800313a0000205300004f46000054200000ae
:1013580052450000534500005420000000000000e2
:101368004143000054200000333a000020480000a8
:10137800415200004457000041520000452000003f
:1013880052450000534500005420000000000000b2
:101398004143000054200000343a00002048000077
:1013a800415200004457000041520000452000000f
:1013b800504f000057450000522000004f4e0000db
:1013c800200000004143000054200000343a00008f
:1013d80020480000415200004457000041520000dc
:1013e80045200000504f00005745000052200000e3
:1013f8004f460000462000000000000000000600e4
:101408000000060010002000cc10e30001003200ac
:1014180000000600708680006400e10001003900c9
:10142800000006000006010003003700070037002f
:101438000b0037000f00370000002100608588008e
:10144800480a020000000000000006000010210009
:1014580060858800480a02000000000000000600bd
:101468000020210060858800480a02000000000072
:10147800000006000030210060858800480a02004c
:101488000000000000000600f00f2000c010e2007d
:1014980002003200008680000000e900ac30b7008e
:1014a80040062000940a0200000000009602020094
:1014b8000000000000002000609588001000200057
:1014c800709588007c0b02000000000021a7200016
:1014d800b80b0200000000000000060041430000b5
:1014e800544900004f4e00000000000000000600b4
:1014f8008410af00c2ff37008450af00c1ff37002f
:10150800000006008610af00030037008650af00c9
:101518000200370000000600000006000000060078
:10152800108688000000060041430000544900006e
:101538004f4e00003a200000504f00005745000071
:10154800522000004f46000046200000414c000099
:101558004c00000041430000544900004f4e000079
:101568003a200000504f000057450000522000006c
:101578004f46000046200000534c00004f54000026
:1015880020000000440e02000000000000002000bf
:101598006095880000002000709588007c0b020090
:1015a8000000000081a92000b80b02000000000024
:1015b80000000600440e02000000000000002000a9
:1015c8006095880000002000709588007c0b020060
:1015d80000000000e1aa2000b80b02000000000093
:1015e80000868000ac0b020000000000000006002e
:1015f80041430000544900004f4e00003a200000cb
:10160800524500005345000054200000414c0000a2
:101618004c00000041430000544900004f4e0000b8
:101628003a200000524500005345000054200000b5
:10163800534c00004f54000020000000440e0200ec
:1016480000000000000020006095880000002000d5
:10165800709588007c0b020000000000c1af2000dc
:10166800b80b02000000000000000600440e020053
:1016780000000000000020006095880000002000a5
:10168800709588007c0b020000000000e1b020008b
:10169800b80b02000000000000868000ac0b0200be
:1016a800000000000000060015ceae000000060095
:1016b800a8d0ae00000006002302ae00000006001d
:1016c800a8d0a90015cea900000006005379000093
:1016d80073740000656d0000204900006e69000009
:1016e800742000002e2e00002e2e00002e00000078
:1016f800682b210060958000ae12af008002b00018
:101708000804400008044000000006007000e100e2
:1017180002003a0000022000000006007100e1000b
:1017280002003a0010032000000006007200e100e9
:1017380002003a000000200000000600604fb000e0
:101748004200af007040b000a043b00000000600a7
:10175800f001b2008a0b020000000000001c7800b3
:10176800ac32ec000000060080022000ac12e3005e
:10177800090031001100ba000100a7000080fd0037
:10178800f00fb20004003200001c78008100e8006d
:10179800ac32ec00f4ff37000000060080022000a5
:1017a800ac12e3000600310031007800f00fb200ff
:1017b800f9ff3200001c7800ac32ec00f7ff37006c
:1017c800000006001100ba000100a7000080fd001b
:1017d800f00fb20003003200001978008100e80021
:1017e800f8ff370000197800000006008030ef008d
:1017f80002025000838258000400390085007800f6
:10180800040078008030ec00f9ff37000000060083
:101818008830ef000271220002025000020020000e
:101828008282580009003900850078000400780099
:101838008830ec00f7ff3700027122001100090020
:101848000280d8004084880001007800823e200091
:10185800110009000280d800308488000100780057
:1018680042062000110009000280d8002084880068
:1018780001007800a2002000110009000280d800b1
:10188800108488000184880000000600b00c020063
:101898000000000000002000100d02000000000001
:1018a80010042000260d020000000000500e020067
:1018b8000000000020042000260d020000000000a7
:1018c800500e02000000000030042000260d020027
:1018d80000000000500e020000000000400420003c
:1018e800260d020000000000803e20006216020063
:1018f8000000000000002000100d020000000000a1
:1019080010032000260d020000000000500e020007
:101918000000000020032000260d02000000000047
:10192800500e02000000000030032000260d0200c7
:1019380000000000500e02000000000040032000dc
:10194800260d020000000000803e20006216020002
:1019580000000000cfff3700050ea800250ea900e3
:1019680000032000200d02000000000020002000dd
:10197800621602000000000000032000200d020093
:101988000000000020002000621602000000000095
:1019980000032000200d02000000000020002000ad
:1019a800621602000000000080032000200d0200e3
:1019b8000000000020002000621602000000000065
:1019c80010002000200d0200000000002000200070
:1019d8006216020000000000c0002000200d020076
:1019e8000000000020002000621602000000000035
:1019f80060002000200d02000000000020002000f0
:101a08006216020000000000000006000070a1003d
:101a18000060a000080037000070a0000600370032
:101a2800e000200004003700c0002000020037005a
:101a38008000200000003700252ea900152ea900df
:101a480002003700252ea900152ea800248eb60006
:101a5800f00fb20024aeb600500e020000000000e5
:101a6800252ea800500e020000000000252ea90017
:101a78005c0e02000000000000000600250ea90010
:101a8800252ea900152ea800248eb600f00fb2004e
:101a980024aeb600500e020000000000252ea8005b
:101aa800500e020000000000252ea90000000600cc
:101ab800250ea900252ea900152ea900248eb600f2
:101ac800f00fb20024aeb600500e02000000000075
:101ad800252ea800500e020000000000252ea900a7
:101ae80000000600811f7800f00f2000202eb700ac
:101af800250ea800252ea900152ea900500e0200bb
:101b080000000000252ea800500e02000000000072
:101b180011718000252ea900500e0200000000005f
:101b2800f00f20000080fd00202eb6000100780094
:101b3800cf00780000000600760d020000000000cb
:101b48000070a70000000600b212e20005003a008b
:101b5800000820005c0d020000000000b232ec001a
:101b680000000600612b2100a030af0005003700ff
:101b780090958000b412e30002003a0000002000b3
:101b880005003700909580000000e90081004000c2
:101b98008100400011007800420d020000000000a2
:101ba800b232ec0010052000b212e300010031004f
:101bb80000000600b232ef0000000600612b210091
:101bc8000001eb0000022000801878000201e80004
:101bd800000520000010e100faff3900b232ef00e2
:101be800a230a900000020000a0d02000000000039
:101bf8008030ef00f00f2000260d020000000000ea
:101c08008030ec00800020008010e300f9ff3900ec
:101c1800c0012000260d0200000000004001200045
:101c2800260d020000000000c0012000260d020061
:101c38000000000000002000260d02000000000047
:101c480000002000260d0200000000000000200017
:101c5800260d02000000000000002000260d0200f2
:101c68000000000000002000260d02000000000017
:101c780000002000100d0200000000000000060017
:101c8800612b210000022000f204200002800900dc
:101c98008018780000000600801f780030002000bf
:101ca8000000e900feff3a004f007800000006003f
:101cb800801f7800c02b20000000e900feff3a00da
:101cc8004f007800000006003222af003222a9003f
:101cd8002222af002222a900000006000271800023
:101ce800f0ff2f0000417800027188000000060014
:101cf8000271800000002000004178000271880015
:101d080000000600b430ef00520eae00b430a80058
:101d1800522eae00b410a800134eae00b470a80046
:101d2800136eae00b450a800000006008030ef002b
:101d38008230ef008430ef008630ef00860e02001c
:101d480000000000b410e20011003a00bc30ec00c2
:101d580040002000bc10e3004200ae000000060076
:101d6800a430a800b0858000a450ae00108488007c
:101d7800a450a900a410a900a470a900b630ef00cf
:101d8800b830ef00ba30ef00be30ef0000000600b8
:101d9800bc30ef00c0858000b410e30005003200bd
:101da800ba30ef00be30ef00a0858000c085880003
:101db80000000600ba30ec0020002000ba10e30052
:101dc8004200ae0000000600a470af000700370014
:101dd800a0858000b085880000848800a470a800d1
:101de800a430a900ba30ed0000000600be30ec00b7
:101df80040062000be10e3004220ae000400370079
:101e0800a085800020848800a450a8000000060057
:101e180060092000be10e3004220ae00000006006a
:101e2800a08580003084880000000600c830ef00dc
:101e38009c30ef00300880009a90b6004220af0036
:101e480000000600e08488009e30b7009ab0b60013
:101e58000060fe009df0af00a030ec009d10ae00c9
:101e680000000600c630ec0000012000c610e300a8
:101e780001003900c630ef003086800040140200af
:101e880000000000408688000000060000012a00cb
:101e9800900888000000060000032a0080088800d7
:101ea8000000060021742000620420007305200051
:101eb800824878008348780042c7a90000f02f00c4
:101ec800c426b600f0022000c426b700f00f200098
:101ed8009026b600001020009026b70000f02f00d2
:101ee8008226b600000120008226b7002174200057
:101ef8006204200073052000824878008348780037
:101f080042c7a80000000600b0062000e008200034
:101f1800300220004011880080002800001188004d
:101f280000402000101188004648a9004628a80053
:101f38004608a8000188a9002188a800301180005f
:101f48003011800030118000301180000168a90034
:101f580045c8a90045a8a8004588a8000168a900a7
:101f68002168a80000000600b0062000e008200054
:101f780010042000f0022000c0118800e0002800b2
:101f88008011880000402000901188004fc8a900e7
:101f98004fa8a8004f88a80003e8a90023e8a800d4
:101fa800b0118000b0118000b0118000b011800025
:101fb80003c8a9004f48a9004f28a8004f08a80047
:101fc80003c8a90023c8a8000000060010002000cc
:101fd8000400370070002000020037007000200065
:101fe800000037003174200082072000a309200078
:101ff8000300fc00824878008348780043e7b70074
:102008002174200062042000730520000300fc00f6
:1020180082487800834878004207a8000060fe00e4
:102028004207af00fdff3700000006004427ef001d
:102038000003200050042000303a880000002000ef
:102048004427b700000020004427b7000000200004
:102058004427b70000712200581602000000000053
:1020680010002000f60f0200000000000000200011
:10207800403a8800000006000060fe00b00a200018
:10208800201188000071220058160200000000008c
:10209800f9ff37000000060004eea90000eea900d1
:1020a80015cea90011cea90011eea80064cea90092
:1020b80060cea90062eea90060eea900650ea90035
:1020c800610ea900652ea900612ea900058ea90040
:1020d800018ea900056ea900016ea900040ea900d1
:1020e800000ea900042ea900002ea900140ea900b4
:1020f800100ea900142ea900102ea900240ea90064
:10210800200ea900242ea900202ea900244ea900e3
:10211800204ea900256ea900216ea900458ea900b0
:10212800418ea90045aea90041aea90045cea9003f
:1021380041cea90045eea90041eea900050ea9006f
:10214800010ea900148ea900108ea900048ea90002
:10215800008ea900052ea800012ea900246ea90052
:10216800206ea900248ea900208ea90024aea90003
:1021780020aea900350ea900310ea90014aea900a1
:1021880010aea90014cea90010cea900254ea900b2
:10219800214ea90014eea90010eea90025aea90051
:1021a80021aea900150ea900110ea900152ea9002f
:1021b800112ea90024cea90020cea90024eea90042
:1021c80020eea900250ea900210ea90034aea90011
:1021d80030aea90034cea90030cea900252ea90022
:1021e800212ea900500ea800502ea800114ea800bc
:1021f800116ea800158ea900118ea90015aea800b1
:1022080011aea90015aea80011aea9000000060085
:10221800002022000008e10001003900010022002e
:102228003100780000000600708c80004200dd005c
:10223800011921008100400011007800708f88008a
:10224800ee11e20001003a00000006008018eb00e1
:1022580031007800608f88008e31ec00000120008a
:102268008e11e300010039008e31ef0001002200d9
:10227800608f8000810040000c1102000000000007
:10228800029028000200e10004003200f2ff2f0053
:102298000200e10001003200000006000c110200fb
:1022a80000000000408f88000c11020000000000b0
:1022b800608f88000080fd00f00fb200eb02e100a3
:1022c8000100320000000600a0848000f000b20087
:1022d80003c022008301400083014000408f80003a
:1022e800800978009430ec000c1102000000000016
:1022f800708f88000c11020000000000808f880099
:102308000c11020000000000908f88000c110200e0
:1023180000000000a08f88000c11020000000000df
:10232800b08f88000c11020000000000c08f8800e8
:10233800808f80000080fd00f00fb2006000e10097
:1023480002003a00b4110400000000007000e1002f
:1023580002003a00ec110400000000000000060032
:10236800808f8000f000b2000006010011003700e5
:102378001100370011003700110037001100370035
:102388001100370011003700080037000700370038
:102398000600370005003700040037000300370047
:1023a8002400370002003700000037000000060054
:1023b80000000600000006000000060000000600fd
:1023c80000000600000006000000060000000600ed
:1023d800808f8000f00fb2006100e1000100390039
:1023e800000006000006010000003700c12021009f
:1023f800408f8000f000b2004300dd008100400003
:10240800908f800080187800a08f80008018780056
:10241800b08f800080187800c08f80008018780006
:10242800408f8000f000b200ae0302000000000000
:1024380000000600ee31ed00ee31ed008001eb000a
:102448003102780003006a00f00fb2000c003a0075
:102458008301e8000480fd0003006a00f00fb20069
:1024680007003a008301e800708f80000018e1003f
:10247800f3ff39008012020000000000000006008f
:10248800aa1202000000000000000600a930af00f8
:1024980003003700a970af000600370000000600ef
:1024a800a930a900a08e8000c08e880001502200ab
:1024b80005003700a970a900b08e8000c08e880082
:1024c800017822000000370000000600000020000c
:1024d8008008780000000600808f8000f1f1a800d5
:1024e800d08f8800fc31ef00fe31ef000032ef00a2
:1024f8000232ef006600370000002000d08f88000d
:102508006300370010002000d08f8800600037007b
:1025180020002000d08f88005d00370030002000a8
:10252800d08f88005a00370040002000d08f8800e4
:102538005700370050002000d08f88005400370023
:1025480060002000d08f8800510037007000200004
:10255800d08f88004e0037009c1302000000000056
:102568002413020000000000808580003813020058
:1025780000000000070037009c1302000000000064
:102588002413020000000000f0ff2f00381302009f
:102598000000000000b02a0038130200000000000c
:1025a80050908000a000b000381302000000000026
:1025b800d08f80003813020000000000e08f8000f8
:1025c8003813020000000000f08f8000381302006a
:1025d8000000000000908000381302000000000096
:1025e8001090800038130200000000000c13020055
:1025f80000000000ba130200000000000a32ed00db
:10260800faff3a00c41302000000000000000600b0
:102618000300a7000400370013007800f00fb20091
:102628008301e800000006000300a1001300780001
:102638000080fd00f00fb2008381e8000000060072
:10264800a210af00040037000090280038130200e1
:102658000000000000000600009028003813020067
:102668000000000000000600801f7800f00fb20094
:10267800ba130200000000004f0078000080fd003f
:10268800f00fb200ba1302000000000000000600bc
:102698009c13020000000000241302000000000048
:1026a8008085800038130200000000000800370011
:1026b8009c13020000000000241302000000000028
:1026c800f0ff2f0038130200000000000000370060
:1026d80000b02a003813020000000000a00020000b
:1026e8003813020000000000d08f80003813020069
:1026f80000000000e08f8000381302000000000096
:10270800f08f800038130200000000000090800065
:1027180038130200000000001090800038130200f7
:1027280000000000c41302000000000000000600c2
:10273800a210ae00a810a900a210af00a830a900ee
:102748000832ef00b00a2000209088000632ef001f
:1027580001a02200a210af0001b02200a00e2000ac
:10276800fa130200000000000000060004b2b600e0
:102778000632b40010140200000000000000060039
:1027880020908000101402000000000030908000ab
:102798001014020000000000b00e2000fa1302001e
:1027a80000000000a210af0009003700a990a9009e
:1027b80015cea800a8d0a9000812f8007c11f900cd
:1027c8007a31ef00a810a8000188a80000000600d0
:1027d800a8f0a9000812f800dc11f900da31ef00be
:1027e800a830a80003e8a80000000600f00fb20017
:1027f8000812af0003003700800878000832ec00a8
:10280800000006000080fd00910840008180e8007b
:102818000832ec0000000600821f7800f00fb200ba
:10282800a20e20000200e10008003200b20e2000d3
:102838000200e10005003200c20e20000200e100a3
:10284800020032004f017800e8ff3700801f78004f
:10285800c00e2000fa13020000000000b20a200097
:102868004f00780000006900fa1302000000000021
:102878004f017800000006000030a7000a0037006a
:102888007000b200000601001000050020000500dd
:102898004000050080000500000105000002050059
:1028a80000040500000805004414020000000000b0
:1028b8000080fd00000006000030a700faff370086
:1028c8007000b200000601000008050000040500c1
:1028d8000002050000010500800005004000050019
:1028e800200005001000050064140200000000002c
:1028f8000080fd00000006004200f800801f7800fc
:102908000288a9004f0078004200f9000040060044
:102918000288a900004006004200f800801f7800e5
:10292800811f78000168a90031118000f10fb20001
:10293800a990ae0056003700a00e20000100e1006b
:102948000a003200a3b0ae0051003700b00e2000dc
:102958000100e10031003200c00e20000100e1005a
:102968000d003a00a890a80049003700a3b0a800bd
:10297800a890a9007211af007231ec00908b800012
:10298800508c8800308c88008831ef008031ef004f
:102998007e31ef003e003700800220008811e300fe
:1029a80002003900a3b0a90039003700b00a20009e
:1029b800a890af0081006800a890a900002020001e
:1029c8008611e300010039008631ef000000220083
:1029d8008611b4000000a1008611af000200370084
:1029e80001087800030037000180fd0010884000ce
:1029f8000180fd00108c8000208c88000100780088
:102a0800108c8800010078008031b4007eb1b600d7
:102a18008631ec008831ec001d003700a3b0a90016
:102a2800b00a20007e91b6008291b60018003a00e4
:102a3800108c80008211b4008411b4008091b6001b
:102a4800f00fb20012003a00408c800001192100fa
:102a5800608c80004200dd0081004000408c8000d6
:102a680080187800508c8000801878008c31ec0039
:102a7800000120008c11e300010039008c31ef00c7
:102a8800308c8000908b8800010037000000000027
:102a9800cf0078004f0078004200f900004006009f
:102aa8004200f800801f7800811f780003c8a90041
:102ab800b1118000f10fb200a9b0ae004500370097
:102ac800a00e20000100e10025003200b00e200019
:102ad8000100e10027003200c00e20000100e100e3
:102ae8003a003200b00a2000a8b0af0081006800a8
:102af800a8b0a90000282000d211e3003500310059
:102b080000502200a870af0000782200d211b40053
:102b18000000a100d211af000200370001087800c0
:102b2800030037000180fd00108840000180fd008f
:102b3800108f8000208f880001007800108f880097
:102b480020002000d211e3000300390001007800c2
:102b5800e031b400deb1b600d231ec001d00370020
:102b6800a8b0a900d231ef00e031ef00de31ef006c
:102b780018003700a8b0a900b00a2000de91b600fe
:102b8800e291b60013003a00108f8000e211b40001
:102b9800e411b400e091b600f00fb2000d003a0065
:102ba800908e8000a870ae00a08e8800a870af003c
:102bb800b08e8800a870ae00a930a800a870af0039
:102bc800a970a800a870aa0002003700a8b0a80041
:102bd80000003700cf0078004f0078004200f9006d
:102be800004006004200f800801f7800811f78002e
:102bf8000188a900a810ae001000370001a022002b
:102c0800d08b8000810040000100a10011007800f5
:102c18007a11af000080fd00f00fb200201188008b
:102c28007a31ec00e08b80007a11e3000300390070
:102c3800a810a900a8d0a800a990a800cf007800e3
:102c48004f0078004200f900004006004200f800fa
:102c5800801f7800811f780003e8a900a830ae0023
:102c68000d00370001b02200d08e800081004000a6
:102c78000100a10011007800a0118800da31ec00f1
:102c8800e08e8000da11e30003003900a830a900c3
:102c9800a8f0a800a9b0a800cf0078004f007800dd
:102ca8004200f900004006000060fe000000e90054
:102cb800fdff3a0000000600100020008010f80018
:102cc8008210f80010848800300880000084880092
:102cd800300c2000101020008030b4000060fe008e
:102ce800008480000601b50000f0a700fbff370054
:102cf8008230ed00f4ff3a008210f9008010f900ec
:102d0800000006000e000900000000000000e900b5
:102d1800fcff3a0000000600b230ec003000200052
:102d2800b210e30001003900b230ef009085800056
:102d380000060100020037000500370006003700d2
:102d4800f0002000401988002023a8000000060099
:102d58002023a900000006002003ae0000000600a2
:102d680000188000508588002003a9000000060094
:102d78004200f800801f7800811f78000368a900ce
:102d8800cf0078004f0078004200f90000400600ac
:102d980000a0fe000068a9000080fe0000400600b8
:102da8000060fe0029e7af00fdff370000000600c5
:102db800a00f2000a002880001002000b208bb007c
:102dc800b298bb00b208bb00b298bb005420ef0019
:102dd80000000600518488008830ef005420ef007e
:102de800818d2100408480004300dd008100400087
:102df8003100ba00008488003100ba0010848800cd
:102e08003100ba00208488003100ba00308488007c
:102e18008010e20001003a000000060000848000f3
:102e28008a10e300020032008830ec00ebff370024
:102e380001c02200408480008100400081004000e1
:102e48005284800012007800800878000000060094
:102e5800811f78004a17020000000000cf007800a8
:102e6800ee160200000000005c17020000000000df
:102e780001003a000000060072170200000000007e
:102e8800b017020000000000000006005420ef0008
:102e980001002a000300200002c022003100ba000d
:102ea800001978008301e900fcff3a0000000600e1
:102eb8005420ef0001002a000300200002c0220075
:102ec8003100ba003200680001003200000006003c
:102ed8008301e900faff3a0000000600c3e8a900f0
:102ee80000002000f60f020000000000d4160200c7
:102ef80000000000000020006039880000002a005f
:102f08005039880030002400403988000a00fc004d
:102f18005005200070398800a00a20007039880008
:102f280029e7a800000000000000000000000000e1
:102f38000000000000000000d4160200000000009d
:102f480000002000403988001a100200000000002c
:102f5800c3e8a80000000600c3e8a900000020009c
:102f6800f60f020000000000d41602000000000066
:102f78008001eb00000020006039880000002a0072
:102f8800030040000300400003004000030040002d
:102f98005039880002c022000281410002814100ac
:102fa8000281410002814100a00f2000a002880098
:102fb80001002000b208bb008398bb00b208bb0028
:102fc8008398bb005420ef0010002400403988008b
:102fd8000a00fc005005200070398800a00a200073
:102fe8007039880029e7a8000000000000000000f0
:102ff800000000000000000000000000d4160200dd
:10300800000000008301e800000020000000e80044
:103018004180de000018e100d6ff390000002000e2
:10302800403988001a10020000000000c3e8a80018
:103038000000060000060100000405001004050059
:103048002004050030040500400405005004050074
:103058006004050070040500800405009004050064
:10306800a0040500b0040500c0040500d004050054
:10307800e0040500f0040500000505001005050042
:103088002005050030050500400505005005050030
:103098006005050070050500800505009005050020
:1030a800a0050500b005050000000500400005006a
:1030b80080000500c0000500000105004001050072
:1030c800c0010500b001050000020500400205002e
:1030d80080020500c002050000030500400305004a
:1030e80080030500c003050010000500500005001e
:1030f80090000500d00005001001050050010500f2
:1031080080010500f00105001002050050020500cd
:1031180090020500d00205001003050050030500c9
:1031280090030500d003050020000500600005009d
:10313800a0000500e0000500200105006001050071
:1031480090010500d001050020020500600205007d
:10315800a0020500e0020500200305006003050049
:10316800a0030500e003050030000500700005001d
:10317800b0000500f00005003001050070010500f1
:10318800a0010500e00105003002050070020500fd
:10319800b0020500f00205003003050070030500c9
:1031a800b0030500f0030500000000000000000067
:1031b8000000000000000000000000000000000007
:1031c80000000000000000000000000000000000f7
:1031d80000000000000000000000000000000000e7
:1031e80000000000000000000000000000000000d7
:020000040001f9
:103ff80000000000000000003412000078560000a5
:10400800000000000000000009000000010000009e
:104018000000000000000000000000000000000098
:104028000000000000000000000000000000000088
:104038000000000000000000000000000000000078
:10404800000000000000000009000000010000005e
:104058000000000000000000000000000000000058
:104068000000000000000000000000000000000048
:104078000000000000000000000000000000000038
:10408800000000000000000009000000010000001e
:104098000000000000000000000000000000000018
:1040a8000000000000000000000000000000000008
:1040b80000000000000000000000000000000000f8
:1040c80000000000000000000900000001000000de
:1040d80000000000000000000000000000000000d8
:1040e80000000000000000000000000000000000c8
:1040f8000000000000000000cdab00000000000040
:10410800000000000000000009000000010000009d
:104118000000000000000000000000000000000097
:104128000000000000000000000000000000000087
:104138000000000000000000000000000000000077
:104148000000000000000000000000000000000067
:020000040000fa
:020000040001f9
:1050000000100000d8030000800000000000000035
:00000001FF
