:020000040000fa
:080000000402040000000000ee
:020000040000fa
:080400000040da000000fe00dc
:020000040000fa
:1000080000020000000200000002000000020000e0
:1000180000020000000200000002000000020000d0
:10002800000200000002000000020000a81b0000ff
:1000380000020000000200000002000000020000b0
:10004800000200000002000000020000221a000066
:10005800d41a0000000200000002000000020000a4
:10006800000200000002000000020000ba020000c6
:100078000002000000020000000200000002000070
:10008800000200000002000000020000981b0000af
:100098000002000000020000c41a0000081b000053
:1000a8000002000000020000000200000002000040
:1000b8000002000000020000000200000002000030
:1000c8000002000000020000000200000002000020
:1000d8000002000000020000000200000002000010
:1000e8000002000000020000000200000002000000
:1000f80000020000000200000002000000020000f0
:1001080000020000000200000002000000020000df
:1001180000020000000200000002000000020000cf
:1001280000020000000200000002000000020000bf
:1001380000020000000200000002000000020000af
:10014800000200000002000000020000000200009f
:10015800000200000002000000020000000200008f
:10016800000200000002000000020000000200007f
:10017800000200000002000000020000000200006f
:10018800000200000002000000020000000200005f
:10019800000200000002000000020000000200004f
:1001a800000200000002000000020000000200003f
:1001b800000200000002000000020000000200002f
:1001c800000200000002000000020000000200001f
:1001d800000200000002000000020000000200000f
:1001e80000020000000200000002000000020000ff
:1001f80000020000000200000002000000020000ef
:1002080000020000000200000002000000020000de
:1002180000020000000200000002000000020000ce
:1002280000020000000200000002000000020000be
:1002380000020000000200000002000000020000ae
:10024800000200000002000000020000000200009e
:10025800000200000002000000020000000200008e
:10026800000200000002000000020000000200007e
:0c02780000020000000200000002000074
:020000040000fa
:100408002a020400000000000000eb00000778004a
:100418000c000900002f78000007eb000000060020
:10042800010821008018eb00006221000008e100ab
:10043800fcff3a00000006000060fe00d8b0a900ea
:10044800154ea900114ea900fbff37000ff021003f
:10045800e0ff2100000188000802020000000000ff
:1004680014020200000000000e2eef001e2eef0006
:10047800b60b02000000000041012000401f2000d0
:10048800181b0200000000008100e900fbff3a0091
:100498000802020000000000b60b02000000000085
:1004a800e803020000000000a40b020000000000a6
:1004b800a00a020000000000640b02000000000017
:1004c80000712200181b0200000000008225210094
:1004d80070240200000000004e130200000000001b
:1004e80014170200000000000000000000000000d7
:1004f80000000000000000000000000000000000f4
:100508000000000000000000000000008c0a02004b
:10051800000000009a0a020000000000940a02008d
:1005280000000000d20a020000000000b630ef0010
:1005380008030200000000009a12020000000000f8
:100548004220ae004e040400000000003c040200fb
:1005580000000000740404000000000040a7a80088
:100568000000060040a7a800000006000268a900d5
:100578002268a90000400600d610e20001003200ff
:10058800a031ef00120eae00a031ef00132eae0026
:10059800a031ef00401f2000a011e300010031004e
:1005a80000000600b602020000000000c3e8a9002f
:1005b800180ea800192ea8000268a9002268a80031
:1005c8000140fe00000000000000000000000000e4
:1005d800000000000268a9002268a900132eae00de
:1005e800feff3700000000000000000000000000cf
:1005f800c3e8a800b202020000000000a031ef002a
:10060800000000000000060060002100004888008b
:10061800b000200010488800b0858000304888006d
:10062800b0858000007122001008880000000600d4
:100638006000210000488800b000200010488800b1
:10064800808680000000e800008488000080200088
:100658008010bc0002848800008480005a32ec00bc
:100668004400de005a12bc005a32ed0032488800bd
:10067800007122001008880000000600d8b0af0002
:1006880007003700b610e20001003a00000006003b
:10069800b630ef000803020000000000000006006a
:1006a800d030ec0000802000d010bc00d030ed002d
:1006b800020078005a32ec004400de005a12bc00f6
:1006c8005a32ed0002007800b610e30001003a004b
:1006d80000000600b0858800080302000000000042
:1006e80000000600042eaa00042eaa00042eaa0068
:1006f800042eaa00042eaa00042eaa00042eaa0082
:10070800042eaa000060fe00f6ff37000060fe001d
:100718000701ae00042ea9000701af00042ea800af
:10072800faff3700154ea800200420002011880089
:10073800a0002000221b020000000000f9ff370083
:10074800154eae0000000600ded0ae000000060028
:100758002302ae0000000600ded0a900154ea90055
:10076800000006000060fe00154eae0006003700cf
:10077800ded0ae00fbff37002302ae00f9ff3700e2
:10078800ded0a900154ea900f0ff2f00181b0200ab
:100798000000000030122000c09088004022200095
:1007a800d090880050322000e090880060422000fd
:1007b800f09088007052200000918800b018020064
:1007c80000000000e7ff37000e2eef001e2eef009e
:1007d80000000600610f210002002000f000200048
:1007e8000080090082187800e10f2100d0e0200085
:1007f80080187800f0002100801878008030ef0021
:1008080000042100b08b880000002000c08b880005
:10081800008480004500dd007631b4007c150200bc
:100828000000000001c02200110078007000b20032
:10083800090032008010af000080fd00610f210028
:1008480002848000810041000100a10011017800ac
:1008580002004000800878008030ec007000200022
:100868008010e300e6ff39000000060000000600e3
:100878007631ef007831ef0001a02200022020003d
:10088800dc15020000000000c42102000000000086
:100898000000060098230200000000000027020064
:1008a80000000000a023020000000000d8b0a8004b
:1008b800f0ff2f00d089880000002000e088880021
:1008c80000002000f088880041d82000dab0a90094
:1008d8005e26020000000000df90a8000e0037002e
:1008e8000000000000000000000000009823020043
:1008f800000000000027020000000000a023020002
:1009080000000000d8b0a900d8d0a9003a0402001d
:1009180000000000df90a8000060fe004203020013
:1009280000000000a403020000000000cc04020044
:1009380000000000b804020000000000ea080200fd
:1009480000000000fe080200000000007409020018
:10095800000000001209020000000000fe0b020067
:1009680000000000ecff37008010e20003003a00ae
:100978008210e20003003a0000000600d8b0a90087
:1009880000000600d8d0af00d8b0a80000000600cc
:100998008030ef008230ef008430ef008630ef00c7
:1009a800bf50ae00000006000000eb00120eae00c3
:1009b8000000a0000000e00010003a005a31ec00ee
:1009c800300020005a11e3004200ae00000006008b
:1009d800da30a800a08a8000da50ae0010848800bf
:1009e800da50a900da10a900daf0a9005431ef00b2
:1009f8005831ef005c31ef00000006005a31ef007b
:100a08005831ec00801f7800200020005811e300c6
:100a18004f0078004200ae0000000600da30a9005e
:100a28005831ed005411e30006003200da10af002f
:100a380000000600a08a8800008488005c31ef006e
:100a4800000006005c31ec00801f780040062000a2
:100a58005c11e3004f0078004220ae00030037002d
:100a6800daf0ae002084880000000600801f7800bd
:100a7800a00f20005c11e3004f0078004220ae0078
:100a880000000600daf0ae0030848800000006009e
:100a9800012e21000001eb000000200080187800e2
:100aa80080187800b00a200080187800d00c200048
:100ab800801878000201e800c00520000010e1005d
:100ac800f5ff3900000006000100a7000600370006
:100ad80031007800b08b880031007800f00fb20048
:100ae800c08b88000a0037000100a100310078009f
:100af8004800de00b08b8800110078004800dd0057
:100b08007631b400110078004800de00c08b880000
:100b18004200a90076b1d60078b1d6004200a900fb
:100b280076b1d60078b1d6000000060000000000bb
:100b3800000000000000000001c02200881502002b
:100b48000000000003c02200330078000080e800a5
:100b5800f01fb2008091880000002400c090880037
:100b680003c0220000848000800978004c1802002d
:100b7800000000000000060000f42100b086880094
:100b8800d8b0a8000000200080898800a0230200b7
:100b980000000000f0002000d092880040002000f3
:100ba80080868800d930a800f07f2000d08988008e
:100bb80000002000e088880000002000f0888800fd
:100bc800a1d92000dab0a9005e26020000000000ca
:100bd800a08680000000e8009a26020000000000bd
:100be80000022000e42602000000000010848000bb
:100bf800de2602000000000000848000de260200dd
:100c0800000000000000060010918000f00fb20004
:100c180080868800d930a80000000600d030ec009b
:100c280050002000d010e30001003900d030ef0060
:100c3800d930a80000000600d030ed005000200098
:100c4800d010e300020039004000200080868800b0
:100c5800d930a80000000600d8b0a8000000200085
:100c680080898800a023020000000000f0ff2f0008
:100c7800d089880000002000e0888800000020005b
:100c8800f088880041da2000dab0a9005e26020068
:100c980000000000d09280000000e8009a260200c0
:100ca8000000000000022000e4260200000000000e
:100cb80010848000de26020000000000008480000e
:100cc800de26020000000000e0002000e088880026
:100cd80040012000f0888800e00120004089880059
:100ce800400220005089880000802f0080898800f9
:100cf800d823020000000000c0022000e08888001d
:100d080040012000f0888800800220004089880087
:100d18004002200050898800f0ff2f008089880059
:100d2800d82302000000000040052000e088880069
:100d380040012000f0888800e001200040898800f8
:100d48004002200050898800007e200080898800a9
:100d5800d8230200000000000000200080898800dd
:100d680000000600d8b0a800000020008089880094
:100d7800a023020000000000f0002000d0928800ac
:100d88004000200080868800d930a800f0ff2f009e
:100d9800d089880000012000e08888000001200038
:100da800f088880041d92000dab0a9005e26020048
:100db80000000000c00520005812e30001003900bf
:100dc8000e003700c09280000000e8009a2602005a
:100dd8000000000000022000e426020000000000dd
:100de80010848000de2602000000000000848000dd
:100df800de2602000000000000000600d0022000ed
:100e0800e426020000000000d0022000e4260200d0
:100e180000000000d0022000e426020000000000cc
:100e2800000006005a32ec00000120005a12e300cc
:100e3800010039005a32ef00a1252100be2402002a
:100e480000000000f0ff2f00d0898800000020007b
:100e58008089880000002000e088880000002000c9
:100e6800f088880041da2000dab0a9005e26020086
:100e780000000000d09280000000e8009a260200de
:100e88000000000000022000e4260200000000002c
:100e980010848000de26020000000000008480002c
:100ea800de26020000000000d930a800000006007d
:100eb8005a32ed00000120005a12e3000200390006
:100ec800f0002000d0928800a1252100be24020055
:100ed80000000000f0ff2f00d089880000002000eb
:100ee8008089880000002000e08888000000200039
:100ef800f088880041da2000dab0a9005e260200f6
:100f080000000000d09280000000e8009a2602004d
:100f18000000000000022000e4260200000000009b
:100f280010848000de26020000000000008480009b
:100f3800de26020000000000d930a80000000600ec
:100f48000000060000000600000006000084800083
:100f58000000e90090918800a80702000000000046
:100f68000000060000000600000006003222af0064
:100f78003222a9002222af002222a9000000060086
:100f88004231ef00208a80004611b7004811b700af
:100f98004a11b7004c11b7004e11b7005011b700f5
:100fa8005211b700f2ff2000020060000000e000cc
:100fb80001003a00000006000001eb004114210086
:100fc8008100410081004100110078000000e0002c
:100fd80004003a000201e8006810e100f7ff390058
:100fe80000000600800078000002eb0010002000de
:100ff8000400dd000100600005003a000402e8007a
:10100800c00020000020e100f8ff390000000600c1
:10101800c00020000201b800040041000000e80000
:101028002208020000000000108a8800000000006a
:10103800000000000000000000000600000601009b
:1010480000000500d0010500d0020500d00305000e
:10105800d0040500e0010500e0020500e0030500fa
:10106800e0040500f0010500f0020500f0030500aa
:10107800f004050000020500000305000004050057
:101088000005050010020500100305001004050006
:1010980010050500200205002003050020040500b6
:1010a8002005050030020500300305003004050066
:1010b8003005050040020500400305004004050016
:1010c80040050500500205005003050050040500c6
:1010d8005005050060020500600305006004050076
:1010e8006005050070020500700305007004050026
:1010f80070050500800205008003050080040500d6
:101108008005050090020500900305009004050085
:1011180090050500a0020500a0030500a004050035
:10112800a0050500b0020500b0030500b0040500e5
:1011380000000500b0050500c0020500c003050059
:10114800c0040500c00505001000050020000500ca
:101158003000050040000500500005006000050053
:1011680000000500700005008000050090000500e3
:10117800a0000500b0000500c0000500d000050073
:10118800e0000500f0000500000105001001050061
:1011980000000500200105003001050040010500a0
:1011a800500105006001050070010500800105007f
:1011b80090010500a0010500b0010500c00105006f
:1011c800000000000000000000000600be30ef0034
:1011d80030088000bc90b6004220af000000060036
:1011e800f0858800c030b700bcb0b6000060fe00d3
:1011f80000000600c430ef0050088000c290b6001e
:101208004220af000000060020868800c630b700e4
:10121800c2b0b6000060fe0000000600c510ae00b7
:10122800000006005086800000060100010037001b
:101238000100370000000600c810e200020032007a
:10124800c830ed0000000600ca30ef007e1602002c
:101258000000000000002000e010ae001000200098
:10126800d0908800fe170200000000000000060071
:10127800a031ec0001003a00a031ed00cc10e200f2
:1012880004003200cc30ed00cc10e20001003a003e
:10129800d8b0a800d610e20010003200120eaf003d
:1012a80009003700d410f8005812f90081252100f0
:1012b800be24020000000000d630ef00b60602008f
:1012c8000000000005003700d630ed0003003a00aa
:1012d800b60602000000000000003700000006000b
:1012e800bf10af003c09020000000000bf90ae0034
:1012f8000000060030878000000601000400370067
:10130800040037002700370050003700020037007c
:101318000000060000000600ea10e20002003200a9
:10132800ea30ed00000006004000200050878800e9
:101338007e16020000000000e010ae000d0037002d
:10134800f0ff2f00d089880000072000e08888007f
:10135800f089800000c0fd00de26020000000000c9
:10136800f0898000de260200000000003e31ec001b
:1013780000000600007e2000d089880000072000b9
:10138800e0888800f0042000e42602000000000045
:10139800b0042000e426020000000000e630ef0060
:1013a80000000600408780000006010002003700a8
:1013b8001200370021003700de10af0000000600e1
:1013c8001a32ef001cb2ef007e1602000000000087
:1013d800e010ae00030037001c18020000000000f7
:1013e800000006001618020000000000b2170200f4
:1013f80000000000e830ec00000006001a32ec00a3
:10140800d0ac2000e09088007e16020000000000aa
:10141800e010ae00030037001c18020000000000b6
:10142800000006000000000000000000281802006c
:1014380000000000e830ec0000000600100020006a
:1014480030878800e830ef0000000600de10af00ab
:1014580000000600408780000006010003003700f6
:101468000b0037001e003700230037007831ef00eb
:101478007811f8001a12f90000012000e0908800a5
:101488001618020000000000e830ec00000006001a
:101498000215020000000000d910ae00020037005b
:1014a800e830ec00000006007811f8001a12f90084
:1014b80000012000e09088001c18020000000000d5
:1014c8007831ec00000120007811e30001003100c0
:1014d80000000600e830ec00e830ec0000000600f0
:1014e8002218020000000000100020003087880049
:1014f800e830ef0000000600281802000000000095
:101508001000200030878800e830ef000000060057
:101518000021ef00000128002008880000000600d4
:1015280000032a00900888000000060000032a0033
:101538008008880000000600217420006204200052
:1015480073052000824878008348780042c7a900c4
:1015580000f02f00c426b60090022000c426b70071
:1015680000f02f008626b600100020008626b7005f
:1015780000f02f008226b600000120008226b70066
:10158800217420006204200073052000824878003e
:101598008348780042c7a80000000600b006200073
:1015a800e008200030022000401188008000280058
:1015b8000011880000402000101188004648a9004a
:1015c8004628a8004608a8000188a9002188a80084
:1015d80030118000301180003011800030118000ff
:1015e8000168a90045c8a90045a8a8004588a80021
:1015f8000168a9002168a80000000600b0062000c4
:10160800e008200010042000f0022000c01188002b
:10161800e000280080118800004020009011880018
:101628004fc8a9004fa8a8004f88a80003e8a90040
:1016380023e8a800b0118000b0118000b01180002c
:10164800b011800003c8a9004f48a9004f28a8007e
:101658004f08a80003c8a90023c8a8000000060076
:10166800100020000400370070002000020037003e
:10167800700020000000370031742000820720002d
:10168800a30920000300fc00824878008348780002
:1016980043e7b7002174200062042000730520008e
:1016a8000300fc0082487800834878004207a800bd
:1016b8000060fe004207af00fdff37000000060093
:1016c8004427ef000003200050042000303a88002f
:1016d800000020004427b700000020004427b7007e
:1016e800000020004427b7000000000000000000b0
:1016f8000000000000712200181b0200000000001a
:1017080000000000000000000000000010002000a1
:10171800400b02000000000000002000403a880052
:10172800000006000060fe00b00a200020118800ba
:1017380000712200181b020000000000f9ff3700aa
:101748004000200080868800f0002000d0928800a9
:10175800f0012000a0918800f0002000b0918800de
:1017680000000600100ea8001a0ea800142ea900ea
:10177800102ea900046ea900006ea900148ea900fd
:10178800108ea900048ea900008ea90014aea9002d
:1017980010aea90014cea90010cea90014eea9001d
:1017a80010eea900150ea800110ea900112ea80010
:1017b800154ea900114ea900156ea900116ea900b9
:1017c800158ea900118ea90015aea90011aea900a9
:1017d80015cea90011cea90015eea90011eea90099
:1017e800040ea800000ea900042ea900002ea900ce
:1017f80000000600df10af0003003700df50af0025
:101808000600370000000600df10a900208f8000c6
:10181800408f88000100220005003700df50a90032
:10182800308f8000408f8800012822000000370098
:101838008190880031007800423022000200e100e7
:1018480004003200f2ff2f000200e1000100320024
:101858000000060031007800c29280000200e1001a
:1018680004003200f2ff2f000200e1000100320004
:101878000000060031007800909088003100780060
:10188800a090880031007800b0908800811f78000f
:10189800310078001091880031007800209188008c
:1018a800310078003091880031007800409188003c
:1018b800cf007800b09080000080fd00f00fb200eb
:1018c8006000e10002003a009e0c040000000000e5
:1018d8007000e10002003a00900e040000000000d1
:1018e800e000e10002003a00320d040000000000b0
:1018f800f000e10002003a00860c0400000000003d
:1019080000000600b09080003000b2000006010020
:1019180007003700060037000500370004003700cd
:1019280000000000000000000000000000000600a9
:1019380000000600b0908000f000b2000006010030
:10194800110037001100370011003700110037006f
:101958001100370011003700110037000800370068
:10196800070037000600370005003700040037007d
:10197800030037000d003700020037000000370071
:101988000000060000000600000006000000060037
:101998000000060000000600000006000000060027
:1019a8001000200030878800000006001432ed0087
:1019b8001432ed008001eb003102780003006a0068
:1019c800f00fb2000c003a008301e8000480fd002b
:1019d80003006a00f00fb20007003a008301e80034
:1019e800a09080000018e100f3ff390016180200eb
:1019f800000000000000060040180200000000007f
:101a0800000006000100a70004003700110078005c
:101a1800f00fb2008100e800000006000100a100fc
:101a2800110078000080fd00f00fb2008180e8000e
:101a380000000600821f7800060d0200000000006a
:101a480000017800060d0200000000000080fd0083
:101a5800020070004f01780000000600b09080007e
:101a6800f00fb2007400e100010039000000060028
:101a780000060100170037003d003700410037001d
:101a880056003700590037006c00370080003700d7
:101a9800830037008500370087003700890037004a
:101aa8008b0037008d0037008f003700910037001a
:101ab8009500370000000600000006000000060040
:101ac80000000600000006000000060000000600f6
:101ad80000000600d8b0a8002212f8003011f90062
:101ae800a0230200000000006c31ef006e31ef000f
:101af8000000060054450000535400000000000098
:101b0800464c0000415300004820000045520000a8
:101b1800524f000052200000212100002100000047
:101b2800494400003a200000000000005341000032
:101b38005645000020490000443a000020000000fb
:101b48005446000054200000444900004d20000085
:101b580053450000543a0000200000004e4f00009a
:101b6800204900004420000021210000210000003d
:101b7800d8b0a8000000200080898800a0230200b7
:101b880000000000d8b0a800819080002101b000ba
:101b98001e0d020000000000d2bc2a000200e10075
:101ba8000100320000000600060d020000000000df
:101bb800e0888800060d020000000000f088880018
:101bc8001e0d020000000000d0898800dab0a800cd
:101bd8005e26020000000000edff3700d8b0a80024
:101be800de2202000000000000000600c005200000
:101bf8005812e30001003900000006002212f80024
:101c08006e11f9002412f8006c11f9003822020054
:101c180000000000d910af0002003700d8b0a800bb
:101c280000000600d8b0a9000000200080898800c4
:101c3800a02302000000000000000600c0052000ec
:101c48005812e300010039000000060010918000de
:101c5800f00fb20080868800819080002101b000da
:101c6800c0928000810040007e1102000000000048
:101c7800801f78007000b200708b88004f007800d9
:101c880000c0fd007000b200608b8800dfff3700e5
:101c98002212f800cc10f900d8b0a9000000060004
:101ca80012060200000000000000060020060200e4
:101cb8000000000000000600080602000000000006
:101cc80000000600160702000000000000000600e1
:101cd8005c0702000000000000000600b6060200d3
:101ce80000000000000006003006020000000000ae
:101cf8000000060010918000a0868800c005020040
:101d080000000000000006002a0204000000000095
:101d18000000fe0000000600b0908000f000b20055
:101d280000060100270037002d0037001601370094
:101d38002c0137000b003700140037002f00370044
:101d480082003700690037005f0037000000060096
:101d58000000060000000600000006000000060063
:101d680000000600b217020000000000400020003a
:101d780030878800e830ef00ea30ef003e31ef00ae
:101d88003c04020000000000000006000a21ef00e9
:101d98000a21ef00500880001086880010002000fb
:101da80050868800109180005812bc001091800065
:101db80000004100408688001612f8000e12f90053
:101dc80000000600d810a900161802000000000044
:101dd8002000200030878800e830ef00000006006f
:101de800d810a900161802000000000030002000da
:101df80030878800e830ef000000060081908000fe
:101e0800a100b00031007800b08b88003100780064
:101e1800c08b88003100780030918800310078004c
:101e2800409188007611f8008010f9007811f800c8
:101e38008210f900218488008630ef008010f800b5
:101e48007611f9008210f8007811f90021848000d9
:101e58008c140200000000008010f8007611f900d0
:101e68008210f8007811f9002184800024140200ff
:101e780000000000d910ae000b0037008630ec00df
:101e8800400020008610e300ecff39001612f8002d
:101e98000e12f90000002000d0908800fe17020002
:101ea80000000000000006001612f8000e12f900eb
:101eb80010002000d0908800d810a900fe1702005a
:101ec80000000000000006001612f8000e12f900cb
:101ed800000e20000006200080918800035c21008d
:101ee800461802000000000000000600007e2000e6
:101ef800d089880000072000e0888800f0042000ce
:101f0800e426020000000000b0042000e4260200dd
:101f1800000000007631ef007831ef0001a02200c8
:101f28007e1002000000000000712200181b020051
:101f38000000000001b022007e1002000000000036
:101f48003c040200000000000000060081908000b0
:101f5800a100b00031007800801f78007000b20046
:101f6800708b88004f0078000080fd007000b20080
:101f7800608b880031007800808b88003100780001
:101f8800908b880031007800808b80006c11b7003e
:101f98006e11b7000000e00008003a0000002100c0
:101fa800d08b88007c31ef007431ef0001a0220053
:101fb8000000eb00ff000900801878007011e200b3
:101fc80023003a006c11e200080032000000000013
:101fd80000000000000000007411e200030032005d
:101fe80000000000000000000000000000102000b9
:101ff8007411bc00020078007a31b4000300780044
:102008007cb1b4007431ef00000420006c11bc00f6
:1020180002027800800020006e11bc0002007800e7
:1020280004024100f41fb20001a022008100420016
:10203800b0da2c00801878000000200080187800a2
:10204800d08b800080187800e08b800080187800a2
:10205800001020007011bc00020078007a11b40052
:10206800b08b8800030078007c91b400c08b880096
:102078007431ec00819080002101b0007e100200d4
:1020880000000000d910ae00080037001612f80052
:102098000e12f9000000200000007800d09088009f
:1020a800fe17020000000000000006001612f800eb
:1020b8000e12f9001000200000007800d09088006f
:1020c800d810a900fe170200000000000007200039
:1020d800e0888800808b800000c0fd00de260200ba
:1020e80000000000808b8000de2602000000000057
:1020f800000006008010f8008210f8008410f80034
:102108008610f800d910a9007611f8008010f9009f
:102118007811f8008210f900218488008630ef00d9
:102128008010f8007611f9008210f8007811f90093
:10213800218480008c140200000000008010f80048
:102148007611f9008210f8007811f90021848000d6
:102158002414020000000000d910ae00050037006a
:102168008630ec00300020008610e300ecff3900d8
:10217800d910a8008610f9008410f9008210f9001f
:102188008010f90000000600d810a90016180200f7
:102198000000000081908000a100b00031007800ac
:1021a80010918800310078002091880010918000fb
:1021b8002412bc00b28b8800c38b88004200a9009f
:1021c80078b1d70076b1d7008c1402000000000067
:1021d80000000000000000000000000000000000f7
:1021e80000000600d810a90081908000a100b0006e
:1021f8003100780010918800310078002091880023
:10220800109180002412bc00b28b8800c38b880018
:102218004200a90078b1d70076b1d700d0130200e8
:1022280000000000d910ae00030037002218020099
:102238000000000000000600161802000000000060
:10224800000006007f00e1000100360000000600e3
:10225800000601001f0037001f0037001e0037006e
:102268001d0037001c0037001b0037001a0037001c
:102278001900370019003700180037001700370019
:102288001600370015003700140037001300370018
:102298001200370012003700120037001200370012
:1022a8001200370012003700110037001000370005
:1022b8000f0037000e0037000d0037000c00370004
:1022c8000b0037000a003700090037000800370004
:1022d80007003700000006000000060000000600a6
:1022e80000000600000006000000060000000600ce
:1022f800000006000100a700040037001100780064
:10230800f00fb2008100e800000006000100a10003
:10231800110078000080fd00f00fb2008180e80015
:10232800000006007e11020000000000801f7800f7
:102338007e110200000000000080fd004f017800bf
:10234800020070000000060005002f00156ea800ae
:1023580000027800156ea9000080fd00148eb600fa
:102368000080620014aeb60000000000000000000b
:10237800156ea8000000000000000000156ea900fe
:102388000400780000c0fd000080fd00148eb60037
:102398000080620014aeb6000000000000000000db
:1023a800156ea80000000600d890af00e6ff3700c1
:1023b800156ea800008788000000eb00156ea900c4
:1023c800e0f0ae00158ea900e0f0af00158ea80071
:1023d80000000000156ea800e0b0d6000000e8007c
:1023e8006800e100f5ff39000000060000002f003a
:1023f800102eb70000000000156ea90000000000b4
:102408000000000000000000907080000080fd00c7
:10241800156ea800000fb20000017800156ea90023
:1024280000000000000000000000000000000000a4
:10243800907080000080fd0000c0fd00f000b20038
:102448000200700000878800156ea80000000600d2
:10245800d890af00e5ff37000060fe00156ea800b9
:10246800e030ef00156ea900e0b0d600e010a9003a
:1024780013aeaf00e010a800156ea800156ea900f5
:10248800e0b0d600e010a90013aeaf00e010a8003d
:10249800156ea800156ea900e0b0d600e010a900de
:1024a80013aeaf00e010a800156ea800156ea900c5
:1024b800e0b0d600e010a90013aeaf00e010a8000d
:1024c800156ea800156ea900e0b0d600e010a900ae
:1024d80013aeaf00e010a800156ea800156ea90095
:1024e800e0b0d600e010a90013aeaf00e010a800dd
:1024f800156ea800156ea900e0b0d600e010a9007e
:1025080013aeaf00e010a800156ea800156ea90064
:10251800e0b0d600e010a90013aeaf00e010a800ac
:10252800156ea8000087800000000600a0150200b4
:102538000000000000092000d8110200000000007f
:10254800008488002c12020000000000108488001b
:102558002c12020000000000208488002c120200c7
:1025680000000000308488002c12020000000000e7
:102578004084880012878000238780002c12020084
:102588000000000050848800be1502000000000012
:10259800f00e20008810e3004220af000000060083
:1025a800200c20008810e3004220af000000060045
:1025b80000000600d870a9004e13020000000000b9
:1025c800ee140200000000008030ef008010a90027
:1025d800d910af008010a800000000000000000023
:1025e80000000000d910af005e13020000000000d8
:1025f80000000000000000000000000000000000d3
:102608008a13020000000000000000000000000023
:1026180000000000000000000000000000000000b2
:102628000000000000000000e2ff3700141702005d
:1026380000000000d890a900d870a9006a1602000e
:1026480000000000a8160200000000006a16020040
:1026580000000000a8160200000000000017020099
:1026680000000000000006000060fe001a130200cf
:10267800000000009a1202000000000000000000a4
:10268800000000001417020000000000f6ff3700e9
:10269800000006009a120200000000004220ae006e
:1026a800fcff3700000000000000000000000000f0
:1026b80000000600741702000000000092160200d5
:1026c800000000007e160200000000000000a700c5
:1026d800fcff37007417020000000000c01702005a
:1026e800000000000060fe007e16020000000000ee
:1026f8000000a700fbff37000000000000000000fa
:102708000000000000000000000006000160220038
:10271800021020008001eb008218780010102000c1
:10272800020140008301e800000820000018e100d1
:10273800f9ff3900d870a9007631ef007831ef0041
:10274800016022007611f8007811f8008c1402005c
:10275800000000007811f9007611f90001602200ec
:102768002414020000000000d910ae000000000090
:10277800d910af00000000000000000000000000b9
:10278800001020007631b400803e2000221b020099
:1027980000000000eaff3700d910a8006a160200fe
:1027a80000000000a015020000000000b00020009a
:1027b800d811020000000000c08b8000d811020070
:1027c80000000000b08b80000080fd00d8110200de
:1027d80000000000b08b8000d8110200000000004b
:1027e8002c120200000000002c1202000000000061
:1027f80031007800e010e3000b003a007631ec007d
:102808004220af007831ec0076d1bf00f6ff3a00e5
:10281800be15020000000000d910a9000000000049
:10282800000000000000060000000000000000009a
:1028380000000000be1502000000000000000600b5
:1028480002c02200d910a8006a1602000000000089
:10285800a01502000000000030002000d81102007e
:1028680000000000c08b8000d811020000000000aa
:10287800b08b80000080fd00d8110200000000002d
:10288800b08b8000d8110200000000002c1202005a
:10289800000000007611af000400370000878000b8
:1028a80000097800110078000600370000878000d2
:1028b8000080fd00120940000281e8003100780024
:1028c8000080fd00e050e3000b003a007631ec0098
:1028d8004220af007831ec0076d1bf00ebff3a0020
:1028e800be15020000000000d910a9000000000079
:1028f80000000000000006000000000000000000ca
:1029080000000000be1502000000000000000600e4
:1029180028170200000000007417020000000000e1
:10292800a01502000000000020002000d8110200bd
:1029380000000000c08b8000d811020000000000d9
:10294800b08b80000080fd00d8110200000000005c
:10295800b08b8000d811020000000000d890af00b2
:10296800110037007611af0002003700110078001f
:1029780003003700310078000080fd0000003700b8
:10298800d8110200000000007631ec004220af00b0
:102998007831ec0076d1bf00f2ff3a00be15020094
:1029a800000000000000060031007800d811020085
:1029b800000000007631ec004220af007831ec00d6
:1029c80076d1bf00f8ff3a00be15020000000000f3
:1029d800000006007831ef00021502000000000038
:1029e800d910af00000006007831ec00000120008b
:1029f8007811e300f8ff390000000600d910a8009c
:102a08006a16020000000000a01502000000000085
:102a1800b0002000d811020000000000c08b800028
:102a2800d81102000000000000002000d8110200a8
:102a38000000000000002000d81102000000000083
:102a48002c120200000000007631ef00d890af0091
:102a58000f0037002c12020000000000f00f2000c9
:102a6800e050e30019003a007631ec007611e200fc
:102a7800f8ff3a00d910a900be15020000000000b6
:102a88000000000000000000000000000000060038
:102a98002c12020000000000f0ff2f00e010e300fd
:102aa8000a003a007631ec007611e200f8ff3a00ad
:102ab800d910a900be1502000000000000000000a7
:102ac800000000000000000000000600be15020023
:102ad80000000000000000000000000000000000ee
:102ae8000000060001c022008200200030003700ec
:102af80001c02200020120002d00370001c0220081
:102b0800020220002a00370001c022000210200023
:102b18002700370001c022000220200024003700cf
:102b2800011821002200200021003700011821008f
:102b3800420020001e003700d890af000700370081
:102b480011aea80015cea80011cea90015eea80058
:102b580011eea900040ea90000000600801f7800ed
:102b6800f0ff2000102eb600040ea9004f007800d8
:102b780000000600d890af0006003700040ea80039
:102b8800118ea90011aea90011cea90011eea9005d
:102b980000000600040ea800801f7800f0ff200047
:102ba800102eb600040ea9004f00780000000600a1
:102bb8008e10f800728488006a1602000000000077
:102bc800a015020000000000b0002000d81102008b
:102bd80000000000c08b8000d81102000000000037
:102be800b08b80000080fd00d811020000000000ba
:102bf800b08b8000d8110200000000002c120200e7
:102c0800000000002c120200000000007611af0046
:102c18000200370080087800030037000080fd00bc
:102c2800910840008180e8007631ec004220af0036
:102c38007831ec008e30ed00f2ff3a00be1502004c
:102c4800000000008e10f90000000600708480006b
:102c58007631b4000000200078b1b4004200a90029
:102c680076b1d60078b1d6002c1202000000000020
:102c7800801878008e30ed00fbff3a00be15020088
:102c8800000000008e10f90000000600d890af0088
:102c9800030037007e160200000000000000060056
:102ca8007e16020000000000e210af0004003700aa
:102cb800e210af0002003700e030ef00000006002d
:102cc8001000200000878800000006000060fe0059
:102cd8004a16020000000000e010af00fbff3700ba
:102ce8004a16020000000000e010af00f7ff3700ae
:102cf80000000600a015020000000000500020009f
:102d0800d8110200000000002c1202000000000090
:102d1800be1502000000000000000600a015020019
:102d28000000000010002000d81102000000000080
:102d380000002000d811020000000000be150200ab
:102d48000000000000000600a015020000000000be
:102d580050032000d8110200000000002c120200cd
:102d680000000000be150200000000000010a000d6
:102d7800801f7800a015020000000000100320004a
:102d8800d8110200000000004f007800d81102009e
:102d980000000000be150200000000000000060050
:102da800a01502000000000050032000d811020006
:102db800000000002c12020000000000be150200f6
:102dc800000000000010a100801f7800a01502007c
:102dd8000000000010032000d811020000000000cd
:102de8004f007800d811020000000000be15020054
:102df8000000000000000600d870a900a01502001d
:102e08000000000080032000d8110200000000002c
:102e1800be15020000000000d890a80000000600bf
:102e2800d890a800a015020000000000f00f2000b4
:102e3800d811020000000000be15020000000000ca
:102e4800d890a900000006007e16020000000000cd
:102e5800d890af000b003700e010af00faff370042
:102e680000878000c001b2004220af0000000600c9
:102e78007417020000000000921602000000000013
:102e8800f1ff3700e210af00efff3700e410af00aa
:102e9800edff370010878000c001b2004220af006c
:102ea80005003700741702000000000092160200a7
:102eb80000000000e4ff370020878000c001b20056
:102ec8004220af0005003700741702000000000020
:102ed8009216020000000000dbff37000000060029
:102ee800a01502000000000060002000d8110200b8
:102ef80000000000be1502000000000000000600ef
:102f0800a01502000000000040002000d8110200b7
:102f180000000000be1502000000000000000600ce
:102f2800a01502000000000010002000d8110200c7
:102f38000000000001007800d81102000000000025
:102f4800010078000080fd00d81102000000000098
:102f5800be1502000000000000000600281702004d
:102f6800000000007417020000000000c0170200f3
:102f78000000000000000600a0150200000000008c
:102f8800700c2000d811020000000000be150200dd
:102f98000000000000000600801f7800a015020055
:102fa80000000000800d2000d81102000000000081
:102fb8004f007800d8110200000000000000200037
:102fc800d81102000000000000002000d811020003
:102fd80000000000be15020000000000000006000e
:102fe8003418020000000000b217020000000000c0
:102ff800000006007090800000f0a000c0908800db
:1030080055003700b090800017f2a800c0908800e3
:103018001a32ef001c32ef001e32ef002032ef00b0
:103028004d00370000002000c09088004a0037009b
:1030380010002000c09088004700370020002000c2
:10304800c09088004400370030002000c0908800fd
:103058004100370040002000c09088003e00370043
:1030680050002000c09088003b003700600020001e
:10307800c09088003800370070002000c090880099
:10308800350037007090800000f0a000c0908800e4
:103098003419020000000000403022004e190200de
:1030a80000000000403022000080fd004e190200a0
:1030b80000000000c09280004e19020000000000cd
:1030c800c09280000080fd004e1902000000000040
:1030d800000020004e19020000000000000020003f
:1030e8004e19020000000000809180002000b0000e
:1030f8004e19020000000000809180002000b000fe
:103108000080fd004e19020000000000c090800001
:103118004e19020000000000c09080000080fd00f1
:103128004e19020000000000130078004e1902003a
:1031380000000000330078000080fd004e190200f6
:10314800000000003032ed00f7ff3a005819020085
:103158000000000000000600341902000000000012
:10316800403022004e1902000000000040302200ca
:103178000080fd004e19020000000000c09280008f
:103188004e19020000000000c09280000080fd007f
:103198004e19020000000000000020004e19020035
:1031a80000000000000020004e190200000000008e
:1031b800a00020004e1902000000000000002000be
:1031c8004e19020000000000c09080004e19020055
:1031d80000000000c09080000080fd004e19020031
:1031e80000000000d09080004e190200000000008e
:1031f800d09080000080fd004e1902000000000001
:10320800e09080004e19020000000000e09080006d
:103218000080fd004e19020000000000f0908000c0
:103228004e19020000000000f09080000080fd00b0
:103238004e19020000000000009180004e190200a3
:1032480000000000009180000080fd004e1902007f
:1032580000000000581902000000000000000600ed
:10326800d810ae00de10a900d810af00de30a900db
:103278002e32ef00b00a2000509188002c32ef0067
:1032880001502200a00e20008c190200000000004e
:10329800000006002ab2b6002c32b400a2190200bf
:1032a800000000000000060050918000a2190200f2
:1032b8000000000060918000a219020000000000d8
:1032c800b00e20008c19020000000000154ea80066
:1032d800d810af00070037002e12f800ec11f900e3
:1032e800ea31ef00de10a800ded0a9000188a800ae
:1032f800000006002e12f8000212f9000032ef005a
:10330800de30a800def0a90003e8a80000000600ef
:10331800f00fb2002e12af000300370080087800cb
:103328002e32ec00000006000080fd0091084000ed
:103338008180e8002e32ec0000000600821f780031
:10334800f00fb200a20e20000200e10008003200d7
:10335800b20e20000200e10005003200c20e20007b
:103368000200e100020032004f017800e8ff370058
:10337800801f7800c00e20008c1902000000000099
:10338800b20a20004f007800000069008c19020082
:10339800000000004f017800000006000030a70080
:1033a8000a0037007000b200000601001000050096
:1033b8002000050040000500800005000001050010
:1033c800000205000004050000080500d6190200e7
:1033d800000000000080fd00000006000030a7008b
:1033e800faff37007000b20000060100000805006f
:1033f800000405000002050000010500800005002a
:10340800400005002000050010000500f619020024
:10341800000000000080fd00000006004200f800e7
:10342800801f78000288a9004f0078004200f90048
:10343800004006000288a900004006004200f8008b
:10344800801f7800811f78000168a900a031ef0073
:1034580031118000f10fb200df90ae004400370058
:10346800a00e20000100e10022003200b00e200072
:103478000100e10025003200c00e20000100e1003b
:1034880038003200b00a2000de90af0081006800ea
:10349800de90a90000282000e211e300330031008b
:1034a80000002200de50af0000282200e211b40024
:1034b8000000a100e211af00020037000108780007
:1034c800030037000180fd00108840000180fd00e6
:1034d800908f8000a08f880001007800908f88006e
:1034e80001007800f031b400eeb1b600e231ec0032
:1034f8001f003700de90a900e231ef00f031ef0045
:10350800ee31ef00d9b0a80019003700de90a9000d
:10351800b00a2000ee91b600f291b60014003a000d
:10352800908f8000f211b400f411b400f091b6004d
:10353800f00fb2000e003a00108f8000de50ae008f
:10354800208f8800de50af00308f8800de50ae003c
:10355800df10a800de50af00df50a800de50aa0040
:1035680003003700de90a8000100370000000000cb
:10357800cf0078004f0078004200f90000400600b4
:103588004200f800801f7800811f780003c8a90056
:10359800cf0078004f0078004200f9000040060094
:1035a8004200f800801f7800811f78000188a90078
:1035b800a031ef00de10ae000f00370001502200ee
:1035c800508f8000810040000100a10011007800a8
:1035d800ea11af000080fd00f00fb2002011880052
:1035e800ea31ec00608f8000ea11e3000200390044
:1035f800de10a900ded0a800cf0078004f007800c8
:103608004200f900004006004200f800801f7800e0
:10361800811f780003e8a900cf0078004f007800e8
:103628004200f900004006000060fe000000e900ca
:10363800fdff3a0000000600100020008010f8008e
:103648008210f80010848800300880000084880008
:10365800300c2000101020008030b4000060fe0004
:10366800008480000601b50000f0a700fbff3700ca
:103678008230ed00f4ff3a008210f9008010f90062
:10368800000006000e000900000000000000e9002c
:10369800fcff3a00000006001631ec003000200064
:1036a8001611e300010039001631ef00b0888000e0
:1036b8000006010002003700050037000600370049
:1036c800f0002000401988002023a8000000060010
:1036d8002023a900000006002003ae000000060019
:1036e80000188000c08888002003a90018b1d700fe
:1036f80018b1d700c0888000f00fb2000080fd002c
:10370800420d2000110009000280d800d0888800ee
:103718000080fd00f00fb20002003200f00f200020
:10372800d0888800000006004200f800801f78005a
:10373800811f78000368a900cf0078004f00780047
:103748004200f9000040060000a0fe000068a90041
:10375800d230ec0090002000d210e30006003900bf
:10376800d230ef00ce30ec0050002000ce10e30045
:1037780001003900ce30ef0080868000ce10e300d3
:1037880007003e00d8b0ae0005003700d092800098
:10379800d210e30002003e00148ea800010037009a
:1037a800148ea9000080fe000040060014aea80098
:1037b800046ea900a0022000da1c0200000000002c
:1037c80000002000b21d020000000000e088800018
:1037d8002000b000b21d0200000000000000200020
:1037e800b21d020000000000608980001c11b400b6
:1037f8000000e9002000b000b21d02000000000037
:10380800046ea8000000060014aea800046ea9000b
:10381800b0022000da1c02000000000000002000b6
:10382800b21d020000000000f08880003000b000e7
:10383800b21d02000000000000002000b21d0200be
:1038480000000000708980001e11b4000000e9002b
:103858004000b000b21d020000000000046ea80085
:103868000000060014aea800046ea900a002200003
:10387800da1c02000000000000002000b21d020057
:1038880000000000008980001c11e30001003500e1
:10389800e0888000801f78002000b000b21d020080
:1038a8000000000000002000b21d0200000000001f
:1038b8004f0078002c11b4000000e9002211e30049
:1038c80001003c00108980002000b000b21d0200f9
:1038d80000000000046ea80014aea800046ea90041
:1038e800b0022000da1c02000000000000002000e6
:1038f800b21d020000000000208980001e11e300b4
:1039080001003500f0888000801f78003000b0008a
:10391800b21d02000000000000002000b21d0200dd
:10392800000000004f0078002e11b4000000e900ec
:103938002611e30001003c00308980003000b0000f
:10394800b21d020000000000046ea80014aea8001a
:10395800046ea90060032000da1c020000000000c9
:10396800400c2000b21d020000000000046ea800f8
:1039780000000600da1b020000000000081c02001c
:103988000000000014aea800046ea9006003200027
:10399800da1c020000000000000c2000b21d02002a
:1039a80000000000046ea8000000060014cea90064
:1039b8000000000014eea8000070a60014eea90094
:1039c8000000000014aea9000000000014aea8001a
:1039d8000000000014eea8000060a60014eea90084
:1039e8000000000014aea9000000000014aea800fa
:1039f8000000000014eea8000050a60014eea90074
:103a08000000000014aea9000000000014aea800d9
:103a18000000000014eea8000040a60014eea90063
:103a28000000000014aea9000000000014aea800b9
:103a38000000000014eea8000030a60014eea90053
:103a48000000000014aea9000000000014aea80099
:103a58000000000014eea8000020a60014eea90043
:103a68000000000014aea9000000000014aea80079
:103a78000000000014eea8000010a60014eea90033
:103a88000000000014aea9000000000014aea80059
:103a98000000000014eea8000000a60014eea90023
:103aa8000000000014aea9000000000014aea80039
:103ab800000000000000060014cea80014eea800c4
:103ac80000f0a60014eea90014aea90014aea800d8
:103ad80014eea80000e0a60014eea90014aea90098
:103ae80014aea80014eea80000d0a60014eea90099
:103af80014aea90014aea80014eea80000c0a600d9
:103b080014eea90014aea90014aea80014eea80083
:103b180000b0a60014eea90014aea90014aea800c7
:103b280014eea80000a0a60014eea90014aea90087
:103b380014aea80014eea8000090a60014eea90088
:103b480014aea90014aea80014eea8000080a600c8
:103b580014eea90014aea90014aea80014cea80053
:103b680014eea8000070a60014eea90014aea90077
:103b780014aea80014eea8000060a60014eea90078
:103b880014aea90014aea80014eea8000050a600b8
:103b980014eea90014aea90014aea80014eea800f3
:103ba8000040a60014eea90014aea90014aea800a7
:103bb80014eea8000030a60014eea90014aea90067
:103bc80014aea80014eea8000020a60014eea90068
:103bd80014aea90014aea80014eea8000010a600a8
:103be80014eea90014aea90014aea80014eea800a3
:103bf8000000a60014eea90014aea90014aea80097
:103c08000000060014cea80014eea80000f0a600dc
:103c180014eea9000000000014aea9000000000086
:103c280014aea8000000000014eea80000e0a600f2
:103c380014eea9000000000014aea9000000000066
:103c480014aea8000000000014eea80000d0a600e2
:103c580014eea9000000000014aea9000000000046
:103c680014aea8000000000014eea80000c0a600d2
:103c780014eea9000000000014aea9000000000026
:103c880014aea8000000000014eea80000b0a600c2
:103c980014eea9000000000014aea9000000000006
:103ca80014aea8000000000014eea80000a0a600b2
:103cb80014eea9000000000014aea90000000000e6
:103cc80014aea8000000000014eea8000090a600a2
:103cd80014eea9000000000014aea90000000000c6
:103ce80014aea8000000000014eea8000080a60092
:103cf80014eea9000000000014aea90000000000a6
:103d080014aea8000000000014cea80014eea8000d
:103d18000070a60014eea9000000000014aea9006f
:103d28000000000014aea8000000000014eea80077
:103d38000060a60014eea9000000000014aea9005f
:103d48000000000014aea8000000000014eea80057
:103d58000050a60014eea9000000000014aea9004f
:103d68000000000014aea8000000000014eea80037
:103d78000040a60014eea9000000000014aea9003f
:103d88000000000014aea8000000000014eea80017
:103d98000030a60014eea9000000000014aea9002f
:103da8000000000014aea8000000000014eea800f7
:103db8000020a60014eea9000000000014aea9001f
:103dc8000000000014aea8000000000014eea800d7
:103dd8000010a60014eea9000000000014aea9000f
:103de8000000000014aea8000000000014eea800b7
:103df8000000a60014eea9000000000014aea900ff
:103e08000000000014aea80000000000000006003a
:103e1800821f780014cea800020220000b00370091
:103e2800821f780014cea800820120000700370006
:103e3800821f780014cea80002012000030037007a
:103e4800821f780014cea8008200200010eea8007f
:103e580014aea9004200a80012eeae004200a9006c
:103e680014aea8000080d2008180d2000201e900cf
:103e7800f7ff3a00046ea8004f01780010eea90081
:103e88000000060014aea80038240200000000005c
:103e980014aea800046ea90010012000da1c02006c
:103ea8000000000080072000221b02000000000024
:103eb80014aea800046ea900100b2000da1c020042
:103ec8000000000050002000b21d020000000000a9
:103ed800c0032000b21d020000000000c003200043
:103ee800b21d020000000000046ea80014aea80075
:103ef800046ea900200b2000da1c0200000000005c
:103f080050002000b21d020000000000c003200085
:103f1800b21d020000000000c0032000b21d020014
:103f280000000000046ea80014aea800046ea900ea
:103f3800300b2000da1c02000000000050002000b6
:103f4800b21d020000000000c0032000b21d0200e4
:103f580000000000c0032000b21d020000000000a5
:103f680050002000b21d020000000000c003200025
:103f7800b21d020000000000c0032000b21d0200b4
:103f880000000000046ea80014aea800046ea9008a
:103f9800400b2000da1c0200000000007000200026
:103fa800b21d020000000000046ea80014aea800b4
:103fb800046ea900600b2000da1c0200000000005b
:103fc800400b2000b21d020000000000000f20007e
:103fd800b21d020000000000046ea80014aea80084
:103fe800046ea900000c2000da1c0200000000008a
:103ff800e00a2000b21d020000000000e0002000de
:10400800b21d02000000000040002000b21d0200a6
:1040180000000000046ea80014aea800046ea900f9
:10402800100c2000da1c020000000000000c200028
:10403800b21d020000000000046ea80014aea80023
:10404800046ea900200c2000da1c02000000000009
:10405800a0002000b21d02000000000000002000a7
:10406800b21d020000000000046ea80014aea800f3
:10407800046ea900300c2000da1c020000000000c9
:10408800a0082000b21d020000000000600220000d
:10409800b21d020000000000046ea80014aea800c3
:1040a800046ea900400c2000da1c02000000000089
:1040b800a0082000b21d020000000000e00e200051
:1040c800b21d020000000000046ea80014aea80093
:1040d800046ea900500c2000da1c02000000000049
:1040e80010002000b21d020000000000046ea800ad
:1040f80014aea800046ea900000e2000da1c02000d
:104108000000000030002000b21d02000000000086
:10411800d0012000b21d0200000000008000200035
:10412800b21d020000000000d0002000b21d0200f5
:104138000000000060032000b21d02000000000023
:1041480030032000b21d020000000000c002200061
:10415800b21d020000000000f0022000b21d0200a3
:1041680000000000c0022000b21d02000000000094
:10417800a0022000b21d0200000000002003200061
:10418800b21d020000000000c0032000b21d0200a2
:104198000000000000002000b21d02000000000026
:1041a80010002000b21d02000000000030002000b6
:1041b800b21d020000000000f0002000b21d020045
:1041c80000000000046ea80014aea800046ea90048
:1041d800100e2000da1c0200000000003000200051
:1041e800b21d020000000000d0012000b21d020034
:1041f8000000000080002000b21d02000000000046
:10420800d0002000b21d020000000000f0022000d3
:10421800b21d020000000000c0022000b21d020012
:104228000000000080022000b21d02000000000013
:10423800d0022000b21d020000000000c0022000d1
:10424800b21d020000000000a0022000b21d020002
:104258000000000020032000b21d02000000000042
:10426800d0032000b21d0200000000000000200062
:10427800b21d02000000000010002000b21d020064
:104288000000000010002000b21d02000000000025
:10429800f0002000b21d020000000000046ea8001b
:1042a80014aea800046ea90060032000da1c020006
:1042b8000000000040002000b21d020000000000c5
:1042c800046ea80014aea800046ea900a003200084
:1042d800da1c02000000000050002000b21d02009d
:1042e80000000000046ea80014aea800046ea90027
:1042f80000022000da1c020000000000046ea80082
:1043080014aea800046ea90090022000da1c020076
:1043180000000000046ea8000000060001a02200b2
:1043280002202000dc15020000000000000006004a
:10433800d910a80001a02200000420006c11bc00c4
:1043480081004100800020006e11bc008100410006
:10435800b2da2c00310078000200e10001003200de
:10436800000006003100780031007800b08b88002a
:1043780031007800c08b8800d910a9000000060021
:104388008010f8006c31ef006e31ef00015c210005
:10439800b0fa2f006f000900801878008030ef0015
:1043a8009c21020000000000d910af000f00370068
:1043b8006109210002012000dc1502000000000054
:1043c800b0da2c009610e30008003a00015c2100e6
:1043d800008480004200dd008100400010858000dc
:1043e8008018780020858000801878008030ec00e4
:1043f8006e31ec00800020006e11e300e8ff390008
:104408006e31ef006c31ec00700020006c11e3009d
:10441800e3ff39006c31ef008010f900000006005e
:104428009c21020000000000d910af000000060027
:104438006109210002012000dc15020000000000d3
:10444800b0da2c009610e30001003200d910a80061
:10445800000006000000200080898800a0230200d8
:104468000000000000000600142202000000000006
:10447800d910af00f7ff3700f0848000c0858800ae
:1044880000858000d08588008e10f8008c10f80018
:10449800d8d0a80000002000e08888000000200094
:1044a800f088880000082000608988000008200043
:1044b80070898800be1c02000000000014aea8002d
:1044c800046ea900c0022000da1c020000000000ef
:1044d80003082000881502000000000004082000de
:1044e80001c022000060fe00310078000000e000fa
:1044f80004003a00d970af00007e2000d950af0008
:10450800f001b300601d0200000000000402e90091
:10451800f4ff3a008301e900eeff3a00046ea800b8
:104528008c10f9008e10f900000006000000200031
:10453800e088880000002000f0888800000820003b
:10454800608988000004200070898800be1c020071
:104558000000000014aea800046ea900c0022000ec
:10456800da1c02000000000000000600601d0200c6
:104578000000000000000600046ea800000006000d
:104588006e31ec00800020006e11e3000100310064
:10459800000006006e31ef006c31ec007000200066
:1045a8006c11e30001003100000006006c31ef00df
:1045b800000006008e30ef00c42202000000000058
:1045c80000000000000000000000000000000000e3
:1045d800000000001422020000000000d910af0003
:1045e8000300370038220200000000000000060027
:1045f8008e30ec00000420008e10e300eeff39003e
:1046080000000600d8b0a9009823020000000000ae
:10461800d8b0a8006c31ef006e31ef007631ef00b2
:104628007831ef0001a0220002202000dc150200f2
:104638000000000000000000000000000000000072
:104648003822020000000000d910af000300370034
:10465800803e2000221b0200000000006e31ec00aa
:10466800800020006e11e300f5ff39006e31ef0085
:104678006c31ec00700020006c11e300f0ff390091
:104688006c31ef00eeff3900d8b0a9009823020082
:1046980000000000d8b0a800f0ff2f008089880033
:1046a800a023020000000000c0122000221b02000c
:1046b80000000000f001200080898800a02302008b
:1046c80000000000c0122000221b020000000000b1
:1046d800007e200080898800a023020000000000de
:1046e800c0122000221b02000000000000802f00e2
:1046f80080898800a023020000000000c01220006a
:10470800221b0200000000000000200080898800b1
:10471800a023020000000000c0122000221b02009b
:1047280000000000d8ff3700461f0200000000000c
:10473800000006003031ef00d8d0a80000002000ab
:10474800e088880000002000f08888000008200029
:10475800608988000008200070898800be1c02005b
:104768000000000014aea800046ea900c0022000da
:10477800da1c0200000000000308200004082000e2
:104788000060fe0080898000601d020000000000bb
:104798000402e900faff3a008301e900f7ff3a0052
:1047a800046ea800000006008010f8008210f800cf
:1047b8001c11f8001e11f8004089800060898800eb
:1047c8005089800070898800361c020000000000b3
:1047d80014aea800046ea900c0022000da1c020072
:1047e8000000000050898000108488004089800003
:1047f80000848800008980001c11e3000c0035004b
:10480800108980001c11e30009003c002089800009
:104818001e11e30006003500308980001e11e300f8
:1048280003003c0080898000601d02000000000039
:104838001c31ec008030ed00eeff3a00408980002a
:104848001c31b5001e31ec008230ed00e7ff3a0064
:10485800046ea8001e11f9001c11f9008210f9005d
:104868008010f90000000600046ea800048ea8005d
:1048780010002000221b020000000000048ea90086
:10488800a0002000221b020000000000048ea800e7
:1048980080072000221b0200000000000000060024
:1048a8000060fe0029e7af00fdff370000000600aa
:1048b800a00f2000a002880001002000b208bb0061
:1048c800b298bb00b208bb00b298bb005420ef00fe
:1048d8000000060002c022005420ef0001002a0058
:1048e800230020003100ba00001978008301e90094
:1048f800fcff3a0000000600518488008830ef0071
:104908005420ef0041f82200408480004300dd007d
:10491800810040003100ba00008488003100ba00ec
:10492800108488003100ba00208488003100ba0061
:10493800308488008010e20001003a000000060080
:10494800008480008a10e300020032008830ec0006
:10495800ebff370001c02200408480008100400046
:10496800810040005284800012007800800878009e
:1049780000000600811f78006e240200000000007d
:10498800cf0078008024020000000000dc24020030
:104998000000000001003a0000000600f2240200b6
:1049a80000000000302502000000000000000600a2
:1049b8005420ef0001002a002300200002c022003a
:1049c8003100ba0032006800010032000000060021
:1049d8008301e900faff3a0000000600c3e8a900d5
:1049e80000002000400b02000000000054240200d8
:1049f80000000000000020006039880000002a0044
:104a08005039880030002400403988000a00fc0032
:104a18005005200070398800a00a200070398800ed
:104a280029e7a800000000000000000000000000c6
:104a380000000000000000005424020000000000f4
:104a48000000200040398800640b020000000000cc
:104a5800c3e8a80000000600c3e8a9000000200081
:104a6800400b020000000000542402000000000077
:104a78008001eb00000020006039880000002a0057
:104a88000300400003004000030040000300400012
:104a98005039880002c02200028141000281410091
:104aa8000281410002814100a00f2000a00288007d
:104ab80001002000b208bb008398bb00b208bb000d
:104ac8008398bb005420ef00100024004039880070
:104ad8000a00fc005005200070398800a00a200058
:104ae8007039880029e7a8000000000000000000d5
:104af8000000000000000000000000005424020034
:104b0800000000008301e800200020000000e80009
:104b18004180de000018e100d6ff390000002000c7
:104b280040398800640b020000000000c3e8a800b8
:104b3800000006000006010000040500100405003e
:104b48002004050030040500400405005004050059
:104b58006004050070040500800405009004050049
:104b6800a0040500b0040500c0040500d004050039
:104b7800e0040500f0040500000505001005050027
:104b88002005050030050500400505005005050015
:104b98006005050070050500800505009005050005
:104ba800a0050500b005050000000500400005004f
:104bb80080000500c0000500000105004001050057
:104bc800c0010500b0010500000205004002050013
:104bd80080020500c002050000030500400305002f
:104be80080030500c0030500100005005000050003
:104bf80090000500d00005001001050050010500d7
:104c080080010500f00105001002050050020500b2
:104c180090020500d00205001003050050030500ae
:104c280090030500d0030500200005006000050082
:104c3800a0000500e0000500200105006001050056
:104c480090010500d0010500200205006002050062
:104c5800a0020500e002050020030500600305002e
:104c6800a0030500e0030500300005007000050002
:104c7800b0000500f00005003001050070010500d6
:104c8800a0010500e00105003002050070020500e2
:104c9800b0020500f00205003003050070030500ae
:104ca800b0030500f0030500da90a8003831ef00e2
:104cb80001003700da90a900dab0ae00050037002d
:104cc800811f78000100a10011007800cf00780052
:104cd800010037001100ba000100a7000080fd00a4
:104ce800f00fb20004003200e426020000000000c9
:104cf8008100e800f0ff37008100e800da90a900a1
:104d08000000060002712200110009000280d8008c
:104d18004084880001007800823e200011000900cc
:104d28000280d80030848800010078004206200004
:104d3800110009000280d800208488000100780052
:104d4800a2002000110009000280d8001084880009
:104d580001848800000006000040a6000600370015
:104d68000000a60002003700d00220000000060064
:104d78000002200000000600604fb0004200af00b3
:104d88007040b000a043b000000006008100200081
:104d9800a189880001012000b18988002100200034
:104da800e18988007000b800417922008100400044
:104db80000000600f000b200b0260200000000006b
:104dc800d8d0a800811f7800ca2602000000000081
:104dd800da90af00040037000e2702000000000040
:104de800cf00780000000600a08980003831b400a8
:104df800cf007800000006002031ef00f007200007
:104e0800108988002431ef00f007200030898800dd
:104e180000000600a089800060898800b0898000b1
:104e280070898800361c02000000000014aea8003b
:104e3800046ea900c0022000da1c02000000000075
:104e4800b5898000208980001e11e3000f0035001d
:104e5800308980001e11e3000c003c00010178003d
:104e6800b201ba000100a7000380fd003202ba00b7
:104e78000100a7000480fd00a289800066270200c7
:104e880000000000a08980001c31b500a2898000c4
:104e98000201e9004311de000201e800810041003f
:104ea8001e31ec008502e900e6ff3a00a089800087
:104eb8001c31b400b08980001e31b500046ea80012
:104ec80000000600008980001c11e30003003d007b
:104ed8000482d3008381d3000d003700108980003d
:104ee8001c11e300030034000482d3008381d30043
:104ef800070037000482d3008381d300d089800063
:104f08004200ae0080898000601d020000000000a1
:104f18001c31ec000201e900eaff3a00000006003b
:104f28000000000000000000000000000000000079
:104f38000000000000000000000000000000000069
:104f4800000000000000000078cc0000cccc00007d
:104f580078000000000000000000000000000000d1
:104f68000000000000000000070f00001f3f0000c5
:104f78007f3f00001f0f0000070000000000000036
:104f88000000000000000000e0f00000f8fc000055
:104f9800fefc0000f8f00000e00000000000000047
:104fa800000000000000000000100000387c000035
:104fb800fe7c000038100000000000000000000027
:104fc8000000000000000000183c00003ce7000062
:104fd800e7e70000181800003c000000000000008f
:104fe8000000000000000000183c00007eff0000e8
:104ff800ff7e0000181800003c00000000000000c0
:105008000000000000000000000000000018000080
:105018003c3c0000180000000000000000000000f8
:10502800000000000000000078cc0000cccc00009c
:1050380078000000000000000000000000000000f0
:105048000000000000000000000000003c660000b6
:1050580042420000663c0000000000000000000022
:1050680000ff0000ffff0000ffff0000c3990000e1
:10507800bdbd000099c30000ffff0000ffff000056
:105088000000000000000000f0e00000b098000000
:105098003c660000666600003c000000000000005e
:1050a80000000000000000003c660000666600008a
:1050b8003c1800007e1800001800000000000000e6
:1050c8000000000000000000fccc0000fc0c000008
:1050d8000c0c00000e0f000007000000000000008c
:1050e8000000000000000000fec60000fec6000030
:1050f800c6c60000e6e700006703000000000000e5
:10510800000000000000000018180000db3c000050
:10511800e73c0000db180000180000000000000059
:105128000000000000000000020600000e3e000023
:10513800fe3e00000e060000020000000000000015
:10514800000000000000000080c00000e0f800003f
:10515800fef80000e0c00000800000000000000031
:105168000000000000000000183c00007e1800004d
:10517800181800007e3c0000180000000000000025
:105188000000000000000000cccc0000cccc0000e7
:10519800cccc000000cc0000cc00000000000000d7
:1051a8000000000000000000fedb0000dbdb000068
:1051b800ded80000d8d80000d800000000000000a9
:1051c80000000000007c0000c60c0000386c0000e5
:1051d800c6c600006c38000060c600007c000000f5
:1051e80000000000000000000000000000000000b7
:1051f80000000000fefe0000fe00000000000000ad
:105208000000000000000000183c00007e180000ac
:10521800181800007e3c0000187e00000000000006
:105228000000000000000000183c00007e1800008c
:1052380018180000181800001800000000000000ee
:1052480000000000000000001818000018180000f6
:10525800181800007e3c0000180000000000000044
:1052680000000000000000000000000030600000a6
:10527800fe60000030000000000000000000000098
:10528800000000000000000000000000180c0000f2
:10529800fe0c0000180000000000000000000000e4
:1052a80000000000000000000000000000060000f0
:1052b80006060000fe0000000000000000000000dc
:1052c800000000000000000000000000246600004c
:1052d800ff6600002400000000000000000000003d
:1052e8000000000000000000001000003838000036
:1052f8007c7c0000fefe00000000000000000000b2
:10530800000000000000000000fe0000fe7c00001d
:105318007c38000038100000000000000000000089
:105328000000000000000000000000000000000075
:105338000000000000000000000000000000000065
:105348000000000000000000183c00003c3c000089
:1053580018180000001800001800000000000000e5
:105368000000000000c60000c6c60000440000009f
:105378000000000000000000000000000000000025
:1053880000000000000000006c6c0000fe6c0000d3
:105398006c6c0000fe6c00006c0000000000000057
:1053a80000000000303000007cc6000086060000c7
:1053b8007cc00000c2c600007c3000003000000045
:1053c80000000000000000000000000086c6000089
:1053d8006030000018cc0000c6000000000000008b
:1053e8000000000000000000386c00006c3800006d
:1053f800dc76000066660000dc00000000000000ab
:1054080000000000000c00000c0c0000060000006a
:105418000000000000000000000000000000000084
:105428000000000000000000301800000c0c000014
:105438000c0c00000c1800003000000000000000f8
:10544800000000000000000018300000606000004c
:1054580060600000603000001800000000000000dc
:10546800000000000000000000000000663c000092
:10547800ff3c000066000000000000000000000083
:1054880000000000000000000018000018180000cc
:10549800ff180000181800000000000000000000bd
:1054a80000000000000000000000000000000000f4
:1054b8000000000018180000180c00000000000090
:1054c80000000000000000000000000000000000d4
:1054d8007f00000000000000000000000000000045
:1054e80000000000000000000000000000000000b4
:1054f8000000000000180000180000000000000074
:10550800000000000000000080c0000060300000c3
:10551800180c000006020000000000000000000057
:1055280000000000000000007cc60000e6f6000055
:10553800dece0000c6c600007c00000000000000af
:105548000000000000000000303800003c3000007f
:105558003030000030300000fc0000000000000087
:1055680000000000000000007cc60000c0600000d1
:10557800301800000cc60000fe000000000000000b
:1055880000000000000000007cc60000c0c0000051
:1055980078c00000c0c600007c00000000000000c9
:1055a800000000000000000060700000786c00003f
:1055b80066fe000060600000f000000000000000cf
:1055c8000000000000000000fe06000006060000c3
:1055d8007ec00000c0c600007c0000000000000083
:1055e8000000000000000000380c00000606000063
:1055f8007ec60000c6c600007c0000000000000057
:105608000000000000000000fec60000c0600000ae
:1056180030180000181800001800000000000000f2
:1056280000000000000000007cc60000c6c60000a4
:105638007cc60000c6c600007c0000000000000018
:1056480000000000000000007cc60000c6c6000084
:10565800fcc00000c06000003c000000000000002a
:105668000000000000000000001800001800000002
:1056780000000000181800000000000000000000f2
:1056880000000000000000000018000018000000e2
:1056980000000000181800000c00000000000000c6
:1056a800000000000000000060300000180c00003e
:1056b800060c000018300000600000000000000028
:1056c800000000000000000000000000007e000054
:1056d800000000007e000000000000000000000044
:1056e8000000000000000000060c00001830000058
:1056f80060300000180c00000600000000000000e8
:1057080000000000000000007cc60000c660000029
:1057180030300000003000003000000000000000c1
:1057280000000000000000007cc60000c6f6000073
:10573800f6f60000760600007c000000000000007d
:105748000000000000000000103800006cc60000d7
:10575800c6fe0000c6c60000c6000000000000002b
:1057680000000000000000007ecc0000cccc00004f
:105778007ccc0000cccc00007e00000000000000c3
:10578800000000000000000078cc00008606000041
:105798000606000086cc000078000000000000002b
:1057a80000000000000000003e6c0000cccc0000af
:1057b800cccc0000cc6c00003e00000000000000d3
:1057c8000000000000000000fecc00008c2c00004f
:1057d8003c2c00008ccc0000fe0000000000000003
:1057e8000000000000000000fecc00008c2c00002f
:1057f8003c2c00000c0c00001e0000000000000003
:10580800000000000000000078cc000086060000c0
:1058180006f60000c6cc0000b8000000000000003a
:105828000000000000000000c6c60000c6c6000058
:10583800fec60000c6c60000c6000000000000004a
:1058480000000000000000003c18000018180000cc
:1058580018180000181800003c00000000000000a4
:105868000000000000000000f06000006060000020
:1058780060600000666600003c0000000000000058
:105888000000000000000000cecc00006c6c00009e
:105898003c6c00006ccc0000ce0000000000000052
:1058a80000000000000000001e0c00000c0c0000ae
:1058b8000c0c00008ccc0000fe0000000000000072
:1058c8000000000000000000c6ee0000fed6000048
:1058d800c6c60000c6c60000c600000000000000e2
:1058e8000000000000000000c6ce0000defe000040
:1058f800f6e60000c6c60000c60000000000000072
:105908000000000000000000386c0000c6c600005f
:10591800c6c60000c66c0000380000000000000089
:1059280000000000000000007ecc0000cccc00008d
:105938007c0c00000c0c00001e00000000000000a1
:1059480000000000000000007cc60000c6c6000081
:10595800c6d60000f67c000060e0000000000000f1
:1059680000000000000000007ecc0000cccc00004d
:105978007c6c0000cccc0000ce00000000000000d1
:1059880000000000000000007cc60000c60c0000fb
:1059980038600000c6c600007c000000000000005f
:1059a8000000000000000000ff9900001818000027
:1059b80018180000181800003c0000000000000043
:1059c8000000000000000000c6c60000c6c60000b7
:1059d800c6c60000c6c600007c000000000000002b
:1059e8000000000000000000c6c60000c6c6000097
:1059f800c6c600006c38000010000000000000005f
:105a08000000000000000000c6c60000c6c6000076
:105a1800c6d60000feee0000c60000000000000030
:105a28000000000000000000c6c60000c66c0000b0
:105a3800386c0000c6c60000c60000000000000068
:105a48000000000000000000c6c60000c66c000090
:105a580038380000383800007c00000000000000e2
:105a68000000000000000000fec6000062300000d8
:105a7800180c000086c60000fe00000000000000b0
:105a880000000000000000003c0c00000c0c0000ae
:105a98000c0c00000c0c00003c0000000000000092
:105aa8000000000000000000020600000e1c0000bc
:105ab80038700000e0c00000800000000000000016
:105ac80000000000000000003c3000003030000002
:105ad80030300000303000003c00000000000000c2
:105ae80000000000103800006cc600000000000034
:105af800000000000000000000000000000000009e
:105b0800000000000000000000000000000000008d
:105b1800000000000000000000000000ff0000007e
:105b2800000000001818000030000000000000000d
:105b3800000000000000000000000000000000005d
:105b4800000000000000000000000000003c000011
:105b5800607c000066660000dc00000000000000b9
:105b680000000000000000000e0c00000c3c0000cb
:105b78006ccc0000cccc00007600000000000000d7
:105b8800000000000000000000000000007c000091
:105b9800c606000006c600007c00000000000000e9
:105ba8000000000000000000706000006078000045
:105bb8006c66000066660000dc0000000000000063
:105bc800000000000000000000000000007c000051
:105bd800c6fe000006c600007c00000000000000b1
:105be8000000000000000000386c00004c0c0000b1
:105bf8003e0c00000c0c00001e000000000000001d
:105c080000000000000000000000000000dc0000b0
:105c180066660000667c0000606600003c000000cc
:105c280000000000000000000e0c00000c6c0000da
:105c3800dccc0000cccc0000ce000000000000004e
