:020000040000fa
:080000000402040000000000ee
:020000040000fa
:080400000040da000000fe00dc
:020000040000fa
:1000080000020000000200000002000000020000e0
:1000180000020000000200000002000000020000d0
:10002800000200000002000000020000da1f0000c9
:1000380000020000000200000002000000020000b0
:10004800000200000002000000020000541e000030
:10005800061f00000002000000020000000200006d
:10006800000200000002000000020000ba020000c6
:100078000002000000020000000200000002000070
:10008800000200000002000000020000ca1f000079
:100098000002000000020000f61e00003a1f0000e7
:1000a8000002000000020000000200000002000040
:1000b8000002000000020000000200000002000030
:1000c8000002000000020000000200000002000020
:1000d8000002000000020000000200000002000010
:1000e8000002000000020000000200000002000000
:1000f80000020000000200000002000000020000f0
:1001080000020000000200000002000000020000df
:1001180000020000000200000002000000020000cf
:1001280000020000000200000002000000020000bf
:1001380000020000000200000002000000020000af
:10014800000200000002000000020000000200009f
:10015800000200000002000000020000000200008f
:10016800000200000002000000020000000200007f
:10017800000200000002000000020000000200006f
:10018800000200000002000000020000000200005f
:10019800000200000002000000020000000200004f
:1001a800000200000002000000020000000200003f
:1001b800000200000002000000020000000200002f
:1001c800000200000002000000020000000200001f
:1001d800000200000002000000020000000200000f
:1001e80000020000000200000002000000020000ff
:1001f80000020000000200000002000000020000ef
:1002080000020000000200000002000000020000de
:1002180000020000000200000002000000020000ce
:1002280000020000000200000002000000020000be
:1002380000020000000200000002000000020000ae
:10024800000200000002000000020000000200009e
:10025800000200000002000000020000000200008e
:10026800000200000002000000020000000200007e
:0c02780000020000000200000002000074
:020000040000fa
:100408002a020400000000000000eb00000778004a
:100418000c000900002f78000007eb000000060020
:10042800010821008018eb00806b21000008e10022
:10043800fcff3a00000006000060fe0018b1a900a9
:10044800154ea900114ea900fbff37000ff021003f
:10045800e0ff2100000188000802020000000000ff
:1004680014020200000000000e2eef001e2eef0006
:100478006e0f02000000000041012000401f200014
:100488004a1f0200000000008100e900fbff3a005b
:1004980008020200000000006e0f020000000000c9
:1004a800e8030200000000005c0f020000000000ea
:1004b800600e0200000000001c0f02000000000097
:1004c800007122004a1f020000000000022f2100d4
:1004d800a8280200000000004817020000000000e1
:1004e8000e1b0200000000000000000000000000d9
:1004f80000000000000000000000000000000000f4
:100508000000000000000000000000004c0e020087
:10051800000000005a0e020000000000540e020005
:10052800000000008a0e020000000000ea30ef0020
:1005380008030200000000009416020000000000fa
:100548004220ae004e040400000000003c040200fb
:1005580000000000740404000000000040a7a80088
:100568000000060040a7a800000006000268a900d5
:100578002268a900004006001411e20001003200c0
:10058800e431ef00120eae00e431ef00132eae009e
:10059800e431ef00401f2000e411e30001003100c6
:1005a80000000600b602020000000000c3e8a9002f
:1005b800180ea800192ea8000268a9002268a80031
:1005c8000140fe00000000000000000000000000e4
:1005d800000000000268a9002268a900132eae00de
:1005e800feff3700000000000000000000000000cf
:1005f800c3e8a800b202020000000000e431ef00e6
:10060800000000000000060060002100004888008b
:10061800b0002000104888005087800030488800cb
:100628005087800000712200100888000000060032
:100638006000210000488800b000200010488800b1
:10064800708880000000e800008488000080200096
:100658008010bc000284880000848000f232ec0024
:100668004400de00f212bc00f232ed00324888008d
:1006780000712200100888000000060018b1af00c1
:1006880007003700ea10e20001003a000000060007
:10069800ea30ef0008030200000000000000060036
:1006a8000e31ec00008020000e11bc000e31ed0070
:1006b80002007800f232ec004400de00f212bc00c6
:1006c800f232ed0002007800ea10e30001003a007f
:1006d80000000600508788000803020000000000a0
:1006e80000000600042eaa00042eaa00042eaa0068
:1006f800042eaa00042eaa00042eaa00042eaa0082
:10070800042eaa000060fe00f6ff37000060fe001d
:100718000701ae00042ea9000701af00042ea800af
:10072800faff3700154ea800200420002011880089
:10073800a0002000541f020000000000f9ff37004d
:10074800154eae00000006001ed1ae0000000600e7
:100758002302ae00000006001ed1a900154ea90014
:10076800000006000060fe00154eae0006003700cf
:100778001ed1ae00fbff37002302ae00f9ff3700a1
:100788001ed1a900154ea900f0ff2f004a1f020034
:1007980000000000301220008095880040222000d0
:1007a8009095880050322000a09588006042200073
:1007b800b095880070522000c0958800e21c0200a5
:1007c80000000000e7ff37000e2eef001e2eef009e
:1007d800000006008113210002002000f000200024
:1007e800008009008218780001142100d0e0200060
:1007f80080187800f0002100801878008030ef0021
:1008080000042100d08d880000002000e08d8800c1
:10081800008480004500dd00ba31b400761902007a
:100828000000000001c02200110078007000b20032
:10083800090032008010af000080fd008113210004
:1008480002848000810041000100a10011017800ac
:1008580002004000800878008030ec007000200022
:100868008010e300e6ff39000000060000000600e3
:10087800ba31ef00bc31ef0001a0220002202000b5
:10088800d619020000000000f62502000000000052
:1008980000000600d0270200000000005c2b0200c8
:1008a80000000000d82702000000000018b1a800ce
:1008b800f0ff2f00f08b880000002000008b8800dc
:1008c80000002000108b8800e11721001ab1a90050
:1008d800962a0200000000001f91a80012003700ad
:1008e800000000000000000000000000d027020007
:1008f800000000005c2b020000000000d827020066
:100908000000000018b1a90018d1a900148ea80091
:100918007a270200000000003a04020000000000ec
:100928001f91a80096b0ef000060fe003607020095
:10093800000000004203020000000000a4030200bf
:10094800000000001805020000000000ca040200b0
:1009580000000000b40b020000000000620c02005e
:1009680000000000d80c020000000000760c020015
:1009780000000000fe90af00ec0b02000000000039
:10098800b60f020000000000e7ff37008010e20009
:1009980005003a008210e20004003a008410e200e8
:1009a80006003a0000000600000006001b71aa00bd
:1009b800c830ef0096b0ef00000006001a51a800fa
:1009c8001631ef001bb1a80096b0ef0018b1a800cf
:1009d80000002000a08b8800d8270200000000003b
:1009e800f000200090978800400020007088880060
:1009f80040012000008b880080022000108b8800b6
:100a08001ad1a800f0ff2000f08b880001732000a5
:100a1800962a0200000000001ad1a9000010210047
:100a280030898800000006008030ef008230ef0037
:100a38008430ef008630ef00f750ae00000006006b
:100a48000000eb00120eae000000a0000000e00065
:100a580010003a009e31ec00300020009e11e300a7
:100a68004200ae00000006001a31a800c08c8000c9
:100a78001a51ae00108488001a51a9001a11a90051
:100a88001af1a9009831ef009c31ef00a031ef0076
:100a9800000006009e31ef009c31ec00801f7800ba
:100aa800200020009c11e3004f0078004200ae00b7
:100ab800000006001a31a9009c31ed009811e300ee
:100ac800060032001a11af0000000600c08c880032
:100ad80000848800a031ef0000000600a031ec007f
:100ae800801f780060092000a011e3004f00780003
:100af8004220ae00030037001af1ae0020848800bf
:100b080000000600801f7800a00f2000a011e3005d
:100b18004f0078004220ae00000006001af1ae0037
:100b28003084880000000600813721000001eb00b6
:100b3800000020008018780080187800b00a200093
:100b480080187800d00c2000801878000201e80096
:100b5800c00520000010e100f5ff39000000060084
:100b68000100a7000600370031007800d08d88000a
:100b780031007800f00fb200e08d88000a003700dd
:100b88000100a100310078004800de00d08d880007
:100b9800110078004800dd00ba31b4001100780077
:100ba8004800de00e08d88004200a900bab1d600f6
:100bb800bcb1d6004200a900bab1d600bcb1d6007b
:100bc8000000060000000000000000000000000017
:100bd80001c02200821902000000000003c02200a8
:100be800330078000080e800f01fb20040968800cb
:100bf800000024008095880003c022000084800043
:100c080080097800461c0200000000000000060071
:100c180000f42100a088880018b1a8000000200076
:100c2800a08b8800d827020000000000f0002000f8
:100c38009097880040002000708888001931a8002b
:100c4800f07f2000f08b880000002000008b8800d7
:100c580000002000108b8800411921001ab1a9005a
:100c6800962a020000000000908880000000e8003a
:100c7800d22a020000000000000220001c2b020003
:100c88000000000010848000162b02000000000005
:100c980000848000162b02000000000000000600ff
:100ca800d0958000f00fb200708888001931a80034
:100cb800000006000e31ec00500020000e11e30089
:100cc800010039000e31ef001931a80000000600bc
:100cd8000e31ed00500020000e11e3000200390033
:100ce80040002000708888001931a8000000060024
:100cf80018b1a80000002000a08b8800d8270200a7
:100d080000000000f0ff2f00f08b8800000020009a
:100d1800008b880000002000108b8800e11921005a
:100d28001ab1a900962a02000000000090978000de
:100d38000000e800d22a02000000000000022000a3
:100d48001c2b02000000000010848000162b0200fb
:100d58000000000000848000162b02000000000044
:100d6800e0002000008b880040012000108b8800e4
:100d7800e0012000608b880040022000708b880012
:100d880000802f00a08b88001028020000000000bf
:100d9800c0022000008b880040012000108b8800d2
:100da80080022000608b880040022000708b880041
:100db800f0ff2f00a08b8800102802000000000020
:100dc80040052000008b880040012000108b88001f
:100dd800e0012000608b880040022000708b8800b2
:100de800007e2000a08b8800102802000000000070
:100df80000002000a08b880000000600424100008f
:100e0800543a000000000000435000005500000064
:100e18004e4500005400000034320000320000004b
:100e28002d2d00002d0000004f4b00002000000079
:100e380045520000520000005253000054000000c8
:100e4800534c00004f540000205300005441000050
:100e580055530000000000005245000053450000b3
:100e6800540000001bb1af00000006001b71af006a
:100e78000a0037008030ef001b31af008030a80037
:100e8800008480009610e30020003a0070878000fc
:100e98009810e3001d003a00000006008030ef00c3
:100ea8008010a800008480009610e3002a003a0011
:100eb80029003a00408580009810e30026003a0097
:100ec800508580009a10e30023003a006085800076
:100ed8009c10e30020003a00708580009e10e3001b
:100ee8001d003a0080858000a010e3001a003a0037
:100ef80090858000a210e30017003a00a0858000ca
:100f0800a410e30014003a000000060018b1a8007d
:100f180000002000a08b8800d827020000000000f5
:100f2800f00020009097880040002000708888001a
:100f380088080200000000002a08020000000000e3
:100f48009630ef001b31af009630a800ee10f80085
:100f58009810f9000000060018b1a8000000200051
:100f6800a08b8800d827020000000000f0002000b5
:100f78009097880040002000708888008001200039
:100f8800008b880000002000108b8800f0ff2000f4
:100f9800f08b880041722000962a020000000000b1
:100fa8008030ef008230ef00810a21000084800049
:100fb80081004000810040001100780060878800af
:100fc8007000b2000c0032006031ef000001200018
:100fd8008210bc000201b000128b88008010f8005b
:100fe8008210f800d6080200000000008210f90004
:100ff8008010f9008230ec008030ec007000200096
:101008008010e300e8ff390010002000b084880059
:10101800a810f8009810f900aa10f8009a10f90022
:10102800ac10f8009c10f900ae10f8009e10f90002
:10103800b010f800a010f900b210f800a210f900e2
:10104800b410f800a410f900000006001ad1a80096
:1010580000002000a08b8800f0ff2f00f08b880094
:1010680040002000008b880000002000108b8800c2
:10107800217020001ab1a900962a02000000000081
:101088001b31af000b003700d00220001c2b0200e0
:1010980000000000d00220001c2b0200000000000d
:1010a800d00220001c2b0200000000001ad1a90069
:1010b80000000600007e2000f08b880080012000e0
:1010c800ee10e30002003100f0012000f08b8800f0
:1010d80070878000d22a020000000000108480007f
:1010e800162b020000000000e00220001c2b02006a
:1010f8000000000000848000162b020000000000a1
:101108001ad1a900000006001b51a8001b31ae002f
:1011180012003700f0e02700f08b88000000200064
:10112800008b8800a0002000108b8800600420003d
:101138001c2b02000000000000042000008b880027
:10114800a0002000108b8800600420001c2b0200e7
:10115800000000001b51a90000000600f0ff2f004e
:10116800f08b880000002000008b8800a000200081
:10117800108b8800000320001c2b020000000000d8
:1011880000042000008b8800a0002000108b88003d
:10119800000320001c2b0200000000001b51a900c6
:1011a800000006001b51a9001b11a9001ad1a900b3
:1011b80000002000a08b8800f0ff2f00f08b880033
:1011c800608780000080fd007000b2000000e80029
:1011d800162b020000000000a00320001c2b0200b8
:1011e800000000006087800000c0fd003000b200f1
:1011f8000006010003003700060037000900370029
:101208000c00370041712000962a020000000000ff
:101218000c00370081702000962a020000000000b0
:1012280008003700c1702000962a02000000000064
:101238000400370001712000962a02000000000017
:1012480000003700000220001c2b020000000000f4
:10125800608780003000b2000006010003003700fc
:10126800080037000d00370012003700f0ff2f008c
:10127800f08b880041712000962a020000000000cf
:1012880012003700007e2000f08b8800817120005a
:10129800962a0200000000000c003700f001200030
:1012a800f08b8800c1712000962a0200000000001f
:1012b80006003700f07f2000f08b880001722000c4
:1012c800962a020000000000000037000000060017
:1012d80018b1a80000002000a08b8800d8270200c1
:1012e80000000000f00020009097880040002000d7
:1012f800708888001931a800f0ff2f00f08b880053
:1013080000012000008b880000012000108b88005d
:10131800e11821001ab1a900962a02000000000075
:10132800c0052000f012e300010039000e0037006c
:10133800809780000000e800d22a02000000000028
:10134800000220001c2b0200000000001084800016
:10135800162b02000000000000848000162b0200fb
:101368000000000000000600d00220001c2b020034
:1013780000000000d00220001c2b0200000000002a
:10138800d00220001c2b0200000000000000060014
:10139800f232ec0000012000f212e30001003900f3
:1013a800f232ef00212f2100f62802000000000091
:1013b800f0ff2f00f08b880000002000a08b880031
:1013c80000002000008b880000002000108b88009f
:1013d800e11921001ab1a900962a020000000000b4
:1013e800909780000000e800d22a02000000000068
:1013f800000220001c2b0200000000001084800066
:10140800162b02000000000000848000162b02004a
:10141800000000001931a80000000600f232ed00bb
:1014280000012000f212e30002003900f000200061
:1014380090978800212f2100f62802000000000064
:10144800f0ff2f00f08b880000002000a08b8800a0
:1014580000002000008b880000002000108b88000e
:10146800e11921001ab1a900962a02000000000023
:10147800909780000000e800d22a020000000000d7
:10148800000220001c2b02000000000010848000d5
:10149800162b02000000000000848000162b0200ba
:1014a800000000001931a800000006000000060036
:1014b8000000060000000600008480000000e9002b
:1014c800509688005e0a0200000000000000060036
:1014d80000000600000006003222af003222a900f8
:1014e8002222af002222a900000006008631ef0068
:1014f800408c80008a11b7008c11b7008e11b7009c
:101508009011b7009211b7009411b7009611b70067
:10151800f2ff2000020060000000e00001003a0035
:10152800000006000001eb00811821008100410045
:1015380081004100110078000000e00004003a003a
:101548000201e8006810e100f7ff3900000006001a
:10155800800078000002eb00100020000400dd008d
:101568000100600005003a000402e800c000200005
:101578000020e100f8ff390000000600c00020004c
:101588000201b800040041000000e800d80a020087
:1015980000000000308c88000000000000000000ff
:1015a8000000000000000600000601000000050021
:1015b800d0010500d0020500d0030500d0040500c5
:1015c800e0010500e0020500e0030500e004050075
:1015d800f0010500f0020500f0030500f004050025
:1015e80000020500000305000004050000050500d1
:1015f8001002050010030500100405001005050081
:101608002002050020030500200405002005050030
:1016180030020500300305003004050030050500e0
:101628004002050040030500400405004005050090
:101638005002050050030500500405005005050040
:1016480060020500600305006004050060050500f0
:1016580070020500700305007004050070050500a0
:101668008002050080030500800405008005050050
:101678009002050090030500900405009005050000
:10168800a0020500a0030500a0040500a0050500b0
:10169800b0020500b0030500b00405000000050015
:1016a800b0050500c0020500c0030500c004050020
:1016b800c0050500100005002000050030000500e9
:1016c800400005005000050060000500000005000e
:1016d800700005008000050090000500a0000500ce
:1016e800b0000500c0000500d0000500e0000500be
:1016f800f0000500000105001001050000000500cc
:1017080020010500300105004001050050010500d9
:1017180060010500700105008001050090010500c9
:10172800a0010500b0010500c0010500000000008f
:101738000000000000000600f630ef0030088000ce
:10174800f490b6004220af0000000600b087880081
:10175800f830b700f4b0b6000060fe0000000600e4
:10176800fe30ef00f630ef0030088000f490b6004d
:101778004220af0000000600b0878800f830b700ac
:10178800f4b0b6000060fe00f7f0af00fa30ec00ed
:10179800fa30af001b91a800fa30ae001b91a900e7
:1017a800f710ae0000000600fc30ec00000120003d
:1017b800fc10e30001003900fc30ef00e0878000f6
:1017c800041e020000000000f087880000000600e8
:1017d800e631ec0080002000e611e3000100310052
:1017e80000000600e631ef001811a900f0ff2f00f5
:1017f800c08a880000002100809588000010200021
:101808009095880030898000a09588002631ef00e7
:10181800b632ef00b832ef0000042000409688008e
:10182800a31e2100461c020000000000200c02003c
:1018380000000000000006008030ef0000848000f7
:10184800320c0200000000008030ec009000200004
:101858008010e300f9ff390000000600000178005d
:10186800a12221004100dd00810040009108e8002c
:10187800110078006400e10001003100000006005a
:101888008008eb00a11e2100020078004300dd0063
:10189800810040008018eb008018eb008018eb00f6
:1018a8008018eb0000000600a12221004100dd00a5
:1018b800810040008008eb00000006000231ef00c4
:1018c800500880000091b6004220af0000000600da
:1018d800108888000431b70000b1b6000060fe002f
:1018e800000006000311ae000000060040888000da
:1018f8000006010001003700010037000000060063
:101908000611e200020032000631ed000000060078
:101918000831ef00781a02000000000000002000e3
:101928002011ae001000200090958800f81b0200de
:101938000000000000000600e431ec0001003a005d
:10194800e431ed000a11e200040032000a31ed0032
:101958000a11e20001003a0018b1a8001411e200cf
:1019680010003200120eaf00090037001211f80003
:10197800f012f900012f2100f628020000000000f3
:101988001431ef006c090200000000000500370068
:101998001431ed0003003a006c0902000000000059
:1019a8000000370000000600f710af00a00c02008e
:1019b80000000000f790ae0000000600080d0200cd
:1019c800000000002e0d0200000000001631ec009f
:1019d800200320001611e300010039001bb1a90003
:1019e800000006004089800000060100040037005e
:1019f800040037004b00370074003700260037001a
:101a080000000600000006008030ef00810b210076
:101a18000084800081004000810040009108e800b7
:101a2800400620001100e10005003100810a210074
:101a38000084800081004000810040008008eb00a5
:101a48008030ec00800020008010e300efff3900b8
:101a5800000006008030ef001b31a900810a210038
:101a6800008480008100400081004000110078005f
:101a780000c0fd007000b2006100e10001003a0002
:101a88001b31a8008030ec00800020008010e300ab
:101a9800f2ff3900000006002c11e20002003200bb
:101aa8002c31ed000000060040002000608988000d
:101ab800781a0200000000002011ae000d00370067
:101ac800f0ff2f00f08b880000072000008b8800b3
:101ad800108c800000c0fd00162b020000000000e2
:101ae800108c8000162b0200000000008231ec00f0
:101af80000000600007e2000f08b88000007200010
:101b0800008b8800f00420001c2b0200000000005d
:101b1800b00420001c2b0200000000002831ef0058
:101b2800000006005089800000060100020037000e
:101b380012003700210037001e11af000000060018
:101b4800b232ef00b4b2ef00781a020000000000d1
:101b58002011ae0003003700161c02000000000030
:101b680000000600101c020000000000ac1b020070
:101b7800000000002a31ec0000000600b232ec0040
:101b8800d0ac2000a0958800781a02000000000060
:101b98002011ae0003003700161c020000000000f0
:101ba800000006000000000000000000221c0200e7
:101bb800000000002a31ec000000060010002000a0
:101bc800408988002a31ef00000006001e11af008e
:101bd800000006005089800000060100030037005d
:101be8000b0037001e00370023003700bc31ef0020
:101bf800bc11f800b212f90000012000a09588007d
:101c0800101c0200000000002a31ec000000060051
:101c1800fc180200000000001911ae000200370095
:101c28002a31ec0000000600bc11f800b212f900dd
:101c380000012000a0958800161c0200000000008a
:101c4800bc31ec0000012000bc11e30001003100b0
:101c5800000006002a31ec002a31ec0000000600e2
:101c68001c1c0200000000001000200040898800b1
:101c78002a31ef0000000600221c020000000000cc
:101c880010002000408988002a31ef00000006007b
:101c98000021ef000001280020088800000006004d
:101ca80000032a00900888000000060000032a00ac
:101cb80080088800000006002174200062042000cb
:101cc80073052000824878008348780042c7a9003d
:101cd80000f02f00c426b60090022000c426b700ea
:101ce80000f02f008626b600100020008626b700d8
:101cf80021742000620420007305200082487800c7
:101d08008348780042c7a80000000600b0062000fb
:101d1800e0082000300220004011880080002800e0
:101d28000011880000402000101188004648a900d2
:101d38004628a8004608a8000188a9002188a8000c
:101d48003011800030118000301180003011800087
:101d58000168a90045c8a90045a8a8004588a800a9
:101d68000168a9002168a80000000600b00620004c
:101d7800e008200010042000f0022000c0118800b4
:101d8800e0002800801188000040200090118800a1
:101d98004fc8a9004fa8a8004f88a80003e8a900c9
:101da80023e8a800b0118000b0118000b0118000b5
:101db800b011800003c8a9004f48a9004f28a80007
:101dc8004f08a80003c8a90023c8a80000000600ff
:101dd80010002000040037007000200002003700c7
:101de80070002000000037003174200082072000b6
:101df800a30920000300fc0082487800834878008b
:101e080043e7b70021742000620420007305200016
:101e18000300fc0082487800834878004207a80045
:101e28000060fe004207af00fdff3700000006001b
:101e38004427ef000003200050042000303a8800b7
:101e4800000020004427b700000020004427b70006
:101e5800000020004427b700000000000000000038
:101e680000000000007122004a1f0200000000006c
:101e7800000000000000000000000000100020002a
:101e8800f80e02000000000000002000403a880020
:101e9800000006000060fe00b00a20002011880043
:101ea800007122004a1f020000000000f9ff3700fd
:101eb8004000200070888800f0002000909788007b
:101ec800f001200060968800f000200070968800dd
:101ed80000000600100ea8001a0ea800142ea90073
:101ee800102ea900046ea900006ea900148ea90086
:101ef800108ea900048ea900008ea90014aea900b6
:101f080010aea90014cea90010cea90014eea900a5
:101f180010eea900150ea800110ea900112ea80098
:101f2800154ea900114ea900156ea900116ea90041
:101f3800158ea900118ea90015aea90011aea90031
:101f480015cea90011cea90015eea90011eea90021
:101f5800040ea800000ea900042ea900002ea90056
:101f6800000006001f11af00030037001f51af002b
:101f780006003700000006001f11a900e09380004a
:101f88000094880001002200050037001f51a900b5
:101f9800f093800000948800012822000000370098
:101fa8004195880031007800029028000200e10085
:101fb80004003200f2ff2f000200e10001003200ad
:101fc8000000060031007800408f88008000200063
:101fd800e811e30001003900000006003100780034
:101fe80050958800310078006095880031007800ad
:101ff8007095880031007800d0958800310078000d
:10200800e095880031007800f0958800310078006c
:102018000096880000002100ae12e30001003200a3
:1020280000000600810b2100408f800081004000e5
:10203800810040008008eb00810a2100408f800069
:102048008100400081004000d0958000f000b2007f
:10205800008488008010e20001003a008030ec0023
:10206800d09580000080fd00f000b20000c0fd00a7
:102078008030b700408f80000080fd008010b700de
:1020880080087800d09580000080fd00f000b20044
:102098006100e1000100320000000600e0958000c8
:1020a8007087880000000600709580000080fd00a1
:1020b800f00fb2006000e10002003a00981004003e
:1020c800000000007000e10002003a008a120400db
:1020d80000000000e000e10002003a002c110400ba
:1020e80000000000f000e10002003a008010040047
:1020f8000000000000000600709580003000b2006b
:102108000006010007003700060037000500370009
:10211800040037000000000000000000000000007c
:10212800000006000000060070958000f000b20074
:1021380000060100110037001100370011003700b8
:102148001100370011003700110037001100370067
:102158000800370007003700060037000500370081
:1021680004003700030037000d0037000200370075
:10217800000037000000060000000600000006000e
:10218800000006000000060000000600000006002f
:1021980000000600100020004089880000000600aa
:1021a800ac32ed00ac32ed008001eb00310278007a
:1021b80003006a00f00fb2000c003a008301e80047
:1021c8000480fd0003006a00f00fb20007003a0027
:1021d8008301e800609580000018e100f3ff3900f2
:1021e800101c020000000000000006003a1c02005b
:1021f80000000000000006000100a70004003700ee
:1022080011007800f00fb2008100e800000006001d
:102218000100a100110078000080fd00f00fb2005d
:102228008180e80000000600821f7800001102008b
:10223800000000000001780000110200000000000a
:102248000080fd00020070004f01780000000600c9
:1022580070958000f00fb2007400e10001003900b1
:102268000000060000060100170037003d00370097
:102278004100370056003700590037006c0037001e
:10228800800037008300370085003700870037005b
:10229800890037008b0037008d0037008f0037002a
:1022a8009100370095003700000006000000060086
:1022b80000000600000006000000060000000600fe
:1022c800000006000000060018b1a800ba12f800c5
:1022d8007411f900d827020000000000b031ef00a7
:1022e800b231ef00000006005445000053540000ce
:1022f80000000000464c0000415300004820000048
:1023080045520000524f00005220000021210000d9
:1023180021000000494400003a20000000000000ad
:10232800534100005645000020490000443a00008f
:1023380020000000544600005420000044490000da
:102348004d20000053450000543a000020000000d2
:102358004e4f0000204900004420000021210000c9
:102368002100000018b1a80000002000a08b880000
:10237800d82702000000000018b1a800419580008d
:102388002101b0001811020000000000d2bc2a0090
:102398000200e10001003200000006000011020006
:1023a80000000000008b88000011020000000000ff
:1023b800108b88001811020000000000f08b8800c4
:1023c8001ab1a800962a020000000000edff3700ad
:1023d80018b1a80010270200000000000000060045
:1023e800c0052000f012e3000100390000000600db
:1023f800ba12f800b211f900bc12f800b011f900d5
:102408006a260200000000001911af000200370020
:1024180018b1a8000000060018b1a90000002000ab
:10242800a08b8800d82702000000000000000600ea
:10243800c0052000f012e30001003900000006008a
:10244800d0958000f00fb200708888004195800018
:102458002101b000809780008100400078150200bb
:1024680000000000801f78007000b200908d880086
:102478004f00780000c0fd007000b200808d880019
:10248800dfff3700ba12f8000a11f90018b1a900e5
:10249800000006005e0602000000000000000600c2
:1024a8006c0602000000000000000600540602004e
:1024b8000000000000000600cc0902000000000037
:1024c80000000600120a02000000000000000600da
:1024d8006c09020000000000000006007c060200f3
:1024e8000000000000000600d09580009088880059
:1024f8000c06020000000000000006002a0204008a
:10250800000000000000fe0000000600709580003a
:10251800f000b20000060100270037002d00370048
:10252800160137002c0137000b0037001400370064
:102538002f00370082003700690037005f0037003e
:10254800000006000000060000000600000006006b
:102558000000060000000600ac1b0200000000009e
:1025680040002000408988002a31ef002c31ef001c
:102578008231ef003c040200000000000000060069
:102588000a21ef000a21ef00500880000088880027
:102598001000200040888800d0958000f012bc0010
:1025a800d09580000000410030888800ae12f80005
:1025b800a612f900000006001811a900101c02005c
:1025c8000000000020002000408988002a31ef0028
:1025d800000006001811a900101c020000000000ed
:1025e80030002000408988002a31ef0000000600f2
:1025f80041958000a100b00031007800d08d88009e
:1026080031007800e08d880031007800f09588006e
:102618003100780000968800ba11f8008010f9009f
:10262800bc11f8008210f900218488008630ef0080
:102638008010f800ba11f9008210f800bc11f900f6
:102648002184800086180200000000008010f80035
:10265800ba11f9008210f800bc11f9002184800039
:102668001e180200000000001911ae000b00370010
:102678008630ec00400020008610e300ecff3900b3
:10268800ae12f800a612f90000002000909588000c
:10269800f81b02000000000000000600ae12f8005f
:1026a800a612f90010002000909588001811a900c2
:1026b800f81b02000000000000000600ae12f8003f
:1026c800a612f900000e200000062000409688009f
:1026d80083652100401c0200000000000000060085
:1026e800007e2000f08b880000072000008b880007
:1026f800f00420001c2b020000000000b0042000a1
:102708001c2b020000000000ba31ef00bc31ef00c2
:1027180001a02200781402000000000000712200cd
:102728004a1f02000000000001b0220078140200d5
:10273800000000003c040200000000000000060049
:1027480041958000a100b00031007800801f78001a
:102758007000b200908d88004f0078000080fd0066
:102768007000b200808d880031007800a08d88004c
:1027780031007800b08d880031007800a08d80008d
:10278800b011b700b211b7000000e00008003a002d
:1027980000002100f08d8800c031ef00b831ef0053
:1027a80001a022000000eb00ff000900801878005b
:1027b800b411e20023003a00b011e2000800320030
:1027c800000000000000000000000000b811e20056
:1027d80003003200000000000000000000000000bc
:1027e80000102000b811bc0002007800be31b4000f
:1027f80003007800c0b1b400b831ef000004200035
:10280800b011bc000202780080002000b211bc00a8
:102818000200780004024100f41fb20001a0220067
:1028280081004200b0da2c008018780000002000f7
:1028380080187800f08d800080187800008e800065
:102848008018780000102000b411bc000200780045
:10285800be11b400d08d880003007800c091b40088
:10286800e08d8800b831ec00419580002101b0006e
:1028780078140200000000001911ae0008003700ab
:10288800ae12f800a612f90000002000000078003f
:1028980090958800f81b0200000000000000060068
:1028a800ae12f800a612f90010002000000078000f
:1028b800909588001811a900f81b0200000000007c
:1028c80000072000008b8800a08d800000c0fd005c
:1028d800162b020000000000a08d8000162b0200bd
:1028e80000000000000006008010f8008210f800c8
:1028f8008410f8008610f8001911a900ba11f80020
:102908008010f900bc11f8008210f90021848800b9
:102918008630ef008010f800ba11f9008210f80034
:10292800bc11f90021848000861802000000000014
:102938008010f800ba11f9008210f800bc11f900f3
:10294800218480001e180200000000001911ae004a
:10295800050037008630ec00300020008610e300c8
:10296800ecff39001911a8008610f9008410f9004d
:102978008210f9008010f900000006001811a90063
:10298800101c02000000000041958000a100b0006a
:1029980031007800d095880031007800e0958800f3
:1029a800d0958000bc12bc00d28d8800e38d8800d1
:1029b8004200a900bcb1d700bab1d70086180200fe
:1029c80000000000000000000000000000000000ff
:1029d80000000000000006001811a90041958000c1
:1029e800a100b00031007800d0958800310078004f
:1029f800e0958800d0958000bc12bc00d28d88007c
:102a0800e38d88004200a900bcb1d700bab1d70055
:102a1800ca170200000000001911ae0003003700b9
:102a28001c1c02000000000000000600101c020030
:102a380000000000000006007f00e10001003600f1
:102a480000000600000601001f0037001f003700c5
:102a58001e0037001d0037001c0037001b00370020
:102a68001a0037001900370019003700180037001e
:102a7800170037001600370015003700140037001c
:102a88001300370012003700120037001200370019
:102a9800120037001200370012003700110037000b
:102aa800100037000f0037000e0037000d00370008
:102ab8000c0037000b0037000a0037000900370008
:102ac8000800370007003700000006000000060075
:102ad80000000600000006000000060000000600d6
:102ae80000000600000006000100a70004003700ef
:102af80011007800f00fb2008100e8000000060025
:102b08000100a100110078000080fd00f00fb20064
:102b18008180e8000000060078150200000000002f
:102b2800801f780078150200000000000080fd007a
:102b38004f017800020070000000060005002f0019
:102b4800156ea80000027800156ea9000080fd002f
:102b5800148eb6000080620014aeb60000000000bb
:102b680000000000156ea800000000000000000032
:102b7800156ea9000400780000c0fd000080fd006b
:102b8800148eb6000080620014aeb600000000008b
:102b980000000000156ea800000006001891af00a4
:102ba800e6ff3700156ea800008988000000eb00da
:102bb800156ea90020f1ae00158ea90020f1af0016
:102bc800158ea80000000000156ea80020b1d600e0
:102bd8000000e8006800e100f5ff39000000060089
:102be80000002f00102eb70000000000156ea9008d
:102bf800000000000000000000000000907080004d
:102c08000080fd00156ea800000fb20000017800da
:102c1800156ea90000000000000000000000000080
:102c280000000000907080000080fd0000c0fd00e2
:102c3800f000b2000200700000898800156ea8003c
:102c4800000006001891af00e5ff37000060fe00a5
:102c5800156ea8002031ef00156ea90020b1d6002e
:102c68002011a90013aeaf002011a800156ea8000e
:102c7800156ea90020b1d6002011a90013aeaf002f
:102c88002011a800156ea800156ea90020b1d60065
:102c98002011a90013aeaf002011a800156ea800de
:102ca800156ea90020b1d6002011a90013aeaf00ff
:102cb8002011a800156ea800156ea90020b1d60035
:102cc8002011a90013aeaf002011a800156ea800ae
:102cd800156ea90020b1d6002011a90013aeaf00cf
:102ce8002011a800156ea800156ea90020b1d60005
:102cf8002011a90013aeaf002011a800156ea8007e
:102d0800156ea90020b1d6002011a90013aeaf009e
:102d18002011a800156ea800008980000000060098
:102d28009a1902000000000000092000d2150200d4
:102d38000000000000848800261602000000000041
:102d480010848800261602000000000020848800f5
:102d580026160200000000003084880026160200b3
:102d680000000000408488001289800023898000c8
:102d7800261602000000000050848800b8190200de
:102d880000000000f00e20008810e3004220af0091
:102d980000000600200c20008810e3004220af004d
:102da80000000600000006001871a900481702007c
:102db80000000000e8180200000000008030ef006a
:102dc8008010a9001911af008010a80000000000b1
:102dd80000000000000000001911af0058170200a1
:102de80000000000000000000000000000000000db
:102df800000000008417020000000000000000002e
:102e080000000000000000000000000000000000ba
:102e1800000000000000000000000000e2ff370092
:102e28000e1b0200000000001891a9001871a900eb
:102e3800641a020000000000a21a0200000000004c
:102e4800641a020000000000a21a0200000000003c
:102e5800fa1a020000000000000006000060fe00f0
:102e68001417020000000000941602000000000081
:102e780000000000000000000e1b0200000000001f
:102e8800f6ff37000000060094160200000000005c
:102e98004220ae00fcff37000000000000000000e8
:102ea80000000000000006006e1b02000000000089
:102eb8008c1a020000000000781a020000000000ce
:102ec8000000a700fcff37006e1b02000000000096
:102ed800ba1b0200000000000060fe00781a020021
:102ee800000000000000a700fbff37000000000002
:102ef80000000000000000000000000000000600c4
:102f080001602200021020008001eb008218780086
:102f180010102000020140008301e8000008200092
:102f28000018e100f9ff39001871a900ba31ef0063
:102f3800bc31ef0001602200ba11f800bc11f800a2
:102f48008618020000000000bc11f900ba11f9004f
:102f5800016022001e180200000000001911ae00d6
:102f6800000000001911af00000000000000000080
:102f78000000000000102000ba31b400803e20009c
:102f8800541f020000000000eaff37001911a800d2
:102f9800641a0200000000009a19020000000000f4
:102fa800b0002000d215020000000000e08d800073
:102fb800d215020000000000d08d80000080fd00c6
:102fc800d215020000000000d08d8000d21502004a
:102fd800000000002616020000000000261602006d
:102fe80000000000310078002011e3000b003a00d7
:102ff800ba31ec004220af00bc31ec00bad1bf00be
:10300800f6ff3a00b8190200000000001911a900e3
:1030180000000000000000000000060000000000a2
:103028000000000000000000b819020000000000c5
:103038000000060002c022001911a800641a02004c
:10304800000000009a190200000000003000200073
:10305800d215020000000000e08d8000d2150200a9
:1030680000000000d08d80000080fd00d215020015
:1030780000000000d08d8000d21502000000000082
:103088002616020000000000ba11af000400370045
:1030980000898000000978001100780006003700d8
:1030a800008980000080fd00120940000281e800cc
:1030b800310078000080fd002051e3000b003a0049
:1030c800ba31ec004220af00bc31ec00bad1bf00ed
:1030d800ebff3a00b8190200000000001911a9001e
:1030e80000000000000000000000060000000000d2
:1030f8000000000000000000b819020000000000f5
:1031080000000600221b0200000000006e1b0200e7
:10311800000000009a1902000000000020002000b2
:10312800d215020000000000e08d8000d2150200d8
:1031380000000000d08d80000080fd00d215020044
:1031480000000000d08d8000d215020000000000b1
:103158001891af0011003700ba11af000200370014
:103168001100780003003700310078000080fd006e
:1031780000003700d215020000000000ba31ec0050
:103188004220af00bc31ec00bad1bf00f2ff3a00d8
:10319800b8190200000000000000060031007800a5
:1031a800d215020000000000ba31ec004220af0046
:1031b800bc31ec00bad1bf00f8ff3a00b8190200e0
:1031c8000000000000000600bc31ef00fc180200ff
:1031d800000000001911af0000000600bc31ec002f
:1031e80000012000bc11e300f8ff390000000600d0
:1031f8001911a800641a0200000000009a190200c0
:1032080000000000b0002000d215020000000000fd
:10321800e08d8000d21502000000000000002000b0
:10322800d21502000000000000002000d2150200a4
:10323800000000002616020000000000ba31ef006e
:103248001891af000f00370026160200000000009a
:10325800f00f20002051e30019003a00ba31ec00c9
:10326800ba11e200f8ff3a001911a900b8190200d2
:103278000000000000000000000000000000000046
:10328800000006002616020000000000f0ff2f00d4
:103298002011e3000a003a00ba31ec00ba11e2004a
:1032a800f8ff3a001911a900b8190200000000003f
:1032b8000000000000000000000000000000060000
:1032c800b819020000000000000000000000000023
:1032d800000000000000060001c02200820020005b
:1032e8003000370001c02200020120002d00370005
:1032f80001c02200020220002a00370001c022007b
:10330800021020002700370001c022000220200000
:1033180024003700411c2100220020002100370032
:10332800411c2100420020001e0037001891af0008
:103338000700370011aea80015cea80011cea900cd
:1033480015eea80011eea900040ea9000000060061
:10335800801f7800f0ff2000102eb600040ea90090
:103368004f007800000006001891af0006003700f3
:10337800040ea800118ea90011aea90011cea90053
:1033880011eea90000000600040ea800801f7800b6
:10339800f0ff2000102eb600040ea9004f007800a0
:1033a800000006008e10f80072848800641a02007b
:1033b800000000009a19020000000000b000200080
:1033c800d215020000000000e08d8000d215020036
:1033d80000000000d08d80000080fd00d2150200a2
:1033e80000000000d08d8000d2150200000000000f
:1033f8002616020000000000261602000000000049
:10340800ba11af00020037008008780003003700c7
:103418000080fd00910840008180e800ba31ec008e
:103428004220af00bc31ec008e30ed00f2ff3a00d4
:10343800b8190200000000008e10f9000000060014
:1034480070848000ba31b40000002000bcb1b40020
:103458004200a900bab1d600bcb1d60026160200b7
:1034680000000000801878008e30ed00fbff3a0065
:10347800b8190200000000008e10f90000000600d4
:103488001891af0003003700781a0200000000000e
:1034980000000600781a0200000000002211af00a8
:1034a800040037002211af00020037002031ef007e
:1034b80000000600100020000089880000000600b7
:1034c8000060fe00441a0200000000002011af0056
:1034d800fbff3700441a0200000000002011af0073
:1034e800f7ff3700000006009a19020000000000ec
:1034f80050002000d215020000000000261602002d
:1035080000000000b81902000000000000000600da
:103518009a1902000000000010002000d2150200d5
:103528000000000000002000d2150200000000008a
:10353800b819020000000000000006009a190200f5
:103548000000000050032000d21502000000000017
:103558002616020000000000b81902000000000052
:103568000010a000801f78009a19020000000000d7
:1035780010032000d2150200000000004f00780060
:10358800d215020000000000b81902000000000077
:10359800000006009a1902000000000050032000f5
:1035a800d2150200000000002616020000000000ec
:1035b800b8190200000000000010a100801f780068
:1035c8009a1902000000000010032000d215020022
:1035d800000000004f007800d21502000000000033
:1035e800b819020000000000000006001871a900c8
:1035f8009a1902000000000080032000d215020082
:1036080000000000b8190200000000001891a8008e
:10361800000006001891a8009a1902000000000096
:10362800f00f2000d215020000000000b8190200b7
:10363800000000001891a90000000600781a020096
:10364800000000001891af000b0037002011af00f8
:10365800faff370000898000c001b2004220af00a5
:10366800000006006e1b0200000000008c1a020019
:1036780000000000f1ff37002211af00efff370014
:103688002411af00edff370010898000c001b2009f
:103698004220af00050037006e1b0200000000004a
:1036a8008c1a020000000000e4ff37002089800027
:1036b800c001b2004220af00050037006e1b0200b7
:1036c800000000008c1a020000000000dbff370039
:1036d800000006009a1902000000000060002000a7
:1036e800d215020000000000b81902000000000016
:1036f800000006009a1902000000000040002000a7
:10370800d215020000000000b819020000000000f5
:10371800000006009a1902000000000010002000b6
:10372800d21502000000000001007800d215020046
:1037380000000000010078000080fd00d2150200a2
:1037480000000000b8190200000000000000060098
:10375800221b0200000000006e1b02000000000097
:10376800ba1b020000000000000006009a190200bf
:1037780000000000700c2000d215020000000000bc
:10378800b81902000000000000000600801f780041
:103798009a19020000000000800d2000d2150200d6
:1037a800000000004f007800d21502000000000061
:1037b80000002000d21502000000000000002000d8
:1037c800d215020000000000b81902000000000035
:1037d800000006002e1c020000000000ac1b0200c6
:1037e80000000000000006003095800000f0a000f6
:1037f800809588007100370070958000aff2a800ae
:1038080080958800b232ef00b432ef00b632ef0094
:10381800b832ef006900370000002000809588006a
:10382800660037001000200080958800630037008c
:1038380020002000809588006000370030002000bc
:10384800809588005d003700400020008095880042
:103858005a00370050002000809588005700370034
:103868006000200080958800540037007000200018
:1038780080958800510037003095800000f0a00046
:1038880080958800661d0200000000000090280056
:10389800801d020000000000009028000080fd004c
:1038a800801d020000000000c08a8000801d020008
:1038b80000000000c08a80000080fd00801d02001a
:1038c8000000000000002000801d02000000000031
:1038d800b00a2000801d0200000000004096800011
:1038e800a000b000801d020000000000409680008b
:1038f800a000b0000080fd00801d02000000000054
:1039080080958000801d02000000000080958000e6
:103918000080fd00801d02000000000090958000de
:10392800801d020000000000909580000080fd00ce
:10393800801d020000000000a0958000801d02008c
:1039480000000000a09580000080fd00801d02009e
:1039580000000000b0958000801d020000000000fb
:10396800b09580000080fd00801d0200000000006e
:10397800c0958000801d020000000000c0958000f6
:103988000080fd00801d0200000000001300780088
:10399800801d020000000000330078000080fd0058
:1039a800801d020000000000c832ed00f7ff3a0059
:1039b8008a1d02000000000000000600661d0200cb
:1039c8000000000000902800801d02000000000098
:1039d800009028000080fd00801d0200000000000b
:1039e80080978000801d0200000000008097800002
:1039f8000080fd00801d0200000000000000200083
:103a0800801d02000000000000002000801d020050
:103a180000000000a0002000801d0200000000003f
:103a280000002000801d020000000000809580003a
:103a3800801d020000000000809580000080fd00cd
:103a4800801d02000000000090958000801d02008b
:103a580000000000909580000080fd00801d02009d
:103a680000000000a0958000801d020000000000fa
:103a7800a09580000080fd00801d0200000000006d
:103a8800b0958000801d020000000000b095800005
:103a98000080fd00801d020000000000c09580002d
:103aa800801d020000000000c09580000080fd001d
:103ab800801d0200000000008a1d020000000000b6
:103ac800000006001811ae001e11a9001811af0061
:103ad8001e31a900c632ef00b00a200010968800f7
:103ae800c432ef0001502200a00e2000be1d0200cb
:103af8000000000000000600c2b2b600c432b400e4
:103b0800d41d02000000000000000600109680008e
:103b1800d41d02000000000020968000d41d020081
:103b280000000000b00e2000be1d020000000000d2
:103b3800154ea8001811af0007003700c612f8008c
:103b48008412f9008232ef001e11a8001ed1a900cc
:103b58000188a80000000600c612f8009a12f900b1
:103b68009832ef001e31a8001ef1a90003e8a80052
:103b780000000600f00fb200c612af0003003700c5
:103b880080087800c632ec00000006000080fd00c6
:103b9800910840008180e800c632ec000000060071
:103ba800821f7800f00fb200a20e20000200e10090
:103bb80008003200b20e20000200e10005003200c9
:103bc800c20e20000200e100020032004f0178001e
:103bd800e8ff3700801f7800c00e2000be1d0200dd
:103be80000000000b20a20004f00780000006900c1
:103bf800be1d0200000000004f0178000000060012
:103c08000030a7000a0037007000b200000601006b
:103c18001000050020000500400005008000050098
:103c28000001050000020500000405000008050069
:103c3800081e0200000000000080fd0000000600d1
:103c48000030a700faff37007000b200000601003c
:103c58000008050000040500000205000001050039
:103c68008000050040000500200005001000050048
:103c7800281e0200000000000080fd000000060071
:103c88004200f800801f78000288a9004f007800e1
:103c98004200f900004006000288a9000040060022
:103ca8004200f800801f7800811f78000168a90091
:103cb800e431ef0031118000f10fb2001f91ae0026
:103cc80044003700a00e20000100e100220032006d
:103cd800b00e20000100e10025003200c00e2000d7
:103ce8000100e10038003200b00a20001e91af0048
:103cf800810068001e91a900002820007a12e300c4
:103d080033003100000022001e51af0000282200bd
:103d18007a12b4000000a1007a12af000200370046
:103d280001087800030037000180fd00108840007a
:103d38000180fd00509480006094880001007800a4
:103d480050948800010078008832b40086b2b6002a
:103d58007a32ec001f0037001e91a9007a32ef007a
:103d68008832ef008632ef0019b1a8001900370039
:103d78001e91a900b00a20008692b6008a92b60069
:103d880014003a00509480008a12b4008c12b400d7
:103d98008892b600f00fb2000e003a00d09380006f
:103da8001e51ae00e09388001e51af00f0938800ca
:103db8001e51ae001f11a8001e51af001f51a800d0
:103dc8001e51aa00030037001e91a8000100370009
:103dd80000000000cf0078004f0078004200f90092
:103de800004006004200f800801f7800811f78001c
:103df80003c8a900cf0078004f0078004200f900fe
:103e0800004006004200f800801f7800811f7800fb
:103e18000188a900e431ef001e11ae000f00370041
:103e28000150220010948000810040000100a10090
:103e3800110078008212af000080fd00f00fb20080
:103e4800201188008232ec00209480008212e30066
:103e5800020039001e11a9001ed1a800cf00780069
:103e68004f0078004200f900004006004200f800c8
:103e7800801f7800811f780003e8a900cf00780030
:103e88004f0078004200f900004006000060fe0084
:103e98000000e900fdff3a000000060010002000c5
:103ea8008010f8008210f800108488003008800024
:103eb80000848800300c2000101020008030b400ee
:103ec8000060fe00008480000601b50000f0a70035
:103ed800fbff37008230ed00f4ff3a008210f90052
:103ee8008010f900000006000e0009000000000024
:103ef8000000e900fcff3a00000006005a31ec001f
:103f0800300020005a11e300010039005a31ef0057
:103f1800d08a800000060100020037000500370043
:103f280006003700f0002000401988002023a80070
:103f3800000006002023a900000006002003ae00b0
:103f48000000060000188000e08a88002003a9000d
:103f58005cb1d7005cb1d700e08a8000f00fb200f6
:103f68000080fd00420d2000110009000280d800e9
:103f7800f08a88000080fd00f00fb20002003200d5
:103f8800f00f2000f08a8800000006004200f800c8
:103f9800801f7800811f78000368a900cf0078008f
:103fa8004f0078004200f9000040060000a0fe0023
:103fb8000068a9001031ec00900020001011e30007
:103fc800060039001031ef000c31ec0050002000e1
:103fd8000c11e300010039000c31ef0070888000fb
:103fe8000c11e30007003e0018b1ae0005003700d1
:103ff800909780001011e30002003e00148ea80084
:1040080001003700148ea9000080fe000040060061
:1040180014aea800046ea900a00220000c21020022
:104028000000000000002000e42102000000000061
:10403800008b80002000b000e42102000000000096
:1040480000002000e421020000000000808b8000b6
:104058006011b4000000e9002000b000e421020073
:1040680000000000046ea8000000060014aea800be
:10407800046ea900b00220000c210200000000001c
:1040880000002000e421020000000000108b8000e6
:104098003000b000e4210200000000000000200011
:1040a800e421020000000000908b80006211b4003f
:1040b8000000e9004000b000e42102000000000018
:1040c800046ea8000000060014aea800046ea90043
:1040d800a00220000c2102000000000000002000c7
:1040e800e421020000000000208b80006011e30042
:1040f80001003500008b8000801f78002000b00090
:10410800e42102000000000000002000e421020079
:10411800000000004f0078007011b4000000e900b2
:104128006611e30001003c00308b80002000b000e5
:10413800e421020000000000046ea80014aea800ec
:10414800046ea900b00220000c210200000000004b
:1041580000002000e421020000000000408b8000e5
:104168006211e30001003500108b8000801f780089
:104178003000b000e4210200000000000000200030
:10418800e4210200000000004f0078007211b40022
:104198000000e9006a11e30001003c00508b800038
:1041a8003000b000e421020000000000046ea80006
:1041b80014aea800046ea900600320000c210200c0
:1041c80000000000400c2000e42102000000000074
:1041d800046ea800000006000c2002000000000089
:1041e8003a2002000000000014aea800046ea900e6
:1041f800600320000c21020000000000000c2000d9
:10420800e421020000000000046ea800000006007f
:1042180014cea9000000000014eea8000070a6004b
:1042280014eea9000000000014aea9000000000070
:1042380014aea8000000000014eea8000060a6005c
:1042480014eea9000000000014aea9000000000050
:1042580014aea8000000000014eea8000050a6004c
:1042680014eea9000000000014aea9000000000030
:1042780014aea8000000000014eea8000040a6003c
:1042880014eea9000000000014aea9000000000010
:1042980014aea8000000000014eea8000030a6002c
:1042a80014eea9000000000014aea90000000000f0
:1042b80014aea8000000000014eea8000020a6001c
:1042c80014eea9000000000014aea90000000000d0
:1042d80014aea8000000000014eea8000010a6000c
:1042e80014eea9000000000014aea90000000000b0
:1042f80014aea8000000000014eea8000000a600fc
:1043080014eea9000000000014aea900000000008f
:1043180014aea800000000000000060014cea8009b
:1043280014eea80000f0a60014eea90014aea9002f
:1043380014aea80014eea80000e0a60014eea90030
:1043480014aea90014aea80014eea80000d0a60070
:1043580014eea90014aea90014aea80014eea8002b
:1043680000c0a60014eea90014aea90014aea8005f
:1043780014eea80000b0a60014eea90014aea9001f
:1043880014aea80014eea80000a0a60014eea90020
:1043980014aea90014aea80014eea8000090a60060
:1043a80014eea90014aea90014aea80014eea800db
:1043b8000080a60014eea90014aea90014aea8004f
:1043c80014cea80014eea8000070a60014eea900f0
:1043d80014aea90014aea80014eea8000060a60050
:1043e80014eea90014aea90014aea80014eea8009b
:1043f8000050a60014eea90014aea90014aea8003f
:1044080014eea8000040a60014eea90014aea900fe
:1044180014aea80014eea8000030a60014eea900ff
:1044280014aea90014aea80014eea8000020a6003f
:1044380014eea90014aea90014aea80014eea8004a
:104448000010a60014eea90014aea90014aea8002e
:1044580014eea8000000a60014eea90014aea900ee
:1044680014aea8000000060014cea80014eea800a0
:1044780000f0a60014eea9000000000014aea90088
:104488000000000014aea8000000000014eea80010
:1044980000e0a60014eea9000000000014aea90078
:1044a8000000000014aea8000000000014eea800f0
:1044b80000d0a60014eea9000000000014aea90068
:1044c8000000000014aea8000000000014eea800d0
:1044d80000c0a60014eea9000000000014aea90058
:1044e8000000000014aea8000000000014eea800b0
:1044f80000b0a60014eea9000000000014aea90048
:104508000000000014aea8000000000014eea8008f
:1045180000a0a60014eea9000000000014aea90037
:104528000000000014aea8000000000014eea8006f
:104538000090a60014eea9000000000014aea90027
:104548000000000014aea8000000000014eea8004f
:104558000080a60014eea9000000000014aea90017
:104568000000000014aea8000000000014cea8004f
:1045780014eea8000070a60014eea90000000000c8
:1045880014aea9000000000014aea800000000004e
:1045980014eea8000060a60014eea90000000000b8
:1045a80014aea9000000000014aea800000000002e
:1045b80014eea8000050a60014eea90000000000a8
:1045c80014aea9000000000014aea800000000000e
:1045d80014eea8000040a60014eea9000000000098
:1045e80014aea9000000000014aea80000000000ee
:1045f80014eea8000030a60014eea9000000000088
:1046080014aea9000000000014aea80000000000cd
:1046180014eea8000020a60014eea9000000000077
:1046280014aea9000000000014aea80000000000ad
:1046380014eea8000010a60014eea9000000000067
:1046480014aea9000000000014aea800000000008d
:1046580014eea8000000a60014eea9000000000057
:1046680014aea9000000000014aea800000000006d
:1046780000000600821f780014cea8000202200065
:104688000b003700821f780014cea800820120009a
:1046980007003700821f780014cea800020120000e
:1046a80003003700821f780014cea8008200200083
:1046b80010eea80014aea9004200a80012eeae0049
:1046c8004200a90014aea8000080d2008180d20068
:1046d8000201e900f7ff3a00046ea8004f017800d4
:1046e80010eea9000000060014aea8007028020011
:1046f8000000000014aea800046ea90010012000fc
:104708000c2102000000000080072000541f020056
:104718000000000014aea800046ea900100b2000d1
:104728000c2102000000000050002000e4210200db
:1047380000000000c0032000e42102000000000087
:10474800c0032000e421020000000000046ea8005d
:1047580014aea800046ea900200b20000c21020052
:104768000000000050002000e421020000000000ca
:10477800c0032000e421020000000000c003200064
:10478800e421020000000000046ea80014aea80096
:10479800046ea900300b20000c210200000000006c
:1047a80050002000e421020000000000c0032000a7
:1047b800e421020000000000c0032000e421020000
:1047c8000000000050002000e4210200000000006a
:1047d800c0032000e421020000000000c003200004
:1047e800e421020000000000046ea80014aea80036
:1047f800046ea900400b20000c21020000000000fc
:1048080070002000e421020000000000046ea800ef
:1048180014aea800046ea900600b20000c21020051
:1048280000000000400b2000e4210200000000000e
:10483800000f2000e421020000000000046ea80020
:1048480014aea800046ea900000c20000c21020080
:1048580000000000e00a2000e4210200000000003f
:10486800e0002000e42102000000000040002000d9
:10487800e421020000000000046ea80014aea800a5
:10488800046ea900100c20000c210200000000009a
:10489800000c2000e421020000000000046ea800c3
:1048a80014aea800046ea900200c20000c21020000
:1048b80000000000a0002000e42102000000000029
:1048c80000002000e421020000000000046ea8009f
:1048d80014aea800046ea900300c20000c210200c0
:1048e80000000000a0082000e421020000000000f1
:1048f80060022000e421020000000000046ea8000d
:1049080014aea800046ea900400c20000c2102007f
:1049180000000000a0082000e421020000000000c0
:10492800e00e2000e421020000000000046ea80050
:1049380014aea800046ea900500c20000c2102003f
:104948000000000010002000e42102000000000028
:10495800046ea80014aea800046ea900000e200082
:104968000c2102000000000030002000e4210200b9
:1049780000000000d0012000e42102000000000037
:1049880080002000e421020000000000d000200088
:10499800e42102000000000060032000e42102007e
:1049a8000000000030032000e421020000000000a5
:1049b800c0022000e421020000000000f0022000f4
:1049c800e421020000000000c0022000e4210200ef
:1049d80000000000a0022000e42102000000000006
:1049e80020032000e421020000000000c003200092
:1049f800e42102000000000000002000e421020081
:104a08000000000010002000e42102000000000067
:104a180030002000e421020000000000f000200027
:104a2800e421020000000000046ea80014aea800f3
:104a3800046ea900100e20000c21020000000000e6
:104a480030002000e421020000000000d001200016
:104a5800e42102000000000080002000e4210200a0
:104a680000000000d0002000e42102000000000047
:104a7800f0022000e421020000000000c002200033
:104a8800e42102000000000080022000e42102006e
:104a980000000000d0022000e42102000000000015
:104aa800c0022000e421020000000000a002200053
:104ab800e42102000000000020032000e42102009d
:104ac80000000000d0032000e421020000000000e4
:104ad80000002000e4210200000000001000200077
:104ae800e42102000000000010002000e421020080
:104af80000000000f0002000e42102000000000097
:104b0800046ea80014aea800046ea900600320007b
:104b18000c2102000000000040002000e4210200f7
:104b280000000000046ea80014aea800046ea900de
:104b3800a00320000c21020000000000500020000b
:104b4800e421020000000000046ea80014aea800d2
:104b5800046ea900000220000c21020000000000e1
:104b6800046ea80014aea800046ea90090022000ec
:104b78000c21020000000000046ea80000000600de
:104b880001a0220002202000d61902000000000027
:104b9800000006001911a80001a02200000420004e
:104ba800b011bc008100410080002000b211bc009f
:104bb80081004100b2da2c00310078000200e100e7
:104bc8000100320000000600310078003100780052
:104bd800d08d880031007800e08d88001911a90077
:104be800000006008010f800b031ef00b231ef008d
:104bf80081652100b0fa2f006f0009008018780045
:104c08008030ef00ce250200000000001911af002f
:104c18000f003700a10c210002012000d619020064
:104c280000000000b0da2c00ca10e30008003a00c7
:104c380081652100008480004200dd008100400081
:104c4800b086800080187800c086800080187800c0
:104c58008030ec00b231ec0080002000b211e3009b
:104c6800e8ff3900b231ef00b031ec0070002000ed
:104c7800b011e300e3ff3900b031ef008010f90014
:104c880000000600ce250200000000001911af0048
:104c980000000600a10c210002012000d619020024
:104ca80000000000b0da2c00ca10e3000100320056
:104cb8001911a8000000060000002000a08b880041
:104cc800d827020000000000000006004626020067
:104cd800000000001911af00f7ff37009086800030
:104ce80080878800a0868000908788008e10f80052
:104cf8008c10f80018d1a80000002000008b880054
:104d080000002000108b880000082000808b88009d
:104d180000082000908b8800f020020000000000ae
:104d280014aea800046ea900c00220000c210200e5
:104d380000000000030820008219020000000000a3
:104d48000408200001c022000060fe003100780045
:104d58000000e00004003a001971af00007e200056
:104d68001951af00f001b3009221020000000000c9
:104d78000402e900f4ff3a008301e900eeff3a007b
:104d8800046ea8008c10f9008e10f90000000600cf
:104d980000002000008b880000002000108b880095
:104da80000082000808b880000042000908b880079
:104db800f02002000000000014aea800046ea90054
:104dc800c00220000c2102000000000000000600c4
:104dd800922102000000000000000600046ea800f6
:104de80000000600b231ec0080002000b211e300a0
:104df8000100310000000600b231ef00b031ec00d4
:104e080070002000b011e30001003100000006002e
:104e1800b031ef00000006008e30ef00f6260200e9
:104e2800000000000000000000000000000000007a
:104e380000000000000000004626020000000000fc
:104e48001911af00030037006a26020000000000b5
:104e5800000006008e30ec00000420008e10e300f5
:104e6800eeff39000000060018b1a900d0270200a3
:104e78000000000018b1a800b031ef00b231ef0017
:104e8800ba31ef00bc31ef0001a02200022020005f
:104e9800d619020000000000000000000000000019
:104ea800000000006a260200000000001911af008f
:104eb80003003700803e2000541f0200000000005d
:104ec800b231ec0080002000b211e300f5ff390098
:104ed800b231ef00b031ec0070002000b011e300f7
:104ee800f0ff3900b031ef00eeff390018b1a9002a
:104ef800d02702000000000018b1a80042030200f9
:104f080000000000f0ff2f00a08b8800d8270200c7
:104f180000000000c0122000541f02000000000022
:104f2800f0012000a08b8800d827020000000000b4
:104f3800c0122000541f020000000000007e200064
:104f4800a08b8800d827020000000000c0122000b3
:104f5800541f02000000000000802f00a08b880072
:104f6800d827020000000000c0122000541f0200d1
:104f78000000000000002000a08b8800d827020055
:104f880000000000c0122000541f020000000000b2
:104f980000000600d5ff370078230200000000005b
:104fa800000006007431ef0018d1a80000002000ae
:104fb800008b880000002000108b8800000820006b
:104fc800808b880000082000908b8800f020020069
:104fd8000000000014aea800046ea900c002200062
:104fe8000c21020000000000030820000408200033
:104ff8000060fe00a08b80009221020000000000eb
:105008000402e900faff3a008301e900f7ff3a00d9
:10501800046ea800000006008010f8008210f80056
:105028006011f8006211f800608b8000808b8800a6
:10503800708b8000908b88006820020000000000c0
:1050480014aea800046ea900c00220000c210200c2
:1050580000000000708b800010848800608b800046
:1050680000848800208b80006011e3000c0035006c
:10507800308b80006011e30009003c00408b800009
:105088006211e30006003500508b80006211e300d6
:1050980003003c00a08b8000922102000000000069
:1050a8006031ec008030ed00eeff3a00608b80004c
:1050b8006031b5006231ec008230ed00e7ff3a0064
:1050c800046ea8006211f9006011f9008210f9005d
:1050d8008010f90000000600046ea800048ea800e5
:1050e80010002000541f020000000000048ea900d8
:1050f800a0002000541f020000000000048ea80039
:1051080080072000541f0200000000000000060075
:105118000060fe0029e7af00fdff37000000060031
:10512800a00f2000a002880001002000b208bb00e8
:10513800b298bb00b208bb00b298bb005420ef0085
:105148000000060002c022005420ef0001002a00df
:10515800230020003100ba00001978008301e9001b
:10516800fcff3a0000000600518488008830ef00f8
:105178005420ef00816c2300408480004300dd0050
:10518800810040003100ba00008488003100ba0074
:10519800108488003100ba00208488003100ba00e9
:1051a800308488008010e20001003a000000060008
:1051b800008480008a10e300020032008830ec008e
:1051c800ebff370001c022004084800081004000ce
:1051d8008100400052848000120078008008780026
:1051e80000000600811f7800a628020000000000c9
:1051f800cf007800b828020000000000142902003f
:105208000000000001003a00000006002a29020000
:1052180000000000682902000000000000000600ed
:105228005420ef0001002a002300200002c02200c1
:105238003100ba00320068000100320000000600a8
:105248008301e900faff3a0000000600c3e8a9005c
:1052580000002000f80e0200000000008c28020068
:1052680000000000000020006039880000002a00cb
:105278005039880030002400403988000a00fc00ba
:105288005005200070398800a00a20007039880075
:1052980029e7a8000000000000000000000000004e
:1052a80000000000000000008c2802000000000040
:1052b80000002000403988001c0f02000000000098
:1052c800c3e8a80000000600c3e8a9000000200009
:1052d800f80e0200000000008c2802000000000008
:1052e8008001eb00000020006039880000002a00df
:1052f800030040000300400003004000030040009a
:105308005039880002c02200028141000281410018
:105318000281410002814100a00f2000a002880004
:1053280001002000b208bb008398bb00b208bb0094
:105338008398bb005420ef001000240040398800f7
:105348000a00fc005005200070398800a00a2000df
:105358007039880029e7a80000000000000000005c
:105368000000000000000000000000008c2802007f
:10537800000000008301e800200020000000e80091
:105388004180de000018e100d6ff3900000020004f
:10539800403988001c0f020000000000c3e8a80084
:1053a80000000600000601000004050010040500c6
:1053b80020040500300405004004050050040500e1
:1053c80060040500700405008004050090040500d1
:1053d800a0040500b0040500c0040500d0040500c1
:1053e800e0040500f00405000005050010050500af
:1053f800200505003005050040050500500505009d
:10540800600505007005050080050500900505008c
:10541800a0050500b00505000000050040000500d6
:1054280080000500c00005000001050040010500de
:10543800c0010500b001050000020500400205009a
:1054480080020500c00205000003050040030500b6
:1054580080030500c003050010000500500005008a
:1054680090000500d000050010010500500105005e
:1054780080010500f001050010020500500205003a
:1054880090020500d0020500100305005003050036
:1054980090030500d003050020000500600005000a
:1054a800a0000500e00005002001050060010500de
:1054b80090010500d00105002002050060020500ea
:1054c800a0020500e00205002003050060030500b6
:1054d800a0030500e003050030000500700005008a
:1054e800b0000500f000050030010500700105005e
:1054f800a0010500e001050030020500700205006a
:10550800b0020500f0020500300305007003050035
:10551800b0030500f00305001a91a8007c31ef00e4
:10552800010037001a91a9001ab1ae000500370032
:10553800811f78000100a10011007800cf007800d9
:10554800010037001100ba000100a7000080fd002b
:10555800f00fb200040032001c2b02000000000013
:105568008100e800f0ff37008100e8001a91a900e7
:105578000000060002712200110009000280d80014
:105588004084880001007800823e20001100090054
:105598000280d8003084880001007800420620008c
:1055a800110009000280d8002084880001007800da
:1055b800a2002000110009000280d8001084880091
:1055c80001848800000006000040a600060037009d
:1055d8000000a60002003700d002200000000600ec
:1055e8000002200000000600604fb0004200af003b
:1055f8007040b000a043b000000006008100200009
:10560800c18b880001012000d18b88002100200077
:10561800018c88007000b80081ed220081004000f4
:1056280000000600f000b200e82a020000000000b6
:1056380018d1a800811f7800022b0200000000008a
:105648001a91af00160037001ad1af0008003700d2
:105658001b11af000a0037001b51af000c003700c8
:105668006a2b020000000000cf007800000006004e
:10567800c22b020000000000cf00780000000600e6
:105688003a2c020000000000cf007800000006005d
:10569800d62c020000000000cf00780000000600b1
:1056a800c08b80007c31b400cf0078000000060079
:1056b8006431ef00f0072000308b88006831ef007c
:1056c800f0072000508b880000000600c08b800087
:1056d800808b8800d08b8000908b88006820020027
:1056e8000000000014aea800046ea900c00220004b
:1056f8000c21020000000000d58b8000408b800048
:105708006211e3000f003500508b80006211e30046
:105718000c003c0001017800b201ba000100a700aa
:105728000380fd003202ba000100a7000480fd00da
:10573800c28b8000ba2d020000000000c08b8000e0
:105748006031b500c28b80000201e9004311de0020
:105758000201e800810041006231ec008502e900a5
:10576800e6ff3a00c08b80006031b400d08b800027
:105778006231b500046ea80000000600c08b8000ee
:10578800808b88007031b400d08b8000908b8800ab
:105798007231b400682002000000000014aea800b6
:1057a800046ea900c00220000c21020000000000c5
:1057b800d58b8000408b80006211e3001c0035000f
:1057c800508b80006211e30019003c000101780051
:1057d800b201ba000100a7000380fd003202ba003e
:1057e8000100a7000480fd00831f7800841f780053
:1057f800c28b8000e82d020000000000c08b8000f2
:105808006031b5006031b5006231ec004f027800bc
:10581800cf017800c28b8000e82d02000000000054
:10582800c08b80006031b5006031b5006231ec009a
:10583800c28b80000201e9004311de000201e8008a
:10584800810041008502e900daff3a00c08b800040
:105858006031b4006031b400d08b80006231b50093
:105868006231b500046ea80000000600c08b8000fd
:105878004200dd00808b8800d08b80004200dd0074
:10588800908b8800682002000000000014aea80079
:10589800046ea900c00220000c21020000000000d4
:1058a800d58b8000408b80006211e3002e0035000c
:1058b800508b80006211e3002b003c00010178004e
:1058c800b201ba000100a7000380fd003202ba004d
:1058d8000100a7000480fd006384880074848800a8
:1058e800c28b8000202e020000000000c08b8000c8
:1058f8004200dd006031b5006231ec006384800055
:1059080074848000c28b8000202e020000000000fa
:10591800c08b80004200dd006031b5006231ec00d0
:105928006384800074848000c28b8000202e020073
:1059380000000000c08b80004200dd006031b5002f
:105948006231ec006384800074848000c28b800024
:10595800202e020000000000c08b80004200dd0005
:105968006031b5006231ec00c28b80000201e900b1
:105978004311de000201e800810041008502e900d0
:10598800c8ff3a00c08b80004200dd006031b400df
:10599800d08b80004200dd006231b500046ea800a3
:1059a80000000600c08b80004300dd00808b88006b
:1059b800d08b80004300dd00908b880068200200b7
:1059c8000000000014aea800046ea900c002200068
:1059d8000c21020000000000d58b8000408b800065
:1059e8006211e30052003500508b80006211e30021
:1059f8004f003c0001017800b201ba000100a70085
:105a08000380fd003202ba000100a7000480fd00f7
:105a18006384880074848800c28b80006c2e020026
:105a280000000000c08b80004300dd006031b5003d
:105a38006231ec006384800074848000c28b800033
:105a48006c2e020000000000c08b80004300dd00c7
:105a58006031b5006231ec0063848000748480009a
:105a6800c28b80006c2e020000000000c08b8000fa
:105a78004300dd006031b5006231ec0063848000d2
:105a880074848000c28b80006c2e0200000000002d
:105a9800c08b80004300dd006031b5006231ec004e
:105aa8006384800074848000c28b80006c2e0200a6
:105ab80000000000c08b80004300dd006031b500ad
:105ac8006231ec006384800074848000c28b8000a3
:105ad8006c2e020000000000c08b80004300dd0037
:105ae8006031b5006231ec0063848000748480000a
:105af800c28b80006c2e020000000000c08b80006a
:105b08004300dd006031b5006231ec006384800041
:105b180074848000c28b80006c2e0200000000009c
:105b2800c08b80004300dd006031b5006231ec00bd
:105b3800c28b80000201e9004311de000201e80087
:105b4800810041008502e900a4ff3a00c08b800073
:105b58004300dd006031b400d08b80004300dd00dd
:105b68006231b500046ea80000000600208b80009a
:105b78006011e30003003d000482d3008381d30059
:105b88000d003700308b80006011e3000300340003
:105b98000482d3008381d300070037000482d30036
:105ba8008381d300f08b80004200ae00a08b800080
:105bb80092210200000000006031ec000201e900bf
:105bc800eaff3a0000000600208b80006011e30025
:105bd80003003d000482d3008381d3001100370005
:105be800308b80006011e300030034000482d3008e
:105bf8008381d3000b0037000482d3008381d30054
:105c0800f08b80004200ae00a08b8000801f7800df
:105c180092210200000000004f007800922102004b
:105c2800000000006031ec006031ec000201e90086
:105c3800e5ff3a0000000600208b80006011e300b9
