:020000040000fa
:080000000402040000000000ee
:020000040000fa
:080400000040da000000fe00dc
:020000040000fa
:1000080000020000000200000002000000020000e0
:1000180000020000000200000002000000020000d0
:10002800000200000002000000020000d00a0000e8
:1000380000020000000200000002000000020000b0
:100048000002000000020000000200002e0800006c
:10005800cc080000000200000002000000020000be
:100068000002000000020000000200000002000080
:100078000002000000020000000200000002000070
:10008800000200000002000000020000c00a000098
:100098000002000000020000000200000002000050
:1000a8000002000000020000000200000002000040
:1000b8000002000000020000000200000002000030
:1000c8000002000000020000000200000002000020
:1000d8000002000000020000000200000002000010
:1000e8000002000000020000000200000002000000
:1000f80000020000000200000002000000020000f0
:1001080000020000000200000002000000020000df
:1001180000020000000200000002000000020000cf
:1001280000020000000200000002000000020000bf
:1001380000020000000200000002000000020000af
:10014800000200000002000000020000000200009f
:10015800000200000002000000020000000200008f
:10016800000200000002000000020000000200007f
:10017800000200000002000000020000000200006f
:10018800000200000002000000020000000200005f
:10019800000200000002000000020000000200004f
:1001a800000200000002000000020000000200003f
:1001b800000200000002000000020000000200002f
:1001c800000200000002000000020000000200001f
:1001d800000200000002000000020000000200000f
:1001e80000020000000200000002000000020000ff
:1001f80000020000000200000002000000020000ef
:1002080000020000000200000002000000020000de
:1002180000020000000200000002000000020000ce
:1002280000020000000200000002000000020000be
:1002380000020000000200000002000000020000ae
:10024800000200000002000000020000000200009e
:10025800000200000002000000020000000200008e
:10026800000200000002000000020000000200007e
:0c02780000020000000200000002000074
:020000040000fa
:1004080020020400000000000000eb000007780054
:100418000c000900002f78000007eb000000060020
:10042800010821008018eb00a03621000008e10037
:10043800fcff3a00000006000ff02100e0ff210059
:1004480000018800080202000000000014020200f7
:1004580000000000b8040200000000004006200070
:10046800fe080200000000003431ef000e2eef00fd
:100478001e2eef00ba040200000000004101200017
:10048800401f2000fe080200000000008100e90073
:10049800fbff3a000802020000000000ba04020054
:1004a80000000000be02020000000000c4030200b9
:1004b8000000000078040200000000000071220023
:1004c800fe0802000000000000000000000000001c
:1004d80000000000be03020000000000b803020094
:1004e80000000000ee03020000000000f202040019
:1004f80000000000ffff37000060fe000701ae00ab
:10050800fdff37000188a9002188a9000168a9001a
:100518002168a900b00a2000a0118800a0002000ce
:100528000809020000000000f6ff37000060fe0026
:1005380000003700f0ff2f00fe0802000000000056
:100548003012200030938800402220004093880019
:100558005032200050938800604220006093880049
:100568007052200070938800ec0602000000000022
:10057800eeff37000e2eef001e2eef000e2ea80005
:100588004000200000002000001988000000200022
:1005980010198800f00028002019880000002000a9
:1005a80090198800000020007019880000002000c1
:1005b8008019880021e3a80000000600ee50ae0074
:1005c80003003700ee50a900ee70a90000000600f5
:1005d800ee50a800ee70a80000000600f590a800f4
:1005e800f5b0a8000060fe004c0302000000000007
:1005f8006003020000000000740302000000000015
:100608001203020000000000e204020000000000e3
:10061800820a020000000000f2ff3700efb0af00ce
:10062800152ea900efb0ae00152ea800ec10a900f9
:1006380013aeae00ec10a800ef90af000400370036
:10064800ec10af0002003700154ea8000400370078
:10065800b810ae00154ea800b810af00154ea9008e
:10066800b830ae00156ea800b830af00156ea900fe
:100678000000060000000600000006003222af005d
:100688003222a9002222af002222a900000006007f
:10069800c030ef0030088000be90b6004220af00a6
:1006a8000000060000868800c230b700beb0b60061
:1006b8000060fe0000000600c630ef005008800011
:1006c800c490b6004220af000000060030868800c3
:1006d800c830b700c4b0b6000060fe0000000600d5
:1006e800c150ae0000000600ee31ec008000200092
:1006f800ee11e30001003900ee31ef00708f800049
:100708000006010007003700070037000700370020
:1007180007003700070037000700370007003700d9
:100728000700370000000600000006000000060071
:100738000000060000000600000006000000060099
:1007480000000600000006000021ef0000032a0058
:100758002008880040062000100888000068a900ca
:100768002068a8000000060000032a0090088800fe
:100778000000060000032a00800888000000060028
:10078800217420006204200073052000824878004c
:100798008348780042c7a90000f02f00c426b6009d
:1007a80040012000c426b70000f02f008226b600c2
:1007b800100020008226b700217420006204200067
:1007c80073052000824878008348780042c7a80053
:1007d80000000600e0082000401188008000280082
:1007e8000011880000402000101188004648a90028
:1007f8004628a8004608a8000188a9002188a80062
:1008080030118000301180003011800030118000dc
:100818000168a90045c8a90045a8a8004588a800fe
:100828000168a9002168a800000006003002200025
:10083800c011880080002800801188000040200036
:10084800901188001acea8004fc8a9004fa8a80088
:100858004f88a80003e8a90023e8a800b011800089
:10086800b0118000b0118000b011800003c8a90049
:100878004f48a9004f28a8004f08a80003c8a9009e
:1008880023c8a8000000060010002000040037005c
:1008980070002000020037007000200000003700c0
:1008a8003174200082072000a30920000300fc0007
:1008b800824878008348780043e7b7002174200015
:1008c80062042000730520000300fc0082487800c1
:1008d800834878004207a8000060fe004207af0086
:1008e800fdff3700000006004427ef00000320004a
:1008f80050042000303a8800000020004427b70048
:10090800000020004427b700000020004427b7005b
:10091800000000000000000000000000007122003c
:10092800fe080200000000000000000000000000b7
:100938000000000010002000540402000000000025
:1009480000002000403a8800000006000060fe0019
:10095800b00a20002011880000712200fe08020061
:1009680000000000f9ff370000000600148ea80000
:10097800108ea900008ea80014aea90010aea80021
:1009880014cea90010cea80014eea90010eea800fd
:10099800150ea900110ea800152ea800112ea900e9
:1009a800154ea900114ea900156ea900116ea900d7
:1009b80011aea800002ea80000000600f510af0038
:1009c80003003700f550af000600370000000600ae
:1009d800f510a90090918000b091880001002200d4
:1009e80005003700f550a900a0918000b09188005b
:1009f8000110220000003700f192880031007800d1
:100a0800c0868800529421000200e10004003200f0
:100a1800f2ff2f000200e100010032000000060092
:100a280031007800d0868800a28980000200e100a9
:100a380004003200f2ff2f000200e1000100320042
:100a48000000060031007800e086880000b02a0027
:100a5800dc10e300010032000000060031007800dd
:100a680010938800310078002093880031007800c6
:100a780080938800310078009093880031007800d6
:100a8800a093880031007800b093880020938000fc
:100a98000080fd00f00fb2006000e10002003a00a3
:100aa80014060400000000007000e10002003a0093
:100ab8009605040000000000e000e10002003a0092
:100ac800e805040000000000000006005094210022
:100ad80090868800a0898000a086880000c02a002f
:100ae800b08688000000210030938800608780006d
:100af80040938800508780005093880000002000b1
:100b08006093880000002000709388007e32ef0018
:100b1800ee10a90003282100ec06020000000000e6
:100b28000000060020938000f00fb2006100e10091
:100b3800010039000000060000060100000037002f
:100b480080938000f00fb200c0858800c0858000c7
:100b58003000b20000060100030037000c00370027
:100b6800060037000000370014aea80014cea90014
:100b780010aea90010cea9000a00370014aea800d4
:100b880014cea90010aea90010cea90005003700a8
:100b980014aea90014cea80010aea90010cea9006a
:100ba80000003700ef90a9007112af00ef90a80085
:100bb800efb0a9007132af00efb0a8006a050200db
:100bc800000000000000060020938000f00fb20033
:100bd8006800e1000100390000000600000601007d
:100be8000700370007003700070037000700370005
:100bf80007003700070037000700370007003700f5
:100c080000000600000006000000060000000600c4
:100c180000000600000006000000060000000600b4
:100c280020938000f000b200000601001100370098
:100c3800110037001100370011003700110037008c
:100c4800110037001100370008003700070037008f
:100c5800060037000500370004003700030037009e
:100c68000b003700020037000000370000000600c4
:100c78000000060000000600000006000000060054
:100c88000000060000000600000006000000060044
:100c98006232ed006232ed008001eb003102780033
:100ca80003006a00f00fb2000c003a008301e8006c
:100cb8000480fd0003006a00f00fb20007003a004c
:100cc8008301e800109380000018e100f3ff390069
:100cd800bc0602000000000000000600e606020054
:100ce80000000000000006000100a7000400370013
:100cf80011007800f00fb2008100e8000000060043
:100d08000100a100110078000080fd00f00fb20082
:100d18008180e80000000600821f78007806020043
:100d280000000000000178007806020000000000c2
:100d38000080fd00020070004f01780000000600ee
:100d4800e092800000f0a000309388002000370077
:100d58002093800065f2a800309388006832ef0085
:100d68006a32ef006c32ef006e32ef001800370085
:100d78000000200030938800150037001000200084
:100d8800309388001200370020002000309388003c
:100d98000f00370030002000309388000c00370027
:100da80040002000309388000900370050002000e0
:100db80030938800060037006000200030938800d8
:100dc80003003700700020003093880000003700cf
:100dd8003e070200000000009086800068070200bd
:100de80000000000a08680006807020000000000e4
:100df800b08680006807020000000000a000200004
:100e08007e12b4007e12b4006807020000000000e1
:100e180030938000680702000000000040938000c3
:100e28006807020000000000509380006807020075
:100e380000000000609380006807020000000000c6
:100e48007093800068070200000000007e12e20034
:100e58000500320033007800680702000000000037
:100e68007e32ed00f9ff370078070200000000002d
:100e780000000600ee10ae00f410a900ee10af005e
:100e8800f430a9007c32ef00b00a2000c09388003b
:100e98007a32ef00ee10ae0001402200ee10af00f3
:100ea80001502200a00e2000980702000000000058
:100eb8000000060078b2b6007a32b400ae0702002d
:100ec8000000000000000600801f78005e07020096
:100ed800000000004f0078000080fd005e0702005f
:100ee8000000000000000600c0938000ae0702006a
:100ef80000000000d0938000ae0702000000000050
:100f0800b00e200098070200000000007c12f800d4
:100f18003a12f9003832ef00f410a800f4d0a90012
:100f28000188a80000000600f00fb2007c12af0094
:100f380003003700800878007c32ec0000000600cf
:100f48000080fd00910840008180e8007c32ec00c0
:100f580000000600821f7800f00fb200a20e2000e9
:100f68000200e10008003200b20e20000200e10099
:100f780005003200c20e20000200e100020032002b
:100f88004f017800e8ff3700801f7800c00e20006e
:100f98009807020000000000b20a20004f00780005
:100fa8000000690098070200000000004f01780067
:100fb800000006000030a7000a0037007000b200e9
:100fc8000006010010000500200005004000050093
:100fd800800005000001050000020500000405006e
:100fe80000080500e2070200000000000080fd0084
:100ff800000006000030a700faff37007000b200ba
:1010080000060100000805000004050000020500b4
:1010180000010500800005004000050020000500d3
:101028001000050002080200000000000080fd001a
:10103800000006004200f800801f78000288a9001e
:101048004f0078004200f900004006000288a9001d
:10105800004006004200f800801f7800811f7800d9
:101068000168a90031118000f10fb200f590ae00bf
:1010780043003700a00e20000100e10022003200ea
:10108800b00e20000100e10024003200c00e200054
:101098000100e10037003200b00a2000f490af00f0
:1010a80081006800f490a900001020003012e300cd
:1010b8003200310000002200f450af00001022007e
:1010c8003012b4000000a1003012af000200370057
:1010d80001087800030037000180fd0010884000f7
:1010e8000180fd00009280001092880001007800c5
:1010f80000928800010078003e32b4003cb2b6008d
:101108003032ec001e003700f490a9003032ef00b6
:101118003e32ef003c32ef0019003700f490a9008e
:10112800b00a20003c92b6004092b60014003a0083
:10113800009280004012b4004212b4003e92b60001
:10114800f00fb2000e003a0080918000f450ae001b
:1011580090918800f450af00a0918800f450ae0040
:10116800f510a800f450af00f550a800f450aa00fc
:1011780003003700f490a8000100370000000000c9
:10118800cf0078004f0078004200f90000400600c8
:101198004200f800801f7800811f78000188a900ac
:1011a800f410ae000f00370001402200c09180000b
:1011b800810040000100a100110078003812af0042
:1011c8000080fd00f00fb200201188003832ec00da
:1011d800d09180003812e30002003900f410a90011
:1011e800f4d0a800cf0078004f0078004200f90042
:1011f800004006000060fe000000e900fdff3a0024
:1012080000000600100020008010f8008210f8008e
:10121800108488003008800000848800300c20008a
:10122800101020008030b4000060fe0000848000b0
:101238000601b50000f0a700fbff37008230ed0083
:10124800f4ff3a008210f9008010f900000006004f
:101258000e000900000000000000e900fcff3a0051
:1012680000000600b08a8000000601000200370076
:10127800060037000e0037002023a9003008800040
:10128800108888005631ec000000060010888000a5
:101298000601b50000848800900120008010e3005a
:1012a80001003100000006005631ec000000060085
:1012b80001a8ae000000060001a8a9005631ef0001
:1012c800e032ec0040002000e012e30001003900a9
:1012d800e032ef00012c2100009780004300dd0080
:1012e80081004000001880008018780030188000c5
:1012f8008018780020188000801878001018800066
:1013080080187800012c21001100780000848800e2
:101318008100b00011007800108488008100b000be
:1013280011007800208488008100b0001100780046
:1013380030848800020a020000000000109788002c
:10134800212c210011007800008488008100b00061
:1013580011007800108488008100b0001100780026
:10136800208488008100b000110078003084880053
:10137800020a02000000000020978800412c21008a
:1013880011007800008488008100b0001100780006
:10139800108488008100b000110078002084880043
:1013a8008100b0001100780030848800020a020031
:1013b8000000000030978800612c2100110078009f
:1013c800008488008100b000110078001084880033
:1013d8008100b00011007800208488008100b000ee
:1013e8001100780030848800020a02000000000022
:1013f80040978800e9f2a8000000060000848000f9
:101408008210e30004003600008480008290b60059
:1014180080b0b60082b0b600108480008410e3006b
:1014280004003600108480008490b60082b0b600b4
:1014380084b0b600208480008610e30004003600e3
:10144800208480008690b60084b0b60086b0b600ce
:10145800108480008410e3000400360010848000ab
:101468008490b60082b0b60084b0b60000848000d4
:101478008210e30004003600008480008290b600e9
:1014880080b0b60082b0b600208480008210b4001c
:101498004100de0000000600ef70a9004019880036
:1014a8002023a800400120006e0a0200000000006e
:1014b8002023a900bc30ef00bc30ec00bd30af00e9
:1014c800000006002003ae00fbff3700ef70a80005
:1014d80000000600000000000000e900fdff3a00df
:1014e800000006003000b2000006010010000500f0
:1014f8002000050030000500500005001000200005
:10150800500a020000000000ef70ae000000060064
:1015180061132100b08a80008100400081004000f2
:1015280000188000800878005631ec004000200048
:101538005611e30001003100000006005631ef00ab
:101548003611f8008010f9003811f8008210f900ff
:101558003a11f8008410f9003c11f8008610f900df
:10156800020a020000000000508788000000000006
:1015780000000000000006004200f800801f78000c
:10158800811f78000368a900cf0078004f00780019
:101598004200f9000040060000a0fe000068a90013
:1015a8000080fe0000400600a00f2000a002880076
:1015b80001002000b208bb00b298bb00b208bb0013
:1015c800b298bb005420ef00000006005184880048
:1015d8008830ef005420ef0021c2200040848000b2
:1015e8004300dd00810040003100ba00008488001b
:1015f8003100ba00108488003100ba0020848800c5
:101608003100ba00308488008010e20001003a00fe
:1016180000000600008480008a10e3000200320007
:101628008830ec00ebff370001c0220040848000c6
:101638008100400081004000528480001200780040
:101648008008780000000600811f7800460b020021
:1016580000000000cf007800ea0a02000000000045
:10166800580b02000000000001003a0000000600cc
:101678006e0b020000000000b40b02000000000026
:101688000000060002c022005420ef0001002a00da
:10169800430020003100ba00001978008301e900f6
:1016a800fcff3a00000006005420ef0001002a0069
:1016b8004300200002c022003100ba003200680056
:1016c80001003200000006008301e900faff3a0039
:1016d80000000600c3e8a90000002000540402002e
:1016e80000000000ac0b0200000000000000200019
:1016f8006039880000002a00503988003000240032
:10170800403988000a00fc00500520007039880024
:10171800a00a20007039880029e7a800000000000e
:1017280000000000000000000000000000000000b1
:10173800ac0b0200000000000000200040398800c7
:101748007804020000000000c3e8a80000000600ba
:101758000060fe0029e7af00fdff3700000006002b
:10176800c3e8a900000020005404020000000000a3
:10177800ac0b0200000000008001eb00000020001c
:101788006039880000002a00030040000300400080
:1017980003004000030040005039880002c02200c6
:1017a8000281410002814100028141000281410021
:1017b800a00f2000a002880001002000b208bb0092
:1017c8008398bb00b208bb008398bb005420ef008d
:1017d80010002400403988000a00fc005005200051
:1017e80070398800a00a20007039880029e7a8000d
:1017f80000000000000000000000000000000000e1
:1018080000000000ac0b0200000000008301e800ab
:10181800400020000000e8004180de000018e100e0
:10182800d6ff390000002000403988007804020003
:1018380000000000c3e8a80000000600ea1200004b
:10184800000000000000000000000000ec12000092
:10185800010000000000000000000000ee1200007f
:10186800020000000000000000000000f01200006c
:10187800030000000000000000000000000000005d
:101888000000000000000000000000000000000050
:101898000000000000000000000000000000000040
:1018a8000000000000000000000000000000000030
:1018b8000000000000000000000000000000000020
:020000040001f9
:103ff80000000000000000003412000078560000a5
:10400800bc9a0000f0de000009000000010000007a
:104018000000000000000000000000000000000098
:104028000000000000000000000000000000000088
:104038000000000000000000000000000000000078
:10404800000000000000000009000000010000005e
:104058000000000000000000000000000000000058
:104068000000000000000000000000000000000048
:104078000000000000000000000000000000000038
:10408800000000000000000009000000010000001e
:104098000000000000000000000000000000000018
:1040a8000000000000000000000000000000000008
:1040b80000000000000000000000000000000000f8
:1040c80000000000000000000900000001000000de
:1040d80000000000000000000000000000000000d8
:1040e80000000000000000000000000000000000c8
:1040f8000000000000000000cdab00000000000040
:10410800000000000000000009000000010000009d
:104118000000000000000000000000000000000097
:104128000000000000000000000000000000000087
:104138000000000000000000000000000000000077
:104148000000000000000000000000000000000067
:020000040000fa
:020000040001f9
:10500000001000006c0300008000000000000000a1
:00000001FF
