:020000040000fa
:080000000402040000000000ee
:020000040000fa
:080400000040da000000fe00dc
:020000040000fa
:1000080000020000000200000002000000020000e0
:1000180000020000000200000002000000020000d0
:1000280000020000003a0000000200007e350000d7
:10003800000200002e3a000000020000000200004a
:100048006836000000020000000200004c33000087
:100058008a340000000200000002000000020000d4
:100068000002000000020000000200000002000080
:100078001c33000000020000000200000002000023
:1000880000020000000200000002000052370000d9
:1000980008390000823a0000ec330000ba3400004e
:1000a8000002000000020000000200000002000040
:1000b800000200005c3a0000a03a000000020000c4
:1000c8000002000000020000000200000002000020
:1000d8000002000000020000000200000002000010
:1000e8000002000000020000000200000002000000
:1000f80000020000000200000002000000020000f0
:1001080000020000000200000002000000020000df
:1001180000020000000200000002000000020000cf
:1001280000020000000200000002000000020000bf
:1001380000020000000200000002000000020000af
:10014800000200000002000000020000000200009f
:10015800000200000002000000020000000200008f
:10016800000200000002000000020000000200007f
:10017800000200000002000000020000000200006f
:10018800000200000002000000020000000200005f
:10019800000200000002000000020000000200004f
:1001a800000200000002000000020000000200003f
:1001b800000200000002000000020000000200002f
:1001c800000200000002000000020000000200001f
:1001d800000200000002000000020000000200000f
:1001e80000020000000200000002000000020000ff
:1001f80000020000000200000002000000020000ef
:1002080000020000000200000002000000020000de
:1002180000020000000200000002000000020000ce
:1002280000020000000200000002000000020000be
:1002380000020000000200000002000000020000ae
:10024800000200000002000000020000000200009e
:10025800000200000002000000020000000200008e
:10026800000200000002000000020000000200007e
:0c02780000020000000200000002000074
:020000040000fa
:1004080020020400000000000000eb000007780054
:100418000c000900002f78000007eb000000060020
:10042800010d21008018eb0040d521000008e100f3
:10043800fcff3a00000006000fe02100e0ef210079
:1004480000018800080202000000000014020200f7
:100458000000000078220200000000004101200096
:10046800401f2000fe340200000000008100e90067
:10047800fbff3a0008020200000000007822020098
:10048800000000005a03020000000000642202007d
:1004980000000000e4200200000000002422020006
:1004a8000000000000712200fe340200000000007d
:1004b800ae200200000000007821020000000000c9
:1004c800a8210200000000005c21020000000000da
:1004d800a02f020000000000b82f0200000000005a
:1004e80080382100f03402000000000042070400b8
:1004f800000000000008200001202a0002c022009d
:10050800e03a0200000000000000000000000000c7
:100518000000000001202a00003b0200000000004b
:10052800000000000000000000000000000820009b
:1005380001202a0002c02200e03a02000000000068
:10054800000000000000000000000000070020007c
:100558000608200001c02200871878008703e800f9
:100568000603e900fcff3a0000000000000000005c
:100578000000000000202a00e08788000008200012
:10058800f0878800403b02000000000000000000e7
:1005980000000000000000000008200001202a00e0
:1005a80002c02200e03a0200000000000000000043
:1005b800000000000000000000000600142eaa0041
:1005c80064ceaa00142eaa0064ceaa00142eaa0093
:1005d80064ceaa00142eaa0064ceaa00142eaa0083
:1005e80064ceaa000060fe00f4ff370060402000df
:1005f80000488800d000200010488800803821007a
:10060800304888000071220070088800a00020008f
:100618000835020000000000fcff37000060fe0003
:100628000701ae00058ea9000701af00058ea800de
:10063800faff37002004200020118800a0002000c5
:100648000835020000000000faff370025aea800b8
:1006580020042000a0118800a00020000835020016
:1006680000000000f9ff37000c11a800301220002c
:10067800709288007056240080928800b09a2800f2
:1006880090928800f0de2c00a0928800804622001c
:10069800b0928800da31020000000000a0002000bb
:1006a8000835020000000000efff37000e2eef00b3
:1006b8001e2eef002e2eef004e2eef004fcea8007c
:1006c80040002000000020000019880000002000e1
:1006d80010198800f0002000201988000000200070
:1006e80090198800f00020004019880000002000c0
:1006f80030198800000020007019880000002000d0
:100708008019880021e3a80000000600d430ef001b
:10071800650d210000042000308d880000002000b5
:10072800408d880000012000d410bc000200780031
:10073800a631b400ae2d02000000000021c0220046
:100748003100780080868800310078009086880023
:1007580031007800000178003000b200800a78008b
:100768000200a7001520a00000102e00d010e30002
:1007780001003a001530a00000202c00d010e30042
:1007880001003a001540a00031007800801f780071
:10079800f00fb2000080fd00950a70004f0078004d
:1007a8000080a7001550a000429f2100a08680006d
:1007b8000201400002014000310078000009780081
:1007c800d430ec008582e80040002000d410e3001b
:1007d800d0ff3900d610f800d019f900d810f80069
:1007e800dc19f900da10f800e819f900dc10f80053
:1007f800c419f900d0b9ae00040037007e20020009
:10080800000000000220020000000000dcb9ae0079
:100818000400370096200200000000001a200200a1
:1008280000000000e8b9ae0006003700b42002005e
:100838000000000032200200000000006a210200cf
:1008480000000000c4b9ae0004003700cc2002004c
:10085800000000004a20020000000000811421006e
:1008680002002000f00020000080090082187800b3
:10087800d030ef0000042100308d880000002000f7
:10088800408d8800808680004500dd00a631b400d8
:10089800ae2d02000000000001c022001100780007
:1008a800f00fb20006003200110078008114210018
:1008b8008286800081004100810041008008780024
:1008c800d030ec0070002000d010e300e9ff3900c0
:1008d80000022100308d880000002000408d880033
:1008e800ae2d02000000000081c022006315210027
:1008f80011007800f00fb2008019780031007800fc
:100908000080fd00f00fb200801978001100780017
:10091800f00fb20080197800310078000080fd00e7
:10092800f00fb200801978000000060000000600f1
:100938000d71a9003e31ef004431ef009a04020026
:10094800000000008a03020000000000ba0f020045
:10095800000000005c0f020000000000000006001c
:1009680025aeae00000006000f51af0000000600e3
:1009780012f1ae00000006003302ae0000000600cf
:1009880012f1a90025aea900000006000008200009
:1009980001102a0002f02100e03a020000000000e5
:1009a800000006000060fe001231af00fdff3700b6
:1009b8000000060000000600019821002000200029
:1009c80080187800b0ca2a008018780001982100a1
:1009d80012050200000000000198210020002000fc
:1009e80080187800c0ba2a00801878000198210081
:1009f800820502000000000001982100200020006c
:100a080080187800d0ba2a00801878000198210050
:100a1800f205020000000000000006003100780026
:100a2800f007b2000000e00001003a0000000600f4
:100a380010ce880081017800d439ef00a000200092
:100a4800c0ce880083007800a0ce800081004000de
:100a58000100a10011007800d419af000080fd004a
:100a6800f00fb2000001780000f0270002017000ca
:100a78000200780000c0fd00000069004202de00ac
:100a8800040068004102de0004006800d019af00cd
:100a980003003700d039af000500370008003700e1
:100aa8000000a7000280a100d839ec00040037003c
:100ab8000000a6000280a100d839ec000000370031
:100ac800d059af00d839ec000201d20001a02200b1
:100ad800a0ce80008100400081004000820878009c
:100ae800d439ec00c239ed00d4ff3a00d639ef0012
:100af800da39ef000f71a800000006003100780015
:100b0800f007b2000000e00001003a000000060013
:100b180010ce880081017800e039ef00a0002000a5
:100b280020cf88008300780000cf8000810040003b
:100b38000100a10011007800e019af000080fd005d
:100b4800f00fb2000001780000f0270002017000e9
:100b58000200780000c0fd00000069004202de00cb
:100b6800040068004102de0004006800dc19af00e0
:100b780003003700dc39af000500370008003700f4
:100b88000000a7000280a100e439ec00040037004f
:100b98000000a6000280a100e439ec000000370044
:100ba800dc59af00e439ec000201d20001b02200a8
:100bb80000cf80008100400081004000820878005a
:100bc800e039ec00c239ed00d4ff3a00e239ef0019
:100bd800e639ef000f91a800000006003100780008
:100be800f007b2000000e00001003a000000060033
:100bf80010ce880081017800ec39ef00a0002000b9
:100c080080cf88008300780060cf8000810040009a
:100c18000100a10011007800ec19af000080fd0070
:100c2800f00fb2000001780000f027000201700008
:100c38000200780000c0fd00000069004202de00ea
:100c4800040068004102de0004006800e819af00f3
:100c580003003700e839af00050037000800370007
:100c68000000a7000280a100f039ec000400370062
:100c78000000a6000280a100f039ec000000370057
:100c8800e859af00f039ec000201d20041a521007b
:100c980060cf800081004000810040008208780019
:100ca800ec39ec00c239ed00d4ff3a00ee39ef0020
:100cb800f239ef001071a80000000600310078003a
:100cc800f007b2000000e00001003a000000060052
:100cd80010ce880081017800fc39ef00a0002000c8
:100ce80000d0880083007800e0cf800081004000b9
:100cf8000100a10011007800fc19af000080fd0080
:100d0800f00fb2000001780000f027000201700027
:100d18000200780000c0fd00000069004202de0009
:100d2800040068004102de0004006800e819af0012
:100d380003003700e839af00050037000800370026
:100d48000000a7000280a100003aec000400370070
:100d58000000a6000280a100003aec000000370065
:100d6800e859af00003aec000201d20041c5210069
:100d7800e0cf8000810040008100400082087800b8
:100d8800fc39ec00c239ed00d4ff3a00fe39ef001f
:100d9800023aef001111a8000000060031007800a7
:100da800f007b2000000e00001003a000000060071
:100db80010ce880081017800c839ef00a00020001b
:100dc80060ce88008300780040ce8000810040001b
:100dd8000100a10011007800c819af000080fd00d3
:100de800f00fb2000001780000f027000201700047
:100df8000200780000c0fd00000069004202de0029
:100e0800040068004102de0004006800c419af0055
:100e180003003700c439af00050037000800370069
:100e28000000a7000280a100cc39ec0004003700c4
:100e38000000a6000280a100cc39ec0000003700b9
:100e4800c459af00cc39ec000201d20041b52100f1
:100e580040ce800081004000810040008208780078
:100e6800c839ec00c239ed00d4ff3a00ca39ef00a6
:100e7800ce39ef0010b1a800000006000d71a900de
:100e8800062b020000000000ca0402000000000057
:100e98003e0f0200000000009c0402000000000059
:100ea8001391a80013b1a8000060fe0009f1af007b
:100eb800250eaa0009f1af00363502000000000037
:100ec80009f1af00de0402000000000084090200fe
:100ed80000000000b4040200000000002213020019
:100ee8000000000036130200000000001212020089
:100ef800000000004812020000000000ca090200b9
:100f0800000000002c2302000000000098270200c7
:100f1800000000001c09020000000000a4070200f5
:100f28000000000002080200000000006008020043
:100f380000000000be08020000000000daff3700d1
:100f48000fd1ae00000006000fd1a900c039ef0094
:100f580090d08000101ae30001003a001b0037000f
:100f6800103aec00f0072000103ab60001a8220061
:100f780080d08000810040000100a10011017800ac
:100f8800101aaf000280fd00f20fb2000198210094
:100f980000ce8000810040000100a100c019af0010
:100fa8000300370082087800c039ec00e8ff3700fa
:100fb800110078000080fd00020070000080fd0034
:100fc80080087800c039ec00e1ff3700c019e20062
:100fd80001003a00000006000098210020928800d5
:100fe800c019f8004812f90000002000109288008b
:100ff8008826020000000000000006001051ae0024
:10100800000006001051a900c039ef0010d180007f
:10101800201ae30001003a001b003700203aec00d8
:10102800f0072000203ab60001c8220000d1800055
:10103800810040000100a10011017800201aaf00d2
:101048000280fd00f20fb2000198210000ce80005e
:10105800810040000100a100c019af000300370063
:1010680082087800c039ec00e8ff370011007800ea
:101078000080fd00020070000080fd0080087800fc
:10108800c039ec00e1ff3700c019e20001003a0066
:10109800000006000098210020928800c019f8007e
:1010a8004812f900100020001092880088260200db
:1010b80000000000000006001091ae0000000600cd
:1010c8001091a900c039ef0090d18000301ae300d8
:1010d80001003a001b003700303aec00f00720000e
:1010e800303ab60041ad210080d180008100400037
:1010f8000100a10011017800301aaf000280fd0044
:10110800f20fb2000198210000ce8000810040005b
:101118000100a100c019af00030037008208780061
:10112800c039ec00e8ff3700110078000080fd00ae
:10113800020070000080fd0080087800c039ec00d3
:10114800e1ff3700c019e20001003a000000060084
:101158000098210020928800c019f8004812f90070
:10116800200020001092880088260200000000005d
:10117800000006001131ae00000006001131a90080
:10118800c039ef0010d28000401ae30001003a0095
:101198001b003700403aec00f0072000403ab60048
:1011a80041cd210000d28000810040000100a10053
:1011b80011017800401aaf000280fd00f20fb20062
:1011c8000198210000ce8000810040000100a100ac
:1011d800c019af000300370082087800c039ec005e
:1011e800e8ff3700110078000080fd000200700061
:1011f8000080fd0080087800c039ec00e1ff37006e
:10120800c019e20001003a00000006000098210021
:1012180020928800c019f8004812f9002000200028
:1012280010928800882602000000000000000600d6
:1012380010f1ae000000060010f1a900c039ef005f
:1012480090d28000501ae30001003a001b003700da
:10125800503aec00f0072000503ab60041bd21009a
:1012680080d28000810040000100a10011017800b7
:10127800501aaf000280fd00f20fb2000198210061
:1012880000ce8000810040000100a100c019af001d
:101298000300370082087800c039ec00e8ff370007
:1012a800110078000080fd00020070000080fd0041
:1012b80080087800c039ec00e1ff3700c019e2006f
:1012c80001003a00000006000098210020928800e2
:1012d800c019f8004812f900300020001092880068
:1012e8008826020000000000000006000000000040
:1012f80000000000000000000000000000000600e0
:1013080000f02f00202eb600928e80002071800001
:1013180002006800f00fb20024aeb60015cea90096
:101328007a0902000000000015cea800928e800005
:101338000280fd002071800002006800f00fb200fa
:1013480024aeb60004eea9007a09020000000000ed
:1013580004eea800f00f2000202eb7007a09020042
:1013680000000000054ea9007a09020000000000f4
:10137800f00f2000d031b60010718000f00fb200dd
:10138800d031b700054ea800000006009e11e2000b
:1013980002003200f08c800080868800a011e200f4
:1013a80002003200008d800090868800a211e200c1
:1013b80002003200108d8000a0868800a411e2008f
:1013c80002003200208d8000b0868800d010e20034
:1013d800030032008a0d0200000000000f003700f1
:1013e800d210e200030032000e0e020000000000de
:1013f8000a003700d410e200030032006a0e02002f
:101408000000000005003700d610e200030032009b
:10141800e60e020000000000000037009e31ef00d9
:10142800a031ef00a231ef00a431ef000000060068
:101438000100a7000600370031007800308d8800d1
:1014480031007800f00fb200408d88000a003700a4
:101458000100a100310078004800de00308d8800ce
:10146800110078004800dd00a631b40011007800b2
:101478004800de00408d88004200a900a6b1d600d1
:10148800a8b1d6004200a900a6b1d600a8b1d600de
:1014980000000600a611f800a811f80001c02200fb
:1014a800c02d02000000000003c0220033007800b5
:1014b800f01fb2003093880000002400709288006a
:1014c80080868000809288005232ef005432ef000c
:1014d8005632ef0023c0220016310200000000003f
:1014e800a811f900a611f90000082000a82d020093
:1014f8000000000001c02200908680003000b20089
:101508000006010006003700080037000a0037000f
:101518001000370000000000000000000000060076
:10152800120502000000000000000600820502000b
:101538000000000000000600811f7800f20502008c
:1015480000000000cf0078006206020000000000e2
:1015580000000600d206020000000000000006009d
:101568000d31a900d030ef00811421008086800061
:10157800810040008100400011007800f00fb200a7
:10158800050032000000e9007212e30002003a0090
:101598000d31a80000000600d030ec00b00020009b
:1015a800d010e300f0ff39007212f8007012f90051
:1015b800000006000d31a900808680006700e10068
:1015c800250032006800e100270032007212f8009e
:1015d8007012f9000cd1ae00020037000d31a800de
:1015e800000006006900e100120032006a00e10014
:1015f800160032008114210080868000810040009e
:1016080081004000110078000080fd007000b200e9
:10161800208a88007432ef005c0f0200000000008e
:101628000d31a800000006000011e200040032009d
:10163800060037000011e20001003a000000060031
:10164800740d020000000000000006006c0d02008e
:101658000000000000000600f60c02000000000078
:101668000d31a800000006004c0d0200000000002b
:101678000d31a80000000600f001200080928800cb
:101688000c11a800da310200000000000c11a900ba
:1016980000352c00fe3402000000000000000600a7
:1016a80000002000e410e30002003a0000802f0050
:1016b8008092880010002000e410e30002003a0045
:1016c800007e20008092880020002000e410e300c3
:1016d80002003a00000020008092880000002200ea
:1016e800709288000c11a800da3102000000000096
:1016f8000c11a9003231ef003431ef000000060070
:10170800e430ec0040002000e410e3000100390060
:10171800e430ef00f00120008092880000002000f3
:10172800e410e30002003a0000802f008092880055
:1017380010002000e410e30002003a00007e2000c0
:101748008092880020002000e410e30002003a00a4
:10175800000020008092880000002200709288001b
:101768000c11a800da310200000000000c11a900d9
:101778003231ef003431ef00000006005000200045
:10178800d088880000002000f08888001c31ef0015
:101798000000060060002000d088880000002000bb
:1017a800f08888001c31ef0000000600300022009d
:1017b800709288000c11a800da31020000000000c5
:1017c8000c11a900000006009e11e20001003a0079
:1017d8000000060000002000809288000600370004
:1017e800a011e20001003a000000060010002000ed
:1017f8008092880000003700600022007092880004
:1018080090938000508b88000c11a800c231020010
:10181800000000000c11a90000000600709288006a
:101828000c11a800da310200000000000c11a90018
:101838000000060040002200709288003411f80071
:101848005012f9003211f8005212f90090938000fa
:10185800508b88000c11a800c23102000000000063
:101868000c11a900000006005000220070928800a8
:101878003411f8005012f9003211f8005212f90030
:101888009089800000c0fd003411b4000001780088
:101898000280fd000000710003c022002d00090035
:1018a8008019780003c02200c0052000309388000a
:1018b8000c11a80016310200000000000c11a9004c
:1018c8000000060040002200709288003411f800e1
:1018d8005012f9003211f8005212f900900020005d
:1018e800508b88000c11a800c231020000000000d3
:1018f8000c11a9003431ec00800020003411e30001
:1019080001003100000006003431ef003231ec00f4
:10191800700020003211e3000100310000000600d1
:101928003231ef000000060050002200709288005b
:101938003411f8007212f9003211f8004411f9005c
:101948005c0f0200000000003431ec008000200031
:101958003411e30001003100000006003431ef00cb
:101968003231ec00700020003211e3000100310038
:10197800000006003231ef0000000600e0022000ff
:10198800b08b8800e0002000d0888800800c200000
:10199800f08888001c31ef0000000600a00022003b
:1019a8007092880080938000508b88000c11a800ea
:1019b800c2310200000000000c11a900000006005e
:1019c800b00022007092880080938000508b8800bd
:1019d8000c11a800c2310200000000000c11a9007f
:1019e800000006000cd1af00ecff37000431ec001a
:1019f800500020000411e300010039000431ef0019
:101a08000700370070002200709288000c11a800af
:101a1800da310200000000000c11a90000000600e5
:101a280090002200709288002088800080928800b0
:101a38000c11a800da310200000000000c11a90006
:101a4800d60402000000000000000600e0002200aa
:101a580070928800c08b8000809288000c11a800ca
:101a6800da310200000000000c11a9000000060095
:101a780020012000440d02000000000000000600c4
:101a8800d08888001c31ef001e31ef0000000600ee
:101a98000cd1af00caff37000431ed005000200020
:101aa8000411e3004000200001003900208888006c
:101ab800dbff370080002200709288000c11a8001c
:101ac800da310200000000000c11a9000000060035
:101ad8000d71a9000cd1a9000031ef0007003700f3
:101ae8000cd1a9000031ec00700020000011e300c7
:101af800020039001000200000888800008880005b
:101b0800962402000000000000000600d030ed001e
:101b18008086800090938800e80b02000000000097
:101b2800c40e02000000000001c02200110178006c
:101b3800b0da2c000010e1000100320000000600bd
:101b480021c02200110278000480fd0004c0fd00bd
:101b58003400b20016003200110078000080fd0049
:101b6800f000b200120020000011dd006120e10049
:101b7800050032006220e100060032006320e10027
:101b8800070032000a00370002007800d2b1b60020
:101b98000700370002007800d231b7000400370090
:101ba800f0ff2f0000006900d231b60000003700b6
:101bb80021c0220011007800f00fb2008086880052
:101bc800110078004e00de003000b20090868800d8
:101bd80041c022001c0a020000000000308d800075
:101be800a811b700030032004e0a020000000000ee
:101bf80000000600000000000000000000000000d7
:101c0800000000000000060030250200000000006f
:101c180000000600d230ed00908680009093880086
:101c28000d71ae00050037007212e20003003a00a1
:101c38001e0b02000000000000000600b40a0200ab
:101c480000000000d010f8007212f8000d31af004b
:101c5800de0a0200000000007212f900d010f9003c
:101c6800f40b020000000000c40e02000000000097
:101c780001c0220011017800b0da2c000010e10048
:101c8800010032000000060021c022001100780087
:101c9800f00fb20080868800110078004e00de0048
:101ca8003000b2009086880071c022001c0a020031
:101cb80000000000308d8000a811b700020032003b
:101cc8004e0a02000000000000000600d430ed00bb
:101cd800a0868000909388007212f8007012f900b4
:101ce800b40a0200000000000d31ae000b003700fe
:101cf800808680006900e1004bfe32006a00e10046
:101d080006003a000cd1a9000031ef0020012000a4
:101d1800440d02000000000000000600c40e02008e
:101d28000000000001c0220011017800d0bc2a0088
:101d38000010e100010032000000060021c022006e
:101d480011007800f00fb20080868800110078003a
:101d58004e00de003000b20090868800a1c022004c
:101d68001c0a020000000000308d8000a811b70096
:101d7800020032004e0a02000000000000000600c7
:101d8800000022004411bc00328d8800438d880079
:101d980000122100a631b40000002000a8b1b40050
:101da800000420007212bc0002007800a631b400c2
:101db80003007800a8b1b400ba2d020000000000aa
:101dc8000000060010002000d610e30004003a00ce
:101dd8000d71a800180b02000000000000000600aa
:101de80020002000d610e3000b003a000d71ae0071
:101df80000000600300020000011e30006003a0051
:101e08000c11a900c030020000000000180b0200ed
:101e180000000000000006000000060000000600a8
:101e2800808680000000e90040938800120f0200bd
:101e380000000000000006006a32ec0000022000ea
:101e48006a12e300010039006a32ef000000060060
:101e58000000060000000600ba0f020000000000a3
:101e68005c0f0200000000000000060000000600f1
:101e7800000006007212f8007232ef00a80f02008c
:101e88000000000002ff2f00110078000000610030
:101e9800800878008180e8007232ec00c0052000dc
:101ea8007212e300f7ff39007212f9000000060011
:101eb8007212f8007232ef00a80f02000000000052
:101ec80003c0220031007800f000b200228a8000ae
:101ed80002c0fd00020170000300a70003003700e4
:101ee800820978008301e800050037000300a1009b
:101ef800130078000280fd0000007100801978004e
:101f08007232ec00c00520007212e300edff3900c8
:101f1800500022007092880020888000f00fb200e4
:101f28008092880003c02200c005200030938800fa
:101f38000c11a80016310200000000000c11a900c5
:101f48007212f9000000060081302100c00520004f
:101f58004100dd004411bc008100410090938000e5
:101f68004100dd0081004000000006004431ef0020
:101f78007232ef00c40e02000000000000002000d2
:101f880000988800b0da2c0001c022001101780006
:101f98000010e10003003200f000200000988800e3
:101fa800410037000093a80021c0220011017800e9
:101fb8000200a70000b3a80002e0a70000d3a80011
:101fc80002f0a70000f3a800d1c022001c0a0200fa
:101fd80000000000308d8000a811b7004220ae003c
:101fe8000113a80001c122001c0a02000000000021
:101ff800308d8000a811b7004220ae000133a80040
:1020080031c122001c0a020000000000308d80004f
:10201800a811b7004220ae000153a80061c12200f8
:102028001c0a020000000000308d8000a811b700d3
:102038004220ae000173a80091c122001c0a0200d0
:1020480000000000308d8000a811b7004220ae00cb
:102058000193a800c1c122001c0a02000000000070
:10206800308d8000a811b7004220ae0001b3a8004f
:10207800f1c122001c0a020000000000308d80001f
:10208800a811b7004220ae0001d3a80021c2220047
:102098001c0a020000000000308d8000a811b70063
:1020a8004220ae0001f3a800a80f020000000000c3
:1020b80000988000801878007232ec00c00520007b
:1020c8007212e300abff39007232ef004431ec00ca
:1020d800700020004411e300a6ff39004431ef00ee
:1020e8000000060000002300709288000c11a80070
:1020f800da310200000000000c11a90000000600ff
:1021080011002300709288000c11a800da31020037
:10211800000000000c11a9000000060022002300a6
:10212800709288000c11a800da310200000000004b
:102138000c11a900000006003300230070928800eb
:102148000c11a800da310200000000000c11a900ef
:102158000000060000000600000006003222af0062
:102168003222a9002222af002222a9000000060084
:102178007c31ef00f08b80008011b7008211b7002e
:102188008411b7008611b7008811b7008a11b7000b
:102198008c11b700f2ff2000020060000000e00090
:1021a80001003a00000006000001eb00e1172100e1
:1021b8008100410081004100110078000000e0002a
:1021c80004003a000201e8006810e100f7ff390056
:1021d80000000600800078000002eb0010002000dc
:1021e8000400dd000100600005003a000402e80078
:1021f800c00020000020e100f8ff390000000600c0
:10220800c00020000201b800040041000000e800fe
:102218001a11020000000000e08b88000000000096
:102228000000000000000000000006000006010099
:1022380000000500d0010500d0020500d00305000c
:10224800d0040500e0010500e0020500e0030500f8
:10225800e0040500f0010500f0020500f0030500a8
:10226800f004050000020500000305000004050055
:102278000005050010020500100305001004050004
:1022880010050500200205002003050020040500b4
:102298002005050030020500300305003004050064
:1022a8003005050040020500400305004004050014
:1022b80040050500500205005003050050040500c4
:1022c8005005050060020500600305006004050074
:1022d8006005050070020500700305007004050024
:1022e80070050500800205008003050080040500d4
:1022f8008005050090020500900305009004050084
:1023080090050500a0020500a0030500a004050033
:10231800a0050500b0020500b0030500b0040500e3
:1023280000000500b0050500c0020500c003050057
:10233800c0040500c00505001000050020000500c8
:102348003000050040000500500005006000050051
:1023580000000500700005008000050090000500e1
:10236800a0000500b0000500c0000500d000050071
:10237800e0000500f000050000010500100105005f
:10238800000005002001050030010500400105009e
:10239800500105006001050070010500800105007d
:1023a80090010500a0010500b0010500c00105006d
:1023b80002718000f0ff2f00004178000271880050
:1023c8000000060002718000000020000041780033
:1023d80002718800000006000000000000000000f4
:1023e80000000000000000000000000000000000e5
:1023f80000000000000000000000000000000000d5
:1024080000000000000000000000000000000000c4
:10241800000000000000000000000600d0bc2a00f8
:10242800f010e3000100320000000600f030ef0079
:1024380090878000e08b88000cf1a800000006005f
:102448000cf1ae000000060000000600e08b8000e2
:102458000080fd00f00fb20001003200000006000d
:1024680001f02100e08b8000f007b2004100dd00a0
:1024780081004000c08b80000080fd007c11b70007
:102488008008780000000600d030ef00d230ef005e
:10249800d430ef00d630ef000f31af00e8ff37003f
:1024a8000cf1ae00000006000cf1a900e08b8000e2
:1024b80001102a00e08b8000f007b2004100dd0027
:1024c800810040003101ba000280fd00f20fb20025
:1024d800c00520000010e1000100390000000600de
:1024e8000201e800e08b80000080fd003000b200af
:1024f8000006010003003700050037000800370018
:102508000a0037000ff1a900828688000000060043
:102518000ff1af0000000600928688000000060058
:102528000ff1a800a286880000000600b286880085
:1025380000000600d030ef00d230ef00d430ef00ba
:10254800d630ef000971ae0000000600bc10020092
:10255800000000007c11e20011003a009431ec0008
:10256800400020009411e3004200ae000000060085
:102578000e31a800708c80000e51ae009086880045
:102588000e51a9000e11a9000e71a9008e31ef009d
:102598009031ef009231ef009631ef000000060015
:1025a8009431ef00808c80007c11e300050032003c
:1025b8009231ef009631ef00e08b8000808c88002c
:1025c800000006009231ec00200020009211e30088
:1025d8004200ae00000006000e71af000700370091
:1025e800e08b8000708c8800808688000e71a800bf
:1025f8000e31a9009231ed00000006009631ec0082
:10260800a00f20009611e3004220ae00040037001e
:10261800e08b8000a08688000e51a800000006000c
:10262800401f20009611e3004220ae000000060083
:10263800e08b8000b0868800000006000831ef00bb
:10264800300880000691b6004220af000000060066
:10265800408888000a31b70006b1b6000060fe0065
:10266800000006000911ae0000000600f0ff2f0070
:102678004012e300090032004032ec004000200024
:102688004012e30005003a000f51ae000300370086
:102698008e320200000000000f51a9001a11e2005a
:1026a80017003200d08880000006010014003700af
:1026b800140037004805370016063700780537003c
:1026c800aa053700860537008e0537000f0037004a
:1026d8005e013700ff003700d0003700b700370031
:1026e800510037009505370062003700a000370019
:1026f8000b0037003100370000000600000006001c
:10270800000006001a31ef0000000600100020004b
:10271800d08888005c0f020000000000000006005e
:102728001e11e200020032001e31ed00000006001a
:10273800803e2000f0888800e088800000060100c4
:10274800020037000a003700120037000198210004
:1027580000182200800878002000200010ce880091
:1027680012050200000000001c31ec000000060009
:10277800019821000018230080087800200020001c
:1027880010ce880012050200000000001c31ec0089
:102798000000060001982100000821008008780048
:1027a8002000200010ce8800120502000000000062
:1027b8001a31ef001c31ef00000006001e11e20084
:1027c800020032001e31ed0000000600e0888000a3
:1027d80000060100010037000a003700f00022005f
:1027e800709288000c11a800da3102000000000085
:1027f8000c11a900007d2000f08888001c31ec0035
:1028080000000600ca040200000000003e0f02009b
:10281800000000009c040200000000001a31ef00d4
:102828001c31ef00000006001e11e2000200320019
:102838001e31ed0000000600e0888000000601005f
:10284800010037000a003700c0002200709288009b
:102858000c11a800da310200000000000c11a900d8
:102868001c31ec00a0002000f08888000000060061
:10287800000006001e11e200020032001e31ed00c9
:1028880000000600e0888000000601000100370013
:102898000a003700d0002200709288000c11a800ae
:1028a800da310200000000000c11a9001c31ec0014
:1028b800a0002000f0888800000006000000060044
:1028c8001e11e200020032001e31ed000000060079
:1028d800e08880000006010001003700080037008a
:1028e800000020009089880000002000a08988004e
:1028f800f0032000909388001c31ec0000000600d3
:102908000000000000000000000000003431ec006e
:10291800800020003411e300060039003431ef0054
:102928003231ec00700020003211e3000100390060
:102938003231ef00803e2000f088880040002200fd
:10294800709288003411f8005012f9003211f80022
:102958005212f90090938000508b88000c11a80047
:10296800c2310200000000000c11a900000006009e
:102978001e11e200020032001e31ed0000000600c8
:10298800803e2000f0888800e08880000006010072
:1029980001003700070037003000220070928800dd
:1029a8000c11a800da310200000000000c11a90087
:1029b8000000060000000600000006001e11e200ec
:1029c800020032001e31ed0000000600e0888000a1
:1029d80000060100010037000f0037006171210077
:1029e800f0ff2f00f093880000022000c0938800b9
:1029f80080012000d09388000f11a80096170200cc
:102a0800000000000f11a9001c31ec00a0002000fc
:102a1800f088880000000600000006001e11e20091
:102a2800020032001e31ed0000000600e088800040
:102a380000060100020037000600370011003700c9
:102a48000231ef00a0002000f08888001c31ec0063
:102a5800000006000000200080928800000022008c
:102a6800709288000c11a800da3102000000000002
:102a78000c11a9001c31ec0040062000f0888800e9
:102a880000000600f001200080928800000022006b
:102a9800709288000211f8006a11f9000c11a80060
:102aa800c2310200000000000c11a9000231ec0044
:102ab800c00520000211e300010039000231ef00d7
:102ac80010002000e0888800401f2000f08888005f
:102ad800000006001e11e200020032001e31ed0067
:102ae80000000600e0888000000601000b003700a7
:102af80016003700180037001a0037001c0037008e
:102b08001e0037002000370022003700240037005d
:102b18003a003700010037000c00370000002000a1
:102b28008092880000002200709288000c11a80092
:102b3800da310200000000000c11a9001c31ec0081
:102b480040062000f088880000000600f0ff2f00f3
:102b5800f09388001400370000802f00f09388005d
:102b680011003700007e2000f09388000e00370027
:102b7800f0012000f09388000b003700f07f200060
:102b8800f09388000800370000fe2f00f0938800bb
:102b98000500370040442400f09388000200370005
:102ba800c0cc2c00f0938800417021000000200068
:102bb800c093880000002000d09388001c31ed00ed
:102bc800000120001c11bc00d29388001c31ec00cd
:102bd80096170200000000000231ec00c00520003a
:102be8000211e300010039000231ef001c31ec0052
:102bf80040062000f0888800000006001c31ef0025
:102c0800401f2000f0888800000006001e11e20026
:102c1800020032001e31ed0000000600803e200058
:102c2800f0888800e088800000060100bbff3700bc
:102c380030002200709288000c11a800da310200de
:102c4800000000000c11a900000006001e11e2009f
:102c5800020032001e31ed0000000600803e200018
:102c6800f0888800e0888000000601000400370032
:102c78000d003700160037001f0037002800370006
:102c8800f0012000809288000000220070928800e5
:102c98000c11a800da310200000000000c11a90094
:102ca8001c31ec0000000600007e200080928800a5
:102cb80000002200709288000c11a800da3102008e
:102cc800000000000c11a9001c31ec0000000600f7
:102cd80000802f00809288000000220070928800f7
:102ce8000c11a800da310200000000000c11a90044
:102cf8001c31ec0000000600f0ff2f0080928800d5
:102d080000002200709288000c11a800da3102003d
:102d1800000000000c11a9001c31ec0000000600a6
:102d28000000200080928800000022007092880035
:102d38000c11a800da310200000000000c11a900f3
:102d480000002000e0888800000006006632ef00de
:102d5800d0bc2a00f416020000000000c0938000d6
:102d6800de16020000000000d0938000de1602008c
:102d780000000000f0938000f4160200000000003c
:102d88001100ba000100a7000080fd00f00fb2009a
:102d980004003200de160200000000008100e80096
:102da800f7ff37008100e800de160200000000008f
:102db80000000600f00fb2006612af0003003700f3
:102dc800800978006632ec00000006000080fd00f3
:102dd800930970006632ec008381e8000000060069
:102de800801f7800de160200000000004f00780007
:102df8000080fd00de160200000000000000060052
:102e0800303100003233000034350000363700001e
:102e180038390000414200004344000045460000a4
:102e2800000000004b650000792000005465000098
:102e38007374000000000000457200006173000018
:102e480065200000466c0000617300006800000007
:102e5800507200006f670000726100006d20000072
:102e6800466c0000617300006800000053650000b4
:102e780074200000466c00006173000068000000c8
:102e880054450000535400002e2e00002e00000070
:102e98004f4b0000000000004552000052000000a7
:102ea8000ef1ae00100037000002eb00818c21000b
:102eb8008100420081004200110078000200e10018
:102ec80007003a000402e800c005200010002000b6
:102ed8000020e100f5ff39000d51a80000000600b0
:102ee8000d51a9000000060080898000818c210016
:102ef8008100400081004000110078000200e100dc
:102f080002003a000d51a800000006000d51a9006a
:102f180000000600818c21005b0009008018eb008e
:102f2800000006000ef1a800010037000ef1a9000c
:102f380003c02200aa1602000000000010002200b0
:102f48000f11ae0020002200709288000c11a8001a
:102f580003c022000ef1af00060037003011f80060
:102f68006a11f90006310200000000000c11a900e6
:102f78000000060016310200000000000c11a90034
:102f8800000006000d31a9000d11a9002a11e20068
:102f9800020032002a31ed0000000600408980005e
:102fa800000601000200370010003700210037003a
:102fb80001722100f0ff2f00f0938800000020002c
:102fc800c093880000002000d09388000f11a8004b
:102fd8009c170200000000000f11a9002831ec0026
:102fe800a000200050898800000006004000210051
:102ff800709288000c11a8000ef1ae00c2310200d8
:10300800000000000ef1af00da31020000000000fd
:103018000c11a900818c21005b0009008018eb00cd
:103028002831ec002c31ef00800c200050898800fa
:10303800000006002c31ec00803e20002c11e3003b
:10304800030039002631ef000d11a800000006002a
:103058002200200054170200000000000d51af00ac
:103068000b003700500021007092880000002000fb
:10307800809288000c11a800c231020000000000f4
:103088000c11a900a000200050898800000006004b
:103098000d31a800000006000d31a9000d11a9008e
:1030a8002a11e200020032002a31ed000000060079
:1030b8004089800000060100040037001500370031
:1030c8005e0037007a00370086003700c1722100a1
:1030d800f0ff2f00f093880000002000c0938800c4
:1030e80000002000d09388000f11a8009c17020050
:1030f800000000000f11a9002831ec00a0002000fa
:10310800508988003231ef003431ef003631ef005a
:10311800000006003611e20003003a00000000003b
:103128000000000000000000da1b020000000000a0
:103138000d51af000f0037003631ef003431ec008d
:10314800800020003411e300f2ff39003431ef0031
:103158003231ec00700020003211e300edff39003d
:103168003000200040898800a00020005089880095
:1031780000000600908980000080fd003411b7002f
:10318800809288003611f8005212f9003811f800c0
:103198005412f90070002100709288000c11a800e8
:1031a80003c022003011f8006a11f9000010200055
:1031b800309388000c11a8000631020000000000be
:1031c8000c11a9003631ec00c08980003611e300eb
:1031d800100039003631ef003431ec008000200057
:1031e8003411e3000b0039003431ef003231ec00c8
:1031f800700020003211e300060039003231ef0080
:103208003000200040898800a000200050898800f4
:10321800000006002831ec0040002000508988009a
:103228002c31ef0080898000818c210081004000d2
:10323800810040008008eb00000006002c31ec0003
:10324800400620002c11e3000c003100808980002a
:10325800818c21008100400081004000110078002d
:103268006100e100090032006200e1000b00320059
:103278004000200050898800000006000d11a800b9
:103288004000200040898800000006000d11a800b9
:10329800400020004089880000000600100020003f
:1032a80040898800a000200050898800000006009e
:1032b8003011f8006a11f90080002100709288002e
:1032c8000c11a800c2310200000000000c11a90076
:1032d8002631ec00a0002000508988000d31a8009c
:1032e800000006000000060080898000818c210013
:1032f80081004000810040008008eb0000000600cb
:1033080080898000818c210081004000810040007c
:1033180011007800000006000d31a9000d11a90068
:103328002a11e200020032002a31ed0000000600f6
:1033380040898000000601000a0037001d003700a0
:103348002b00370058003700640037007000370042
:103358008d0037009c003700e20037000401370079
:10336800110137003011f8006a11f900a17321002a
:10337800f0ff2f00f093880000002000c093880021
:1033880000002000d09388000f11a8009c170200ad
:10339800000000000f11a9002831ec00c000200037
:1033a800508988003231ef003431ef003631ef00b8
:1033b800000006003011f8006a11f90090002100a1
:1033c800709288000c11a800c231020000000000b1
:1033d8000c11a9002831ec00400020005089880019
:1033e80078190200000000002c31ef0000000600f0
:1033f80040062000508988002c31ec00a0002000f5
:103408002c11e3001a0031008419020000000000aa
:103418006200e1000100320000000600301c0200da
:10342800000000000e003a00c1742100007f200057
:10343800f093880000072000c09388000000200057
:10344800d09388000f11a9009c170200000000000b
:10345800a0002000408988000d31a8000000060067
:103468002831ec0040002000508988000000060048
:1034780001752100f0012000f093880080062000eb
:10348800c093880000002000d09388000f11a90085
:103498009c17020000000000a0002000408988005e
:1034a8000d11a8000000060001722100f0ff2f0096
:1034b800f093880000002000c093880000012000dd
:1034c800d09388009c170200000000002831ec000f
:1034d80040012000508988000000060040002100bb
:1034e800709288000c11a800c23102000000000090
:1034f8000c11a90078190200000000002831ec0026
:103508002c31ef004001200050898800000006009f
:103518002c31ec00803e20002c11e300050039001e
:103528002631ef0040012000408988000d11a800d5
:1035380000000600220020005417020000000000ce
:103548000d51af000b003700500021007092880029
:1035580000002000809288000c11a800c2310200ef
:10356800000000000c11a900a0002000508988006c
:10357800000006002831ec002c31ef00400120004b
:103588005089880000000600c1722100f0ff2f005a
:10359800f093880000002000c093880000022000fb
:1035a800d09388009c170200000000002831ec002e
:1035b800a0002000508988003231ef003431ef003c
:1035c8003631ef00000006003611e20003003a0031
:1035d800000000000000000000000000da1b0200ec
:1035e800000000000d51af000f0037003631ef002a
:1035f8003431ec00800020003411e300f2ff390080
:103608003431ef003231ec00700020003211e30059
:10361800edff39009000200040898800a0002000bc
:103628005089880000000600908980000080fd0015
:103638003411b700809288003611f8005212f90050
:103648003811f8005412f9007000210070928800b7
:103658000c11a80003c022003011f8006a11f9000b
:1036680000102000309388000c11a80006310200d9
:10367800000000000c11a9003631ec00c089800060
:103688003611e300100039003631ef003431ec0018
:10369800800020003411e3000b0039003431ef00c2
:1036a8003231ec00700020003211e30006003900ce
:1036b8003231ef009000200040898800a0002000ef
:1036c80050898800000006002831ec0040002000e6
:1036d800508988002c31ef007819020000000000a2
:1036e800000006002c31ec00400620002c11e300fd
:1036f8000c00310080898000818c2100810040000d
:1037080081004000110078006100e10005003200ee
:103718006200e1001100320040002000508988005a
:103728000000060001752100f0012000f0938800d8
:1037380080062000c093880000022000d0938800f3
:103748000f11a9009c17020000000000a000200033
:10375800408988000d11a8000000060070002000b4
:1037680040898800a00020005089880000000600d9
:103778003011f8006a11f900800021007092880069
:103788000c11a800c2310200000000000c11a900b1
:103798002631ec00a0002000508988000d31a800d7
:1037a8002831ec0000000600000006000d51a800ba
:1037b8003611e2001d003a009089800000002200c6
:1037c8003211bc00328d8800438d8800000420002f
:1037d8003011bc0002007800a631b4000300780064
:1037e800a8b1b40000122100a631b40000002000e6
:1037f800a8b1b400ba2d02000000000001c02200e8
:1038080011007800b2da2c000200e1000200320058
:103818000d51a90000000600ec1c02000000000089
:103828000e91af000d51a90000000600aa11f80082
:10383800a611f900ac11f800a811f900c02d02007a
:1038480000000000a611f800aa11f900a811f8005c
:10385800ac11f900000006003231ef003431ef00fe
:1038680090898000000022003211bc00328d88004f
:10387800438d8800000420003011bc00020078004d
:10388800a631b40003007800a8b1b40000122100ea
:10389800a631b40000002000a8b1b400ba2d02007f
:1038a8000000000001c0220011007800b2da2c00ec
:1038b8000200e1000a003a00ec1c020000000000cf
:1038c8000e91af0006003700c1c022003100780019
:1038d80080868800310078009086880014003700c0
:1038e800000220003211bc00a08980004200dd00e7
:1038f8000201400023928000a300b0008301410030
:1039080033007800000278003300780080027800e5
:103918000500720015003200b0fa2f000400e10023
:103928001e003a000500e1001c003a000f003700b5
:10393800000220003211bc00a08980004200dd0096
:103948000201400023928000a300b00083014100df
:1039580033007800d010e30010003a0033007800fc
:10396800d210e3000d003a00000000003431ec00f2
:10397800800020003411e300b9ff39003431ef0032
:103988003231ec00300020003211e300b4ff39007e
:103998003231ef004220a800000006004220a900b2
:1039a80000000600a08980007000b2000006010037
:1039b8005002050080020500b0020500e002050083
:1039c800100305004003050070030500a00305006f
:1039d8000e91a900d61c02000000000001c02200c0
:1039e80081004000ce1d020000000000308d8800dc
:1039f800b61d020000000000408d8800308d800058
:103a0800a811b70002003a000e91a80000000600b5
:103a18004200a900a6b1d600a8b1d6004200a9006c
:103a2800a6b1d600a8b1d600c02d02000000000043
:103a3800a611f800aa11f900a811f800ac11f900b4
:103a480001c0220011007800b2da2c000010e10059
:103a5800020032000e91a8000000060041c02200ba
:103a6800ce1d0200000000000001780003002000c5
:103a7800f00fb2004220ae001300200002007800d0
:103a88000080fd00f00fb20003004000c0898800ec
:103a9800000006000e91a9003611e20028003a0045
:103aa800d61c02000000000001c022008100400076
:103ab800ce1d020000000000308d8800b61d0200f7
:103ac80000000000408d88004200a900a6b1d60081
:103ad800a8b1d6004200a900a6b1d600a8b1d60068
:103ae800c02d02000000000001c022001100780073
:103af800b2da2c000010e100020032000e91a8009a
:103b08000000060041c02200ce1d02000000000097
:103b18000001780003002000f00fb2004220ae0040
:103b280013002000020078000080fd00f00fb200b2
:103b380003004000c08988003631ec000000060010
:103b4800c02d0200000000003631ec00c089800062
:103b58003611e30001003100000006000e91a800b4
:103b6800000006000100a7000400370011007800db
:103b7800f00fb2008100e800000006000100a1007b
:103b8800110078000080fd00f00fb2008180e8008d
:103b980000000600b61d020000000000801f78002b
:103ba800b61d0200000000000080fd004f017800f3
:103bb800020070000000060001c022001000200072
:103bc80002082000801878001010b0000201e900f7
:103bd800fcff3a00000006001e11e200020032005d
:103be8001e31ed000000060000012000f08888006a
:103bf800e08880000006010002003700120037004c
:103c0800220037001211af00000006005032ef000a
:103c180052b2ef00c62e0200000000001411ae00e0
:103c280003003700dc30020000000000000006003e
:103c3800d6300200000000007430020000000000ce
:103c48001c31ec00000006005032ec00d0ac200023
:103c58000051210090928800c62e0200000000004a
:103c68001411ae0003003700dc3002000000000031
:103c7800000006000000000000000000e83002001c
:103c8800000000001c31ec000000060010002000bd
:103c9800d08888001e31ef001c31ef0000000600bc
:103ca8000ef1a9000eb1a8000ed1a9000000200055
:103cb800208988004100370080052000b08b8800eb
:103cc8004c12f8007611f9000ef1a9000eb1a90006
:103cd8000ed1a80000002000208988003700370096
:103ce800f0ff2f004c12e300f5ff3a000ef1a80098
:103cf8000eb1a9000ed1a90000002000208988007b
:103d08002e003700f0ff2f004c12e30003003200b2
:103d18004c12f8007611f900080037000ef1a900de
:103d28000eb1a8000ed1a90020002000208988002b
:103d380022003700c0012000b08b88000ef1a900d6
:103d48000eb1a9000ed1a80020002000208988000b
:103d58001a0037000ef1a8000eb1a9000ed1a90073
:103d68002000200020898800140037000ef1a900e7
:103d78000eb1a8000ed1a9001000200020898800eb
:103d88000e00370080052000b08b88000ef1a900d6
:103d98000eb1a9000ed1a8001000200020898800cb
:103da800060037000ef1a8000eb1a9000ed1a90037
:103db8001000200020898800000037001211af0091
:103dc800000006001e11e200020032001e31ed0064
:103dd80000000600e08880000006010002003700ad
:103de8000b003700160037007611f8005012f90062
:103df800c005200090928800d63002000000000024
:103e08001c31ec00000a2000f08888000000060041
:103e18007611f8005012f900c00520009092880031
:103e2800dc300200000000001c31ec00000a200019
:103e3800f08888002a31ef002831ef0000000600e2
:103e48007611f8003011f900000020002411e30079
:103e580002003a00c617020000000000100020000f
:103e68002411e30002003a0050180200000000008c
:103e7800200020002411e30002003a0090190200fb
:103e8800000000000eb1af00050037000d11af00b3
:103e9800190037000d31af00100037000000060090
:103ea8000d11af00030037000d31af0001003700de
:103eb8000000060010002000e0888800c0122000e2
:103ec800f08888007631ec00c00520007611e30008
:103ed800010031000000060000003700e830020051
:103ee8000000000010002000d08888001e31ef007c
:103ef8001c31ef0000000600e23002000000000064
:103f080010002000d08888001e31ef001c31ef001f
:103f1800000006001211af00000006001e11e200aa
:103f2800020032001e31ed000000060000012000f2
:103f3800f0888800e0888000000601000300370050
:103f48000c0037001f00370025003700a831ef00ac
:103f5800a811f8005012f90000102000c005200038
:103f680090928800d6300200000000001c31ec005e
:103f780000000600302d0200000000000d11ae0008
:103f8800020037001c31ec0000000600a811f80000
:103f98005012f9000010200090928800dc300200d6
:103fa80000000000a831ec0000102000a811e30078
:103fb80001003100000006001c31ec001c31ec004f
:103fc80000000600e230020000000000100020009f
:103fd800d08888001e31ef001c31ef000000060079
:103fe800e83002000000000010002000d08888009f
:103ff8001e31ef001c31ef0000000600200a80008f
:10400800200a8000200a8000200a80000028a900d9
:1040180020402000000a880040c8a80040a8a90045
:104028004088a9002028a80000000600600a800037
:10403800600a8000600a8000600a800000a8a90069
:1040480020402000400a880040c8a80040a8a900d5
:104058004088a90020a8a80000000600a00a800047
:10406800a00a8000a00a8000a00a800004a8a90075
:1040780020402000800a880052c8a80052a8a90041
:104088005288a90024a8a80000000600e00a8000c1
:10409800e00a8000e00a8000e00a800004c8a90065
:1040a80020402000c00a88005348a8005328a900cf
:1040b8005308a90024c8a800000006000040a70073
:1040c800030037000030a70004003700060037005f
:1040d80000002a00d20b20000000060000002a0081
:1040e800a21720000000060000002a00128e2000ff
:1040f800000006000021ef0080ce80006220020050
:1041080000000000200888001208880041c8a800a4
:1041180041a8a9004188a8000068a9002068a80053
:10412800000006000a21ef00e0ce800062200200b5
:104138000000000090088800720888004448a80021
:104148004428a9004408a8000108a9002108a800db
:104158000000060000032a0080088800000006000e
:104168001421ef0040cf8000622002000000000010
:10417800f0088800d20888004dc8a8004da8a900fa
:104188004d88a8000368a9002368a800000006005d
:104198001821ef0020ce80006220020000000000fd
:1041a80000098800e20888004e48a8004e28a900a7
:1041b8004e08a8000388a9002388a800000006006c
:1041c80021742000620420007305200082487800d2
:1041d8008348780042c7a90000f02f00c426b60023
:1041e800a0022000c426b700f00f20008e26b600db
:1041f800001020008e26b70000f02f00c626b6005b
:1042080080022000c626b700f00f20008426b600e2
:10421800003020008426b700f00f2000a026b6004a
:10422800500220000080fd00a026b70000f02f00fb
:10423800a226b60000022000a226b70000f02f0038
:104248008226b600000120008226b70000f02f0069
:10425800ae26b600c0022000ae26b700f00f200040
:10426800ae26b600700720000080fd00ae26b7001d
:1042780000f02f00b026b600f0022000b026b700ec
:10428800f00f2000b026b600900120000080fd004d
:10429800b026b700217420006204200073052000b6
:1042a800824878008348780042c7a80000000600ca
:1042b800c228a8004a48a8004a28a9004a08a90014
:1042c8000288a9002288a80000000600c248a800a9
:1042d8004ec8a8004ea8a9004e88a90003a8a900a6
:1042e80023a8a80000000600b0062000e00820006f
:1042f800300220004011880080002800001188004a
:1043080000402000101188004648a9004628a8004f
:104318004608a8000188a9002188a800301180005b
:104328003011800030118000301180000168a90030
:1043380045c8a90045a8a8004588a8000168a900a3
:104348002168a80000000600b0062000e008200050
:1043580030022000c01188008000280080118800e9
:1043680000402000901188004fc8a9004fa8a9005c
:104378004f88a80003e8a90023e8a800b01180002e
:10438800b0118000b0118000b011800003c8a900ee
:104398004f48a9004f28a9004f08a80003c8a90042
:1043a80023c8a80000000600b0118000b0118000ea
:1043b800b0118000b011800003c8a90023c8a9006b
:1043c80000000600b0118000b0118000b01180001c
:1043d800b011800003c8a90023c8a8000000060087
:1043e8001000200004003700700020000200370091
:1043f8007000200000003700317420008207200080
:10440800a30920000300fc00824878008348780054
:1044180043e7b700217420006204200073052000e0
:104428000300fc0082487800834878004207a8000f
:104438000060fe004207af00fdff370000000600e5
:104448004427ef000003200050042000303a880081
:10445800000020004427b700000020004427b700d0
:10446800000020004427b700000000000000000002
:104478000000000000712200fe340200000000006d
:1044880000000000000000000000000010002000f4
:10449800002202000000000000002000403a8800ce
:1044a800000006000060fe00b00a2000201188000d
:1044b80000712200fe34020000000000f9ff3700fe
:1044c8004000200020888800f001200050938800d8
:1044d800f001200060938800f000200070938800ad
:1044e80004baef000000060004eea80000eea900e0
:1044f80015cea80011cea90011eea80064cea80020
:1045080060cea90060eea800650ea800610ea900a3
:10451800652ea900612ea900058ea800018ea900ac
:10452800056ea900016ea800040ea800000ea900df
:10453800042ea900002ea900142ea800102ea900f0
:10454800100ea800240ea900200ea900242ea900f0
:10455800202ea900244ea900204ea900256ea900ee
:10456800216ea900458ea900418ea90045aea9007b
:1045780041aea90041cea80045eea90041eea80031
:10458800050ea900010ea800148ea900108ea9001e
:10459800048ea800008ea900012ea800246ea90090
:1045a800206ea900248ea900208ea90024aea9009f
:1045b80020aea900350ea900310ea90014aea9003d
:1045c80010aea80014cea90010cea800254ea90050
:1045d800214ea90014eea80010eea90025aea900ee
:1045e80021aea900110ea800152ea800112ea900b1
:1045f80024cea90020cea90024eea90020eea9000f
:10460800250ea900210ea90034aea90030aea900dc
:1046180034cea90030cea900252ea800212ea9004d
:10462800500ea800542ea800502ea900114ea80024
:10463800156ea800116ea900118ea80015aea8006d
:1046480011aea900054ea800014ea9000000060001
:104658001311af00030037001351af0006003700f5
:10466800000006001311a900b0908000d0908800c7
:1046780001002200050037001351a900c0908000f6
:10468800d09088000128220000003700219288007d
:1046980031007800023022000200e10004003200fc
:1046a800f2ff2f000200e1000100320000000600c6
:1046b80031007800020020000200e100040032000e
:1046c800f2ff2f000200e1000100320000000600a6
:1046d80031007800309288003100780040928800dc
:1046e8003100780050928800509280000080fd00d0
:1046f800f00fb2006000e10002003a00e623040077
:10470800000000007000e10002003a00fc240400f0
:1047180000000000e000e10002003a0092240400da
:1047280000000000f000e10002003a006a240400e2
:1047380000000000f100e10002003a0074240400c7
:1047480000000000f200e10002003a007e240400ac
:1047580000000000f300e10002003a008824040091
:1047680000000000f400e10002003a00d023040039
:1047780000000000f500e10002003a00de2304001a
:10478800000000007001e10002003a005224040019
:10479800000000000000060050928000f00fb200f8
:1047a800c08b88002a0d0200000000000f31a8000d
:1047b800000006000f31a9003c0d020000000000b7
:1047c8000000060050928000f000b20000060100d0
:1047d80011003700110037001200370012003700af
:1047e80012003700120037001200370008003700a7
:1047f8000b003700060037000500370004003700bb
:10480800030037000f0037000200370000003700b0
:104818000000060000000600000006000000060078
:104828000000060000000600000006000000060068
:1048380000000600100020001e31ef00d08888001c
:10484800000006004832ed004832ed008001eb0020
:104858003102780003006a00f00fb2000c003a0041
:104868008301e8000480fd0003006a00f00fb20035
:1048780007003a008301e800409280000018e10038
:10488800f3ff3900d63002000000000000000600e7
:104898000031020000000000000006004832ed0070
:1048a8004832ed0021928800000025004a12e300fa
:1048b800010032000000060040002000109288002d
:1048c80088260200000000000000060050928000c8
:1048d800f00fb2000000e800f08c8800000006002d
:1048e80050928000f00fb2000000e800008d8800b0
:1048f8000000060050928000f00fb2000000e800af
:10490800108d88000000060050928000f00fb20061
:104918000000e800208d8800000006000cd1a900e6
:10492800509280007000b2000006010007003700b6
:104938000b0037000f00370013003700170037004f
:104948001b0037001f0037002400370080002000bc
:10495800d08888001e31ef001c31ef0000000600ef
:1049680090002000d08888001e31ef001c31ef0035
:1049780000000600a0002000d08888001e31ef004b
:104988001c31ef0000000600b0002000d08888002d
:104998001e31ef001c31ef0000000600c0002000af
:1049a800d08888001e31ef001c31ef00000006009f
:1049b800d0002000d08888001e31ef001c31ef00a5
:1049c80000000600f0002000d08888000cd1a80064
:1049d8001e31ef001c31ef0000000600000120002e
:1049e800d08888001e31ef001c31ef00000006005f
:1049f800509280007000b200000601003d003700b0
:104a0800450037004d0037009a0037002f00370067
:104a180018003700210037000a00370000000600a0
:104a280000000600f0012000b08b88007000200014
:104a3800d0888800800c2000f08888001c31ef00a6
:104a48000000060031007800609288000c11a9006f
:104a5800d6300200000000007631ef007000200020
:104a6800d0888800800c2000f08888001c31ef0076
:104a7800000006000c11a900d6300200000000005a
:104a88007631ef0050002000d0888800800c20008c
:104a9800f08888001c31ef00000006003100780023
:104aa800609288000c11a900d630020000000000b6
:104ab8007631ef0060002000d0888800800c20004c
:104ac800f08888001c31ef00000006000c11a900d6
:104ad800d6300200000000007631ef0040002000d0
:104ae800d0888800800c2000f08888001c31ef00f6
:104af800000006000c11a900d630020000000000da
:104b080020002000d0888800800c2000f0888800d1
:104b18001c31ef00000006000c11a900d63002007d
:104b28000000000030002000d0888800000120002c
:104b3800f08888001c31ef00000006000c11a90065
:104b480021928000a100b00031007800c092880056
:104b580031007800d09288005a12e20001003a0031
:104b6800e630ef00308780005a12e300060032007a
:104b78000000e8005a12e3000300320000000000c1
:104b880000000000000000005a12f800e610f900ca
:104b9800c09280005a12bc00328d8800438d880074
:104ba8004200a900a8b1d700a6b1d7002000200074
:104bb800a811e30007003a0000c02a00a611e3008c
:104bc80004003a000000000000000000000000009f
:104bd80000000000a611f800d010f900a811f80094
:104be800d210f900a1868800d630ef00a186800097
:104bf800d210f800a811f900d010f800a611f90099
:104c0800b62c020000000000a1868000d210f80037
:104c1800a811f900d010f800a611f900f02b020035
:104c2800000000000d11ae0009003700d630ec007e
:104c380030002000d610e300ecff3900000000002f
:104c480000000000e2300200000000000000060042
:104c58005a12f8005012f900d63002000000000085
:104c6800000000000000000000000000000000003c
:104c7800000006000c11a90021928000a100b000dc
:104c880031007800c092880031007800d092880006
:104c9800c09280005a12bc00328d8800438d880073
:104ca8004200a900a8b1d700a6b1d7005a12e20065
:104cb80002003a007231ef007431ef00f02b02006d
:104cc800000000000d11ae000600370000000000d3
:104cd8000000000000000000e230020000000000b8
:104ce800000006005a12f8005012f90000000000f7
:104cf800000000000000000000000000d6300200a4
:104d080000000000000006007232ef000060fe00a4
:104d1800a80f020000000000110078000098880029
:104d28004252af00070037000000eb0000d3af008d
:104d38000000a00000f3af000010a0004212e30042
:104d480018003a000113af00e0260200000000003e
:104d58000133af00ec260200000000000153af0051
:104d6800f8260200000000000173af0004270200cb
:104d7800000000000193af001027020000000000af
:104d880001b3af001c2702000000000001d3af00f0
:104d9800282702000000000001f3af0034270200ba
:104da800000000007232ec00c00520007212e3001f
:104db800d6ff390000000600c40e02000000000003
:104dc80000002000308a8800d1c022002a00370065
:104dd800c40e02000000000001c1220010002000e3
:104de800308a880024003700c40e0200000000004a
:104df80031c1220020002000308a88001e003700c0
:104e0800c40e02000000000061c122003000200032
:104e1800308a880018003700c40e02000000000025
:104e280091c1220040002000308a8800120037001b
:104e3800c40e020000000000c1c122005000200082
:104e4800308a88000c003700c40e02000000000001
:104e5800f1c1220060002000308a88000600370077
:104e6800c40e02000000000021c2220070002000d1
:104e7800308a8800000037001c0a02000000000089
:104e8800409280000080e800a82d02000000000089
:104e980001c02200310078004812e30021003a00e6
:104ea800239280000002eb00810278000500a10037
:104eb800150078000100a7000080fd00830278003b
:104ec8000500a100150178000300a7000280fd007d
:104ed80002016800f20fb20012003a008100e800f7
:104ee8008301e8000402e800409280000020e1000d
:104ef800edff3900a80f0200000000001100780043
:104f080002ff2f0000006100328a8000f200b20028
:104f180000007100800878005c0f020000000000ab
:104f280000000600000006001331af000300370040
:104f38001371af0006003700000006001331a90006
:104f480060918000809188000150220005003700a0
:104f58001371a9007091800080918800016022007f
:104f6800000037002192880031007800408b8800cb
:104f780031007800508b880031007800309288002a
:104f88003100780040928800310078005092880003
:104f980031007800c092880031007800d0928800f3
:104fa80031007800e092880031007800f0928800a3
:104fb800500029004a12e30002003a0022280400a7
:104fc80000000000600029004a12e30002003a00d5
:104fd8002228040000000000700029004a12e300a3
:104fe80002003a0022280400000000009000290076
:104ff8004a12e30002003a000c28040000000000f6
:10500800000000000000000000000600000006008c
:10501800c00520006a11e300010039000000060005
:10502800818c2100508b800081004000810040006d
:10503800200020008008780000000600c00520003d
:105048006a11e3000100390000000600818c21008c
:10505800508b80008100400081004000c092800099
:105068000000e80080087800000006000000060044
:10507800000006007f00e100010036000000060085
:10508800000601001f0037001f0037001e00370010
:105098001d0037001c0037001b0037001a003700be
:1050a80019003700190037001800370017003700bb
:1050b80016003700150037001400370013003700ba
:1050c80012003700120037001200370012003700b4
:1050d80012003700120037001100370010003700a7
:1050e8000f0037000e0037000d0037000c003700a6
:1050f8000b0037000a0037000900370008003700a6
:105108000700370000000600000006000000060047
:10511800000006000000060000000600000006006f
:1051280000000600152ea8000cb1ae0013003700d1
:1051380000027800152ea900248eb600f00fb200e8
:1051480024aeb6000000000000000000152ea800e4
:105158000000000004007800152ea9000080fd0062
:10516800248eb600f00fb20024aeb6000000000096
:1051780000000000152ea80000000600f00fb20085
:1051880000027800152ea90000f02f00242eb6008a
:10519800040078004400de00242eb70000c0fd00a3
:1051a800242eb7000000000000000000152ea80003
:1051b8000000000000f02f00152ea900242eb600d4
:1051c80004007800f000b200242eb70000c0fd00f3
:1051d800242eb7000000000000000000152ea800d3
:1051e800000006000c91af00ceff37000c71af0035
:1051f8000f003700152ea800a08888000000eb00db
:10520800152ea90014f1ae00240ea90014f1af0068
:10521800240ea80000000000152ea80014b1d60026
:105228000000e8006800e100f5ff39000000060012
:10523800152ea800a08888000000eb00152ea900f4
:1052480014f1ae00248ea90014f1af00248ea8003a
:105258000000000000000000152ea80014b1d600c0
:105268000000e8006800e100f4ff390000000600d3
:10527800f00f2000202eb700152ea9000000000016
:10528800000000000cb1ae000f0037001071800064
:10529800152ea800f00fb2000001780000000000f1
:1052a800152ea90000000000000000001071800009
:1052b800f00fb2000080fd0002007000a088880096
:1052c800152ea8000000060010718000f00fb20033
:1052d80000017800152ea800f000b20000c0fd0003
:1052e800b088880000000000152ea9000200780090
:1052f8004400de0000c0fd00c088880000000000f7
:1053080010718000f00fb20000017800152ea8007f
:10531800f000b2001631b700020078004400de0049
:105328001831b700c08880000080fd001611b70052
:10533800000006000c91af00cdff37000c71af00e4
:10534800350037000060fe00152ea8001431ef006c
:10535800152ea90014b1d6001411a900222eaf00f1
:105368001411a800152ea800152ea90014b1d600f6
:105378001411a900222eaf001411a800152ea800a0
:10538800152ea90014b1d6001411a900222eaf00c1
:105398001411a800152ea800152ea90014b1d600c6
:1053a8001411a900222eaf001411a800152ea80070
:1053b800152ea90014b1d6001411a900222eaf0091
:1053c8001411a800152ea800152ea90014b1d60096
:1053d8001411a900222eaf001411a800152ea80040
:1053e800152ea90014b1d6001411a900222eaf0061
:1053f8001411a800152ea800152ea90014b1d60066
:105408001411a900222eaf001411a800152ea8000f
:10541800a0888000000006000060fe00152ea8008d
:105428001431ef00152ea90014b1d6001411a900eb
:1054380022aeaf001411a800152ea800152ea90041
:1054480014b1d6001411a90022aeaf001411a8009f
:10545800152ea800152ea90014b1d6001411a90004
:1054680022aeaf001411a800152ea800152ea90011
:1054780014b1d6001411a90022aeaf001411a8006f
:10548800152ea800152ea90014b1d6001411a900d4
:1054980022aeaf001411a800152ea800152ea900e1
:1054a80014b1d6001411a90022aeaf001411a8003f
:1054b800152ea800152ea90014b1d6001411a900a4
:1054c80022aeaf001411a800152ea800152ea900b1
:1054d80014b1d6001411a90022aeaf001411a8000f
:1054e800152ea800a0888000000006000cb1a900b5
:1054f800d82d02000000000000092000f628020054
:1055080000000000808688009e290200000000003c
:10551800908688009e29020000000000a08688006e
:105528009e29020000000000b08688009e29020023
:1055380000000000c0868800b2888000c388800010
:105548009e29020000000000d08688000e2e02006e
:1055580000000000f0fe2e000c91ae00f00e2000be
:10556800d810e3004220af0000000600202c2c00d9
:105578000c91ae00200c2000d810e3004220af00b0
:105588000000060000000600062b020000000000d4
:105598006e2b0200000000001c2d0200000000001d
:1055a800d030ef00d010a9000d11af00d010a80026
:1055b8000000000000000000000000000d11af0016
:1055c8007e2b020000000000000000000000000028
:1055d8000000000000000000aa2b020000000000ec
:1055e80000000000000000000000000000000000b3
:1055f80000000000000000000000000000000000a3
:10560800e1ff3700a02f0200000000000c91a90064
:105618000cb1a9000c71a900e62e020000000000e0
:10562800242f020000000000e62e02000000000007
:10563800242f0200000000000c71a800e62e0200d2
:1056480000000000242f020000000000e62e0200e7
:1056580000000000242f0200000000007c2f020040
:1056680000000000000006000060fe00062b02009b
:105678000000000000000000000000000000000022
:10568800000000007a2a020000000000000000006c
:10569800000000000000000000000000a02f020031
:1056a80000000000000000000000000000000000f2
:1056b800000000007a2a020000000000000000003c
:1056c800000000000000000000000000e6ff3700b6
:1056d800000006007a2a0200000000004220ae0006
:1056e800fcff370000000000000000000000000080
:1056f8000000060036300200000000000e2f0200f5
:1057080000000000fa2e0200000000000000a700c0
:10571800fcff370036300200000000008230020033
:10572800000000000060fe00fa2e020000000000e9
:105738000000a700fbff3700000000000000000089
:1057480000000000000000000000060001a0220088
:10575800021020008001eb00821878001010200051
:10576800020140008301e800000820000018e10061
:10577800f9ff39000c71a900a631ef00a831ef003c
:1057880001a02200a611f800a811f800b62c02000a
:1057980000000000a811f900a611f90001a02200dc
:1057a8004e2c0200000000000d11ae0000000000a9
:1057b8000d11af0000000000000000000000000014
:1057c80000102000a631b400803e200008350200f9
:1057d80000000000eaff37000d11a900e62e0200c4
:1057e80000000000d82d020000000000b0002000da
:1057f800f628020000000000408d8000f628020014
:1058080000000000308d80000080fd00f6280200b6
:1058180000000000308d8000f62802000000000023
:105828009e2902000000000003c022000cb1a8005d
:105838009e290200000000000cb1a900a088800089
:1058480080197800310078001411e300010032005b
:105858000d11a800a631ec004220af00a831ec00e1
:10586800a6d1bf00f1ff3a000e2e02000000000092
:10587800000000000000000000000600000000001a
:1058880000000000000000000e2e020000000000d2
:105898000000060002c022000d11a800e62e02003a
:1058a80000000000d82d0200000000003000200099
:1058b800f628020000000000408d8000f628020053
:1058c80000000000308d80000080fd00f6280200f6
:1058d80000000000308d8000f62802000000000063
:1058e8009e29020000000000a611af000400370046
:1058f800a0888000000978001100780006003700b1
:10590800a08880000080fd00120940000281e800a4
:10591800310078000080fd001451e3000b003a00cc
:10592800a631ec004220af00a831ec00a6d1bf00a0
:10593800ebff3a000e2e0200000000000d11a90036
:105948000000000000000000000006000000000049
:1059580000000000000000000e2e02000000000001
:1059680000000600ea2f02000000000036300200a6
:1059780000000000d82d02000000000020002000d8
:10598800f628020000000000408d8000f628020082
:1059980000000000308d80000080fd00f628020025
:1059a80000000000308d8000f62802000000000092
:1059b8000c91af0011003700a611af0002003700ac
:1059c8001100780003003700310078000080fd00e6
:1059d80000003700f628020000000000a631ec00a5
:1059e8004220af00a831ec00a6d1bf00f2ff3a0078
:1059f8000e2e0200000000000000060031007800b2
:105a08000cb1a800f6280200000000000cb1a900a3
:105a1800a631ec004220af00a831ec00a6d1bf00af
:105a2800f6ff3a000e2e02000000000000000600fb
:105a3800a831ef00302d0200000000000d11af006a
:105a480000000600a831ec0000102000a811e300b7
:105a5800f8ff3900000006000d11a800e62e02002c
:105a680000000000d82d020000000000b000200057
:105a7800f628020000000000408d8000f628020091
:105a88000000000000002000f628020000000000ce
:105a980000002000f6280200000000009e290200f5
:105aa80000000000a631ef000c91af000f00370096
:105ab8009e29020000000000f00f20001451e300ae
:105ac8001b003a00a631ec00a611e200f8ff3a00ec
:105ad8000d11a9000e2e02000000000000000000b9
:105ae8000000000000000000000006000cb1a80043
:105af8009e290200000000000cb1a900f0ff2f0051
:105b08001411e3000a003a00a631ec00a611e200e5
:105b1800f6ff3a000d11a9000e2e02000000000049
:105b28000000000000000000000000000000060067
:105b38000e2e02000000000000000000000000001f
:105b4800000000000000060001c0220000017800eb
:105b58004900370001c0220002012000460037003a
:105b680001c02200020220004300370001c02200c9
:105b7800020420004000370001c02200021020006b
:105b88003d00370001c02200022020003a00370003
:105b9800011b21002200200037003700011b2100d3
:105ba80042002000340037000c91af00120037008b
:105bb8000c71af0008003700202ea800244ea80062
:105bc800204ea900246ea800206ea900252ea90049
:105bd80015aea8000000060020aea80024cea8003c
:105be80020cea90024eea80020eea90015aea90039
:105bf800252ea80000000600801f780000f02f0066
:105c0800202eb600252ea90015aea9004f00780059
:105c1800000006000c91af000e0037000c71af00b9
:105c280006003700252ea800200ea900202ea90066
:105c3800204ea900206ea9000000060015aea8009d
