:020000040000fa
:080000000402040000000000ee
:020000040000fa
:080400000040da000000fe00dc
:020000040000fa
:1000080000020000000200000002000000020000e0
:1000180000020000000200000002000000020000d0
:10002800000200003240000000020000ae3b000069
:100038000002000060400000000200000002000012
:10004800983c000000020000000200007c3900001b
:10005800ba3a00000002000000020000000200009e
:100068000002000000020000000200000002000080
:100078004c390000000200000002000000020000ed
:10008800000200000002000000020000823d0000a3
:10009800383f0000b44000001c3a0000ea3a000073
:1000a8000002000000020000000200000002000040
:1000b800000200008e400000d24000000002000054
:1000c8000002000000020000000200000002000020
:1000d8000002000000020000000200000002000010
:1000e8000002000000020000000200000002000000
:1000f80000020000000200000002000000020000f0
:1001080000020000000200000002000000020000df
:1001180000020000000200000002000000020000cf
:1001280000020000000200000002000000020000bf
:1001380000020000000200000002000000020000af
:10014800000200000002000000020000000200009f
:10015800000200000002000000020000000200008f
:10016800000200000002000000020000000200007f
:10017800000200000002000000020000000200006f
:10018800000200000002000000020000000200005f
:10019800000200000002000000020000000200004f
:1001a800000200000002000000020000000200003f
:1001b800000200000002000000020000000200002f
:1001c800000200000002000000020000000200001f
:1001d800000200000002000000020000000200000f
:1001e80000020000000200000002000000020000ff
:1001f80000020000000200000002000000020000ef
:1002080000020000000200000002000000020000de
:1002180000020000000200000002000000020000ce
:1002280000020000000200000002000000020000be
:1002380000020000000200000002000000020000ae
:10024800000200000002000000020000000200009e
:10025800000200000002000000020000000200008e
:10026800000200000002000000020000000200007e
:0c02780000020000000200000002000074
:020000040000fa
:1004080020020400000000000000eb000007780054
:100418000c000900002f78000007eb000000060020
:10042800010821008018eb0080d021000008e100bd
:10043800fcff3a00000006000fe02100e0ef210079
:1004480000018800080202000000000014020200f7
:10045800000000008e26020000000000410120007c
:10046800401f20002e3b0200000000008100e90030
:10047800fbff3a0008020200000000008e2602007e
:10048800000000005a03020000000000722602006b
:1004980000000000f22402000000000032260200e2
:1004a80000000000007122002e3b02000000000046
:1004b800bc240200000000008625020000000000a5
:1004c800b6250200000000006a25020000000000b6
:1004d800d035020000000000e835020000000000ee
:1004e80080382100203b0200000000005207040071
:1004f800000000000008200001202a0002c022009d
:10050800124102000000000000000000000000008e
:100518000000000001202a00324102000000000013
:10052800000000000000000000000000000820009b
:1005380001202a0002c0220012410200000000002f
:10054800000000000000000000000000070020007c
:100558000608200001c02200871878008703e800f9
:100568000603e900fcff3a0000000000000000005c
:100578000000000000202a00608588000008200094
:100588007085880072410200000000000000000031
:1005980000000000000000000008200001202a00e0
:1005a80002c022001241020000000000000000000a
:1005b800000000000000000000000600142eaa0041
:1005c80064ceaa00142eaa0064ceaa00142eaa0093
:1005d80064ceaa00142eaa0064ceaa00142eaa0083
:1005e80064ceaa000060fe00f4ff370060402000df
:1005f80000488800d000200010488800803821007a
:10060800304888000071220070088800a00020008f
:10061800383b020000000000fcff37000060fe00cd
:100628000701ae00058ea9000701af00058ea800de
:10063800faff37002004200020118800a0002000c5
:10064800383b020000000000faff370025aea80082
:1006580020042000a0118800a0002000383b0200e0
:1006680000000000f9ff3700c010a8003012200079
:10067800109088007056240020908800b09a2800b6
:1006880030908800f0de2c004090880080462200e0
:10069800509088000a38020000000000a0002000e6
:1006a800383b020000000000efff37000e2eef007d
:1006b8001e2eef002e2eef004e2eef004fcea8007c
:1006c80040002000000020000019880000002000e1
:1006d80010198800f0002000201988000000200070
:1006e80090198800f00020004019880000002000c0
:1006f80030198800000020007019880000002000d0
:100708008019880021e3a800000006008430ef006b
:100718006508210000042000d08a8800000020001d
:10072800e08a8800000120008410bc0002007800e4
:100738005a31b400de3302000000000021c022005c
:100748003100780000848800310078001084880027
:1007580031007800000178003000b200800a78008b
:100768000200a7001520a00000102e008010e30052
:1007780001003a001530a00000202c008010e30092
:1007880001003a001540a00031007800801f780071
:10079800f00fb2000080fd00950a70004f0078004d
:1007a8000080a7001550a000829a210020848000b4
:1007b8000201400002014000310078000009780081
:1007c8008430ec008582e800400020008410e300bb
:1007d800d0ff39008610f8008419f9008810f80055
:1007e8009019f9008a10f8009c19f9008c10f8008b
:1007f8007819f90084b9ae00040037008c2402008f
:1008080000000000102402000000000090b9ae00b3
:1008180004003700a424020000000000282402007d
:10082800000000009cb9ae0006003700c224020098
:1008380000000000402402000000000078250200ab
:100848000000000078b9ae0004003700da24020086
:10085800000000005824020000000000c10f210021
:1008680002002000f00020000080090082187800b3
:100878008030ef0000042100d08a880000002000aa
:10088800e08a8800008480004500dd005a31b40009
:10089800de3302000000000001c0220011007800d1
:1008a800f00fb2000600320011007800c10f2100dd
:1008b80002848000810041008100410080087800a6
:1008c8008030ec00700020008010e300e9ff390060
:1008d80000022100d08a880000002000e08a8800f9
:1008e800de3302000000000081c02200a3102100b6
:1008f80011007800f00fb2008019780031007800fc
:100908000080fd00f00fb200801978001100780017
:10091800f00fb20080197800310078000080fd00e7
:10092800f00fb200801978000000060000000600f1
:10093800f005200001e02200008009008018eb008b
:10094800f005200001e62200008009008018eb0075
:10095800c170a900f230ef00f830ef009a040200ed
:10096800000000008a03020000000000d213020009
:10097800000000006c1302000000000000000600e8
:1009880025aeae0000000600c350af000000060010
:10099800c6f0ae00000006003302ae0000000600fc
:1009a800c6f0a90025aea900000006000008200036
:1009b80001102a0002f0210012410200000000008c
:1009c800000006000060fe00c630af00fdff3700e3
:1009d80000000600000006004193210020002000ce
:1009e80080187800b0ca2a00801878004193210046
:1009f8002205020000000000419321002000200091
:100a080080187800c0ba2a00801878004193210025
:100a18009205020000000000419321002000200000
:100a280080187800d0ba2a008018780041932100f5
:100a380002060200000000000000060031007800f5
:100a4800f007b2000000e00001003a0000000600d4
:100a5800b0cb8800810178008839ef00a000200021
:100a680060cc88008300780040cc80008100400082
:100a78000100a100110078008819af000080fd0076
:100a8800f00fb2000001780000f0270002017000aa
:100a98000200780000c0fd00000069004202de008c
:100aa800040068004102de00040068008419af00f9
:100ab800030037008439af0005003700080037000d
:100ac8000000a7000280a1008c39ec000400370068
:100ad8000000a6000280a1008c39ec00000037005d
:100ae8008459af008c39ec000201d20001a0220029
:100af80040cc8000810040008100400082087800de
:100b08008839ec007639ed00d4ff3a008a39ef00d5
:100b18008e39ef00c370a80000000600310078008d
:100b2800f007b2000000e00001003a0000000600f3
:100b3800b0cb8800810178009439ef00a000200034
:100b4800c0cc880083007800a0cc800081004000e1
:100b58000100a100110078009419af000080fd0089
:100b6800f00fb2000001780000f0270002017000c9
:100b78000200780000c0fd00000069004202de00ab
:100b8800040068004102de00040068009019af000c
:100b9800030037009039af00050037000800370020
:100ba8000000a7000280a1009839ec00040037007b
:100bb8000000a6000280a1009839ec000000370070
:100bc8009059af009839ec000201d20001b0220020
:100bd800a0cc80008100400081004000820878009d
:100be8009439ec007639ed00d4ff3a009639ef00dd
:100bf8009a39ef00c390a800000006003100780081
:100c0800f007b2000000e00001003a000000060012
:100c1800b0cb880081017800a039ef00a000200047
:100c280020cd88008300780000cd8000810040003e
:100c38000100a10011007800a019af000080fd009c
:100c4800f00fb2000001780000f0270002017000e8
:100c58000200780000c0fd00000069004202de00ca
:100c6800040068004102de00040068009c19af001f
:100c7800030037009c39af00050037000800370033
:100c88000000a7000280a100a439ec00040037008e
:100c98000000a6000280a100a439ec000000370083
:100ca8009c59af00a439ec000201d20081a02100b8
:100cb80000cd80008100400081004000820878005b
:100cc800a039ec007639ed00d4ff3a00a239ef00e4
:100cd800a639ef00c470a8000000060031007800b3
:100ce800f007b2000000e00001003a000000060032
:100cf800b0cb880081017800b039ef00a000200057
:100d0800a0cd88008300780080cd8000810040005d
:100d18000100a10011007800b019af000080fd00ab
:100d2800f00fb2000001780000f027000201700007
:100d38000200780000c0fd00000069004202de00e9
:100d4800040068004102de00040068009c19af003e
:100d5800030037009c39af00050037000800370052
:100d68000000a7000280a100b439ec00040037009d
:100d78000000a6000280a100b439ec000000370092
:100d88009c59af00b439ec000201d20081c02100a7
:100d980080cd8000810040008100400082087800fa
:100da800b039ec007639ed00d4ff3a00b239ef00e3
:100db800b639ef00c510a800000006003100780021
:100dc800f007b2000000e00001003a000000060051
:100dd800b0cb8800810178007c39ef00a0002000aa
:100de80000cc880083007800e0cb800081004000c0
:100df8000100a100110078007c19af000080fd00ff
:100e0800f00fb2000001780000f027000201700026
:100e18000200780000c0fd00000069004202de0008
:100e2800040068004102de00040068007819af0081
:100e3800030037007839af00050037000800370095
:100e48000000a7000280a1008039ec0004003700f0
:100e58000000a6000280a1008039ec0000003700e5
:100e68007859af008039ec000201d20081b021002e
:100e7800e0cb8000810040008100400082087800bb
:100e88007c39ec007639ed00d4ff3a007e39ef006a
:100e98008239ef00c4b0a80000000600c170a900a4
:100ea8003631020000000000da04020000000000f1
:100eb8004e130200000000009c0402000000000025
:100ec800c790a800c7b0a8000060fe00c590ae009b
:100ed80003003700c590a9006c1302000000000051
:100ee800bdf0af00250eaa00bdf0af00663b0200c2
:100ef80000000000bdf0af00ee040200000000009a
:100f0800940d020000000000c4040200000000006c
:100f18003a170200000000004e170200000000000f
:100f28002a160200000000006016020000000000ff
:100f3800da0d0200000000004c270200000000004b
:100f4800c82d0200000000002c0d02000000000067
:100f5800be07020000000000ce0b020000000000e7
:100f6800500c020000000000ae0c0200000000005f
:100f7800d5ff3700d408020000000000803e2000a2
:100f8800b819e3000100310000000600c7f0ae0008
:100f980000000600c7f0a900780902000000000060
:100fa80000000600c3d0ae0000000600c3d0a900b0
:100fb8007439ef0030ce8000c419e30001003a0014
:100fc8001b003700c439ec00f0072000c439b60014
:100fd80001a8220020ce8000810040000100a1006d
:100fe80011017800c419af000280fd00f20fb200b1
:100ff80041932100a0cb8000810040000100a100a6
:101008007419af0003003700820878007439ec00c7
:10101800e8ff3700110078000080fd000200700032
:101028000080fd00800878007439ec00e1ff37008b
:101038007419e20001003a00000006004093210004
:10104800c08f88007419f800fc11f9000000200016
:10105800b08f88005c2b0200000000000000060032
:1010680090ce8000d419e30001003a000000060089
:10107800d439ec00f0072000d439b60001b82200ba
:10108800a0ce8000810040000100a100110078007e
:10109800d419af000080fd00f00fb2000084880072
:1010a800000820008010e3000d003900000e200029
:1010b8008010e30002003900c5d0a900e8ff37001e
:1010c800c5d0a800000820008030b50001e6220045
:1010d8000084800081004000b1858800e0ff37006f
:1010e800c5d0ae00deff3700008480007000e1004c
:1010f8000c0032007100e10010003200e000e10055
:101108000a003200e100e1000e003200f000e100c8
:1011180008003200f100e1000c003200c5d0a9003f
:10112800cfff3700100020000a0037002000200001
:10113800080037004000200006003700100020009b
:101148000d003700200020000b0037004000200071
:1011580009003700b610af000080fd000080ea00eb
:10116800b18580000100a10091086000c5d0a900e8
:10117800c5f0a800baff3700b610af000080fd0028
:10118800b18580000100a100110178000200700003
:1011980080087800c5d0a900c5f0a800b0ff3700c6
:1011a80010ce8000c419e30001003a0000000600d8
:1011b800c439ec00f0072000c439b60001a82200a9
:1011c80020ce8000810040000100a10011007800bd
:1011d800c419af000080fd00f00fb2000084880041
:1011e800000820008010e3000d003900000e2000e8
:1011f8008010e30002003900c7d0a900e8ff3700db
:10120800c7d0a800000820008030b50001e0220007
:101218000084800081004000c1858800e0ff37001d
:10122800c7d0ae00deff3700008480007000e10008
:101238000c0032007100e10010003200e000e10013
:101248000a003200e100e1000e003200f000e10087
:1012580008003200f100e1000c003200c7d0a900fc
:10126800cfff3700c7d0a900cdff3700c7d0a900ee
:10127800cbff3700c7d0a900c9ff37000200200004
:10128800040037002200200002003700320020004e
:1012980000003700c18580000100a100110078001e
:1012a800b810af00080037000080fd00f00fb20052
:1012b8000080fd000200700080087800c7d0a900f7
:1012c800c7f0a800b6ff3700f00fb2000080fd009d
:1012d800020070000080fd0080087800c7d0a900d7
:1012e800c7f0a800aeff3700f810f8002612f80083
:1012f8008030ef0001e62200f810ae0001e0220085
:1013080000848000810040000100a10011007800e5
:101318008010af000080fd00f810af002a0a02001c
:10132800000000007000b200d087880000848000b0
:10133800f810af003e0a020000000000f810ae00ee
:10134800060b02000000000020848800ff03e10073
:101358002c003200008480007000e1000500390094
:10136800e001e100270031008510ae0011003700d0
:101378001a0037008510a90010002000f810ae00f0
:1013880000002000c08788008410f8002612f900a9
:10139800160a020000000000f830ec00f830ec00fb
:1013a8008410f8002612f900160a02000000000056
:1013b800140037008510a90010002000f810ae00b6
:1013c80000002000c08788008410f8002612f90069
:1013d800160a0200000000000a0037008510a90064
:1013e80030002000f810ae0020002000c0878800e0
:1013f8008410f8002612f900160a02000000000006
:10140800000037008030ec00000620008010e30068
:10141800b8ff39002612f900f810f900c590a800a5
:1014280000000600c0130200000000001100780050
:1014380002ff2f0000006100d2878000f200b20096
:101448000000710080087800000006007000b200fb
:10145800000601000000050000000500200005004e
:1014680020000500300005003000050010000500d0
:1014780010000500e001e10001003900f00f05004f
:10148800000601000001050010010500200105000b
:10149800300105007001050080010500900105007c
:1014a800a0010500b0010500f00f0500f00f0500d0
:1014b800f00f0500f00f0500f00f0500f00f050014
:1014c800f00f0500c0010500d0010500e00105008e
:1014d800f0010500000205001002050020020500c9
:1014e80030020500400205005002050060020500b8
:1014f800700205008002050090020500a0020500a8
:10150800b0020500c0020500d0020500e002050097
:10151800f002050000030500100305002003050084
:101528003003050040030500500305006003050073
:10153800700305008003050090030500a003050063
:10154800b0030500c0030500d0030500e003050053
:10155800f003050000040500100405002004050040
:10156800300405004004050050040500600405002f
:10157800700405008004050090040500a00405001f
:10158800b0040500c0040500d0040500e00405000f
:10159800f0040500000505001005050020050500fc
:1015a80030050500400505005005050060050500eb
:1015b800700505008005050090050500a0050500db
:1015c800b0050500c0110500d0110500e0110500a7
:1015d800f0110500c0120500d0120500e012050048
:1015e800f0120500c0130500d0130500e013050034
:1015f800f0130500c0140500d0140500e014050020
:10160800f0140500e001e10001003900f00f0500c9
:101618000006010000010500100105002001050079
:1016280030010500700105008001050090010500ea
:10163800a0010500b0010500f00f0500f00f05003e
:10164800f00f0500f00f0500f00f0500f00f050082
:10165800f00f0500c0010500d0010500e0010500fc
:10166800f001050040020500700405007005050042
:10167800f0120500c0110500d0110500e0110500a9
:10168800f0110500801205009012050040030500c6
:10169800b0120500c0020500d0020500e0020500f6
:1016a800f002050050020500a012050060030500c5
:1016b80070030500c0120500d0120500e0120500f5
:1016c800500305008013050090130500a0130500c2
:1016d800b0130500c0030500d0030500e0030500b2
:1016e800f0030500400405005004050060040500ef
:1016f80070020500c0130500d0130500e0130500b3
:10170800f01305008014050090140500a0140500ce
:10171800b0140500c0140500d0040500e00405005d
:10172800f0040500400505005005050060050500aa
:1017380060020500c0040500d0140500e01405008f
:10174800f01405008015050090150500a01505008a
:10175800b015050000020500100205002002050072
:1017680030020500000305001003050020030500f2
:1017780030030500000405001004050020040500de
:1017880030040500000505001005050020050500ca
:10179800300505003408020000000000803e2000eb
:1017a800c819e3000100310000000600c5f0ae00d2
:1017b80000000600c5f0a9000000000000000000bd
:1017c800000000007809020000000000000000008e
:1017d800000000000000000000000600c450ae0039
:1017e80000000600c450a9007439ef00b0ce800094
:1017f800d419e30001003a001b003700d439ec008b
:10180800f0072000d439b60001b82200a0ce80002d
:10181800810040000100a10011017800d419af0037
:101828000280fd00f20fb20041932100a0cb80009e
:10183800810040000100a1007419af0003003700c7
:10184800820878007439ec00e8ff3700110078004e
:101858000080fd00020070000080fd008008780014
:101868007439ec00e1ff37007419e20001003a0016
:101878000000060040932100c08f88007419f8000a
:10188800fc11f90010002000b08f88005c2b0200ca
:101898000000000000000600c490ae000000060032
:1018a800c490a9007439ef0030cf8000e419e30038
:1018b80001003a001b003700e439ec00f007200073
:1018c800e439b60081a8210020cf800081004000c3
:1018d8000100a10011017800e419af000280fd00a9
:1018e800f20fb20041932100a0cb8000810040009c
:1018f8000100a1007419af000300370082087800c6
:101908007439ec00e8ff3700110078000080fd0012
:10191800020070000080fd00800878007439ec0037
:10192800e1ff37007419e20001003a0000000600e8
:1019380040932100c08f88007419f800fc11f90049
:1019480020002000b08f88005c2b020000000000ff
:1019580000000600c530ae0000000600c530a90032
:101968007439ef00b0cf8000f419e30001003a00a9
:101978001b003700f439ec00f0072000f439b600fa
:1019880081c82100a0cf8000810040000100a10093
:1019980011017800f419af000280fd00f20fb200c7
:1019a80041932100a0cb8000810040000100a100ec
:1019b8007419af0003003700820878007439ec000e
:1019c800e8ff3700110078000080fd000200700079
:1019d8000080fd00800878007439ec00e1ff3700d2
:1019e8007419e20001003a0000000600409321004b
:1019f800c08f88007419f800fc11f900200020003d
:101a0800b08f88005c2b0200000000000000060078
:101a18004193210000092100801878000019220054
:101a28008018780000092300801878001009210028
:101a380080187800100922008018780010192300f7
:101a480080187800c0002000a0cb880000000600a5
:101a5800c4f0ae0000000600c4f0a9007439ef001d
:101a680030d08000041ae30001003a001b00370060
:101a7800043aec00f0072000043ab60081b82100cf
:101a880020d08000810040000100a10011017800f1
:101a9800041aaf000280fd00f20fb200419321004a
:101aa800a0cb8000810040000100a1007419af00a4
:101ab80003003700820878007439ec00e8ff37002b
:101ac800110078000080fd00020070000080fd0019
:101ad800800878007439ec00e1ff37007419e200df
:101ae80001003a000000060040932100c08f8800e2
:101af8007419f800fc11f90030002000b08f88003c
:101b08005c2b02000000000000000600000000003e
:101b180000000000000000000000000000000600b7
:101b280000f02f00202eb600328c8000207180003b
:101b380002006800f00fb20024aeb60015cea9006e
:101b48008a0d02000000000015cea800328c80002b
:101b58000280fd002071800002006800f00fb200d2
:101b680024aeb60004eea9008a0d020000000000b1
:101b780004eea800f00f2000202eb7008a0d020006
:101b880000000000054ea9008a0d020000000000b8
:101b9800f00f20008431b60010718000f00fb20001
:101ba8008431b700054ea800000006005211e2007b
:101bb80002003200908a8000008488005411e200fc
:101bc80002003200a08a8000108488005611e200ca
:101bd80002003200b08a8000208488005811e20098
:101be80002003200c08a8000308488008010e20041
:101bf800030032009a110200000000000f003700b5
:101c08008210e200030032001e12020000000000f1
:101c18000a0037008410e200030032007a12020042
:101c280000000000050037008610e20003003200c3
:101c3800f612020000000000000037005231ef00e9
:101c48005431ef005631ef005831ef000000060024
:101c58000100a7000600370031007800d08a88000c
:101c680031007800f00fb200e08a88000a003700df
:101c78000100a100310078004800de00d08a880009
:101c8800110078004800dd005a31b40011007800d6
:101c98004800de00e08a88004200a9005ab1d60058
:101ca8005cb1d6004200a9005ab1d6005cb1d6009a
:101cb800000006005a11f8005c11f80001c022006b
:101cc800f03302000000000003c022003300780057
:101cd800f01fb200d0908800000024001090880007
:101ce80000848000209088000632ef000832ef0060
:101cf8000a32ef0023c0220046370200000000002d
:101d08005c11f9005a11f90000082000d8330200cc
:101d18000000000001c02200108480003000b200e2
:101d28000006010006003700080037000a003700e7
:101d3800100037000000000000000000000006004e
:101d480022050200000000000000060092050200c3
:101d58000000000000000600811f78000206020053
:101d680000000000cf0078007206020000000000aa
:101d780000000600e2060200000000000000060065
:101d8800c130a9008030ef00c10f2100008480001d
:101d9800810040008100400011007800f00fb2007f
:101da800050032000000e9002612e30002003a00b4
:101db800c130a800000006008030ec00b000200010
:101dc8008010e300f0ff39002612f8002412f90011
:101dd80000000600c130a900008480006700e1000f
:101de800250032006800e100270032002612f800c2
:101df8002412f900c0d0ae0002003700c130a8009c
:101e0800000006006900e100120032006a00e100eb
:101e180016003200c10f21000084800081004000bc
:101e280081004000110078000080fd007000b200c1
:101e3800c08788002832ef006c1302000000000001
:101e4800c130a80000000600b010e2000400320013
:101e580006003700b010e20001003a00000006005a
:101e68008411020000000000000006007c1102003e
:101e7800000000000000060006110200000000003b
:101e8800c130a800000006005c110200000000003c
:101e9800c130a80000000600f00120002090880052
:101ea800c010a8000a38020000000000c010a900f5
:101eb80000352c002e3b0200000000000000060048
:101ec800000020009410e30002003a0000802f0078
:101ed80020908800100020009410e30002003a00cf
:101ee800007e200020908800200020009410e3004d
:101ef80002003a0000002000209088000000220024
:101f080010908800c010a8000a38020000000000e5
:101f1800c010a900e630ef00e830ef00000006002e
:101f28009430ec00400020009410e30001003900d8
:101f38009430ef00f001200020908800000020007d
:101f48009410e30002003a0000802f0020908800df
:101f5800100020009410e30002003a00007e2000e8
:101f680020908800200020009410e30002003a002e
:101f780000002000209088000000220010908800b7
:101f8800c010a8000a38020000000000c010a90014
:101f9800e630ef00e830ef000000060050002000b7
:101fa800708688000000200090868800d030ef00fe
:101fb80000000600600020007086880000002000f5
:101fc80090868800d030ef00000006003000220024
:101fd80010908800c010a8000a3802000000000015
:101fe800c010a900000006005211e20001003a00ea
:101ff800000006000000200020908800060037003e
:102008005411e20001003a00000006001000200010
:10201800209088000000370060002200109088009f
:1020280030918000f0888800c010a800f2370200c4
:1020380000000000c010a9000000060010908800f1
:10204800c010a8000a38020000000000c010a90053
:10205800000006004000220010908800e810f800f8
:102068000412f900e610f8000612f9003091800019
:10207800f0888800c010a800f237020000000000b5
:10208800c010a9000000060050002200109088002f
:10209800e810f8000412f900e610f8000612f9003a
:1020a8003087800000c0fd00e810b400000178000f
:1020b8000280fd000000710003c022002d0009000d
:1020c8008019780003c02200c0052000d090880045
:1020d800c010a8004637020000000000c010a90088
:1020e800000006004000220010908800e810f80068
:1020f8000412f900e610f8000612f900900020001a
:10210800f0888800c010a800f23702000000000024
:10211800c010a900e830ec0080002000e810e300bf
:102128000100310000000600e830ef00e630ec0066
:1021380070002000e610e3000100310000000600f6
:10214800e630ef00000006005000220010908800e2
:10215800e810f8002612f900e610f800f810f90067
:102168006c13020000000000e830ec008000200042
:10217800e810e3000100310000000600e830ef003d
:10218800e630ec0070002000e610e30001003100aa
:1021980000000600e630ef0000000600e002200024
:1021a80050898800e000200070868800800c20009c
:1021b80090868800d030ef0000000600a0002200c2
:1021c8001090880020918000f0888800c010a80036
:1021d800f237020000000000c010a900000006004d
:1021e800b00022001090880020918000f0888800bc
:1021f800c010a800f237020000000000c010a900bb
:1022080000000600c0d0af00ecff3700b430ec008f
:1022180050002000b410e30001003900b430ef0092
:10222800070037007000220010908800c010a80036
:102238000a38020000000000c010a90000000600d3
:102248009000220010908800a085800020908800cf
:10225800c010a8000a38020000000000c010a90041
:10226800e60402000000000000000600e000220072
:10227800109088006089800020908800c010a80015
:102288000a38020000000000c010a9000000060083
:102298002001200054110200000000000000060088
:1022a80070868800d030ef00d230ef0000000600c2
:1022b800c0d0af00caff3700b430ed005000200096
:1022c800b410e3004000200001003900a085880018
:1022d800dbff37008000220010908800c010a800a3
:1022e8000a38020000000000c010a9000000060023
:1022f800c170a900c0d0a900b030ef0007003700b6
:10230800c0d0a900b030ec0070002000b010e3008d
:102318000200390010002000808588008085800038
:10232800b628020000000000000006008030ed0022
:102338000084800030918800f80f0200000000003f
:10234800d41202000000000001c022001101780030
:10235800b0da2c000010e100010032000000060095
:1023680021c02200110278000480fd0004c0fd0095
:102378003400b20016003200110078000080fd0021
:10238800f000b200120020000011dd006120e10021
:10239800050032006220e100060032006320e100ff
:1023a800070032000a0037000200780086b1b60044
:1023b80007003700020078008631b70004003700b4
:1023c800f0ff2f00000069008631b60000003700da
:1023d80021c0220011007800f00fb20000848800ac
:1023e800110078004e00de003000b2001084880032
:1023f80041c022002c0e020000000000d08a80009c
:102408005c11b700030032005e0e020000000000fd
:1024180000000600000000000000000000000000ae
:102428000000000000000600502902000000000023
:10243800000006008230ed00108480003091880092
:10244800c170ae00050037002612e20003003a0012
:102458002e0f02000000000000000600c40e02005b
:10246800000000008010f8002612f800c130af000c
:10247800ee0e0200000000002612f9008010f9009c
:102488000410020000000000d41202000000000046
:1024980001c0220011017800b0da2c000010e10020
:1024a800010032000000060021c02200110078005f
:1024b800f00fb20000848800110078004e00de00a2
:1024c8003000b2001084880071c022002c0e020077
:1024d80000000000d08a80005c11b70002003200c2
:1024e8005e0e020000000000000006008430ed00cf
:1024f80020848000309188002612f8002412f90008
:10250800c40e020000000000c130ae000b0037000e
:10251800008480006900e1004bfe32006a00e1009f
:1025280006003a00c0d0a900b030ef00200120001a
:10253800541102000000000000000600d41202003e
:102548000000000001c0220011017800d0bc2a0060
:102558000010e100010032000000060021c0220046
:1025680011007800f00fb200008488001100780094
:102578004e00de003000b20010848800a1c02200a6
:102588002c0e020000000000d08a80005c11b70009
:10259800020032005e0e020000000000000006008b
:1025a80000002200f810bc00d28a8800e38a880064
:1025b800001221005a31b400000020005cb1b400c0
:1025c800000420002612bc00020078005a31b40032
:1025d800030078005cb1b400ea3302000000000098
:1025e80000000600100020008610e30004003a00f6
:1025f800c170a800280f02000000000000000600bb
:10260800200020008610e3000b003a00c170ae00e5
:102618000000060030002000b010e30006003a0079
:10262800c010a900f036020000000000280f0200c8
:102638000000000000000600000006000000060080
:10264800008480000000e900e09088002213020066
:1026580000000000000006001e32ec00000220000e
:102668001e12e300010039001e32ef0000000600d0
:102678000000060000000600d2130200000000005f
:102688006c130200000000000000060000000600b5
:10269800000006002612f8002632ef00c0130200e0
:1026a8000000000002ff2f00110078000000610008
:1026b800800878008180e8002632ec00c005200000
:1026c8002612e300f7ff39002612f9000000060081
:1026d8002612f8002632ef00c013020000000000a6
:1026e80003c0220031007800f000b200c2878000e9
:1026f80002c0fd00020170000300a70003003700bc
:10270800820978008301e800050037000300a10072
:10271800130078000280fd00000071008019780025
:102728002632ec00c00520002612e300edff390038
:102738005000220010908800a0858000f00fb200a1
:102748002090880003c02200c0052000d090880097
:10275800c010a8004637020000000000c010a90001
:102768002612f90000000000000000000000000030
:102778000000000000000600c12b2100c005200059
:102788004100dd00f810bc0081004100309180005c
:102798004100dd008100400000000600f830ef0035
:1027a8002632ef00d41202000000000000002000d2
:1027b800a0958800b0da2c0001c022001101780031
:1027c8000010e10003003200f0002000a09588000e
:1027d80041003700b492a80021c0220011017800fe
:1027e8000200a700b4b2a80002e0a700b4d2a80073
:1027f80002f0a700b4f2a800d1c022002c0e0200fb
:1028080000000000d08a80005c11b7004220ae00b2
:10281800b512a80001c122002c0e02000000000021
:10282800d08a80005c11b7004220ae00b532a80003
:1028380031c122002c0e020000000000d08a800066
:102848005c11b7004220ae00b552a80061c1220059
:102858002c0e020000000000d08a80005c11b70036
:102868004220ae00b572a80091c122002c0e0200d1
:1028780000000000d08a80005c11b7004220ae0042
:10288800b592a800c1c122002c0e02000000000071
:10289800d08a80005c11b7004220ae00b5b2a80013
:1028a800f1c122002c0e020000000000d08a800036
:1028b8005c11b7004220ae00b5d2a80021c22200a8
:1028c8002c0e020000000000d08a80005c11b700c6
:1028d8004220ae00b5f2a800c013020000000000bc
:1028e800a0958000801878002632ec00c0052000f2
:1028f8002612e300abff39002632ef00f830ec0077
:1029080070002000f810e300a6ff3900f830ef004f
:10291800000006000000230010908800c010a800e6
:102928000a38020000000000c010a90000000600dc
:102938001100230010908800c010a8000a38020077
:1029480000000000c010a9000000060022002300bb
:1029580010908800c010a8000a380200000000008b
:10296800c010a90000000600330023001090880062
:10297800c010a8000a38020000000000c010a9001a
:102988000000060000000600000006003222af002a
:102998003222a9002222af002222a900000006004c
:1029a8003031ef00908980003411b7003611b7003c
:1029b8003811b7003a11b7003c11b7003e11b70003
:1029c8004011b700f2ff2000020060000000e000a4
:1029d80001003a00000006000001eb00211321006d
:1029e8008100410081004100110078000000e000f2
:1029f80004003a000201e8006810e100f7ff39001e
:102a080000000600800078000002eb0010002000a3
:102a18000400dd000100600005003a000402e8003f
:102a2800c00020000020e100f8ff39000000060087
:102a3800c00020000201b800040041000000e800c6
:102a480032150200000000008089880000000000a4
:102a58000000000000000000000006000006010061
:102a680000000500d0010500d0020500d0030500d4
:102a7800d0040500e0010500e0020500e0030500c0
:102a8800e0040500f0010500f0020500f003050070
:102a9800f00405000002050000030500000405001d
:102aa80000050500100205001003050010040500cc
:102ab800100505002002050020030500200405007c
:102ac800200505003002050030030500300405002c
:102ad80030050500400205004003050040040500dc
:102ae800400505005002050050030500500405008c
:102af800500505006002050060030500600405003c
:102b080060050500700205007003050070040500eb
:102b1800700505008002050080030500800405009b
:102b2800800505009002050090030500900405004b
:102b380090050500a0020500a0030500a0040500fb
:102b4800a0050500b0020500b0030500b0040500ab
:102b580000000500b0050500c0020500c00305001f
:102b6800c0040500c0050500100005002000050090
:102b78003000050040000500500005006000050019
:102b880000000500700005008000050090000500a9
:102b9800a0000500b0000500c0000500d000050039
:102ba800e0000500f0000500000105001001050027
:102bb8000000050020010500300105004001050066
:102bc8005001050060010500700105008001050045
:102bd80090010500a0010500b0010500c001050035
:102be80002718000f0ff2f00004178000271880018
:102bf80000000600027180000000200000417800fb
:102c080002718800000006000000000000000000bb
:102c180000000000000000000000000000000000ac
:102c2800000000000000000000000000000000009c
:102c3800000000000000000000000000000000008c
:102c4800000000000000000000000600d0bc2a00c0
:102c5800a010e3000100320000000600a030ef00e1
:102c68001085800080898800c0f0a8000000060058
:102c7800c0f0ae0000000600000006008089800059
:102c88000080fd00f00fb2000100320000000600d5
:102c980001f0210080898000f007b2004100dd00ca
:102ca80081004000608980000080fd003011b7007d
:102cb80080087800000006008030ef008230ef00c6
:102cc8008430ef008630ef00c330af00e8ff3700f4
:102cd800c0f0ae0000000600c0f0a90080898000a6
:102ce80001102a0080898000f007b2004100dd0051
:102cf800810040003101ba000280fd00f20fb200ed
:102d0800c00520000010e1000100390000000600a5
:102d18000201e800808980000080fd003000b200d8
:102d280000060100030037000500370008003700df
:102d38000a003700c3f0a9000284880000000600da
:102d4800c3f0af00000006001284880000000600ef
:102d5800c3f0a8002284880000000600328488009e
:102d6800000006008030ef008230ef008430ef0072
:102d78008630ef00bd70ae0000000600d4140200db
:102d8800000000003011e20011003a004831ec0068
:102d9800400020004811e3004200ae000000060099
:102da800c230a800108a8000c250ae00108488008b
:102db800c250a900c210a900c270a9004231ef0098
:102dc8004431ef004631ef004a31ef0000000600c1
:102dd8004831ef00208a80003011e30005003200fe
:102de8004631ef004a31ef0080898000208a880050
:102df800000006004631ec00200020004611e300e8
:102e08004200ae0000000600c270af0007003700a5
:102e180080898000108a880000848800c270a80019
:102e2800c230a9004631ed00000006004a31ec002e
:102e3800a00f20004a11e3004220ae000400370032
:102e48008089800020848800c250a8000000060005
:102e5800401f20004a11e3004220ae000000060097
:102e6800808980003084880000000600bc30ef00b4
:102e780030088000ba90b6004220af00000006007b
:102e8800e0858800be30b700bab0b6000060fe002a
:102e980000000600bd10ae0000000600f0ff2f0085
:102ea800f411e30009003200f431ec004000200086
:102eb800f411e30005003a00c350ae0003003700e8
:102ec800be38020000000000c350a900ce10e20086
:102ed80017003200708680000006010014003700d9
:102ee8001400370043053700110637007305370013
:102ef800a505370081053700890537000f00370021
:102f08005e013700ff003700d0003700b7003700f8
:102f1800510037009005370062003700a0003700e5
:102f28000b003700310037000000060000000600e3
:102f380000000600ce30ef00000006001000200060
:102f4800708688006c130200000000000000060074
:102f5800d210e20002003200d230ed00000006007c
:102f6800803e200090868800808680000006010050
:102f7800020037000a003700120037004193210091
:102f8800001822008008780020002000b0cb8800bc
:102f98002205020000000000d030ec00000006000e
:102fa80041932100001823008008780020002000a9
:102fb800b0cb88002205020000000000d030ec00f1
:102fc80000000600419321000008210080087800d5
:102fd80020002000b0cb880022050200000000007d
:102fe800ce30ef00d030ef0000000600d210e20033
:102ff80002003200d230ed0000000600808680001a
:1030080000060100010037000a003700f000220026
:1030180010908800c010a8000a38020000000000c4
:10302800c010a900007d200090868800d030ec00f8
:1030380000000600da040200000000004e1302003f
:10304800000000009c04020000000000ce30ef00e9
:10305800d030ef0000000600d210e200020032007b
:10306800d230ed00000006008086800000060100d6
:10307800010037000a003700c000220010908800c5
:10308800c010a8000a38020000000000c010a90003
:10309800d030ec00a00020009086880000000600d8
:1030a80000000600d210e20002003200d230ed002b
:1030b800000006008086800000060100010037003d
:1030c8000a003700d000220010908800c010a80025
:1030d8000a38020000000000c010a900d030ec003f
:1030e800a00020009086880000000600000006006e
:1030f800d210e20002003200d230ed0000000600db
:1031080080868000000601000100370008003700b3
:1031180000002000308788000000200040878800d9
:10312800f003200030918800d030ec000000060049
:10313800000000000000000000000000e830ec0083
:1031480080002000e810e30006003900e830ef00b6
:10315800e630ec0070002000e610e30001003900c2
:10316800e630ef00803e2000908688004000220074
:1031780010908800e810f8000412f900e610f80032
:103188000612f90030918000f0888800c010a8006d
:10319800f237020000000000c010a900000006007d
:1031a800d210e20002003200d230ed00000006002a
:1031b800803e2000908688008086800000060100fe
:1031c8000100370007003700300022001090880007
:1031d800c010a8000a38020000000000c010a900b2
:1031e800000006000000060000000600d210e20001
:1031f80002003200d230ed00000006008086800018
:1032080000060100010037000f003700e1b221007d
:10321800f0ff2f0090918800000220006091880044
:103228008001200070918800c310a800ae1b020026
:1032380000000000c310a900d030ec00a00020005e
:10324800908688000000060000000600d210e20008
:1032580002003200d230ed000000060080868000b7
:103268000006010002003700060037001100370091
:10327800b230ef00a000200090868800d030ec002b
:1032880000000600000020002090880000002200b6
:1032980010908800c010a8000a3802000000000042
:1032a800c010a900d030ec004006200090868800ad
:1032b80000000600f0012000209088000000220095
:1032c80010908800b210f8001e11f900c010a80074
:1032d800f237020000000000c010a900b230ec0074
:1032e800c0052000b210e30001003900b230ef0041
:1032f8001000200080868800401f200090868800eb
:1033080000000600d210e20002003200d230ed00c8
:103318000000060080868000000601000b003700d0
:1033280016003700180037001a0037001c00370055
:103338001e00370020003700220037002400370025
:103348003a003700010037000c0037000000200069
:10335800209088000000220010908800c010a8006b
:103368000a38020000000000c010a900d030ec00ac
:10337800400620009086880000000600f0ff2f001d
:10338800909188001400370000802f0090918800e9
:1033980011003700007e2000909188000e00370051
:1033a800f0012000909188000b003700f07f20008a
:1033b800909188000800370000fe2f009091880047
:1033c800050037004044240090918800020037002f
:1033d800c0cc2c0090918800c1b1210000002000d1
:1033e800609188000000200070918800d030ed00c6
:1033f80000012000d010bc0072918800d030ec0091
:10340800ae1b020000000000b230ec00c005200036
:10341800b210e30001003900b230ef00d030ec0008
:10342800400620009086880000000600d030ef009b
:10343800401f20009086880000000600d210e2009d
:1034480002003200d230ed0000000600803e20006d
:10345800908688008086800000060100bbff370048
:103468003000220010908800c010a8000a3802001e
:1034780000000000c010a90000000600d210e20001
:1034880002003200d230ed0000000600803e20002d
:1034980090868800808680000006010004003700be
:1034a8000d003700160037001f00370028003700ce
:1034b800f001200020908800000022001090880071
:1034c800c010a8000a38020000000000c010a900bf
:1034d800d030ec0000000600007e2000209088001c
:1034e8000000220010908800c010a8000a380200ce
:1034f80000000000c010a900d030ec000000060059
:1035080000802f0020908800000022001090880082
:10351800c010a8000a38020000000000c010a9006e
:10352800d030ec0000000600f0ff2f00209088004b
:103538000000220010908800c010a8000a3802007d
:1035480000000000c010a900d030ec000000060008
:1035580000002000209088000000220010908800c1
:10356800c010a8000a38020000000000c010a9001e
:103578000000200080868800000006001a32ef0054
:10358800d0bc2a000c1b02000000000060918000e3
:10359800f61a02000000000070918000f61a02007e
:1035a80000000000909180000c1b02000000000049
:1035b8001100ba000100a7000080fd00f00fb20062
:1035c80004003200f61a0200000000008100e80042
:1035d800f7ff37008100e800f61a0200000000003b
:1035e80000000600f00fb2001a12af000300370007
:1035f800800978001a32ec00000006000080fd0007
:10360800930970001a32ec008381e800000006007c
:10361800801f7800f61a0200000000004f007800b2
:103628000080fd00f61a02000000000000000600fd
:1036380030310000323300003435000036370000e6
:10364800383900004142000043440000454600006c
:10365800000000004b650000792000005465000060
:1036680073740000000000004572000061730000e0
:1036780065200000466c00006173000068000000cf
:10368800507200006f670000726100006d2000003a
:10369800466c00006173000068000000536500007c
:1036a80074200000466c0000617300006800000090
:1036b80054450000535400002e2e00002e00000038
:1036c8004f4b00000000000045520000520000006f
:1036d800c2f0ae00100037000002eb00c1872100e5
:1036e8008100420081004200110078000200e100e0
:1036f80007003a000402e800c0052000100020007e
:103708000020e100f5ff3900c150a80000000600c4
:10371800c150a9000000060020878000c187210051
:103728008100400081004000110078000200e100a3
:1037380002003a00c150a80000000600c150a900cc
:1037480000000600c18721005b0009008018eb001b
:1037580000000600c2f0a80001003700c2f0a9006e
:1037680003c02200c21a020000000000100022005c
:10377800c310ae002000220010908800c010a800de
:1037880003c02200c2f0af0006003700e410f800c2
:103798001e11f9003637020000000000c010a90011
:1037a800000006004637020000000000c010a90013
:1037b80000000600c130a900c110a900de10e20017
:1037c80002003200de30ed0000000600e0868000d6
:1037d8000006010002003700100037002100370002
:1037e80081b32100f0ff2f00909188000000200095
:1037f800609188000000200070918800c310a80024
:10380800b41b020000000000c310a900dc30ec006b
:10381800a0002000f086880000000600400021007b
:1038280010908800c010a800c2f0ae00f237020065
:1038380000000000c2f0af000a38020000000000db
:10384800c010a900c18721005b0009008018eb00a7
:10385800dc30ec00e030ef00800c2000f0868800bf
:1038680000000600e030ec00803e2000e010e3009d
:1038780003003900da30ef00c110a800000006008c
:10388800220020006c1b020000000000c150af00a5
:103898000b00370050002100109088000000200025
:1038a80020908800c010a800f23702000000000035
:1038b800c010a900a0002000f086880000000600c3
:1038c800c130a80000000600c130a900c110a9003d
:1038d800de10e20002003200de30ed0000000600db
:1038e800e08680000006010004003700150037005c
:1038f8005e0037007a0037008600370041b42100a7
:10390800f0ff2f009091880000002000609188004f
:103918000000200070918800c310a800b41b0200aa
:1039280000000000c310a900dc30ec00a00020005b
:10393800f0868800e630ef00e830ef00ea30ef006c
:1039480000000600ea10e20003003a000000000050
:103958000000000000000000e81f02000000000056
:10396800c150af000f003700ea30ef00e830ec003c
:1039780080002000e810e300f2ff3900e830ef0093
:10398800e630ec0070002000e610e300edff39009f
:1039980030002000e0868800a0002000f086880023
:1039a80000000600308780000080fd00e810b700a6
:1039b80020908800ea10f8000612f900ec10f800d0
:1039c8000812f9007000210010908800c010a800ab
:1039d80003c02200e410f8001e11f90000102000b6
:1039e800d0908800c010a800363702000000000000
:1039f800c010a900ea30ec0060878000ea10e300fc
:103a080010003900ea30ef00e830ec0080002000b8
:103a1800e810e3000b003900e830ef00e630ec0076
:103a280070002000e610e30006003900e630ef00e1
:103a380030002000e0868800a0002000f086880082
:103a480000000600dc30ec0040002000f086880012
:103a5800e030ef0020878000c1872100810040000e
:103a6800810040008008eb0000000600e030ec0018
:103a780040062000e010e3000c00310020878000a1
:103a8800c1872100810040008100400011007800ba
:103a98006100e100090032006200e1000b00320021
:103aa80040002000f086880000000600c110a80031
:103ab80040002000e086880000000600c110a80031
:103ac80040002000e086880000000600100020006a
:103ad800e0868800a0002000f0868800000006002c
:103ae800e410f8001e11f9008000210010908800f1
:103af800c010a800f237020000000000c010a900a2
:103b0800da30ec00a0002000f0868800c130a80060
:103b1800000006000000060020878000c187210001
:103b280081004000810040008008eb000000060092
:103b380020878000c187210081004000810040006b
:103b48001100780000000600c130a900c110a900ca
:103b5800de10e20002003200de30ed000000060058
:103b6800e0868000000601000a0037001d003700cb
:103b78002b0037005800370064003700700037000a
:103b88008d0037009c003700dd003700ff0037004c
:103b98000c013700e410f8001e11f90021b52100ce
:103ba800f0ff2f00909188000000200060918800ad
:103bb8000000200070918800c310a800b41b020008
:103bc80000000000c310a900dc30ec00c000200099
:103bd800f0868800e630ef00e830ef00ea30ef00ca
:103be80000000600e410f8001e11f9009000210002
:103bf80010908800c010a800f237020000000000f2
:103c0800c010a900dc30ec0040002000f0868800dd
:103c1800901d020000000000e030ef0000000600e8
:103c280040062000f0868800e030ec00a00020006c
:103c3800e010e3001a0031009c1d020000000000a3
:103c48006200e10001003200000006003e20020090
:103c5800000000000e003a0041b62100007f20005d
:103c680090918800000720006091880000002000e3
:103c780070918800c310a900b41b02000000000066
:103c8800a0002000e0868800c130a80000000600df
:103c9800dc30ec0040002000f086880000000600c0
:103ca80081b62100f0012000909188008006200054
:103cb800609188000000200070918800c310a9005e
:103cc800b41b020000000000a0002000e08688006d
:103cd800c110a8000000060081b32100f0ff2f00ea
:103ce8009091880000002000609188000001200069
:103cf80070918800b41b020000000000dc30ec006a
:103d080040012000f08688000000060040002100e5
:103d180010908800c010a800f237020000000000d0
:103d2800c010a900901d020000000000dc30ec006b
:103d3800e030ef0040012000f08688000000060017
:103d4800e030ec00803e2000e010e3000500390080
:103d5800da30ef0040012000e0868800c110a8009a
:103d680000000600220020006c1b0200000000007a
:103d7800c150af000b0037005000210010908800a0
:103d88000000200020908800c010a800f237020030
:103d980000000000c010a900a0002000f0868800e4
:103da80000000600dc30ec00e030ef0040012000ad
:103db800f08688000000060041b42100f0ff2f00c3
:103dc8009091880000002000609188000002200087
:103dd80070918800b41b020000000000dc30ec0089
:103de800a0002000f0868800e630ef00e830ef0001
:103df800ea30ef0000000600e81f020000000000a3
:103e0800c150af000f003700ea30ef00e830ec0097
:103e180080002000e810e300f7ff3900e830ef00e9
:103e2800e630ec0070002000e610e300f2ff3900f5
:103e380090002000e0868800a0002000f08688001e
:103e480000000600308780000080fd00e810b70001
:103e580020908800ea10f8000612f900ec10f8002b
:103e68000812f9007000210010908800c010a80006
:103e780003c02200e410f8001e11f9000010200011
:103e8800d0908800c010a80036370200000000005b
:103e9800c010a900ea30ec0060878000ea10e30057
:103ea80010003900ea30ef00e830ec008000200014
:103eb800e810e3000b003900e830ef00e630ec00d2
:103ec80070002000e610e30006003900e630ef003d
:103ed80090002000e0868800a0002000f08688007e
:103ee80000000600dc30ec0040002000f08688006e
:103ef800e030ef00901d0200000000000000060006
:103f0800e030ec0040062000e010e3000c00310037
:103f180020878000c1872100810040008100400087
:103f2800110078006100e100050032006200e10044
:103f38001100320040002000f086880000000600d2
:103f480081b62100f00120009091880080062000b1
:103f5800609188000002200070918800c310a900b9
:103f6800b41b020000000000a0002000e0868800ca
:103f7800c110a8000000060070002000e08688003c
:103f8800a0002000f086880000000600e410f80079
:103f98001e11f9008000210010908800c010a800b0
:103fa800f237020000000000c010a900da30ec006f
:103fb800a0002000f0868800c130a800dc30ec00aa
:103fc8000000060000000600c150a800ea10e20048
:103fd8001d003a003087800000002200e610bc0077
:103fe800d28a8800e38a880000042000e410bc001c
:103ff800020078005a31b400030078005cb1b400c4
:10400800001221005a31b400000020005cb1b40055
:10401800ea3302000000000001c02200110078000d
:10402800b2da2c000200e10002003200c150a900ff
:1040380000000600fa20020000000000c290af0055
:10404800c150a900000006005e11f8005a11f900dd
:104058006011f8005c11f900f03302000000000064
:104068005a11f8005e11f9005c11f8006011f900ae
:1040780000000600e630ef00e830ef0030878000ef
:1040880000002200e610bc00d28a8800e38a88007b
:1040980000042000e410bc00020078005a31b4008b
:1040a800030078005cb1b400001221005a31b4005a
:1040b800000020005cb1b400ea33020000000000f8
:1040c80001c0220011007800b2da2c000200e100e1
:1040d8000a003a00fa20020000000000c290af0077
:1040e80006003700c1c02200310078000084880033
:1040f8003100780010848800140037000002200086
:10410800e610bc00408780004200dd00020140004c
:10411800c38f8000a300b000830141003300780002
:1041280000027800330078008002780005007200f1
:1041380015003200b0fa2f000400e1001e003a001a
:104148000500e1001c003a000f00370000022000c3
:10415800e610bc00408780004200dd0002014000fc
:10416800c38f8000a300b0008301410033007800b2
:104178008010e30010003a00330078008210e3005a
:104188000d003a0000000000e830ec00800020003c
:10419800e810e300b9ff3900e830ef00e630ec0042
:1041a80030002000e610e300b4ff3900e630ef00ed
:1041b8004220a800000006004220a90000000600d6
:1041c800408780007000b200000601005002050020
:1041d80080020500b0020500e0020500100305009a
:1041e8004003050070030500a0030500c290a90064
:1041f800e42002000000000001c02200810040000d
:10420800dc21020000000000d08a8800c4210200de
:1042180000000000e08a8800d08a80005c11b700a6
:1042280002003a00c290a800000006004200a9005f
:104238005ab1d6005cb1d6004200a9005ab1d600e6
:104248005cb1d600f0330200000000005a11f800fb
:104258005e11f9005c11f8006011f90001c022003c
:1042680011007800b2da2c000010e10002003200e0
:10427800c290a8000000060041c02200dc21020014
:10428800000000000001780003002000f00fb200d9
:104298004220ae0013002000020078000080fd00dc
:1042a800f00fb2000300400060878800000006009d
:1042b800c290a900ea10e20028003a00e4200200b7
:1042c8000000000001c0220081004000dc21020043
:1042d80000000000d08a8800c4210200000000000d
:1042e800e08a88004200a9005ab1d6005cb1d60025
:1042f8004200a9005ab1d6005cb1d600f0330200e2
:104308000000000001c0220011007800b2da2c0081
:104318000010e10002003200c290a8000000060070
:1043280041c02200dc2102000000000000017800ea
:1043380003002000f00fb2004220ae00130020005e
:10434800020078000080fd00f00fb200030040007a
:1043580060878800ea30ec0000000600f0330200b5
:1043680000000000ea30ec0060878000ea10e300fb
:104378000100310000000600c290a80000000600fd
:104388000100a7000400370011007800f00fb20008
:104398008100e800000006000100a100110078007b
:1043a8000080fd00f00fb2008180e80000000600e8
:1043b800c421020000000000801f7800c421020010
:1043c800000000000080fd004f017800020070002e
:1043d8000000060001c02200100020000208200092
:1043e800801878001010b0000201e900fcff3a00c4
:1043f80000000600d210e20002003200d230ed00c8
:104408000000060000012000908688008086800059
:1044180000060100020037001200370022003700b2
:10442800c610af00000006000432ef0006b2ef002d
:10443800f634020000000000c810ae000300370088
:104448000c370200000000000000060006370200da
:1044580000000000a436020000000000d030ec008c
:10446800000006000432ec00d0ac2000005121000e
:1044780030908800f634020000000000c810ae003a
:10448800030037000c37020000000000000006009f
:1044980000000000000000001837020000000000c3
:1044a800d030ec0000000600100020007086880064
:1044b800d230ef00d030ef0000000600c2f0a900b3
:1044c800c2b0a800c2d0a90000002000c0868800a1
:1044d8004100370080052000508988000012f8004c
:1044e8002a11f900c2f0a900c2b0a900c2d0a800e0
:1044f80000002000c086880037003700f0ff2f003a
:104508000012e300f5ff3a00c2f0a800c2b0a9000b
:10451800c2d0a90000002000c08688002e00370005
:10452800f0ff2f000012e300030032000012f80031
:104538002a11f90008003700c2f0a900c2b0a8008b
:10454800c2d0a90020002000c086880022003700c1
:10455800c001200050898800c2f0a900c2b0a9009b
:10456800c2d0a80020002000c08688001a003700aa
:10457800c2f0a800c2b0a900c2d0a9002000200043
:10458800c086880014003700c2f0a900c2b0a80095
:10459800c2d0a90010002000c08688000e00370095
:1045a8008005200050898800c2f0a900c2b0a90087
:1045b800c2d0a80010002000c0868800060037007e
:1045c800c2f0a800c2b0a900c2d0a9001000200003
:1045d800c086880000003700c610af000000060043
:1045e800d210e20002003200d230ed0000000600d6
:1045f8008086800000060100020037000b003700ab
:10460800160037002a11f8000412f900c00520002e
:10461800309088000637020000000000d030ec001f
:10462800000a200090868800000006002a11f80081
:104638000412f900c0052000309088000c370200f1
:1046480000000000d030ec00000a200090868800ae
:10465800de30ef00dc30ef00000006002a11f80021
:10466800e410f90000002000d810e30002003a002e
:10467800de1b02000000000010002000d810e3003c
:1046880002003a00681c0200000000002000200020
:10469800d810e30002003a00a81d02000000000044
:1046a800c2b0af0005003700c110af0019003700d5
:1046b800c130af001000370000000600c110af0085
:1046c80003003700c130af000100370000000600ca
:1046d8001000200080868800c01220009086880084
:1046e8002a31ec00c00520002a11e3000100310046
:1046f8000000060000003700183702000000000024
:104708001000200070868800d230ef00d030ef0013
:104718000000060012370200000000001000200010
:1047280070868800d230ef00d030ef00000006001d
:10473800c610af0000000600d210e20002003200ee
:10474800d230ed00000006000001200090868800ad
:104758008086800000060100030037000c00370047
:104768001f003700250037005c31ef005c11f800ae
:104778000412f90000102000c005200030908800c5
:104788000637020000000000d030ec0000000600f0
:104798006033020000000000c110ae0002003700c4
:1047a800d030ec00000006005c11f8000412f9009b
:1047b80000102000309088000c3702000000000034
:1047c8005c31ec00001020005c11e30001003100b6
:1047d80000000600d030ec00d030ec0000000600ed
:1047e80012370200000000001000200070868800c8
:1047f800d230ef00d030ef0000000600183702007a
:10480800000000001000200070868800d230ef0001
:10481800d030ef0000000600200a8000200a800047
:10482800200a8000200a80000028a90020402000db
:10483800000a880040c8a80040a8a9004088a9002c
:104848002028a80000000600600a8000600a800096
:10485800600a8000600a800000a8a90020402000ab
:10486800400a880040c8a80040a8a9004088a900bc
:1048780020a8a80000000600a00a8000a00a800066
:10488800a00a8000a00a800004a8a90020402000f7
:10489800800a880052c8a80052a8a9005288a90016
:1048a80024a8a80000000600e00a8000e00a8000b2
:1048b800e00a8000e00a800004c8a9002040200027
:1048c800c00a88005348a8005328a9005308a90023
:1048d80024c8a800000006000040a7000300370015
:1048e8000030a700040037000600370000002a0047
:1048f800d20b20000000060000002a00a2172000aa
:104908000000060000002a00128e200000000600a9
:104918000021ef0020cc800070240200000000007d
:10492800200888001208880041c8a80041a8a900ea
:104938004188a8000068a9002068a80000000600b7
:104948000a21ef0080cc80007024020000000000e3
:1049580090088800720888004448a8004428a900e4
:104968004408a8000108a9002108a80000000600c2
:1049780000032a0080088800000006001421ef00c8
:10498800e0cc80007024020000000000f0088800dd
:10499800d20888004dc8a8004da8a9004d88a800d5
:1049a8000368a9002368a800000006001821ef008a
:1049b800c0cb8000702402000000000000098800bd
:1049c800e20888004e48a8004e28a9004e08a80012
:1049d8000388a9002388a80000000600217420008d
:1049e800620420007305200082487800834878001c
:1049f80042c7a90000f02f00c426b600a00220007c
:104a0800c426b700f00f20008e26b6000010200044
:104a18008e26b70000f02f00c626b60080022000c0
:104a2800c626b700f00f20008426b600003020000c
:104a38008426b700f00f2000a026b6005002200000
:104a48000080fd00a026b70000f02f00a226b600c7
:104a580000022000a226b70000f02f008226b60030
:104a6800000120008226b70000f02f00ae26b60015
:104a7800c0022000ae26b700f00f2000ae26b60018
:104a8800700720000080fd00ae26b70000f02f0060
:104a9800b026b600f0022000b026b700f00f2000c4
:104aa800b026b600900120000080fd00b026b700b7
:104ab80021742000620420007305200082487800d9
:104ac8008348780042c7a80000000600c228a80052
:104ad8004a48a8004a28a9004a08a9000288a9004b
:104ae8002288a80000000600c248a8004ec8a800f6
:104af8004ea8a9004e88a90003a8a90023a8a800c9
:104b080000000600b0062000e00820003002200067
:104b18004011880080002800001188000040200013
:104b2800101188004648a9004628a8004608a80091
:104b38000188a9002188a800301180003011800068
:104b480030118000301180000168a90045c8a90013
:104b580045a8a8004588a8000168a9002168a80000
:104b680000000600b0062000e00820003002200007
:104b7800c0118800800028008011880000402000b3
:104b8800901188004fc8a9004fa8a9004f88a80015
:104b980003e8a90023e8a800b0118000b011800044
:104ba800b0118000b011800003c8a9004f48a900c7
:104bb8004f28a9004f08a80003c8a90023c8a800c7
:104bc80000000600b0118000b0118000b011800014
:104bd800b011800003c8a90023c8a900000006007e
:104be800b0118000b0118000b0118000b0118000b9
:104bf80003c8a90023c8a800000006001000200070
:104c08000400370070002000020037007000200008
:104c1800000037003174200082072000a30920001b
:104c28000300fc00824878008348780043e7b70017
:104c38002174200062042000730520000300fc009a
:104c480082487800834878004207a8000060fe0088
:104c58004207af00fdff3700000006004427ef00c1
:104c68000003200050042000303a88000000200093
:104c78004427b700000020004427b70000002000a8
:104c88004427b700000000000000000000000000fa
:104c9800007122002e3b020000000000000000000e
:104ca8000000000000000000100020000e26020096
:104cb8000000000000002000403a880000000600c4
:104cc8000060fe00b00a2000201188000071220058
:104cd8002e3b020000000000f9ff370040002000d2
:104ce800a0858800f0012000f0908800f0012000e5
:104cf80000918800f000200010918800f8b9ef00ba
:104d0800b8b9ef00c8b9ef00d8b9ef00e8b9ef00bb
:104d18000000060004eea80000eea90015cea800c9
:104d280011cea90011eea80064cea80060cea9009b
:104d380060eea800650ea800610ea900652ea90006
:104d4800612ea900058ea800018ea900056ea90094
:104d5800016ea800040ea800000ea900042ea900e8
:104d6800002ea900142ea800102ea900100ea800cd
:104d7800240ea900200ea900242ea900202ea90087
:104d8800244ea900204ea900256ea900216ea90075
:104d9800458ea900418ea90045aea90041aea900e3
:104da80041cea80045eea90041eea800050ea900d5
:104db800010ea800148ea900108ea900048ea80068
:104dc800008ea900012ea800246ea900206ea9005b
:104dd800248ea900208ea90024aea90020aea90027
:104de800350ea900310ea90014aea90010aea80016
:104df80014cea90010cea800254ea900214ea90066
:104e080014eea80010eea90025aea90021aea90055
:104e1800110ea800152ea800112ea90024cea90055
:104e280020cea90024eea90020eea900250ea90095
:104e3800210ea90034aea90030aea90034cea900d5
:104e480030cea900252ea800212ea900500ea800ba
:104e5800542ea800502ea900114ea800156ea800c7
:104e6800116ea900118ea80015aea80011aea900f8
:104e7800054ea800014ea9001beea8006aeea80086
:104e88001a0ea8000b2ea8001b8ea8000000060012
:104e9800c710af0003003700c750af000600370047
:104ea80000000600c710a900508e8000708e880090
:104eb8000100220005003700c750a900608e80005d
:104ec800708e88000128220000003700c18f8800fa
:104ed80031007800023022000200e10004003200b4
:104ee800f2ff2f000200e10001003200000006007e
:104ef80031007800020020000200e10004003200c6
:104f0800f2ff2f000200e10001003200000006005d
:104f180031007800d08f880031007800e08f880059
:104f280031007800f08f8800f08f80000080fd004d
:104f3800f00fb2006000e10002003a000628040009
:104f4800000000007000e10002003a001c29040083
:104f580000000000e000e10002003a00b22804006e
:104f680000000000f000e10002003a008a28040076
:104f780000000000f100e10002003a00942804005b
:104f880000000000f200e10002003a009e28040040
:104f980000000000f300e10002003a00a828040025
:104fa80000000000f400e10002003a00f0270400cd
:104fb80000000000f500e10002003a00fe270400ae
:104fc800000000007001e10002003a0072280400ad
:104fd8000000000000000600f08f8000f00fb20013
:104fe800608988003a11020000000000c330a80060
:104ff80000000600c330a9004c11020000000000a8
:1050080000000600f08f8000f000b20000060100ea
:105018001100370011003700120037001200370066
:10502800120037001200370012003700080037005e
:105038000b00370006003700050037000400370072
:10504800030037000f003700020037000000370068
:105058000000060000000600000006000000060030
:105068000000060000000600000006000000060020
:105078000000060010002000d230ef007086880083
:1050880000000600fc31ed00fc31ed008001eb0072
:105098003102780003006a00f00fb2000c003a00f9
:1050a8008301e8000480fd0003006a00f00fb200ed
:1050b80007003a008301e800e08f80000018e10053
:1050c800f3ff390006370200000000000000060068
:1050d800303702000000000000000600fc31ed003f
:1050e800fc31ed00c18f880000002500fe11e300af
:1050f800010032000000060040002000b08f880048
:105108005c2b02000000000000000600f08f800009
:10511800f00fb2000000e800908a88000000060046
:10512800f08f8000f00fb2000000e800a08a88002d
:1051380000000600f08f8000f00fb2000000e800c9
:10514800b08a880000000600f08f8000f00fb200df
:105158000000e800c08a880000000600c0d0a9004e
:10516800f08f80007000b2000006010007003700d1
:105178000b0037000f003700130037001700370007
:105188001b0037001f003700240037008000200074
:1051980070868800d230ef00d030ef0000000600a3
:1051a8009000200070868800d230ef00d030ef00e9
:1051b80000000600a000200070868800d230ef00b2
:1051c800d030ef0000000600b00020007086880094
:1051d800d230ef00d030ef0000000600c000200001
:1051e80070868800d230ef00d030ef000000060053
:1051f800d000200070868800d230ef00d030ef0059
:1052080000000600f000200070868800c0d0a800ca
:10521800d230ef00d030ef0000000600000120007f
:1052280070868800d230ef00d030ef000000060012
:10523800f08f80007000b200000601003d003700ca
:10524800450037004d0037009a0037002f0037001f
:1052580018003700210037000a0037000000060058
:1052680000000600f001200050898800700020002e
:1052780070868800800c200090868800d030ef006f
:10528800000006003100780000908800c010a900d6
:1052980006370200000000002a31ef0070002000ed
:1052a80070868800800c200090868800d030ef003f
:1052b80000000600c010a900063702000000000028
:1052c8002a31ef005000200070868800800c2000f2
:1052d80090868800d030ef0000000600310078008a
:1052e80000908800c010a9000637020000000000e6
:1052f8002a31ef006000200070868800800c2000b2
:1053080090868800d030ef0000000600c010a90089
:1053180006370200000000002a31ef00400020009c
:1053280070868800800c200090868800d030ef00be
:1053380000000600c010a9000637020000000000a7
:105348002000200070868800800c2000908688004d
:10535800d030ef0000000600c010a9000637020098
:105368000000000030002000708688000001200046
:1053780090868800d030ef0000000600c010a90019
:10538800c18f8000a100b0003100780060908800d3
:1053980031007800709088000e12e20001003a0097
:1053a8009630ef00b08480000e12e3000600320051
:1053b8000000e8000e12e3000300320000000000c5
:1053c80000000000000000000e12f8009610f9001e
:1053d800609080000e12bc00d28a8800e38a8800a0
:1053e8004200a9005cb1d7005ab1d70020002000c4
:1053f8005c11e30007003a0000c02a005a11e300dc
:1054080004003a0000000000000000000000000056
:10541800000000005a11f8008010f9005c11f80033
:105428008210f900218488008630ef0021848000f2
:105438008210f8005c11f9008010f8005a11f90088
:10544800e632020000000000218480008210f8008b
:105458005c11f9008010f8005a11f900203202009e
:1054680000000000c110ae00090037008630ec00d3
:10547800300020008610e300ecff39000000000037
:1054880000000000123702000000000000000600c3
:105498000e12f8000412f90006370200000000009e
:1054a80000000000000000000000000000000000f4
:1054b80000000600c010a900c18f8000a100b00044
:1054c8003100780060908800310078007090880082
:1054d800609080000e12bc00d28a8800e38a88009f
:1054e8004200a9005cb1d7005ab1d7000e12e20001
:1054f80002003a002631ef002831ef002032020086
:1055080000000000c110ae000600370000000000d7
:105518000000000000000000123702000000000038
:10552800000006000e12f8000412f9000000000046
:105538000000000000000000000000000637020024
:105548000000000000000600c570a900b08f8000b0
:105558006100e100030032006300e1000300320053
:1055680000000600c570a80000000600e1b4220093
:10557800e400200043932100162b020000000000e5
:10558800c570af001900370001b42200e400200004
:1055980043932100162b020000000000c570af00e5
:1055a800040037000000000000000000c570a800db
:1055b80000000600c08780006100e10001003a0099
:1055c800000006006300e10001003a000000060048
:1055d80010002000c08788002832ef006c130200fa
:1055e80000000000c570a80000000600c087800009
:1055f8006000e10001003a00000006006200e100de
:1056080001003a000000060000002000c087880062
:105618002832ef006c13020000000000c570a800db
:1056280000000600c570a900010078000000a10074
:105638001001ba000100a7000280fd0003007800f5
:105648000000a100100078000300a7000080fd0002
:1056580002006800f00fb2000100320000000600ee
:105668008100e8008301e8000402e900eeff3a0047
:10567800c570a80000000600eaa30000950000001d
:1056880000000000ab02000000010000201500002f
:1056980006eb0000eaa300009500000000000000ef
:1056a800ab020000000200002016000007eb00001b
:1056b800a82a020000000000c570af000000060024
:1056c8002632ef000060fe00c01302000000000058
:1056d80011007800a0958800f651af000700370048
:1056e8000000eb00b4d2af000000a000b4f2af009d
:1056f8000010a000f611e30018003a00b512af0040
:10570800c62b020000000000b532af00d22b020009
:1057180000000000b552af00de2b020000000000c0
:10572800b572af00ea2b020000000000b592af008e
:10573800f62b020000000000b5b2af00022c0200f8
:1057480000000000b5d2af000e2c020000000000df
:10575800b5f2af001a2c0200000000002632ec005f
:10576800c00520002612e300d6ff3900c590ae0020
:1057780000000600c590a9006c130200000000009c
:1057880000000600d4120200000000000000200003
:10579800d0878800d1c02200cf003700d412020081
:1057a8000000000001c1220010002000d0878800fe
:1057b800c9003700d41202000000000031c12200e5
:1057c80020002000d0878800c3003700d4120200d0
:1057d8000000000061c1220030002000d08788004e
:1057e800bd003700d41202000000000091c1220061
:1057f80040002000d0878800b7003700d41202008c
:1058080000000000c1c1220050002000d08788009d
:10581800b1003700d412020000000000f1c12200dc
:1058280060002000d0878800ab003700d412020047
:105838000000000021c2220070002000d0878800ec
:10584800a5003700c00120002612e3000c003a0032
:10585800000000000000000001c0220060002000dd
:1058680080187800706a2b00801878009031240026
:1058780080187800000029008018780000000600d1
:10588800d00120002612e3000c003a0000000000be
:105898000000000001c0220060002000801878008d
:1058a800706a2b00801878009031240080187800e6
:1058b800001029008018780000000600000006008b
:1058c800c570a900d41202000000000000002000ea
:1058d800d0878800d1c022002c0e020000000000f2
:1058e800e08f80000080e800d8330200000000004c
:1058f80001c02200310078006600e100010032009a
:105908000000060031007800726a2b000200e100f6
:1059180001003200000006003100780092312400b6
:105928000200e100010032000000060031017800a9
:1059380002007800f00fb2006000e10001003200c0
:10594800000006000280fd00f20fb2000284880009
:10595800c570a8008c30ef00c5b0a900c38f8000c7
:105968000002eb00830278000500a1001500780012
:105978000300a7000080fd0002006800f00fb200dd
:10598800030032008301e8000402e8001100370038
:105998008301e8000402e800e08f80000020e100b5
:1059a8000100390000000600c5b0a8008302780095
:1059b8000500a100150078000300a7000080fd0085
:1059c800f00fb200302d020000000000010032008c
:1059d800000006008301e8000402e800e08f800070
:1059e8000020e100dfff3900c5b0ae00000006006e
:1059f800608480001c2d020000000000d087880011
:105a0800c0130200000000001100780002ff2f0000
:105a180000006100d2878000f200b200000071002f
:105a280080087800c590a800c570a800000006008e
:105a38007000b2000006010000000500000005002b
:105a4800200005002000050030000500300005009a
:105a580010000500100005007000e1000c00320085
:105a68007100e1000d003200e000e1000e0032009c
:105a7800e100e1000f003200f000e1001000320008
:105a8800f100e100110032004220a90000000600e8
:105a98008c10a9004220a800000006008c10a80065
:105aa8004220a800000006008c30a9004220a8006f
:105ab800000006008c30a8004220a8000000060064
:105ac8008c50a9004220a800000006008c50a800b5
:105ad8004220a800000006002c0e02000000000072
:105ae800e08f80000080e800d8330200000000004a
:105af80001c0220031007800fc11e30021003a00c7
:105b0800c38f80000002eb00810278000500a1002d
:105b1800150078000100a7000080fd0083027800ce
:105b28000500a100150178000300a7000280fd0010
:105b380002016800f20fb20012003a008100e8008a
:105b48008301e8000402e800e08f80000020e10003
:105b5800edff3900c01302000000000011007800ba
:105b680002ff2f0000006100d2878000f200b2001f
:105b780000007100800878006c130200000000002b
:105b88000000060000000600c730af000300370021
:105b9800c770af000600370000000600c730a90034
:105ba800008f8000208f88000150220005003700f8
:105bb800c770a900108f8000208f88000160220024
:105bc80000003700c18f880031007800e088880025
:105bd80031007800f088880031007800d08f880084
:105be80031007800e08f880031007800f08f88005d
:105bf800310078006090880031007800709088004b
:105c080031007800809088003100780090908800fa
:105c180050002900fe11e30002003a00522e040051
:105c28000000000060002900fe11e30002003a00b5
:105c3800522e04000000000070002900fe11e3004d
