:020000040000fa
:080000000402040000000000ee
:020000040000fa
:080400000040da000000fe00dc
:020000040000fa
:1000080000020000000200000002000000020000e0
:1000180000020000000200000002000000020000d0
:1000280000020000003a0000000200007e350000d7
:10003800000200002e3a000000020000000200004a
:100048006836000000020000000200004c33000087
:100058008a340000000200000002000000020000d4
:100068000002000000020000000200000002000080
:100078001c33000000020000000200000002000023
:1000880000020000000200000002000052370000d9
:1000980008390000823a0000ec330000ba3400004e
:1000a8000002000000020000000200000002000040
:1000b800000200005c3a0000a03a000000020000c4
:1000c8000002000000020000000200000002000020
:1000d8000002000000020000000200000002000010
:1000e8000002000000020000000200000002000000
:1000f80000020000000200000002000000020000f0
:1001080000020000000200000002000000020000df
:1001180000020000000200000002000000020000cf
:1001280000020000000200000002000000020000bf
:1001380000020000000200000002000000020000af
:10014800000200000002000000020000000200009f
:10015800000200000002000000020000000200008f
:10016800000200000002000000020000000200007f
:10017800000200000002000000020000000200006f
:10018800000200000002000000020000000200005f
:10019800000200000002000000020000000200004f
:1001a800000200000002000000020000000200003f
:1001b800000200000002000000020000000200002f
:1001c800000200000002000000020000000200001f
:1001d800000200000002000000020000000200000f
:1001e80000020000000200000002000000020000ff
:1001f80000020000000200000002000000020000ef
:1002080000020000000200000002000000020000de
:1002180000020000000200000002000000020000ce
:1002280000020000000200000002000000020000be
:1002380000020000000200000002000000020000ae
:10024800000200000002000000020000000200009e
:10025800000200000002000000020000000200008e
:10026800000200000002000000020000000200007e
:0c02780000020000000200000002000074
:020000040000fa
:1004080020020400000000000000eb000007780054
:100418000c000900002f78000007eb000000060020
:10042800010821008018eb0040d021000008e100fd
:10043800fcff3a00000006000fe02100e0ef210079
:1004480000018800080202000000000014020200f7
:100458000000000078220200000000004101200096
:10046800401f2000fe340200000000008100e90067
:10047800fbff3a0008020200000000007822020098
:10048800000000005a03020000000000642202007d
:1004980000000000e4200200000000002422020006
:1004a8000000000000712200fe340200000000007d
:1004b800ae200200000000007821020000000000c9
:1004c800a8210200000000005c21020000000000da
:1004d800a02f020000000000b82f0200000000005a
:1004e80080382100f03402000000000042070400b8
:1004f800000000000008200001202a0002c022009d
:10050800e03a0200000000000000000000000000c7
:100518000000000001202a00003b0200000000004b
:10052800000000000000000000000000000820009b
:1005380001202a0002c02200e03a02000000000068
:10054800000000000000000000000000070020007c
:100558000608200001c02200871878008703e800f9
:100568000603e900fcff3a0000000000000000005c
:100578000000000000202a00608588000008200094
:1005880070858800403b0200000000000000000069
:1005980000000000000000000008200001202a00e0
:1005a80002c02200e03a0200000000000000000043
:1005b800000000000000000000000600142eaa0041
:1005c80064ceaa00142eaa0064ceaa00142eaa0093
:1005d80064ceaa00142eaa0064ceaa00142eaa0083
:1005e80064ceaa000060fe00f4ff370060402000df
:1005f80000488800d000200010488800803821007a
:10060800304888000071220070088800a00020008f
:100618000835020000000000fcff37000060fe0003
:100628000701ae00058ea9000701af00058ea800de
:10063800faff37002004200020118800a0002000c5
:100648000835020000000000faff370025aea800b8
:1006580020042000a0118800a00020000835020016
:1006680000000000f9ff3700bc10a800301220007d
:10067800f08f88007056240000908800b09a2800f7
:1006880010908800f0de2c00209088008046220020
:1006980030908800da31020000000000a00020003d
:1006a8000835020000000000efff37000e2eef00b3
:1006b8001e2eef002e2eef004e2eef004fcea8007c
:1006c80040002000000020000019880000002000e1
:1006d80010198800f0002000201988000000200070
:1006e80090198800f00020004019880000002000c0
:1006f80030198800000020007019880000002000d0
:100708008019880021e3a800000006008430ef006b
:100718006508210000042000b08a8800000020003d
:10072800c08a8800000120008410bc000200780004
:100738005631b400ae2d02000000000021c0220096
:100748003100780000848800310078001084880027
:1007580031007800000178003000b200800a78008b
:100768000200a7001520a00000102e008010e30052
:1007780001003a001530a00000202c008010e30092
:1007880001003a001540a00031007800801f780071
:10079800f00fb2000080fd00950a70004f0078004d
:1007a8000080a7001550a000429a210020848000f4
:1007b8000201400002014000310078000009780081
:1007c8008430ec008582e800400020008410e300bb
:1007d800d0ff39008610f8008019f9008810f80059
:1007e8008c19f9008a10f8009819f9008c10f80093
:1007f8007419f90080b9ae00040037007e200200a9
:100808000000000002200200000000008cb9ae00c9
:100818000400370096200200000000001a200200a1
:100828000000000098b9ae0006003700b4200200ae
:100838000000000032200200000000006a210200cf
:100848000000000074b9ae0004003700cc2002009c
:10085800000000004a20020000000000810f210073
:1008680002002000f00020000080090082187800b3
:100878008030ef0000042100b08a880000002000ca
:10088800c08a8800008480004500dd005631b4002d
:10089800ae2d02000000000001c022001100780007
:1008a800f00fb2000600320011007800810f21001d
:1008b80002848000810041008100410080087800a6
:1008c8008030ec00700020008010e300e9ff390060
:1008d80000022100b08a880000002000c08a880039
:1008e800ae2d02000000000081c02200631021002c
:1008f80011007800f00fb2008019780031007800fc
:100908000080fd00f00fb200801978001100780017
:10091800f00fb20080197800310078000080fd00e7
:10092800f00fb200801978000000060000000600f1
:10093800bd70a900ee30ef00f430ef009a04020019
:10094800000000008a03020000000000ba0f020045
:10095800000000005c0f020000000000000006001c
:1009680025aeae0000000600bf50af000000060034
:10097800c2f0ae00000006003302ae000000060020
:10098800c2f0a90025aea90000000600000820005a
:1009980001102a0002f02100e03a020000000000e5
:1009a800000006000060fe00c230af00fdff370007
:1009b800000006000000060001932100200020002e
:1009c80080187800b0ca2a008018780001932100a6
:1009d8001205020000000000019321002000200001
:1009e80080187800c0ba2a00801878000193210086
:1009f8008205020000000000019321002000200071
:100a080080187800d0ba2a00801878000193210055
:100a1800f205020000000000000006003100780026
:100a2800f007b2000000e00001003a0000000600f4
:100a380090cb8800810178008439ef00a000200065
:100a480040cc88008300780020cc800081004000e2
:100a58000100a100110078008419af000080fd009a
:100a6800f00fb2000001780000f0270002017000ca
:100a78000200780000c0fd00000069004202de00ac
:100a8800040068004102de00040068008019af001d
:100a9800030037008039af00050037000800370031
:100aa8000000a7000280a1008839ec00040037008c
:100ab8000000a6000280a1008839ec000000370081
:100ac8008059af008839ec000201d20001a0220051
:100ad80020cc80008100400081004000820878001e
:100ae8008439ec007239ed00d4ff3a008639ef0002
:100af8008a39ef00bf70a8000000060031007800b6
:100b0800f007b2000000e00001003a000000060013
:100b180090cb8800810178009039ef00a000200078
:100b2800a0cc88008300780080cc80008100400041
:100b38000100a100110078009019af000080fd00ad
:100b4800f00fb2000001780000f0270002017000e9
:100b58000200780000c0fd00000069004202de00cb
:100b6800040068004102de00040068008c19af0030
:100b7800030037008c39af00050037000800370044
:100b88000000a7000280a1009439ec00040037009f
:100b98000000a6000280a1009439ec000000370094
:100ba8008c59af009439ec000201d20001b0220048
:100bb80080cc8000810040008100400082087800dd
:100bc8009039ec007239ed00d4ff3a009239ef0009
:100bd8009639ef00bf90a8000000060031007800a9
:100be800f007b2000000e00001003a000000060033
:100bf80090cb8800810178009c39ef00a00020008c
:100c080000cd880083007800e0cc8000810040009f
:100c18000100a100110078009c19af000080fd00c0
:100c2800f00fb2000001780000f027000201700008
:100c38000200780000c0fd00000069004202de00ea
:100c4800040068004102de00040068009819af0043
:100c5800030037009839af00050037000800370057
:100c68000000a7000280a100a039ec0004003700b2
:100c78000000a6000280a100a039ec0000003700a7
:100c88009859af00a039ec000201d20041a0210020
:100c9800e0cc80008100400081004000820878009c
:100ca8009c39ec007239ed00d4ff3a009e39ef0010
:100cb800a239ef00c070a8000000060031007800db
:100cc800f007b2000000e00001003a000000060052
:100cd80090cb880081017800ac39ef00a00020009b
:100ce80080cd88008300780060cd800081004000be
:100cf8000100a10011007800ac19af000080fd00d0
:100d0800f00fb2000001780000f027000201700027
:100d18000200780000c0fd00000069004202de0009
:100d2800040068004102de00040068009819af0062
:100d3800030037009839af00050037000800370076
:100d48000000a7000280a100b039ec0004003700c1
:100d58000000a6000280a100b039ec0000003700b6
:100d68009859af00b039ec000201d20041c021000f
:100d780060cd80008100400081004000820878003a
:100d8800ac39ec007239ed00d4ff3a00ae39ef000f
:100d9800b239ef00c110a800000006003100780049
:100da800f007b2000000e00001003a000000060071
:100db80090cb8800810178007839ef00a0002000ee
:100dc800e0cb880083007800c0cb80008100400021
:100dd8000100a100110078007819af000080fd0023
:100de800f00fb2000001780000f027000201700047
:100df8000200780000c0fd00000069004202de0029
:100e0800040068004102de00040068007419af00a5
:100e1800030037007439af000500370008003700b9
:100e28000000a7000280a1007c39ec000400370014
:100e38000000a6000280a1007c39ec000000370009
:100e48007459af007c39ec000201d20041b0210096
:100e5800c0cb8000810040008100400082087800fb
:100e68007839ec007239ed00d4ff3a007a39ef0096
:100e78007e39ef00c0b0a80000000600bd70a900d0
:100e8800062b020000000000ca0402000000000057
:100e98003e0f0200000000009c0402000000000059
:100ea800c390a800c3b0a8000060fe00b9f0af006e
:100eb800250eaa00b9f0af00363502000000000088
:100ec800b9f0af00de04020000000000840902004f
:100ed80000000000b4040200000000002213020019
:100ee8000000000036130200000000001212020089
:100ef800000000004812020000000000ca090200b9
:100f0800000000002c2302000000000098270200c7
:100f1800000000001c09020000000000a4070200f5
:100f28000000000002080200000000006008020043
:100f380000000000be08020000000000daff3700d1
:100f4800bfd0ae0000000600bfd0a9007039ef0086
:100f580010ce8000c019e30001003a001b003700e2
:100f6800c039ec00f0072000c039b60001a8220003
:100f780000ce8000810040000100a100110178002e
:100f8800c019af000280fd00f20fb20001932100ea
:100f980080cb8000810040000100a1007019af00e3
:100fa80003003700820878007039ec00e8ff37004a
:100fb800110078000080fd00020070000080fd0034
:100fc800800878007039ec00e1ff37007019e20002
:100fd80001003a000000060000932100a08f88005d
:100fe8007019f800f811f90000002000908f8800af
:100ff800882602000000000000000600c050ae0075
:1010080000000600c050a9007039ef0090ce8000a3
:10101800d019e30001003a001b003700d039ec007a
:10102800f0072000d039b60001c8220080ce800029
:10103800810040000100a10011017800d019af0023
:101048000280fd00f20fb2000193210080cb8000e6
:10105800810040000100a1007019af0003003700b3
:10106800820878007039ec00e8ff3700110078003a
:101078000080fd00020070000080fd0080087800fc
:101088007039ec00e1ff37007019e20001003a0006
:101098000000060000932100a08f88007019f80056
:1010a800f811f90010002000908f880088260200af
:1010b8000000000000000600c090ae00000006001e
:1010c800c090a9007039ef0010cf8000e019e3004c
:1010d80001003a001b003700e039ec00f00720005f
:1010e800e039b60041a8210000cf8000810040000f
:1010f8000100a10011017800e019af000280fd0095
:10110800f20fb2000193210080cb800081004000e3
:101118000100a1007019af000300370082087800b1
:101128007039ec00e8ff3700110078000080fd00fe
:10113800020070000080fd00800878007039ec0023
:10114800e1ff37007019e20001003a0000000600d4
:1011580000932100a08f88007019f800f811f90099
:1011680020002000908f88008826020000000000e0
:1011780000000600c130ae0000000600c130a90022
:101188007039ef0090cf8000f019e30001003a00b9
:101198001b003700f039ec00f0072000f039b600ea
:1011a80041c8210080cf8000810040000100a100db
:1011b80011017800f019af000280fd00f20fb200b3
:1011c8000193210080cb8000810040000100a10034
:1011d8007019af0003003700820878007039ec00fe
:1011e800e8ff3700110078000080fd000200700061
:1011f8000080fd00800878007039ec00e1ff3700be
:101208007019e20001003a00000006000093210076
:10121800a08f88007019f800f811f900200020004c
:10122800908f880088260200000000000000060059
:10123800c0f0ae0000000600c0f0a9007039ef0051
:1012480010d08000001ae30001003a001b003700ac
:10125800003aec00f0072000003ab60041b821003f
:1012680000d08000810040000100a1001101780039
:10127800001aaf000280fd00f20fb20001932100b6
:1012880080cb8000810040000100a1007019af00f0
:1012980003003700820878007039ec00e8ff370057
:1012a800110078000080fd00020070000080fd0041
:1012b800800878007039ec00e1ff37007019e2000f
:1012c80001003a000000060000932100a08f88006a
:1012d8007019f800f811f90030002000908f88008c
:1012e8008826020000000000000006000000000040
:1012f80000000000000000000000000000000600e0
:1013080000f02f00202eb600128c80002071800083
:1013180002006800f00fb20024aeb60015cea90096
:101328007a0902000000000015cea800128c800087
:101338000280fd002071800002006800f00fb200fa
:1013480024aeb60004eea9007a09020000000000ed
:1013580004eea800f00f2000202eb7007a09020042
:1013680000000000054ea9007a09020000000000f4
:10137800f00f20008031b60010718000f00fb2002d
:101388008031b700054ea800000006004e11e200ab
:1013980002003200708a8000008488005011e20048
:1013a80002003200808a8000108488005211e20016
:1013b80002003200908a8000208488005411e200e4
:1013c80002003200a08a8000308488008010e20089
:1013d800030032008a0d0200000000000f003700f1
:1013e8008210e200030032000e0e0200000000002e
:1013f8000a0037008410e200030032006a0e02007f
:1014080000000000050037008610e20003003200eb
:10141800e60e020000000000000037004e31ef0029
:101428005031ef005231ef005431ef000000060058
:101438000100a7000600370031007800b08a880054
:1014480031007800f00fb200c08a88000a00370027
:101458000100a100310078004800de00b08a880051
:10146800110078004800dd005631b4001100780002
:101478004800de00c08a88004200a90056b1d600a4
:1014880058b1d6004200a90056b1d60058b1d600ce
:10149800000006005611f8005811f80001c022009b
:1014a800c02d02000000000003c0220033007800b5
:1014b800f01fb200b090880000002400f08f880070
:1014c80000848000009088000232ef000432ef00b0
:1014d8000632ef0023c0220016310200000000008f
:1014e8005811f9005611f90000082000a82d020033
:1014f8000000000001c02200108480003000b2000b
:101508000006010006003700080037000a0037000f
:101518001000370000000000000000000000060076
:10152800120502000000000000000600820502000b
:101538000000000000000600811f7800f20502008c
:1015480000000000cf0078006206020000000000e2
:1015580000000600d206020000000000000006009d
:10156800bd30a9008030ef00810f21000084800089
:10157800810040008100400011007800f00fb200a7
:10158800050032000000e9002212e30002003a00e0
:10159800bd30a800000006008030ec00b00020003c
:1015a8008010e300f0ff39002212f8002012f90041
:1015b80000000600bd30a900008480006700e1003b
:1015c800250032006800e100270032002212f800ee
:1015d8002012f900bcd0ae0002003700bd30a800d0
:1015e800000006006900e100120032006a00e10014
:1015f80016003200810f2100008480008100400025
:1016080081004000110078000080fd007000b200e9
:10161800a08788002432ef005c0f02000000000061
:10162800bd30a80000000600b010e200040032003f
:1016380006003700b010e20001003a000000060082
:10164800740d020000000000000006006c0d02008e
:101658000000000000000600f60c02000000000078
:10166800bd30a800000006004c0d0200000000007c
:10167800bd30a80000000600f0012000009088009e
:10168800bc10a800da31020000000000bc10a9005c
:1016980000352c00fe3402000000000000000600a7
:1016a800000020009410e30002003a0000802f00a0
:1016b80000908800100020009410e30002003a0017
:1016c800007e200000908800200020009410e30095
:1016d80002003a000000200000908800000022006c
:1016e800f08f8800bc10a800da310200000000006a
:1016f800bc10a900e230ef00e430ef000000060063
:101708009430ec00400020009410e3000100390000
:101718009430ef00f00120000090880000002000c5
:101728009410e30002003a0000802f000090880027
:10173800100020009410e30002003a00007e200010
:1017480000908800200020009410e30002003a0076
:10175800000020000090880000002200f08f880020
:10176800bc10a800da31020000000000bc10a9007b
:10177800e230ef00e430ef000000060050002000e7
:10178800508688000000200070868800cc30ef006a
:10179800000006006000200050868800000020003d
:1017a80070868800cc30ef00000006003000220070
:1017b800f08f8800bc10a800da3102000000000099
:1017c800bc10a900000006004e11e20001003a001a
:1017d8000000060000002000009088000600370086
:1017e8005011e20001003a0000000600100020003d
:1017f800009088000000370060002200f08f880009
:1018080010918000d0888800bc10a800c231020066
:1018180000000000bc10a90000000600f08f88003e
:10182800bc10a800da31020000000000bc10a900ba
:101838000000060040002200f08f8800e410f80045
:101848000012f900e210f8000212f900109180006d
:10185800d0888800bc10a800c23102000000000037
:10186800bc10a9000000060050002200f08f88007c
:10187800e410f8000012f900e210f8000212f90072
:101888001087800000c0fd00e410b400000178005b
:101898000280fd000000710003c022002d00090035
:1018a8008019780003c02200c0052000b09088008d
:1018b800bc10a8001631020000000000bc10a900ee
:1018c8000000060040002200f08f8800e410f800b5
:1018d8000012f900e210f8000212f900900020004e
:1018e800d0888800bc10a800c231020000000000a7
:1018f800bc10a900e430ec0080002000e410e300f4
:101908000100310000000600e430ef00e230ec0096
:1019180070002000e210e300010031000000060022
:10192800e230ef000000060050002200f08f88002f
:10193800e410f8002212f900e210f800f410f9009f
:101948005c0f020000000000e430ec008000200082
:10195800e410e3000100310000000600e430ef006d
:10196800e230ec0070002000e210e30001003100da
:1019780000000600e230ef0000000600e002200050
:1019880030898800e000200050868800800c200004
:1019980070868800cc30ef0000000600a00022000e
:1019a800f08f880000918000d0888800bc10a800c3
:1019b800c231020000000000bc10a90000000600af
:1019c800b0002200f08f880000918000d088880045
:1019d800bc10a800c231020000000000bc10a90021
:1019e80000000600bcd0af00ecff3700b430ec00bc
:1019f80050002000b410e30001003900b430ef00bb
:101a08000700370070002200f08f8800bc10a80083
:101a1800da31020000000000bc10a9000000060036
:101a280090002200f08f8800a08580000090880038
:101a3800bc10a800da31020000000000bc10a900a8
:101a4800d60402000000000000000600e0002200aa
:101a5800f08f88004089800000908800bc10a800a2
:101a6800da31020000000000bc10a90000000600e6
:101a780020012000440d02000000000000000600c4
:101a880050868800cc30ef00ce30ef000000060012
:101a9800bcd0af00caff3700b430ed0050002000c2
:101aa800b410e3004000200001003900a085880040
:101ab800dbff370080002200f08f8800bc10a800f0
:101ac800da31020000000000bc10a9000000060086
:101ad800bd70a900bcd0a900b030ef0007003700e6
:101ae800bcd0a900b030ec0070002000b010e300ba
:101af8000200390010002000808588008085800061
:101b08009624020000000000000006008030ed006e
:101b18000084800010918800e80b0200000000009b
:101b2800c40e02000000000001c02200110178006c
:101b3800b0da2c000010e1000100320000000600bd
:101b480021c02200110278000480fd0004c0fd00bd
:101b58003400b20016003200110078000080fd0049
:101b6800f000b200120020000011dd006120e10049
:101b7800050032006220e100060032006320e10027
:101b8800070032000a0037000200780082b1b60070
:101b980007003700020078008231b70004003700e0
:101ba800f0ff2f00000069008231b6000000370006
:101bb80021c0220011007800f00fb20000848800d4
:101bc800110078004e00de003000b200108488005a
:101bd80041c022001c0a020000000000b08a8000f8
:101be8005811b700030032004e0a0200000000003e
:101bf80000000600000000000000000000000000d7
:101c0800000000000000060030250200000000006f
:101c1800000006008230ed001084800010918800da
:101c2800bd70ae00050037002212e20003003a0042
:101c38001e0b02000000000000000600b40a0200ab
:101c4800000000008010f8002212f800bd30af003c
:101c5800de0a0200000000002212f9008010f900dc
:101c6800f40b020000000000c40e02000000000097
:101c780001c0220011017800b0da2c000010e10048
:101c8800010032000000060021c022001100780087
:101c9800f00fb20000848800110078004e00de00ca
:101ca8003000b2001084880071c022001c0a0200b3
:101cb80000000000b08a80005811b700020032000e
:101cc8004e0a020000000000000006008430ed000b
:101cd80020848000109188002212f8002012f90058
:101ce800b40a020000000000bd30ae000b0037004f
:101cf800008480006900e1004bfe32006a00e100c8
:101d080006003a00bcd0a900b030ef002001200046
:101d1800440d02000000000000000600c40e02008e
:101d28000000000001c0220011017800d0bc2a0088
:101d38000010e100010032000000060021c022006e
:101d480011007800f00fb2000084880011007800bc
:101d58004e00de003000b20010848800a1c02200ce
:101d68001c0a020000000000b08a80005811b70069
:101d7800020032004e0a02000000000000000600c7
:101d880000002200f410bc00b28a8800c38a8800d0
:101d9800001221005631b4000000200058b1b400f0
:101da800000420002212bc00020078005631b40062
:101db8000300780058b1b400ba2d020000000000fa
:101dc80000000600100020008610e30004003a001e
:101dd800bd70a800180b02000000000000000600fb
:101de800200020008610e3000b003a00bd70ae0012
:101df8000000060030002000b010e30006003a00a2
:101e0800bc10a900c030020000000000180b02003e
:101e180000000000000006000000060000000600a8
:101e2800008480000000e900c0908800120f0200c2
:101e380000000000000006001a32ec00000220003a
:101e48001a12e300010039001a32ef000000060000
:101e58000000060000000600ba0f020000000000a3
:101e68005c0f0200000000000000060000000600f1
:101e7800000006002212f8002232ef00a80f02002c
:101e88000000000002ff2f00110078000000610030
:101e9800800878008180e8002232ec00c00520002c
:101ea8002212e300f7ff39002212f90000000600b1
:101eb8002212f8002232ef00a80f020000000000f2
:101ec80003c0220031007800f000b200a287800031
:101ed80002c0fd00020170000300a70003003700e4
:101ee800820978008301e800050037000300a1009b
:101ef800130078000280fd0000007100801978004e
:101f08002232ec00c00520002212e300edff390068
:101f180050002200f08f8800a0858000f00fb200ea
:101f28000090880003c02200c0052000b0908800ff
:101f3800bc10a8001631020000000000bc10a90067
:101f48002212f90000000600812b2100c0052000a4
:101f58004100dd00f410bc008100410010918000b8
:101f68004100dd008100400000000600f430ef0071
:101f78002232ef00c40e0200000000000000200022
:101f880080958800b0da2c0001c022001101780089
:101f98000010e10003003200f00020008095880066
:101fa80041003700b092a80021c02200110178003a
:101fb8000200a700b0b2a80002e0a700b0d2a800b3
:101fc80002f0a700b0f2a800d1c022001c0a02004b
:101fd80000000000b08a80005811b7004220ae000f
:101fe800b112a80001c122001c0a02000000000072
:101ff800b08a80005811b7004220ae00b132a80064
:1020080031c122001c0a020000000000b08a8000d2
:102018005811b7004220ae00b152a80061c1220099
:102028001c0a020000000000b08a80005811b700a6
:102038004220ae00b172a80091c122001c0a020021
:1020480000000000b08a80005811b7004220ae009e
:10205800b192a800c1c122001c0a020000000000c1
:10206800b08a80005811b7004220ae00b1b2a80073
:10207800f1c122001c0a020000000000b08a8000a2
:102088005811b7004220ae00b1d2a80021c22200e8
:102098001c0a020000000000b08a80005811b70036
:1020a8004220ae00b1f2a800a80f02000000000014
:1020b80080958000801878002232ec00c00520004e
:1020c8002212e300abff39002232ef00f430ec00bb
:1020d80070002000f410e300a6ff3900f430ef0090
:1020e8000000060000002300f08f8800bc10a80044
:1020f800da31020000000000bc10a9000000060050
:1021080011002300f08f8800bc10a800da3102000b
:1021180000000000bc10a9000000060022002300f7
:10212800f08f8800bc10a800da310200000000001f
:10213800bc10a9000000060033002300f08f8800bf
:10214800bc10a800da31020000000000bc10a90091
:102158000000060000000600000006003222af0062
:102168003222a9002222af002222a9000000060084
:102178002c31ef00708980003011b7003211b700a0
:102188003411b7003611b7003811b7003a11b7004b
:102198003c11b700f2ff2000020060000000e000e0
:1021a80001003a00000006000001eb00e1122100e6
:1021b8008100410081004100110078000000e0002a
:1021c80004003a000201e8006810e100f7ff390056
:1021d80000000600800078000002eb0010002000dc
:1021e8000400dd000100600005003a000402e80078
:1021f800c00020000020e100f8ff390000000600c0
:10220800c00020000201b800040041000000e800fe
:102218001a11020000000000608988000000000018
:102228000000000000000000000006000006010099
:1022380000000500d0010500d0020500d00305000c
:10224800d0040500e0010500e0020500e0030500f8
:10225800e0040500f0010500f0020500f0030500a8
:10226800f004050000020500000305000004050055
:102278000005050010020500100305001004050004
:1022880010050500200205002003050020040500b4
:102298002005050030020500300305003004050064
:1022a8003005050040020500400305004004050014
:1022b80040050500500205005003050050040500c4
:1022c8005005050060020500600305006004050074
:1022d8006005050070020500700305007004050024
:1022e80070050500800205008003050080040500d4
:1022f8008005050090020500900305009004050084
:1023080090050500a0020500a0030500a004050033
:10231800a0050500b0020500b0030500b0040500e3
:1023280000000500b0050500c0020500c003050057
:10233800c0040500c00505001000050020000500c8
:102348003000050040000500500005006000050051
:1023580000000500700005008000050090000500e1
:10236800a0000500b0000500c0000500d000050071
:10237800e0000500f000050000010500100105005f
:10238800000005002001050030010500400105009e
:10239800500105006001050070010500800105007d
:1023a80090010500a0010500b0010500c00105006d
:1023b80002718000f0ff2f00004178000271880050
:1023c8000000060002718000000020000041780033
:1023d80002718800000006000000000000000000f4
:1023e80000000000000000000000000000000000e5
:1023f80000000000000000000000000000000000d5
:1024080000000000000000000000000000000000c4
:10241800000000000000000000000600d0bc2a00f8
:10242800a010e3000100320000000600a030ef0019
:102438001085800060898800bcf0a80000000600b4
:10244800bcf0ae00000006000000060060898000b5
:102458000080fd00f00fb20001003200000006000d
:1024680001f0210060898000f007b2004100dd0022
:1024780081004000408980000080fd002c11b700d9
:1024880080087800000006008030ef008230ef00fe
:102498008430ef008630ef00bf30af00e8ff370030
:1024a800bcf0ae0000000600bcf0a9006089800006
:1024b80001102a0060898000f007b2004100dd00a9
:1024c800810040003101ba000280fd00f20fb20025
:1024d800c00520000010e1000100390000000600de
:1024e8000201e800608980000080fd003000b20031
:1024f8000006010003003700050037000800370018
:102508000a003700bff0a900028488000000060016
:10251800bff0af000000060012848800000006002b
:10252800bff0a800228488000000060032848800da
:10253800000006008030ef008230ef008430ef00aa
:102548008630ef00b970ae0000000600bc10020033
:10255800000000002c11e20011003a004431ec00a8
:10256800400020004411e3004200ae0000000600d5
:10257800be30a800f0898000be50ae0010848800ec
:10258800be50a900be10a900be70a9003e31ef00e0
:102598004031ef004231ef004631ef000000060005
:1025a8004431ef00008a80002c11e300050032005e
:1025b8004231ef004631ef0060898000008a8800d0
:1025c800000006004231ec00200020004211e30028
:1025d8004200ae0000000600be70af0007003700e2
:1025e80060898000f089880000848800be70a80097
:1025f800be30a9004231ed00000006004631ec0073
:10260800a00f20004611e3004220ae00040037006e
:102618006089800020848800be50a8000000060061
:10262800401f20004611e3004220ae0000000600d3
:10263800608980003084880000000600b830ef0010
:1026480030088000b690b6004220af0000000600b7
:10265800c0858800ba30b700b6b0b6000060fe008a
:1026680000000600b910ae0000000600f0ff2f00c1
:10267800f011e30009003200f031ec0040002000c6
:10268800f011e30005003a00bf50ae000300370028
:102698008e32020000000000bf50a900ca10e200fc
:1026a8001700320050868000000601001400370031
:1026b800140037004805370016063700780537003c
:1026c800aa053700860537008e0537000f0037004a
:1026d8005e013700ff003700d0003700b700370031
:1026e800510037009505370062003700a000370019
:1026f8000b0037003100370000000600000006001c
:1027080000000600ca30ef0000000600100020009c
:10271800508688005c0f02000000000000000600e0
:10272800ce10e20002003200ce30ed0000000600bc
:10273800803e2000708688006086800000060100c8
:10274800020037000a003700120037000193210009
:1027580000182200800878002000200090cb880014
:102768001205020000000000cc30ec00000006005a
:102778000193210000182300800878002000200021
:1027880090cb88001205020000000000cc30ec005d
:10279800000006000193210000082100800878004d
:1027a8002000200090cb88001205020000000000e5
:1027b800ca30ef00cc30ef0000000600ce10e20077
:1027c80002003200ce30ed00000006006086800076
:1027d80000060100010037000a003700f00022005f
:1027e800f08f8800bc10a800da3102000000000059
:1027f800bc10a900007d200070868800cc30ec0059
:1028080000000600ca040200000000003e0f02009b
:10281800000000009c04020000000000ca30ef0025
:10282800cc30ef0000000600ce10e20002003200bb
:10283800ce30ed0000000600608680000006010032
:10284800010037000a003700c0002200f08f88001e
:10285800bc10a800da31020000000000bc10a9007a
:10286800cc30ec00a0002000708688000000060034
:1028780000000600ce10e20002003200ce30ed006b
:102888000000060060868000000601000100370095
:102898000a003700d0002200f08f8800bc10a80082
:1028a800da31020000000000bc10a900cc30ec00b6
:1028b800a0002000708688000000060000000600c6
:1028c800ce10e20002003200ce30ed00000006001b
:1028d800608680000006010001003700080037000c
:1028e8000000200010878800000020002087880052
:1028f800f003200010918800cc30ec0000000600a6
:10290800000000000000000000000000e430ec00bf
:1029180080002000e410e30006003900e430ef00f6
:10292800e230ec0070002000e210e3000100390002
:10293800e230ef00803e20007086880040002200d0
:10294800f08f8800e410f8000012f900e210f80097
:102958000212f90010918000d0888800bc10a800ed
:10296800c231020000000000bc10a90000000600ef
:10297800ce10e20002003200ce30ed00000006006a
:10298800803e200070868800608680000006010076
:10299800010037000700370030002200f08f880060
:1029a800bc10a800da31020000000000bc10a90029
:1029b800000006000000060000000600ce10e2003d
:1029c80002003200ce30ed00000006006086800074
:1029d80000060100010037000f0037006171210077
:1029e800f0ff2f00709188000002200040918800bd
:1029f8008001200050918800bf10a800961702009f
:102a080000000000bf10a900cc30ec00a00020009e
:102a1800708688000000060000000600ce10e20064
:102a280002003200ce30ed00000006006086800013
:102a380000060100020037000600370011003700c9
:102a4800b230ef00a000200070868800cc30ec0087
:102a5800000006000000200000908800000022000e
:102a6800f08f8800bc10a800da31020000000000d6
:102a7800bc10a900cc30ec0040062000708688000d
:102a880000000600f00120000090880000002200ed
:102a9800f08f8800b210f8001a11f900bc10a800d5
:102aa800c231020000000000bc10a900b230ec00e6
:102ab800c0052000b210e30001003900b230ef0079
:102ac8001000200060868800401f20007086880063
:102ad80000000600ce10e20002003200ce30ed0009
:102ae8000000060060868000000601000b00370029
:102af80016003700180037001a0037001c0037008e
:102b08001e0037002000370022003700240037005d
:102b18003a003700010037000c00370000002000a1
:102b28000090880000002200f08f8800bc10a800e8
:102b3800da31020000000000bc10a900cc30ec0023
:102b4800400620007086880000000600f0ff2f0075
:102b5800709188001400370000802f007091880061
:102b680011003700007e2000709188000e003700a9
:102b7800f0012000709188000b003700f07f2000e2
:102b8800709188000800370000fe2f0070918800bf
:102b98000500370040442400709188000200370087
:102ba800c0cc2c00709188004170210000002000ea
:102bb800409188000000200050918800cc30ed0042
:102bc80000012000cc10bc0052918800cc30ec00f1
:102bd8009617020000000000b230ec00c00520008b
:102be800b210e30001003900b230ef00cc30ec0045
:102bf800400620007086880000000600cc30ef00f8
:102c0800401f20007086880000000600ce10e200f9
:102c180002003200ce30ed0000000600803e2000a9
:102c2800708688006086800000060100bbff3700c0
:102c380030002200f08f8800bc10a800da310200b2
:102c480000000000bc10a90000000600ce10e20041
:102c580002003200ce30ed0000000600803e200069
:102c68007086880060868000000601000400370036
:102c78000d003700160037001f0037002800370006
:102c8800f00120000090880000002200f08f8800ea
:102c9800bc10a800da31020000000000bc10a90036
:102ca800cc30ec0000000600007e20000090880078
:102cb80000002200f08f8800bc10a800da31020062
:102cc80000000000bc10a900cc30ec000000060099
:102cd80000802f000090880000002200f08f8800fc
:102ce800bc10a800da31020000000000bc10a900e6
:102cf800cc30ec0000000600f0ff2f0000908800a8
:102d080000002200f08f8800bc10a800da31020011
:102d180000000000bc10a900cc30ec000000060048
:102d2800000020000090880000002200f08f88003a
:102d3800bc10a800da31020000000000bc10a90095
:102d48000000200060868800000006001632ef00b0
:102d5800d0bc2a00f4160200000000004091800058
:102d6800de1602000000000050918000de1602000e
:102d78000000000070918000f416020000000000be
:102d88001100ba000100a7000080fd00f00fb2009a
:102d980004003200de160200000000008100e80096
:102da800f7ff37008100e800de160200000000008f
:102db80000000600f00fb2001612af000300370043
:102dc800800978001632ec00000006000080fd0043
:102dd800930970001632ec008381e80000000600b9
:102de800801f7800de160200000000004f00780007
:102df8000080fd00de160200000000000000060052
:102e0800303100003233000034350000363700001e
:102e180038390000414200004344000045460000a4
:102e2800000000004b650000792000005465000098
:102e38007374000000000000457200006173000018
:102e480065200000466c0000617300006800000007
:102e5800507200006f670000726100006d20000072
:102e6800466c0000617300006800000053650000b4
:102e780074200000466c00006173000068000000c8
:102e880054450000535400002e2e00002e00000070
:102e98004f4b0000000000004552000052000000a7
:102ea800bef0ae00100037000002eb008187210061
:102eb8008100420081004200110078000200e10018
:102ec80007003a000402e800c005200010002000b6
:102ed8000020e100f5ff3900bd50a8000000060001
:102ee800bd50a900000006000087800081872100ee
:102ef8008100400081004000110078000200e100dc
:102f080002003a00bd50a80000000600bd50a9000c
:102f180000000600818721005b0009008018eb0093
:102f280000000600bef0a80001003700bef0a900ae
:102f380003c02200aa1602000000000010002200b0
:102f4800bf10ae0020002200f08f8800bc10a8003f
:102f580003c02200bef0af0006003700e010f80002
:102f68001a11f9000631020000000000bc10a90087
:102f7800000006001631020000000000bc10a90085
:102f880000000600bd30a900bd10a900da10e2005b
:102f980002003200da30ed0000000600c086800032
:102fa800000601000200370010003700210037003a
:102fb80001722100f0ff2f007091880000002000ae
:102fc800409188000000200050918800bf10a800a0
:102fd8009c17020000000000bf10a900d830ec00c8
:102fe800a0002000d08688000000060040002100d4
:102ff800f08f8800bc10a800bef0ae00c2310200fd
:1030080000000000bef0af00da310200000000004e
:10301800bc10a900818721005b0009008018eb0023
:10302800d830ec00dc30ef00800c2000d08688001f
:1030380000000600dc30ec00803e2000dc10e300dd
:1030480003003900d630ef00bd10a80000000600cc
:10305800220020005417020000000000bd50af00fd
:103068000b00370050002100f08f8800000020007e
:1030780000908800bc10a800c231020000000000c7
:10308800bc10a900a0002000d0868800000006001f
:10309800bd30a80000000600bd30a900bd10a90081
:1030a800da10e20002003200da30ed00000006001b
:1030b800c0868000000601000400370015003700b4
:1030c8005e0037007a00370086003700c1722100a1
:1030d800f0ff2f00709188000000200040918800c8
:1030e8000000200050918800bf10a8009c17020023
:1030f80000000000bf10a900d830ec00a00020009c
:10310800d0868800e230ef00e430ef00e630ef00d0
:1031180000000600e610e20003003a00000000008c
:103128000000000000000000da1b020000000000a0
:10313800bd50af000f003700e630ef00e430ec0080
:1031480080002000e410e300f2ff3900e430ef00d3
:10315800e230ec0070002000e210e300edff3900df
:1031680030002000c0868800a0002000d08688009b
:1031780000000600108780000080fd00e410b70002
:1031880000908800e610f8000212f900e810f80034
:103198000412f90070002100f08f8800bc10a8000c
:1031a80003c02200e010f8001a11f90000102000f6
:1031b800b0908800bc10a800063102000000000092
:1031c800bc10a900e630ec0040878000e610e30060
:1031d80010003900e630ef00e430ec0080002000f9
:1031e800e410e3000b003900e430ef00e230ec00bb
:1031f80070002000e210e30006003900e230ef0022
:1032080030002000c0868800a0002000d0868800fa
:1032180000000600d830ec0040002000d08688006e
:10322800dc30ef00008780008187210081004000aa
:10323800810040008008eb0000000600dc30ec0054
:1032480040062000dc10e3000c00310000878000fd
:103258008187210081004000810040001100780032
:103268006100e100090032006200e1000b00320059
:1032780040002000d086880000000600bd10a8008d
:1032880040002000c086880000000600bd10a8008d
:1032980040002000c08688000000060010002000c2
:1032a800c0868800a0002000d086880000000600a4
:1032b800e010f8001a11f90080002100f08f880052
:1032c800bc10a800c231020000000000bc10a90018
:1032d800d630ec00a0002000d0868800bd30a800c1
:1032e800000006000000060000878000818721009a
:1032f80081004000810040008008eb0000000600cb
:103308000087800081872100810040008100400003
:103318001100780000000600bd30a900bd10a9000a
:10332800da10e20002003200da30ed000000060098
:10333800c0868000000601000a0037001d00370023
:103348002b00370058003700640037007000370042
:103358008d0037009c003700e20037000401370079
:1033680011013700e010f8001a11f900a1732100cb
:10337800f0ff2f0070918800000020004091880025
:103388000000200050918800bf10a8009c17020080
:1033980000000000bf10a900d830ec00c0002000d9
:1033a800d0868800e230ef00e430ef00e630ef002e
:1033b80000000600e010f8001a11f9009000210042
:1033c800f08f8800bc10a800c23102000000000085
:1033d800bc10a900d830ec0040002000d08688003e
:1033e8007819020000000000dc30ef000000060041
:1033f80040062000d0868800dc30ec00a0002000c9
:10340800dc10e3001a0031008419020000000000fb
:103418006200e1000100320000000600301c0200da
:10342800000000000e003a00c1742100007f200057
:10343800709188000007200040918800000020005b
:1034480050918800bf10a9009c17020000000000de
:10345800a0002000c0868800bd30a800000006003b
:10346800d830ec0040002000d0868800000006001c
:1034780001752100f001200070918800800620006d
:10348800409188000000200050918800bf10a900da
:103498009c17020000000000a0002000c0868800e1
:1034a800bd10a8000000060001722100f0ff2f00e7
:1034b80070918800000020004091880000012000e1
:1034c800509188009c17020000000000d830ec00e2
:1034d80040012000d086880000000600400021003e
:1034e800f08f8800bc10a800c23102000000000064
:1034f800bc10a9007819020000000000d830ec00c8
:10350800dc30ef0040012000d08688000000060073
:10351800dc30ec00803e2000dc10e30005003900c0
:10352800d630ef0040012000c0868800bd10a800fa
:1035380000000600220020005417020000000000ce
:10354800bd50af000b00370050002100f08f8800fd
:103558000000200000908800bc10a800c2310200c2
:1035680000000000bc10a900a0002000d086880040
:1035780000000600d830ec00dc30ef0040012000ed
:10358800d086880000000600c1722100f0ff2f00dd
:1035980070918800000020004091880000022000ff
:1035a800509188009c17020000000000d830ec0001
:1035b800a0002000d0868800e230ef00e430ef0061
:1035c800e630ef0000000600e610e20003003a00d3
:1035d800000000000000000000000000da1b0200ec
:1035e80000000000bd50af000f003700e630ef00cc
:1035f800e430ec0080002000e410e300f2ff390022
:10360800e430ef00e230ec0070002000e210e3004c
:10361800edff390090002000c0868800a00020003f
:10362800d086880000000600108780000080fd001a
:10363800e410b70000908800e610f8000212f900c4
:10364800e810f8000412f90070002100f08f8800db
:10365800bc10a80003c02200e010f8001a11f900fd
:1036680000102000b0908800bc10a80006310200ad
:1036780000000000bc10a900e630ec004087800084
:10368800e610e30010003900e630ef00e430ec000b
:1036980080002000e410e3000b003900e430ef0064
:1036a800e230ec0070002000e210e3000600390070
:1036b800e230ef0090002000c0868800a0002000c3
:1036c800d086880000000600d830ec0040002000ba
:1036d800d0868800dc30ef00781902000000000076
:1036e80000000600dc30ec0040062000dc10e3009f
:1036f8000c00310000878000818721008100400094
:1037080081004000110078006100e10005003200ee
:103718006200e1001100320040002000d0868800dd
:103728000000060001752100f0012000709188005a
:1037380080062000409188000002200050918800f7
:10374800bf10a9009c17020000000000a000200084
:10375800c0868800bd10a800000006007000200088
:10376800c0868800a0002000d086880000000600df
:10377800e010f8001a11f90080002100f08f88008d
:10378800bc10a800c231020000000000bc10a90053
:10379800d630ec00a0002000d0868800bd30a800fc
:1037a800d830ec000000060000000600bd50a8005c
:1037b800e610e2001d003a00108780000000220099
:1037c800e210bc00b28a8800c38a88000004200086
:1037d800e010bc00020078005631b4000300780005
:1037e80058b1b400001221005631b4000000200086
:1037f80058b1b400ba2d02000000000001c0220038
:1038080011007800b2da2c000200e1000200320058
:10381800bd50a90000000600ec1c020000000000da
:10382800be90af00bd50a900000006005a11f80074
:103838005611f9005c11f8005811f900c02d02006a
:10384800000000005611f8005a11f9005811f8004c
:103858005c11f90000000600e230ef00e430ef00f0
:103868001087800000002200e210bc00b28a8800a5
:10387800c38a880000042000e010bc000200780021
:103888005631b4000300780058b1b400001221008a
:103898005631b4000000200058b1b400ba2d02001f
:1038a8000000000001c0220011007800b2da2c00ec
:1038b8000200e1000a003a00ec1c020000000000cf
:1038c800be90af0006003700c1c02200310078006a
:1038d80000848800310078001084880014003700c4
:1038e80000022000e210bc00208780004200dd00ba
:1038f80002014000a38f8000a300b00083014100b3
:1039080033007800000278003300780080027800e5
:103918000500720015003200b0fa2f000400e10023
:103928001e003a000500e1001c003a000f003700b5
:1039380000022000e210bc00208780004200dd0069
:1039480002014000a38f8000a300b0008301410062
:10395800330078008010e30010003a00330078004c
:103968008210e3000d003a0000000000e430ec0093
:1039780080002000e410e300b9ff3900e430ef00d4
:10398800e230ec0030002000e210e300b4ff390020
:10399800e230ef004220a800000006004220a90003
:1039a80000000600208780007000b20000060100b9
:1039b8005002050080020500b0020500e002050083
:1039c800100305004003050070030500a00305006f
:1039d800be90a900d61c02000000000001c0220011
:1039e80081004000ce1d020000000000b08a88005f
:1039f800b61d020000000000c08a8800b08a80005e
:103a08005811b70002003a00be90a8000000060056
:103a18004200a90056b1d60058b1d6004200a9000c
:103a280056b1d60058b1d600c02d020000000000e3
:103a38005611f8005a11f9005811f8005c11f900f4
:103a480001c0220011007800b2da2c000010e10059
:103a580002003200be90a8000000060041c022000b
:103a6800ce1d0200000000000001780003002000c5
:103a7800f00fb2004220ae001300200002007800d0
:103a88000080fd00f00fb20003004000408788006e
:103a980000000600be90a900e610e20028003a00e7
:103aa800d61c02000000000001c022008100400076
:103ab800ce1d020000000000b08a8800b61d02007a
:103ac80000000000c08a88004200a90056b1d60054
:103ad80058b1d6004200a90056b1d60058b1d60058
:103ae800c02d02000000000001c022001100780073
:103af800b2da2c000010e10002003200be90a800eb
:103b08000000060041c02200ce1d02000000000097
:103b18000001780003002000f00fb2004220ae0040
:103b280013002000020078000080fd00f00fb200b2
:103b38000300400040878800e630ec0000000600e3
:103b4800c02d020000000000e630ec004087800035
:103b5800e610e3000100310000000600be90a80056
:103b6800000006000100a7000400370011007800db
:103b7800f00fb2008100e800000006000100a1007b
:103b8800110078000080fd00f00fb2008180e8008d
:103b980000000600b61d020000000000801f78002b
:103ba800b61d0200000000000080fd004f017800f3
:103bb800020070000000060001c022001000200072
:103bc80002082000801878001010b0000201e900f7
:103bd800fcff3a0000000600ce10e20002003200ae
:103be800ce30ed000000060000012000708688003d
:103bf80060868000000601000200370012003700ce
:103c080022003700c210af00000006000032ef00ab
:103c180002b2ef00c62e020000000000c410ae0081
:103c280003003700dc30020000000000000006003e
:103c3800d6300200000000007430020000000000ce
:103c4800cc30ec00000006000032ec00d0ac2000c4
:103c58000051210010908800c62e020000000000cc
:103c6800c410ae0003003700dc3002000000000082
:103c7800000006000000000000000000e83002001c
:103c880000000000cc30ec0000000600100020000e
:103c980050868800ce30ef00cc30ef0000000600e0
:103ca800bef0a900beb0a800bed0a9000000200048
:103cb800a0868800410037008005200030898800f0
:103cc800fc11f8002611f900bef0a900beb0a90049
:103cd800bed0a80000002000a0868800370037006a
:103ce800f0ff2f00fc11e300f5ff3a00bef0a8003a
:103cf800beb0a900bed0a90000002000a0868800a0
:103d08002e003700f0ff2f00fc11e3000300320003
:103d1800fc11f8002611f90008003700bef0a900d0
:103d2800beb0a800bed0a90020002000a086880050
:103d380022003700c001200030898800bef0a900a9
:103d4800beb0a900bed0a80020002000a086880030
:103d58001a003700bef0a800beb0a900bed0a90066
:103d680020002000a086880014003700bef0a900bb
:103d7800beb0a800bed0a90010002000a086880010
:103d88000e0037008005200030898800bef0a900a9
:103d9800beb0a900bed0a80010002000a0868800f0
:103da80006003700bef0a800beb0a900bed0a9002a
:103db80010002000a086880000003700c210af0065
:103dc80000000600ce10e20002003200ce30ed0006
:103dd800000006006086800000060100020037002f
:103de8000b003700160037002611f8000012f90002
:103df800c005200010908800d630020000000000a6
:103e0800cc30ec00000a2000708688000000060014
:103e18002611f8000012f900c00520001090880053
:103e2800dc30020000000000cc30ec00000a20006a
:103e380070868800da30ef00d830ef000000060006
:103e48002611f800e010f90000002000d410e3006b
:103e580002003a00c617020000000000100020000f
:103e6800d410e30002003a005018020000000000dd
:103e780020002000d410e30002003a00901902004c
:103e880000000000beb0af0005003700bd10af0055
:103e980019003700bd30af001000370000000600e1
:103ea800bd10af0003003700bd30af000100370080
:103eb800000006001000200060868800c012200064
:103ec800708688002631ec00c00520002611e3002a
:103ed800010031000000060000003700e830020051
:103ee800000000001000200050868800ce30ef004f
:103ef800cc30ef0000000600e230020000000000b5
:103f08001000200050868800ce30ef00cc30ef0043
:103f180000000600c210af0000000600ce10e2004c
:103f280002003200ce30ed00000006000001200043
:103f38007086880060868000000601000300370054
:103f48000c0037001f003700250037005831ef00fc
:103f58005811f8000012f90000102000c0052000d8
:103f680010908800d630020000000000cc30ec0031
:103f780000000600302d020000000000bd10ae0059
:103f880002003700cc30ec00000006005811f800a1
:103f98000012f9000010200010908800dc300200a8
:103fa800000000005831ec00001020005811e30018
:103fb8000100310000000600cc30ec00cc30ec00f1
:103fc80000000600e230020000000000100020009f
:103fd80050868800ce30ef00cc30ef00000006009d
:103fe800e830020000000000100020005086880021
:103ff800ce30ef00cc30ef0000000600200a800031
:10400800200a8000200a8000200a80000028a900d9
:1040180020402000000a880040c8a80040a8a90045
:104028004088a9002028a80000000600600a800037
:10403800600a8000600a8000600a800000a8a90069
:1040480020402000400a880040c8a80040a8a900d5
:104058004088a90020a8a80000000600a00a800047
:10406800a00a8000a00a8000a00a800004a8a90075
:1040780020402000800a880052c8a80052a8a90041
:104088005288a90024a8a80000000600e00a8000c1
:10409800e00a8000e00a8000e00a800004c8a90065
:1040a80020402000c00a88005348a8005328a900cf
:1040b8005308a90024c8a800000006000040a70073
:1040c800030037000030a70004003700060037005f
:1040d80000002a00d20b20000000060000002a0081
:1040e800a21720000000060000002a00128e2000ff
:1040f800000006000021ef0000cc800062200200d2
:1041080000000000200888001208880041c8a800a4
:1041180041a8a9004188a8000068a9002068a80053
:10412800000006000a21ef0060cc80006220020037
:104138000000000090088800720888004448a80021
:104148004428a9004408a8000108a9002108a800db
:104158000000060000032a0080088800000006000e
:104168001421ef00c0cc8000622002000000000093
:10417800f0088800d20888004dc8a8004da8a900fa
:104188004d88a8000368a9002368a800000006005d
:104198001821ef00a0cb8000622002000000000080
:1041a80000098800e20888004e48a8004e28a900a7
:1041b8004e08a8000388a9002388a800000006006c
:1041c80021742000620420007305200082487800d2
:1041d8008348780042c7a90000f02f00c426b60023
:1041e800a0022000c426b700f00f20008e26b600db
:1041f800001020008e26b70000f02f00c626b6005b
:1042080080022000c626b700f00f20008426b600e2
:10421800003020008426b700f00f2000a026b6004a
:10422800500220000080fd00a026b70000f02f00fb
:10423800a226b60000022000a226b70000f02f0038
:104248008226b600000120008226b70000f02f0069
:10425800ae26b600c0022000ae26b700f00f200040
:10426800ae26b600700720000080fd00ae26b7001d
:1042780000f02f00b026b600f0022000b026b700ec
:10428800f00f2000b026b600900120000080fd004d
:10429800b026b700217420006204200073052000b6
:1042a800824878008348780042c7a80000000600ca
:1042b800c228a8004a48a8004a28a9004a08a90014
:1042c8000288a9002288a80000000600c248a800a9
:1042d8004ec8a8004ea8a9004e88a90003a8a900a6
:1042e80023a8a80000000600b0062000e00820006f
:1042f800300220004011880080002800001188004a
:1043080000402000101188004648a9004628a8004f
:104318004608a8000188a9002188a800301180005b
:104328003011800030118000301180000168a90030
:1043380045c8a90045a8a8004588a8000168a900a3
:104348002168a80000000600b0062000e008200050
:1043580030022000c01188008000280080118800e9
:1043680000402000901188004fc8a9004fa8a9005c
:104378004f88a80003e8a90023e8a800b01180002e
:10438800b0118000b0118000b011800003c8a900ee
:104398004f48a9004f28a9004f08a80003c8a90042
:1043a80023c8a80000000600b0118000b0118000ea
:1043b800b0118000b011800003c8a90023c8a9006b
:1043c80000000600b0118000b0118000b01180001c
:1043d800b011800003c8a90023c8a8000000060087
:1043e8001000200004003700700020000200370091
:1043f8007000200000003700317420008207200080
:10440800a30920000300fc00824878008348780054
:1044180043e7b700217420006204200073052000e0
:104428000300fc0082487800834878004207a8000f
:104438000060fe004207af00fdff370000000600e5
:104448004427ef000003200050042000303a880081
:10445800000020004427b700000020004427b700d0
:10446800000020004427b700000000000000000002
:104478000000000000712200fe340200000000006d
:1044880000000000000000000000000010002000f4
:10449800002202000000000000002000403a8800ce
:1044a800000006000060fe00b00a2000201188000d
:1044b80000712200fe34020000000000f9ff3700fe
:1044c80040002000a0858800f0012000d0908800de
:1044d800f0012000e0908800f0002000f0908800b3
:1044e800b4b9ef000000060004eea80000eea90031
:1044f80015cea80011cea90011eea80064cea80020
:1045080060cea90060eea800650ea800610ea900a3
:10451800652ea900612ea900058ea800018ea900ac
:10452800056ea900016ea800040ea800000ea900df
:10453800042ea900002ea900142ea800102ea900f0
:10454800100ea800240ea900200ea900242ea900f0
:10455800202ea900244ea900204ea900256ea900ee
:10456800216ea900458ea900418ea90045aea9007b
:1045780041aea90041cea80045eea90041eea80031
:10458800050ea900010ea800148ea900108ea9001e
:10459800048ea800008ea900012ea800246ea90090
:1045a800206ea900248ea900208ea90024aea9009f
:1045b80020aea900350ea900310ea90014aea9003d
:1045c80010aea80014cea90010cea800254ea90050
:1045d800214ea90014eea80010eea90025aea900ee
:1045e80021aea900110ea800152ea800112ea900b1
:1045f80024cea90020cea90024eea90020eea9000f
:10460800250ea900210ea90034aea90030aea900dc
:1046180034cea90030cea900252ea800212ea9004d
:10462800500ea800542ea800502ea900114ea80024
:10463800156ea800116ea900118ea80015aea8006d
:1046480011aea900054ea800014ea9000000060001
:10465800c310af0003003700c350af000600370097
:1046680000000600c310a900308e8000508e88001c
:104678000100220005003700c350a900408e8000c9
:10468800508e88000128220000003700a18f880082
:1046980031007800023022000200e10004003200fc
:1046a800f2ff2f000200e1000100320000000600c6
:1046b80031007800020020000200e100040032000e
:1046c800f2ff2f000200e1000100320000000600a6
:1046d80031007800b08f880031007800c08f8800e2
:1046e80031007800d08f8800d08f80000080fd00d6
:1046f800f00fb2006000e10002003a00e623040077
:10470800000000007000e10002003a00fc240400f0
:1047180000000000e000e10002003a0092240400da
:1047280000000000f000e10002003a006a240400e2
:1047380000000000f100e10002003a0074240400c7
:1047480000000000f200e10002003a007e240400ac
:1047580000000000f300e10002003a008824040091
:1047680000000000f400e10002003a00d023040039
:1047780000000000f500e10002003a00de2304001a
:10478800000000007001e10002003a005224040019
:104798000000000000000600d08f8000f00fb2007b
:1047a800408988002a0d020000000000bf30a800e0
:1047b80000000600bf30a9003c0d02000000000008
:1047c80000000600d08f8000f000b2000006010053
:1047d80011003700110037001200370012003700af
:1047e80012003700120037001200370008003700a7
:1047f8000b003700060037000500370004003700bb
:10480800030037000f0037000200370000003700b0
:104818000000060000000600000006000000060078
:104828000000060000000600000006000000060068
:104838000000060010002000ce30ef0050868800ef
:1048480000000600f831ed00f831ed008001eb00c2
:104858003102780003006a00f00fb2000c003a0041
:104868008301e8000480fd0003006a00f00fb20035
:1048780007003a008301e800c08f80000018e100bb
:10488800f3ff3900d63002000000000000000600e7
:10489800003102000000000000000600f831ed00c1
:1048a800f831ed00a18f880000002500fa11e3001f
:1048b800010032000000060040002000908f8800b0
:1048c800882602000000000000000600d08f80004b
:1048d800f00fb2000000e800708a880000000600af
:1048e800d08f8000f00fb2000000e800808a8800b6
:1048f80000000600d08f8000f00fb2000000e80032
:10490800908a880000000600d08f8000f00fb20067
:104918000000e800a08a880000000600bcd0a900ba
:10492800d08f80007000b200000601000700370039
:104938000b0037000f00370013003700170037004f
:104948001b0037001f0037002400370080002000bc
:1049580050868800ce30ef00cc30ef000000060013
:104968009000200050868800ce30ef00cc30ef0059
:1049780000000600a000200050868800ce30ef001e
:10498800cc30ef0000000600b00020005086880000
:10499800ce30ef00cc30ef0000000600c000200051
:1049a80050868800ce30ef00cc30ef0000000600c3
:1049b800d000200050868800ce30ef00cc30ef00c9
:1049c80000000600f000200050868800bcd0a80037
:1049d800ce30ef00cc30ef000000060000012000d0
:1049e80050868800ce30ef00cc30ef000000060083
:1049f800d08f80007000b200000601003d00370033
:104a0800450037004d0037009a0037002f00370067
:104a180018003700210037000a00370000000600a0
:104a280000000600f0012000308988007000200096
:104a380050868800800c200070868800cc30ef00fb
:104a48000000060031007800e08f8800bc10a90043
:104a5800d6300200000000002631ef007000200070
:104a680050868800800c200070868800cc30ef00cb
:104a780000000600bc10a900d630020000000000ab
:104a88002631ef005000200050868800800c20005e
:104a980070868800cc30ef000000060031007800f6
:104aa800e08f8800bc10a900d6300200000000008a
:104ab8002631ef006000200050868800800c20001e
:104ac80070868800cc30ef0000000600bc10a900fa
:104ad800d6300200000000002631ef004000200020
:104ae80050868800800c200070868800cc30ef004b
:104af80000000600bc10a900d6300200000000002b
:104b08002000200050868800800c200070868800d5
:104b1800cc30ef0000000600bc10a900d63002001f
:104b280000000000300020005086880000012000ae
:104b380070868800cc30ef0000000600bc10a90089
:104b4800a18f8000a100b00031007800409088005b
:104b580031007800509088000a12e20001003a0003
:104b68009630ef00b08480000a12e300060032009d
:104b78000000e8000a12e300030032000000000011
:104b880000000000000000000a12f8009610f9006a
:104b9800409080000a12bc00b28a8800c38a88004c
:104ba8004200a90058b1d70056b1d7002000200014
:104bb8005811e30007003a0000c02a005611e3002c
:104bc80004003a000000000000000000000000009f
:104bd800000000005611f8008010f9005811f80084
:104be8008210f900218488008630ef00218480003b
:104bf8008210f8005811f9008010f8005611f900d9
:104c0800b62c020000000000218480008210f80009
:104c18005811f9008010f8005611f900f02b020025
:104c280000000000bd10ae00090037008630ec001f
:104c3800300020008610e300ecff3900000000007f
:104c480000000000e2300200000000000000060042
:104c58000a12f8000012f900d63002000000000025
:104c6800000000000000000000000000000000003c
:104c780000000600bc10a900a18f8000a100b000b0
:104c8800310078004090880031007800509088000a
:104c9800409080000a12bc00b28a8800c38a88004b
:104ca8004200a90058b1d70056b1d7000a12e20055
:104cb80002003a002231ef002431ef00f02b02000d
:104cc80000000000bd10ae00060037000000000024
:104cd8000000000000000000e230020000000000b8
:104ce800000006000a12f8000012f9000000000097
:104cf800000000000000000000000000d6300200a4
:104d080000000000000006002232ef000060fe00f4
:104d1800a80f0200000000001100780080958800ac
:104d2800f251af00070037000000eb00b0d2af002f
:104d38000000a000b0f2af000010a000f211e300e4
:104d480018003a00b112af00e0260200000000008f
:104d5800b132af00ec26020000000000b152af00f3
:104d6800f826020000000000b172af00042702001c
:104d780000000000b192af00102702000000000000
:104d8800b1b2af001c27020000000000b1d2af0092
:104d98002827020000000000b1f2af00342702000b
:104da800000000002232ec00c00520002212e300bf
:104db800d6ff390000000600c40e02000000000003
:104dc80000002000b0878800d1c022002a003700e8
:104dd800c40e02000000000001c1220010002000e3
:104de800b087880024003700c40e020000000000cd
:104df80031c1220020002000b08788001e00370043
:104e0800c40e02000000000061c122003000200032
:104e1800b087880018003700c40e020000000000a8
:104e280091c1220040002000b0878800120037009e
:104e3800c40e020000000000c1c122005000200082
:104e4800b08788000c003700c40e02000000000084
:104e5800f1c1220060002000b087880006003700fa
:104e6800c40e02000000000021c2220070002000d1
:104e7800b0878800000037001c0a0200000000000c
:104e8800c08f80000080e800a82d0200000000000c
:104e980001c0220031007800f811e30021003a0037
:104ea800a38f80000002eb00810278000500a100ba
:104eb800150078000100a7000080fd00830278003b
:104ec8000500a100150178000300a7000280fd007d
:104ed80002016800f20fb20012003a008100e800f7
:104ee8008301e8000402e800c08f80000020e10090
:104ef800edff3900a80f0200000000001100780043
:104f080002ff2f0000006100b2878000f200b200ab
:104f180000007100800878005c0f020000000000ab
:104f28000000060000000600c330af000300370091
:104f3800c370af000600370000000600c330a900a8
:104f4800e08e8000008f88000150220005003700a5
:104f5800c370a900f08e8000008f880001602200d5
:104f680000003700a18f880031007800c0888800d1
:104f780031007800d088880031007800b08f880030
:104f880031007800c08f880031007800d08f880009
:104f980031007800409088003100780050908800f7
:104fa80031007800609088003100780070908800a7
:104fb80050002900fa11e30002003a0022280400f8
:104fc8000000000060002900fa11e30002003a0026
:104fd800222804000000000070002900fa11e300f4
:104fe80002003a0022280400000000009000290076
:104ff800fa11e30002003a000c2804000000000047
:10500800000000000000000000000600000006008c
:10501800c00520001a11e300010039000000060055
:1050280081872100d08880008100400081004000f5
:10503800200020008008780000000600c00520003d
:105048001a11e300010039000000060081872100e1
:10505800d08880008100400081004000409080009e
:105068000000e80080087800000006000000060044
:10507800000006007f00e100010036000000060085
:10508800000601001f0037001f0037001e00370010
:105098001d0037001c0037001b0037001a003700be
:1050a80019003700190037001800370017003700bb
:1050b80016003700150037001400370013003700ba
:1050c80012003700120037001200370012003700b4
:1050d80012003700120037001100370010003700a7
:1050e8000f0037000e0037000d0037000c003700a6
:1050f8000b0037000a0037000900370008003700a6
:105108000700370000000600000006000000060047
:10511800000006000000060000000600000006006f
:1051280000000600152ea800bcb0ae001300370022
:1051380000027800152ea900248eb600f00fb200e8
:1051480024aeb6000000000000000000152ea800e4
:105158000000000004007800152ea9000080fd0062
:10516800248eb600f00fb20024aeb6000000000096
:1051780000000000152ea80000000600f00fb20085
:1051880000027800152ea90000f02f00242eb6008a
:10519800040078004400de00242eb70000c0fd00a3
:1051a800242eb7000000000000000000152ea80003
:1051b8000000000000f02f00152ea900242eb600d4
:1051c80004007800f000b200242eb70000c0fd00f3
:1051d800242eb7000000000000000000152ea800d3
:1051e80000000600bc90af00ceff3700bc70af00d7
:1051f8000f003700152ea800208688000000eb005d
:10520800152ea900c4f0ae00240ea900c4f0af000a
:10521800240ea80000000000152ea800c4b0d60077
:105228000000e8006800e100f5ff39000000060012
:10523800152ea800208688000000eb00152ea90076
:10524800c4f0ae00248ea900c4f0af00248ea800dc
:105258000000000000000000152ea800c4b0d60011
:105268000000e8006800e100f4ff390000000600d3
:10527800f00f2000202eb700152ea9000000000016
:1052880000000000bcb0ae000f00370010718000b5
:10529800152ea800f00fb2000001780000000000f1
:1052a800152ea90000000000000000001071800009
:1052b800f00fb2000080fd00020070002086880018
:1052c800152ea8000000060010718000f00fb20033
:1052d80000017800152ea800f000b20000c0fd0003
:1052e8003086880000000000152ea9000200780012
:1052f8004400de0000c0fd00408688000000000079
:1053080010718000f00fb20000017800152ea8007f
:10531800f000b200c630b700020078004400de009a
:10532800c830b700408680000080fd00c610b70076
:1053380000000600bc90af00cdff3700bc70af0086
:10534800350037000060fe00152ea800c430ef00bd
:10535800152ea900c4b0d600c410a900222eaf0093
:10536800c410a800152ea800152ea900c4b0d60098
:10537800c410a900222eaf00c410a800152ea80042
:10538800152ea900c4b0d600c410a900222eaf0063
:10539800c410a800152ea800152ea900c4b0d60068
:1053a800c410a900222eaf00c410a800152ea80012
:1053b800152ea900c4b0d600c410a900222eaf0033
:1053c800c410a800152ea800152ea900c4b0d60038
:1053d800c410a900222eaf00c410a800152ea800e2
:1053e800152ea900c4b0d600c410a900222eaf0003
:1053f800c410a800152ea800152ea900c4b0d60008
:10540800c410a900222eaf00c410a800152ea800b1
:1054180020868000000006000060fe00152ea8000f
:10542800c430ef00152ea900c4b0d600c410a900de
:1054380022aeaf00c410a800152ea800152ea90092
:10544800c4b0d600c410a90022aeaf00c410a80092
:10545800152ea800152ea900c4b0d600c410a900a6
:1054680022aeaf00c410a800152ea800152ea90062
:10547800c4b0d600c410a90022aeaf00c410a80062
:10548800152ea800152ea900c4b0d600c410a90076
:1054980022aeaf00c410a800152ea800152ea90032
:1054a800c4b0d600c410a90022aeaf00c410a80032
:1054b800152ea800152ea900c4b0d600c410a90046
:1054c80022aeaf00c410a800152ea800152ea90002
:1054d800c4b0d600c410a90022aeaf00c410a80002
:1054e800152ea8002086800000000600bcb0a90088
:1054f800d82d02000000000000092000f628020054
:1055080000000000008488009e29020000000000be
:10551800108488009e290200000000002084880072
:105528009e29020000000000308488009e290200a5
:105538000000000040848800328680004386800096
:105548009e29020000000000508488000e2e0200f0
:1055580000000000f0fe2e00bc90ae00f00e20000f
:105568008810e3004220af0000000600202c2c0029
:10557800bc90ae00200c20008810e3004220af0051
:105588000000060000000600062b020000000000d4
:105598006e2b0200000000001c2d0200000000001d
:1055a8008030ef008010a900bd10af008010a80067
:1055b800000000000000000000000000bd10af0067
:1055c8007e2b020000000000000000000000000028
:1055d8000000000000000000aa2b020000000000ec
:1055e80000000000000000000000000000000000b3
:1055f80000000000000000000000000000000000a3
:10560800e1ff3700a02f020000000000bc90a900b5
:10561800bcb0a900bc70a900e62e02000000000082
:10562800242f020000000000e62e02000000000007
:10563800242f020000000000bc70a800e62e020023
:1056480000000000242f020000000000e62e0200e7
:1056580000000000242f0200000000007c2f020040
:1056680000000000000006000060fe00062b02009b
:105678000000000000000000000000000000000022
:10568800000000007a2a020000000000000000006c
:10569800000000000000000000000000a02f020031
:1056a80000000000000000000000000000000000f2
:1056b800000000007a2a020000000000000000003c
:1056c800000000000000000000000000e6ff3700b6
:1056d800000006007a2a0200000000004220ae0006
:1056e800fcff370000000000000000000000000080
:1056f8000000060036300200000000000e2f0200f5
:1057080000000000fa2e0200000000000000a700c0
:10571800fcff370036300200000000008230020033
:10572800000000000060fe00fa2e020000000000e9
:105738000000a700fbff3700000000000000000089
:1057480000000000000000000000060001a0220088
:10575800021020008001eb00821878001010200051
:10576800020140008301e800000820000018e10061
:10577800f9ff3900bc70a9005631ef005831ef002d
:1057880001a022005611f8005811f800b62c0200aa
:10579800000000005811f9005611f90001a022007c
:1057a8004e2c020000000000bd10ae0000000000fa
:1057b800bd10af0000000000000000000000000065
:1057c800001020005631b400803e20000835020049
:1057d80000000000eaff3700bd10a900e62e020015
:1057e80000000000d82d020000000000b0002000da
:1057f800f628020000000000c08a8000f628020097
:1058080000000000b08a80000080fd00f628020039
:1058180000000000b08a8000f628020000000000a6
:105828009e2902000000000003c02200bcb0a800ae
:105838009e29020000000000bcb0a900208680005c
:105848008019780031007800c410e30001003200ac
:10585800bd10a8005631ec004220af005831ec00d2
:1058680056d1bf00f1ff3a000e2e020000000000e2
:10587800000000000000000000000600000000001a
:1058880000000000000000000e2e020000000000d2
:105898000000060002c02200bd10a800e62e02008b
:1058a80000000000d82d0200000000003000200099
:1058b800f628020000000000c08a8000f6280200d6
:1058c80000000000b08a80000080fd00f628020079
:1058d80000000000b08a8000f628020000000000e6
:1058e8009e290200000000005611af000400370096
:1058f8002086800000097800110078000600370033
:10590800208680000080fd00120940000281e80026
:10591800310078000080fd00c450e3000b003a001d
:105928005631ec004220af005831ec0056d1bf0090
:10593800ebff3a000e2e020000000000bd10a90087
:105948000000000000000000000006000000000049
:1059580000000000000000000e2e02000000000001
:1059680000000600ea2f02000000000036300200a6
:1059780000000000d82d02000000000020002000d8
:10598800f628020000000000c08a8000f628020005
:1059980000000000b08a80000080fd00f6280200a8
:1059a80000000000b08a8000f62802000000000015
:1059b800bc90af00110037005611af00020037004d
:1059c8001100780003003700310078000080fd00e6
:1059d80000003700f6280200000000005631ec00f5
:1059e8004220af005831ec0056d1bf00f2ff3a0018
:1059f8000e2e0200000000000000060031007800b2
:105a0800bcb0a800f628020000000000bcb0a90045
:105a18005631ec004220af005831ec0056d1bf009f
:105a2800f6ff3a000e2e02000000000000000600fb
:105a38005831ef00302d020000000000bd10af000b
:105a4800000006005831ec00001020005811e30057
:105a5800f8ff390000000600bd10a800e62e02007d
:105a680000000000d82d020000000000b000200057
:105a7800f628020000000000c08a8000f628020014
:105a88000000000000002000f628020000000000ce
:105a980000002000f6280200000000009e290200f5
:105aa800000000005631ef00bc90af000f00370037
:105ab8009e29020000000000f00f2000c450e300ff
:105ac8001b003a005631ec005611e200f8ff3a008c
:105ad800bd10a9000e2e020000000000000000000a
:105ae800000000000000000000000600bcb0a80094
:105af8009e29020000000000bcb0a900f0ff2f00a2
:105b0800c410e3000a003a005631ec005611e200d6
:105b1800f6ff3a00bd10a9000e2e0200000000009a
:105b28000000000000000000000000000000060067
:105b38000e2e02000000000000000000000000001f
:105b4800000000000000060001c0220000017800eb
:105b58004900370001c0220002012000460037003a
:105b680001c02200020220004300370001c02200c9
:105b7800020420004000370001c02200021020006b
:105b88003d00370001c02200022020003a00370003
:105b980001162100220020003700370001162100dd
:105ba8004200200034003700bc90af0012003700dc
:105bb800bc70af0008003700202ea800244ea800b3
:105bc800204ea900246ea800206ea900252ea90049
:105bd80015aea8000000060020aea80024cea8003c
:105be80020cea90024eea80020eea90015aea90039
:105bf800252ea80000000600801f780000f02f0066
:105c0800202eb600252ea90015aea9004f00780059
:105c180000000600bc90af000e003700bc70af005b
:105c280006003700252ea800200ea900202ea90066
:105c3800204ea900206ea9000000060015aea8009d
